:020000040800F2
:10000000000002202D2900089528000897280008E4
:10001000992800089B2800089D280008000000007F
:100020000000000000000000000000001161000856
:100030009F28000800000000A1610008A128000816
:100040007D2900087D2900087D2900087D290008F8
:100050007D2900087D2900087D2900087D290008E8
:100060007D2900087D2900087D2900087D290008D8
:100070007D2900087D2900087D2900087D290008C8
:100080007D2900087D2900087D2900087D290008B8
:100090007D2900087D2900087D290008B92800086D
:1000A0007D2900087D2900087D2900087D29000898
:1000B0007D2900087D290008C12800087D29000845
:1000C0007D2900087D2900087D2900087D29000878
:1000D0007D2900087D2900087D290008CD28000819
:1000E0007D2900087D2900087D2900087D29000858
:1000F0007D2900087D2900087D2900087D29000848
:100100007D2900087D2900087D2900087D29000837
:100110007D2900087D2900087D2900087D29000827
:100120007D2900087D2900087D2900087D29000817
:100130007D2900087D2900087D2900087D29000807
:100140007D2900087D2900087D2900087D290008F7
:100150007D2900087D2900087D2900087D290008E7
:100160007D2900087D2900087D2900087D290008D7
:100170007D2900087D2900087D2900080000000075
:080180007D2900087D2900081B
:1001900010B5054C237833B9044B13B10448AFF3C1
:1001A00000800123237010BD7400002000000000B7
:1001B000B072000808B5034B1BB103490348AFF305
:1001C000008008BD0000000078000020B072000828
:1001D00001F0FF01102A2BDB10F0070F08D010F8F8
:1001E000013B013A8B422DD010F0070F42B3F6D1FC
:1001F000F0B441EA012141EA014122F007047FF015
:1002000000070023F0E80256083C85EA010586EA6B
:10021000010685FA47F5A3FA87F586FA47F6A5FAA7
:1002200087F68EB9EED1F0BC01F0FF0102F00702B3
:1002300032B110F8013B013A83EA010313B1F8D15E
:100240000020704701387047002D06BF354603383F
:10025000073815F0010F07D1013015F4807F02BF78
:10026000013015F4C03F0130F0BC0138704700BFC9
:1002700070B54FF0FF0C4CF4E06C1CEA11541DBF3C
:100280001CEA135594EA0C0F95EA0C0F00F0DEF807
:100290002C4481EA030621EA4C5123EA4C5350EAEC
:1002A000013518BF52EA033541F4801143F480133D
:1002B00038D0A0FB02CE4FF00005E1FB02E506F0CE
:1002C0000042E0FB03E54FF00006E1FB03569CF023
:1002D000000F18BF4EF0010EA4F1FF04B6F5007F29
:1002E00064F5407404D25FEA4E0E6D4146EB06069B
:1002F00042EAC62141EA55514FEAC52040EA5E5024
:100300004FEACE2EB4F1FD0C88BFBCF5E06F1ED8CD
:10031000BEF1004F08BF5FEA500E50F1000041EB04
:10032000045170BD06F0004646EA010140EA0200B1
:1003300081EA0301B4EB5C04C2BFD4EB0C0541EAD3
:10034000045170BD41F480114FF0000E013C00F3E8
:10035000AB8014F1360FDEBF002001F0004170BD0C
:10036000C4F10004203C35DA0C341BDC04F1140425
:10037000C4F1200500FA05F320FA04F001FA05F2B1
:1003800040EA020001F0004221F0004110EBD3707E
:1003900021FA04F642EB06015EEA430E08BF20EAAA
:1003A000D37070BDC4F10C04C4F1200500FA04F34D
:1003B00020FA05F001FA04F240EA020001F00041DF
:1003C00010EBD37041F100015EEA430E08BF20EA52
:1003D000D37070BDC4F1200500FA05F24EEA020E9A
:1003E00020FA04F301FA05F243EA020321FA04F0C9
:1003F00001F0004121FA04F220EA020000EBD37080
:100400005EEA430E08BF20EAD37070BD94F0000F7F
:100410000FD101F00046400041EB010111F4801FB3
:1004200008BF013CF7D041EA060195F0000F18BF64
:10043000704703F00046520043EB030313F4801FA0
:1004400008BF013DF7D043EA0603704794EA0C0F5A
:100450000CEA135518BF95EA0C0F0CD050EA410670
:1004600018BF52EA4306D1D181EA030101F00041ED
:100470004FF0000070BD50EA410606BF1046194615
:1004800052EA430619D094EA0C0F02D150EA013621
:1004900013D195EA0C0F05D152EA03361CBF104662
:1004A00019460AD181EA030101F0004141F0FE4101
:1004B00041F470014FF0000070BD41F0FE4141F485
:1004C000780170BD81F0004102E000BF83F000437D
:1004D00030B54FEA41044FEA430594EA050F08BFDF
:1004E00090EA020F1FBF54EA000C55EA020C7FEAA3
:1004F000645C7FEA655C00F0E2804FEA5454D4EB20
:100500005555B8BF6D420CDD2C4480EA020281EAE9
:10051000030382EA000083EA010180EA020281EA21
:100520000303362D88BF30BD11F0004F4FEA013173
:100530004FF4801C4CEA113102D0404261EB410182
:1005400013F0004F4FEA03334CEA133302D0524208
:1005500063EB430394EA050F00F0A780A4F10104C4
:10056000D5F1200E0DDB02FA0EFC22FA05F28018FE
:1005700041F1000103FA0EF2801843FA05F35941E4
:100580000EE0A5F120050EF1200E012A03FA0EFC63
:1005900028BF4CF0020C43FA05F3C01851EBE3718D
:1005A00001F0004507D54FF0000EDCF1000C7EEBAA
:1005B00000006EEB0101B1F5801F1BD3B1F5001FE8
:1005C0000CD349085FEA30004FEA3C0C04F1010407
:1005D0004FEA445212F5800F80F09A80BCF1004F30
:1005E00008BF5FEA500C50F1000041EB045141EAB2
:1005F000050130BD5FEA4C0C404141EB0101013C7B
:1006000028BFB1F5801FE9D291F0000F04BF014669
:100610000020B1FA81F308BF2033A3F10B03B3F13B
:1006200020020CDA0C3208DD02F1140CC2F10C02CB
:1006300001FA0CF021FA02F10CE002F11402D8BF29
:10064000C2F1200C01FA02F120FA0CFCDCBF41EAF5
:100650000C019040E41AA2BF01EB0451294330BDC4
:100660006FEA04041F3C1CDA0C340EDC04F11404A1
:10067000C4F1200220FA04F001FA02F340EA030078
:1006800021FA04F345EA030130BDC4F10C04C4F1BE
:10069000200220FA02F001FA04F340EA030029469E
:1006A00030BD21FA04F0294630BD94F0000F83F4E8
:1006B000801306BF81F480110134013D4EE77FEACB
:1006C000645C18BF7FEA655C29D094EA050F08BF17
:1006D00090EA020F05D054EA000C04BF19461046F8
:1006E00030BD91EA030F1EBF0021002030BD5FEA3C
:1006F000545C05D14000494128BF41F0004130BD64
:1007000014F580043CBF01F5801130BD01F00045B7
:1007100045F0FE4141F470014FF0000030BD7FEA2A
:10072000645C1ABF194610467FEA655C1CBF0B4625
:10073000024650EA013406BF52EA033591EA030F3C
:1007400041F4002130BD00BF90F0000F04BF002134
:10075000704730B54FF4806404F132044FF0000567
:100760004FF0000150E700BF90F0000F04BF0021E0
:10077000704730B54FF4806404F1320410F0004546
:1007800048BF40424FF000013EE700BF42004FEA41
:10079000E2014FEA31014FEA02701FBF12F07F43BE
:1007A00093F07F4F81F06051704732F07F4208BF75
:1007B000704793F07F4F04BF41F40021704730B57C
:1007C0004FF4607401F0004521F000411CE700BFC8
:1007D00050EA010208BF704730B54FF000050AE04B
:1007E00050EA010208BF704730B511F0004502D54C
:1007F000404261EB41014FF4806404F132045FEA4E
:10080000915C3FF4D8AE4FF003025FEADC0C18BFF6
:1008100003325FEADC0C18BF033202EBDC02C2F1E8
:10082000200300FA03FC20FA02F001FA03FE40EA7A
:100830000E0021FA02F11444BDE600BF4FEA410266
:1008400012F5001215D211D56FF47873B3EB625222
:1008500012D94FEAC12343F0004343EA505311F049
:10086000004F23FA02F018BF404270474FF00000DB
:10087000704750EA013005D111F0004008BF6FF019
:10088000004070474FF00000704700BF4A0011D28F
:1008900012F5001211D20DD56FF47873B3EB6252DA
:1008A0000ED44FEAC12343F0004343EA505323FAE6
:1008B00002F070474FF00000704750EA013002D15B
:1008C0004FF0FF3070474FF00000704753B94AB9FE
:1008D000002908BF00281CBF4FF0FF314FF0FF3048
:1008E00000F06EB9ADF1080C6DE904CE00F006F829
:1008F000DDF804E0DDE9022304B070472DE9F0479C
:10090000089D04468C46002B40F083808A4217469F
:1009100047D9B2FA82F242B1C2F1200024FA00F0C3
:100920009140974040EA010C94404FEA1748230C4D
:10093000BCFBF8F61FFA87FE08FB16C143EA014329
:1009400006FB0EF1994209D9FB1806F1FF3080F041
:100950001981994240F21681023E3B445B1AA4B2CF
:10096000B3FBF8F008FB103344EA034400FB0EFE2F
:10097000A64509D93C1900F1FF3380F00581A64551
:1009800040F2028102383C4440EA0640A4EB0E04E7
:1009900000261DB1D4400023C5E900433146BDE81F
:1009A000F08702B9FFDEB2FA82F2002A50D1CB1BE7
:1009B0004FEA174E1FFA87F80126B3FBFEFC210C05
:1009C0000EFB1C3341EA034108FB0CF38B4207D9B1
:1009D00079180CF1FF3002D28B4200F2E980844694
:1009E000C91AA3B2B1FBFEF00EFB101143EA014499
:1009F00008FB00F8A04507D93C1900F1FF3302D2EB
:100A0000A04500F2D9801846A4EB080440EA0C4047
:100A1000BFE78B4209D9002D00F0B1800026C5E95F
:100A2000000130463146BDE8F087B3FA83F6002E68
:100A30004AD18B4202D3824200F2B880841A61EB21
:100A4000030101208C46002DA8D0C5E9004CA5E784
:100A5000C2F1200320FA03F6974001FA02F04FEAB0
:100A6000174ED9403043030CB1FBFEF61FFA87F84E
:100A70000EFB161143EA014306FB08F1994204FA02
:100A800002F409D9FB1806F1FF3C80F08D809942F1
:100A900040F28A80023E3B445B1A81B2B3FBFEF017
:100AA0000EFB103341EA034100FB08F38B4207D9E8
:100AB000791800F1FF3C73D28B4271D90238394466
:100AC000CB1A40EA064678E7C6F1200C03FA06F492
:100AD00022FA0CF31C4320FA0CF701FA06F34FEA52
:100AE000144E21FA0CF11F433B0CB1FBFEF91FFA27
:100AF00084F80EFB191143EA014109FB08FA8A4503
:100B000002FA06F200FA06F308D9611809F1FF307B
:100B100048D28A4546D9A9F102092144A1EB0A012C
:100B2000BFB2B1FBFEF00EFB101147EA014700FB1C
:100B300008F8B84507D9E71900F1FF312ED2B845BA
:100B40002CD90238274440EA0940A7EB0807A0FB4C
:100B500002894F45C64649461AD317D05DB1B3EB5B
:100B60000E0267EB010707FA0CFCF2404CEA0202A6
:100B7000F740C5E9002700263146BDE8F0872E463C
:100B800028460BE70646E9E61846FDE64345E5D26A
:100B9000B8EB020E69EB04010138DFE70846D2E743
:100BA00060468DE78146B9E7664675E730464AE715
:100BB000ACF1020C394413E702383C4424E700BF8F
:100BC000704700BF08B51048104C114D0C2103F0C0
:100BD00049FB264622682B689A4201D2236003E033
:100BE0000C4B1B689A42F9D80B4A074B12781B68CA
:100BF000542A16BF094A326812681A64084B1868EA
:100C000004F033F8E6E700BFC04C0020384B00206A
:100C1000904A0020F89B0020544D00200C9C00209E
:100C2000884C002080B51948194C1A4F002103F058
:100C300095FB26462268002A02DA0023236002E0A0
:100C40003B689A42FADC144B104D1B78462B11D1AD
:100C500001221248082102F0A1FA00220F480421C3
:100C600002F09CFA2B6832685A630D4B186803F047
:100C7000FCFFDFE7422B06D100220848082102F0E2
:100C80008DFA0122EAE72B680022EDE7F049002007
:100C9000584D0020744C0020484B002000000240BA
:100CA000704C002080B51948194C1A4F042103F0EC
:100CB00055FB26462268002A02DA0023236002E060
:100CC0003B689A42FADC144B104D1B78462B11D12D
:100CD00001221248102102F061FA00220F4820215F
:100CE00002F05CFA2B6832689A630D4B186803F0C7
:100CF000BCFFDFE7422B06D100220848102102F09A
:100D00004DFA0122EAE72B680022EDE7F0490020C6
:100D1000344B0020744C0020554D00200000024050
:100D2000704C0020F8B5654C654D2DED028B3C21D3
:100D3000204602F0C3FD23689FED628A5F6A01F0DE
:100D400069FE064601F066FE2B68801B9842F9D9C1
:100D500021684A6A0B68B81A80EAE07613F0100F2F
:100D6000A6EBE0764FF6FF7361D0184480EAE0739B
:100D7000A3EBE073544AB34228BF33461360534A8F
:100D80001278012A37D1524AD2ED007A514A07EE41
:100D9000103AD2ED005A504AB8EEC76A67EEA56A1B
:100DA00066EE866A86EE887AD2ED006A37EE267A9B
:100DB00082ED007A494AD2ED006AF5EE406AF1EE22
:100DC00010FA04BF464890ED007A464804BF37EE5B
:100DD000267A82ED007A90ED007A67EE877A67EEE8
:100DE000A57A67EE867A87EE887AD2ED007A77EE7A
:100DF000277AC2ED007A3C4A1278012A12D13B4888
:100E00000268D2B93A4F3E6806F1010CC7F800C03B
:100E1000384F3F68BE4210D1374A12689A42D4BF59
:100E2000026003604F6A01F0F5FD06468AE71A4446
:100E3000D31B002BB8BF5B429CE7304800780028EA
:100E4000F0D1002AEED02E48007846282DD12D482A
:100E500090ED006A2C4890ED007A2C482C4ED0ED95
:100E6000006A2C482C4FD31A07EE903AF8EEE75A56
:100E7000D6ED007A294A3360F8EEE77A136067EE20
:100E8000867A3A68E5EEA67AD0ED006AF8EEE66A70
:100E9000E6EE877AFDEEE77A17EE90CA9444026890
:100EA000C7F800C013440360BCE71D4890ED006A1A
:100EB0001C4890ED007A1C48D0E700BF744D00201C
:100EC000B849002000002543384D00209F4C0020E9
:100ED000C84D0020284B0020D84900208C4C002011
:100EE0006C4C0020D04D00209C4C0020B0490020CC
:100EF000784C0020404B00203C4B0020204C002030
:100F0000484B0020144C0020C44D0020C44B00204E
:100F1000804C00204C4B0020584D00200C4D0020F0
:100F2000AC490020304B0020BC490020F8B5654C8E
:100F3000654D2DED028B3C21204602F0BFFC23685D
:100F40009FED628A5F6A01F065FD064601F062FD71
:100F50002B68801B9842F9D921684A6A0B68B81A35
:100F600080EAE07613F0100FA6EBE0764FF6FF7301
:100F700061D0184480EAE073A3EBE073544AB342B3
:100F800028BF33461360534A1278012A37D1524A98
:100F9000D2ED007A514A07EE103AD2ED005A504A8B
:100FA000B8EEC76A67EEA56A66EE866A86EE887A4C
:100FB000D2ED006A37EE267A82ED007A494AD2ED08
:100FC000006AF5EE406AF1EE10FA04BF464890ED73
:100FD000007A464804BF37EE267A82ED007A90ED1B
:100FE000007A67EE877A67EEA57A67EE867A87EEF3
:100FF000887AD2ED007A77EE277AC2ED007A3C4A01
:101000001278012A12D13B480268D2B93A4F3E68A1
:1010100006F1010CC7F800C0384F3F68BE4210D13E
:10102000374A12689A42D4BF026003604F6A01F0E7
:10103000F1FC06468AE71A44D31B002BB8BF5B427B
:101040009CE7304800780028F0D1002AEED02E48E6
:10105000007846282DD12D4890ED006A2C4890ED5F
:10106000007A2C482C4ED0ED006A2C482C4FD31A15
:1010700007EE903AF8EEE75AD6ED007A294A336047
:10108000F8EEE77A136067EE867A3A68E5EEA67ABC
:10109000D0ED006AF8EEE66AE6EE877AFDEEE77AD2
:1010A00017EE90CA94440268C7F800C01344036066
:1010B000BCE71D4890ED006A1C4890ED007A1C4882
:1010C000D0E700BFC84B0020B849002000002543EE
:1010D0003C4B00209F4C0020C84D0020284B002096
:1010E000C4490020404D00206C4C0020D04D002011
:1010F0009C4C0020B0490020784C0020404B002040
:10110000384D0020204C0020484B0020144C00207B
:10111000C44D0020C44B00205C4D0020BC4D00207D
:10112000344B0020444B0020AC490020304B0020C1
:10113000BC49002008B5054D054C28464FF4806198
:1011400002F031F8206803F090FDF6E7001002404D
:10115000C049002000B595B02C22002109A805F057
:10116000D5FB1422002103A805F0D0FB0023194A67
:101170000193116C41F080511164126C02F08052A5
:101180000192019A144A0293116841F4804111605E
:1011900012680E9302F480420292029A022208928E
:1011A00001201022CDE90B0208A802F02DF801461B
:1011B00008B172B6FEE70F23CDE90330CDE9050093
:1011C000079003A802F0FAF908B172B6FEE715B06D
:1011D0005DF804FB003802400070004070470000DA
:1011E0009FED0D7A00EB810398420BD189B107EE98
:1011F000901AF8EEE77AC7EE276AE6EE800AB0EEBC
:10120000600A7047F0EC017AF8EE677A37EE277AD9
:10121000EAE79FED010A7047000000007FB55A4ED3
:101220005A4D002432785A4901A805F077FB002175
:1012300001AA084605F086FA564901A805F08EFB7A
:10124000554B564A1B68126893420EDC14225448D0
:101250005343C118C35C43B1524B1878524B00281A
:1012600018BF194601A805F081FB01AA00210A2038
:1012700005F068FA4D4B4E48D3ED000A4D4B93ED07
:10128000000A4D4B1968FFF7ABFF10EE100AFFF78D
:101290007DFA2B462246FFF71BF9FFF7CFFA4749A5
:1012A000024601A805F03AFB0A2101AA084605F00A
:1012B00049FA434B4348D3ED000A434B93ED000AF0
:1012C000424B1968FFF78CFF10EE100AFFF75EFA29
:1012D0002B462246FFF7FCF8FFF7B0FA3C490246DE
:1012E00001A805F01BFB01AA14210A2005F02AFA27
:1012F000384B1868FFF74AFA2B462246FFF7E8F802
:10130000FFF79CFA3449024601A805F007FB01AA41
:101310001E210A2005F016FA304B1868FFF736FA3E
:101320002B462246FFF7D4F8FFF788FA2C490246ED
:1013300001A805F0F3FA01AA28210A2005F002FA13
:10134000284BDFED290A19682848B7EE000AFFF795
:1013500047FF10EE100AFFF719FA2B462246FFF757
:10136000B7F8FFF76BFA2249024601A805F0D6FA52
:1013700001AA32210A2005F0E5F905F047F91D4BD5
:10138000186803F072FC4DE79E4C00200000E03F1F
:1013900017730008C8720008904C0020A84900206C
:1013A000D84D0020204C00209C4B0020D449002028
:1013B000DC490020009C00204C4D0020D372000826
:1013C0002C4B0020B04B0020104C0020C8490020BE
:1013D000DC7200088C4C0020E8720008404D0020B0
:1013E000F4720008A04C002000000000604D0020B6
:1013F00000730008304D00200649024600239A423F
:1014000001DC0120704711F8010B0028FAD00133EC
:10141000F5E700BFAC4C00202DE9FF473D4E3746B5
:101420003D493E480A2203F092FB0A20FFF7E4FF01
:1014300001281CD13849032203A805F097FA03A814
:1014400005F028FAB0F57A7F04460BD234483249C9
:10145000142202FB040005F089FA324B1A68A242FA
:10146000B8BF1C602C481422002105F04FFA3378D5
:10147000022B41D1DFF8C080294DD8F800104FF081
:10148000140909FB01510322002403A891F804A0C8
:10149000347005F06BFA244B244903A8BAF1430FCA
:1014A00018BF1946019105F0F5F901990246204847
:1014B00005F034FA1E4919484FF6FF734A4603F007
:1014C00029F9BAF1430F17D1164BC8F800404FF075
:1014D000FF321A6001233B70284614220021013498
:1014E00005F014FAB4F57A7F05F11405F4D1114B27
:1014F000186803F0BAFB93E73B78002BF7D10E4A4C
:101500000849136809688B42DFBF01215B183970F5
:101510001360ECE7C04D0020AC4C0020944A002042
:10152000D84D0020A8490020127300080B73000852
:10153000144D0020D84A0020904C00204F4B1B78BF
:10154000012B3CD0022B65D0002B37D14C4B4D4AA0
:101550001A604D4B4D4A1A604D4A4E494FF0804338
:1015600013604FF07F520A604B490A604B4A136088
:101570004B4B4FF082421A604A4B4B4A1A604B4B1E
:101580004B4A1A604B4B4FF07C521A604A4B4B4A05
:101590001A604B4B4B4A1A604B4B4C4A1A604C4BEF
:1015A0004C4A1A604C4B4D4A1A604D4B4D4A1A60DA
:1015B0004D4B4E4A1A604E4B4E4A1A607047304BA4
:1015C0004D4A1A60304B4D4A1A60314A384900235F
:1015D0001360304A1360304A1360304A1360304A57
:1015E0001360304A1360314A1160324A3249136045
:1015F0004FF07E520A6032490B6033490A60344929
:101600000B6035490A6036490B6037490A60384A31
:10161000136070471A4B3A4A1A601B4B394A1A60DA
:101620001B4A002313601B4A13601B4A13601B4AAA
:1016300013601B4A13601B4A13601C4B4FF081421E
:101640001A601C4B4FF07E521A601B4B2E4A1A60D8
:101650001B4B2E4A1A601C4B2D4A1A601C4B2D4AFC
:101660001A601D4B2C4A1A601D4B2C4A1A601E4BE7
:101670002B4A1A601E4B2B4A9FE700BF9E4C00204E
:10168000D04D00208635553E6C4C0020646D0E3FD9
:10169000AC490020144C0020304B0020C44D0020E9
:1016A000BC490020C44B0020000008417C4C0020B5
:1016B0000000A040504B00208C4A002081FCCF3E0F
:1016C000344D002042E684BF2C4D00209E9CBF3E3E
:1016D000284D00200E744DBFFC9B0020B9BDC73EB5
:1016E000049C002037DDB33F884A002012B7BA3E81
:1016F000CC490020A186813FE19E563ECFCB8D3F55
:101700002080553EEC3B8B3FE59AF43EF2C601400B
:101710003BACD93E318FCC3F2CEAE73E72F16940B9
:10172000907FC33EBEC70340B0F5807F0BD1064912
:101730000B7803220133B3FBF2F202EB42029B1A55
:101740000B70FFF7FBBE70479E4C00202DE9F04761
:101750009CB001F039F9FFF7FDFC1422002113A819
:1017600005F0D4F80024AF4B01941A6BAE48AF4E8D
:1017700042F010021A631A6B02F010020192019AF1
:1017800002941A6B42F004021A631A6B02F004020C
:101790000292029A03941A6B42F001021A631A6BC6
:1017A00002F001020392039A04941A6B42F00802B9
:1017B0001A631A6B02F008020492049A05941A6BD9
:1017C00042F002021A631B6B03F0020305932246E8
:1017D0004FF4BC61059B01F0E1FC954822463C2199
:1017E00001F0DCFC22469348102101F0D7FC0127D0
:1017F0004FF4BC638C4813A9CDE91337CDE91544E8
:1018000001F0F2FB3C23CDE91337894815940223FC
:1018100013A9169301F0E8FB4FF404134FF4807002
:10182000CDE9130313A984481594102501F0DCFBBE
:10183000804813A9CDE91357CDE9154401F0D4FB35
:1018400022460521172001F023FB172001F052FB4F
:101850001C2221460CA8CDE9084405F057F82022A7
:10186000214613A805F052F8DFF8E0C1B4604FF448
:10187000A073C6E900C34FF47A73C6E90334304657
:1018800080237461B36102F0C3F908B172B6FEE758
:10189000CDE9080008A9304602F0E6FD08B172B6AD
:1018A000FEE76023CDE90C30CDE910000E901290D8
:1018B0000C220CA9304602F08FFA08B172B6FEE78E
:1018C000CDE91300CDE9150017904FF400531A909D
:1018D00013A93046189302F005FE044608B172B60B
:1018E000FEE7DFF86C91304600F066FF4FF00A0A21
:1018F0004FF080434FF6FF78032613A94846CDE901
:101900000C44C9E90034C9E90384CDE91364CDE985
:101910001574CDE917A4CDE91974C9F80840C9F8C0
:101920001840CDF86CA002F0CBF908B172B6FEE712
:10193000CDE90C000CA9484602F096FD08B172B63C
:10194000FEE73E4C3E4B2061CDE90C00C4E900307F
:10195000C4E90208CDE91360CDE91570CDE917A0FF
:10196000CDE91970A06113A92046CDF86CA002F052
:10197000A7F908B172B6FEE7CDE90C000CA9204624
:1019800002F072FD044608B172B6FEE72A4601462F
:1019900008A804F0BBFF1C2221460CA8CDE9064490
:1019A00004F0B4FF2022214613A804F0AFFF254D18
:1019B000254BAC60C5E90034284644F29F13C5E9C5
:1019C0000334C5E9054402F0F7F808B172B6FEE742
:1019D0004FF4805308A92846089302F032FB08B15F
:1019E00072B6FEE7174802F013F908B172B6FEE7C7
:1019F000CDE9060006A9134802F036FD024608B1FB
:101A000072B6FEE76023CDE90C30CDE90E00CDE9DA
:101A1000100012900CA90B4802F0DEF9D0B172B69A
:101A2000FEE700BF0038024000100240C04C00201A
:101A30000000024000040240000C0240C84B00209D
:101A400000040040F0490020000401400000014073
:101A5000744D00206A4804220CA902F0BDF908B1B7
:101A600072B6FEE74FF40053CDE91300CDE915003F
:101A700017901A9013A96248189302F033FD034699
:101A800008B172B6FEE75F485F4903614FF4E13287
:101A9000C0E900120C22C0E90233C0E90523C3618A
:101AA00002F00AFE054608B172B6FEE7574C584FE1
:101AB0000146102213A804F029FF564BA560012609
:101AC0002046C4E900352561257684F82050E5627A
:101AD000A762E560E66184F83050666100F0B4FF0B
:101AE00008B172B6FEE70A23159013A92046CDE986
:101AF000133601F029F9054608B172B6FEE7464CE7
:101B00000146102213A804F001FF444BA5602046B3
:101B1000C4E90035C4E90A752561257684F82050AA
:101B2000E560E66184F83050666100F08DFF08B131
:101B300072B6FEE70E23159013A92046CDE91336A1
:101B400001F002F908B172B6FEE7354C102200210F
:101B500013A804F0DBFE334A00230F264FF0FF37B3
:101B60002046CDE90C33C4E90026C4E90373A36021
:101B7000A36102F021F808B172B6FEE74FF480537A
:101B800013A92046139302F05CFA08B172B6FEE77F
:101B9000CDE90C000CA9204602F066FC054608B110
:101BA00072B6FEE7CDE90C000146102213A804F03E
:101BB000ADFE1D4C1D4BA560C4E9003620464FF616
:101BC000FF73C4E90335A56102F04EF808B172B69F
:101BD000FEE7CDE90C000CA9204602F045FC08B157
:101BE00072B6FEE70123CDE9143013901690082257
:101BF000204613A902F088F90446C8B172B6FEE780
:101C0000F0490020944A002000480040244C002065
:101C10000100000F00200140DC4A002000210140AB
:101C2000544B0020000C0040404A002000080040B7
:101C300004F0A8FD724B734A1A60734B734A1A6022
:101C4000734B1C70734B02221A70FFF777FC724BB8
:101C500072494FF07E521A60714A00231360714A34
:101C60001160714A1360714B1C60714B1F60714BA6
:101C700042F228321A60704B42F21C521A606F4BCB
:101C800040F6AC521A606E4B1E606E4B1846142222
:101C9000002104F03BFE01340346B4F57A7F03F1E2
:101CA0001403F3D1684B694801221A7000211422F1
:101CB00004F02CFE14220021654804F027FE654A3A
:101CC000654800231370654A1370654A1370654AAE
:101CD0001370654A1370654A1370654A4A21116092
:101CE000644A32211160644A6D211160634A64497B
:101CF0001360644A1360644A1360644A0524013C1B
:101D000040F8043B41F8043B42F8043BF7D1604BF8
:101D10004FF4FA621A605F4A012313605E4A192188
:101D200011605E4AC82111605D4A40F6B831116009
:101D30005C4A13605C4A0A2313605C4A13605C4B84
:101D40004FF42F721A605B4B32221A6002F018FFB8
:101D5000594A5A48214602F03FFF594B594A1860E8
:101D60002146594802F038FF584B594A186021461D
:101D7000584802F031FF584B584A186021465848DD
:101D800002F02AFF574B584A18602146574802F084
:101D900023FF574B574A18602146574802F01CFF53
:101DA000564B574A18602146564802F015FF564BCD
:101DB000564A18602146564802F00EFF554B564AC7
:101DC00018602146554802F007FF554B554A1860E8
:101DD0002146554802F000FF544B554A18602146F1
:101DE000544802F0F9FE544B544A186021465448B6
:101DF00002F0F2FE534B186002F0D4FEFEE700BF83
:101E0000C84D0020DB0F4940284B00206666564035
:101E10009D4C00209E4C0020009C0020287E8C3C85
:101E2000D4490020104C00202C4B0020904C002066
:101E3000A8490020384A0020744C0020184C00208B
:101E4000404B0020D84D0020C04D0020AC4C00205D
:101E5000144D0020484B0020604D0020554D0020BF
:101E60009F4C00209C4C0020204C0020544D002012
:101E70000C9C0020904A0020F89B0020A04C0020E1
:101E8000DC4900204C4D0020C8490020B04B002008
:101E9000084D0020A84C0020B8490020844C0020A8
:101EA000C0490020704C0020304D0020D84A00204E
:101EB000884C0020D44D0020B87400081D12000882
:101EC0001C4C00202874000805240008504D0020F8
:101ED000DC74000819140008444D00200075000847
:101EE000C50B0008D049002070740008250C0008BC
:101EF000CC4D002094740008A50C0008484D00202B
:101F0000E0730008250D0008104D0020047400083F
:101F10002D0F0008244B0020BC730008D9220008B4
:101F2000944C0020987300085D2400083C4A00206F
:101F30004C74000835110008B449002024750008CD
:101F40005D1F0008984C0020034B1B6800225A625A
:101F50005A6A8242FCD37047544B002008B50821CE
:101F60000F48104C0E4D02F0FBF90F4801F070FCC9
:101F700001221021204601F011F90A20FFF7E4FFA9
:101F800020460022102101F009F92A68D36843F0A5
:101F90000803D360054B186802F067FEE8E700BF4E
:101FA000404A002000040240544B0020D44D002041
:101FB00038B51B4B1B4D00241C701B4B1C601B4B6E
:101FC0001C601B4B1C701B4B1C701B4B1868C0EB20
:101FD000001002F04AFE194B1A68194B1A60194B8F
:101FE0001C70194B1868FEF7AFFB184B4FF03332DB
:101FF000FEF73EF9FEF74AFC02F037FE144B1C7068
:102000002B784BB1134B14491868144B142202FB64
:10201000003004F0ABFC2C70114B02221A7038BD5A
:102020009C4C0020204C0020584D0020344B0020B8
:10203000484B0020554D0020704C00200C9C002087
:10204000384B0020544D0020884C00203333F33FA0
:102050009F4C0020904C00209C4B0020D84D00202D
:10206000C04D002037B5314A03791370304A314DE5
:102070001370314B314C2A781B6823608AB9811D5B
:102080000422684604F072FC684604F003FC07EE84
:10209000900A2B4BF8EEE77AC3ED007A294B1B68C8
:1020A0002360294A29491378002B26D1012010707A
:1020B0002A78002A264A18BF00201070254A13608B
:1020C000254A1360254A1360254A1360254A136088
:1020D000254A1360254A4FF000031360244A0B6021
:1020E0001360244A13600CBF234B244B244A1B6803
:1020F0001360244A136003B030BD114B94ED007A95
:10210000D3ED007A77EEC77A91ED007AF4EEC77AD4
:10211000F1EE10FAEFD8154B93ED007AF4EEC77A92
:10212000F1EE10FAE7D8FFF743FFE4E7484B002051
:10213000554D0020204C0020504B00203C4D0020ED
:10214000089C00207C4C00209F4C00208C4C0020E0
:102150009C4C0020784C0020B0490020804C00208E
:102160005C4D00204C4B0020BC4D0020404D002019
:10217000D8490020C4490020384A0020184C0020CB
:10218000584D0020344B002037B5C11D04460322B2
:1021900001A804F0EBFB01A804F07CFB374B21798C
:1021A0001860374B374D197007EE900A364863793F
:1021B000364A2B704C2903704BD1422B40D1344B03
:1021C000F8EEE77AD3ED006A324B93ED007AA7EE92
:1021D000A67A82ED007AD2ED007AF5EEC07AF1EEC1
:1021E00010FA2BDD4C290CBF2B4B2C4B2C4A1B68B7
:1021F00013602C4B54221A702B4B1868FEF7A4FA6C
:102200002A4B4FF03332FEF733F8FEF73FFB02F074
:102210002CFD14222146264804F0A8FB254B264A13
:102220001B68142101FB032318460422214604F0F5
:102230009DFB2A782149043004F070FB03B030BDC7
:10224000462BC8D11E4BF8EEE77AD3ED006A1D4B42
:10225000BBE75229BFD1422B06D11B4BF8EEE77AE0
:10226000D3ED006A194BB0E7462BB4D1184BF8EE0A
:10227000E77AD3ED006A174BA7E700BFA44C002014
:10228000204C0020484B0020554D0020089C002089
:102290008C4A0020344D0020904A0020F89B0020FA
:1022A000384B0020544D0020884C00203333F33F3E
:1022B0009C4B0020904C0020D84D00201A73000841
:1022C0002C4D0020284D0020FC9B0020049C002069
:1022D000884A0020CC49002008B51B4C1B4D2646DF
:1022E0002378012B22D11A4A2B68126893421DDCF5
:1022F0001848142202FB030212794C2A0CD8412AF6
:102300000CD9423A0A2A09D8DFE802F00B1B080868
:102310000B08080808081500522A0CD001332B605E
:1023200004E0142202FB0300FFF79CFE0A4B18682E
:1023300002F09BFCD4E7142202FB0300FFF724FF0A
:10234000F4E702233370F1E7C04D0020904C0020E9
:10235000A8490020D84D0020A84C0020031D00EB08
:1023600081018B4200D1704753F8042B43F8082CAD
:10237000F7E70000F8B51E4A03689342044611D1FE
:10238000027F042A0ED11B4A1178164659B95962A8
:10239000196A21F420611962196A41F40071196205
:1023A00001231370F8BD144D082101F0E2FA2B68E7
:1023B000042B074603D911480521FFF7CFFF2B68EF
:1023C000052B16BF5A1C04232A600C4A42F82370BE
:1023D00023681A6A22F420621A621A6A1A62084B87
:1023E0001A68D36823F00803D36000233370D9E759
:1023F000000800409D4C0020C8490020B04B002040
:10240000404A002080B5114E114F124D3368042B05
:1024100003D905213846FFF7A1FF284600F0BAFB93
:102420004FF6FF71284600F039FC3468052C18BFC0
:10243000631C284614BF3360042400F082FC064B62
:1024400047F82400186802F010FCDFE74C4D00202C
:10245000DC490020244C0020844C002080B5114E23
:10246000114F124D3368042B03D905213846FFF76D
:1024700075FF284600F08EFB4FF6FF71284600F0EE
:102480000DFC3468052C18BF631C284614BF33604C
:10249000042400F056FC064B47F82400186802F0AC
:1024A000E4FBDFE7A04C0020604D0020DC4A002068
:1024B000084D002082B00E4B00220092596C41F46E
:1024C00080415964596C01F4804100910099019256
:1024D000196C41F0805119641B6C03F08053019317
:1024E000019B0F216FF0010002B000F0D1BC00BFD2
:1024F0000038024010B514228AB0044600210DEBCA
:10250000020004F003FA23681F4A934220D11F4BB4
:1025100000220192596C41F480715964596C01F4A4
:102520008071019101990292196B41F004011963C4
:102530001B6B03F004030293029B012305931448D1
:10254000032305A9CDE9063200F04EFD0AB010BD07
:10255000104A9342FAD10D4B00220392596C41F478
:1025600000715964596C01F400710391039904924C
:10257000196B41F0040119631B6B03F0040304930E
:10258000049B1023DAE700BF00200140003802401E
:1025900000080240002101400268094B9A4282B0C3
:1025A0000BD100230193074B5A6C42F001025A648D
:1025B0005B6C03F001030193019B02B0704700BF05
:1025C000000001400038024070B514228AB0044671
:1025D00000210DEB020004F099F92368B3F1804F5C
:1025E00039D103F50E33002400941A6C2B4842F0C5
:1025F00001021A641A6C02F001020092009A01941E
:102600001A6B42F001021A631A6B02F00102019286
:10261000019A02941A6B42F002021A631B6B03F0D8
:1026200002030293029B02264FF40043012505A9F1
:10263000CDE90536CDE90744099500F0D5FC08231E
:10264000CDE90536CDE907441548099505A900F0FF
:10265000CBFC0AB070BD134A9342FAD1124B0F481B
:1026600000220392196C41F002011964196C01F007
:102670000201039103990492196B41F0010119635E
:102680001B6B03F001030493C021049B0223CDE9DB
:102690000513CDE90722099305A9D8E700000240F8
:1026A00000040240000400400038024010B5044617
:1026B00088B01422002103A804F028F92268184BDE
:1026C0009A422AD103F50C33002401941A6C154860
:1026D00042F004021A641A6C02F004020192019A98
:1026E00002941A6B42F008021A631B6B03F0080392
:1026F00002934FF48042029B03A90223CDE90323F6
:102700000793CDE9054400F06FFC1E202246052109
:1027100000F0BEFB1E2000F0EDFB08B010BD00BFB6
:1027200000080040000C024010B5044688B0142296
:10273000002103A804F0EAF823681B4A93420DD154
:1027400000230093194B1A6C42F008021A641B6CA8
:1027500003F008030093009B08B010BD144A934295
:10276000FAD1124B134800220192596C41F0020138
:102770005964596C01F00201019101990292196B9F
:1027800041F0040119631B6B03F004030293029BE5
:10279000C0210223CDE90313032303A9CDE90522B8
:1027A000079300F021FCD7E7000C004000380240FE
:1027B000000401400008024010B5044686B014220F
:1027C000002101A804F0A2F822680F4B9A4218D108
:1027D0000E4A0F4800230093116B41F01001116362
:1027E000126B02F0100200924FF48041009A022214
:1027F000CDE90112CDE9033301A90123059300F0CE
:10280000F3FB06B010BD00BF0000014000380240DD
:102810000010024010B5044688B01422002103A81D
:1028200004F074F82268194B9A422CD103F5F8335E
:10283000002401941A6C164842F480221A641A6C1F
:1028400002F480220192019A02941A6B42F004026F
:102850001A631B6B059403F0040302934FF4406268
:10286000029B0223CDE9032303210723CDE90613AD
:1028700003A900F0B9FB27202246052100F008FB40
:10288000272000F037FB08B010BD00BF0048004013
:1028900000080240FEE7FEE7FEE7FEE7FEE77047BE
:1028A00008B500F0ABF803F0A1F9012803D0BDE8AA
:1028B000084003F0A7BC08BD4FF4807000F07CBC5A
:1028C000014801F070B800BF404A0020014801F003
:1028D000DDBF00BF944A00200B4B196810B50246BB
:1028E00009B90A491960186809490A4C0244091BC8
:1028F0008A4206D903F0D2FF0C2303604FF0FF3069
:1029000010BD1A60FCE700BF9000002068A0002006
:102910000000022000040000034AD2F8883043F48B
:102920007003C2F88830704700ED00E0DFF834D063
:102930000D480E490E4A002302E0D458C450043317
:10294000C4188C42F9D30B4A0B4C002301E01360EE
:102950000432A242FBD3FFF7DFFF03F0A5FFFEF72F
:10296000F5FE7047000002200000002074000020E7
:102970001C8100087400002064A00020FEE7000015
:1029800038B50E4A0E4B054618784FF47A73B3FBF0
:10299000F0F31068B0FBF3F000F0BAFA044658B94F
:1029A0000F2D09D8024629464FF0FF3000F070FA8B
:1029B000044B20461D6038BD0120FCE700000020CC
:1029C000040000200800002008B50B4B1A6842F4F0
:1029D00000721A601A6842F480621A601A6842F43F
:1029E00080721A60032000F041FA0F20FFF7C8FF41
:1029F000FFF760FD002008BD003C0240034A044B85
:102A000011681B780B441360704700BF109C0020B6
:102A100004000020014B1868704700BF109C002084
:102A200038B50446FFF7F6FF631C1CBF054B1B7847
:102A3000054618BFE418FFF7EDFF431BA342FAD386
:102A400038BD00BF0400002038B50446002800F05F
:102A50009B80056C25B9FFF74DFD656484F83C50FB
:102A6000236CDB0600F18E80236C23F4885323F063
:102A7000020343F002032364444B5A6822F44032B9
:102A80005A605A6861680A435A60236821695A6823
:102A900022F480725A605A6842EA01225A605A68E7
:102AA000A16822F040725A605A680A435A609A68D4
:102AB000E16822F400629A609A680A439A60344995
:102AC000A26A8A4252D0996821F07061996099682F
:102AD0000A439A609A68E16A22F040529A609A68C2
:102AE0000A439A609A6822F002029A609A68217EEC
:102AF00042EA41029A6094F82020002A3ED05A68A7
:102B0000616A42F400625A605A6822F460425A6074
:102B10005A68013942EA41325A60DA6AE16922F4BC
:102B20007002DA62DA6A013942EA0152DA629A68BC
:102B300022F400729A609A6894F8301042EA4122B6
:102B40009A609A68616922F480629A609A680020AB
:102B500042EA81229A606064236C23F0030343F00D
:102B600001032364002384F83C3038BD9A6822F0C6
:102B700070629A609A6822F04052B2E75A6822F472
:102B80000062C9E70120EDE70120EEE700230140E4
:102B90000100000F13B50023019390F83C30012B86
:102BA0006CD00123026880F83C309368D9070CD5BB
:102BB000936813F001031AD1026C42F01002026410
:102BC000426C42F00102426456E093682D4943F0A2
:102BD000010393602C4B1B68B3FBF1F303EB43033E
:102BE0000193019B002BE3D0019B013BF8E7036CB1
:102BF000264C23F4E06323F0010343F48073036461
:102C000053685B0541BF036C23F4405343F4805386
:102C10000364036C13F480531CBF436C23F006035E
:102C200043646FF02201002380F83C3011601849A2
:102C3000486810F01F0019D1A24206D0154B9A42E5
:102C40000DD14B6813F01F0F07D1906810F0405062
:102C500016D1936843F08043936002B010BD0E4BD1
:102C60009A42FAD14B6813F0100FEDE7A24207D158
:102C7000906810F04050ECD01846EEE70220ECE7E8
:102C80000020EAE740420F00000000200020014041
:102C900000230140002101400022014003689A689E
:102CA000520570B504460D460BD59B68DE0508D568
:102CB000036C43F020030364002380F83C300120C0
:102CC00070BDFFF7A7FE064623681A6891070CD56A
:102CD0006FF012021A60226C42F4007222649A6849
:102CE00012F0405F17D00020EAE7681CEDD065B90C
:102CF00023681B6813F00203E6D1226C84F83C3091
:102D000042F0040222640320DAE7FFF783FE801B0F
:102D1000A842EDD8D8E7207E0028E4D1DA6A12F480
:102D2000700F02D09B685A05DDD4236C23F48073A6
:102D30002364236CDB04D6D4236C43F001032364A7
:102D4000BEE70368D86C7047F7B50023019390F88D
:102D50003C30012B66D0012380F83C300D680368BD
:102D60008E68092DACB231D904EB4402DF681E3AFB
:102D70004FF0070C0CFA02FC27EA0C07DF60DF6853
:102D800006FA02F23A43DA604968062901EB810249
:102D90002CD8596B053A1F26964021EA0601596343
:102DA000596B04FA02F20A435A632C4A934207D140
:102DB000122D39D1D2F8043343F48003C2F804331E
:102DC000002380F83C30184603B0F0BD1F6905EBC6
:102DD00045024FF0070C0CFA02FC27EA0C071F61B2
:102DE0001F6906FA02F23A431A61CDE70C294FF047
:102DF0001F010BD81E6B233A914026EA010119638B
:102E0000196B04FA02F20A431A63CEE7DE6A413A0A
:102E1000914026EA0101D962D96A04FA02F20A4312
:102E2000DA62C2E70220CFE7A5F11003012BC7D871
:102E30000B4A5368102D43F400035360C0D1094B73
:102E4000094A1B68B3FBF2F20A2353430193019B27
:102E5000002BB5D0019B013BF8E700BF00200140EB
:102E6000002301400000002040420F000749CA68CB
:102E700022F4E0620302120403F4E063120C134331
:102E800043F0BF6343F40033CB60704700ED00E0D4
:102E9000164B30B5DC68C4F30224C4F10705231DCA
:102EA000042D28BF0425062B4FF0FF338CBF033CB5
:102EB000002403FA05F521EA0501A34022EA0302F2
:102EC000A140002841EA0203ACBF00F16040084A7B
:102ED0004FEA0313B8BF00F00F00DBB2AABF00F542
:102EE0006140135480F8003330BD00BF00ED00E0B6
:102EF00014ED00E0002808DB4209012300F01F0068
:102F000003FA00F0014B43F82200704700E100E0B3
:102F10000138B0F1807F0AD2064B074A5860F02191
:102F200082F823100020072298601A607047012061
:102F3000704700BF10E000E000ED00E070B504460F
:102F4000866DFFF767FD94F83530022B054606D0F5
:102F500080236365002384F83430012070BD23682A
:102F60001A6822F016021A605A6922F080025A6129
:102F7000226C0AB9A26C1AB11A6822F008021A600F
:102F80001A6822F001021A6023681B6813F001031B
:102F90000AD1E16D3F228A40B260012284F83520D7
:102FA00084F834301846D9E7FFF734FD401B052874
:102FB000EAD9202363650320002384F8350084F8D0
:102FC0003430CBE790F83530022B03D080234365B3
:102FD000012070470268052380F83530136823F01C
:102FE00001031360002070472DE9F74FDFF8A89127
:102FF000674A00230D6801249C4004EA050CAC4399
:1030000040F0B1804D6805F003044FEA4308032601
:10301000671E06FA08F6012F6FEA060634D887689D
:1030200007EA060ECF6807FA08F747EA0E07876037
:10303000476827EA0C0EC5F300179F4047EA0E07C2
:103040004760C76807EA060E8F6807FA08F747EA7D
:103050000E07022CC76019D14FEAD30A00EB8A0A87
:1030600003F0070BDAF820704FEA8B0B4FF00F0ECE
:103070000EFA0BFE27EA0E0E0F6907FA0BF747EA66
:103080000E07CAF8207001E0032CDAD1076804FAB1
:1030900008F43E40264315F4403F066063D04FF0ED
:1030A000000ACDF804A0D9F844603A4C46F48046B2
:1030B000C9F84460D9F8446006F480460196019E40
:1030C00023F0030606F1804606F59C3603F0030E56
:1030D000D6F808804FEA8E0E0F2707FA0EF7A042A7
:1030E00028EA070746D004F58064A04244D004F5DE
:1030F0008064A04242D004F58064A04240D004F530
:103100008064A0423ED004F58064A0423CD004F527
:103110008064A0423AD004F58064A0420CBF07242A
:10312000082404FA0EF43C43B46014686FEA0C06F9
:10313000EF0354BF34404CEA040414605468AF03F6
:1031400054BF34404CEA040454609468EF0254BF06
:1031500034404CEA04049460D468AD0254BF344057
:103160004CEA0404D4600133102B7FF443AF03B066
:10317000BDE8F08F5446D4E70124D2E70224D0E71B
:103180000324CEE70424CCE70524CAE70624C8E7D5
:10319000003C014000000240003802400AB1816159
:1031A00070470904FBE7436901EA030221EA0301CE
:1031B00041EA024181617047044A5169014208B500
:1031C00002D05061FEF7B0FA08BD00BF003C0140DC
:1031D000044B01221A60044B82B01B680193019BCF
:1031E00002B0704720000E4200700040044B0022E5
:1031F0001A60044B82B01B680193019B02B07047B8
:1032000020000E42007000402DE9F341044640B317
:103210000368DD0710D4236898075ED423681A0773
:1032200000F1A08023685B0700F1BE80A069002840
:1032300040F01F8100202BE0A64B9A6802F00C02A0
:10324000042A07D09A6802F00C02082A0BD15A68A7
:10325000510208D59F4B1B689A03DCD56368002B8D
:10326000D9D1012014E06268B2F5803F13D11A6809
:1032700042F480321A60FFF7CDFB964E0546336864
:103280009B03C8D4FFF7C6FB401B6428F7D9032073
:1032900002B0BDE8F0818F4DB2F5A02F2B6807D1A9
:1032A00043F480232B602B6843F480332B60E2E7E8
:1032B00023F480332B602B6823F480232B60002AB7
:1032C000D9D1FFF7A7FB06462B689F03A3D5FFF7CD
:1032D000A1FB801B6428F7D9D9E77E4B9A6812F0CE
:1032E0000C0F07D09A6802F00C02082A11D15B6813
:1032F0005E020ED4774B1A68950702D5E268012A60
:10330000AFD11A68216922F0F80242EAC1021A60BC
:1033100084E7E268704BB2B101221A60FFF77AFBD2
:103320006C4D06462B68980707D52B68226923F059
:10333000F80343EAC2032B6070E7FFF76BFB801BC7
:103340000228EFD9A3E71A60FFF764FB614E054638
:10335000336899077FF562AFFFF75CFB401B0228DB
:10336000F6D994E762695D4B7AB101221A60FFF7E2
:1033700051FB584E0546736F9F073FF553AFFFF75C
:1033800049FB401B0228F6D981E71A60FFF742FB90
:10339000504E0546736F98077FF544AFFFF73AFB31
:1033A000401B0228F6D972E74A4B1A6C12F0805281
:1033B00028D101921A6C42F080521A641B6C03F0FF
:1033C00080530193019B0127454D2B68D9051BD5DF
:1033D000A368404D012B27D12B6F43F001032B67CE
:1033E000FFF718FB3B4E054641F28838336F9B07C9
:1033F00039D5002F3FF41AAF364A136C23F08053AF
:10340000136413E70027DFE72B6843F480732B6016
:10341000FFF700FB06462B68DA05D9D4FFF7FAFA66
:10342000801B0228F7D932E7052B04D12B6F43F01C
:1034300004032B67D0E72A6F22F001022A672A6F64
:1034400022F004022A67002BCAD1FFF7E3FA41F207
:10345000883806462B6F9807CBD5FFF7DBFA801B21
:103460004045F7D913E7FFF7D5FA401B4045BDD9D2
:103470000DE7184DAB6803F00C03082B47D0194E2D
:1034800000230228336035D1FFF7C4FA07462B68C2
:10349000990129D4D4E907321343626A43EA8213BB
:1034A000E26A43EA0263A26A5208013A43EA02432B
:1034B0006B6001233360FFF7ADFA064D04462B68BD
:1034C0009A013FF5B7AEFFF7A5FA001B0228F6D91F
:1034D000DDE600BF0038024000004742800E474250
:1034E0000070004060004742FFF794FAC01B0228BA
:1034F000CDD9CCE6FFF78EFA04462B689B017FF509
:1035000099AEFFF787FA001B0228F6D9BFE601281B
:103510003FF4BEAE6B68E26903F4800191427FF430
:10352000A0AE216A03F03F028A427FF49AAE616A3C
:1035300047F6C0721A40B2EB811F7FF492AEA26AC6
:10354000520803F44031013AB1EB024F7FF489AEE7
:10355000E26A03F07063B3EB026F3FF46BAE80E698
:10356000134908B58B6803F00C03042B1CD0082BFF
:103570001CD14A684B68496813F4800314BF0D4896
:103580000D48C1F3881118BF002302F03F02A1FBD0
:103590000001FDF79BF9064B5B68C3F30143013360
:1035A0005B00B0FBF3F008BD0248FCE70248FAE715
:1035B0000038024040787D010024F4002DE9F041FC
:1035C0000D46044610B90120BDE8F081444B1A684D
:1035D00002F007028A4228D3226897072DD4D00729
:1035E00041D43F4B1A6802F00702AA4266D822680B
:1035F00051076CD4130707D53A4A2169936823F41D
:10360000604343EAC1039360FFF7AAFF354B364A94
:103610009B68C3F30313D35CD840344B1860344B1E
:103620001868FFF7ADF90020CEE7CAB21A701B6820
:1036300003F007038B42C6D1CEE72A4B12F0040FEA
:103640001EBF996841F4E0519960160742BF99681E
:1036500041F4604199602349A0688B6823F0F0032E
:1036600003438B60BBE762681E4B012A1CD11B68B9
:1036700013F4003FA7D01B4EB36823F0030313439A
:10368000B360FFF7C7F941F288380746B36862684C
:1036900003F00C03B3EB820FA3D0FFF7BBF9C01B01
:1036A0004045F3D903208FE7911E01291B6802D8FA
:1036B00013F0007FDEE713F0020FDBE7EAB21A70C7
:1036C0001B6803F00703AB427FF47DAF8FE705492A
:1036D000E0688B6823F4E05303438B608AE700BF04
:1036E000003C0240003802404875000800000020FD
:1036F00008000020044B054A9B68C3F38223D35C77
:10370000034A1068D84070470038024058750008D6
:1037100000000020044B054A9B68C3F34233D35C8E
:10372000034A1068D84070470038024058750008B6
:1037300000000020036A23F001030362036A70B5EE
:10374000446882690D6822F073022A438D6823F071
:1037500002032B430E4DA84202D00E4EB04210D1B0
:10376000CE6823F008033343A84223F0040302D0B9
:10377000084DA84205D1D1E9055624F440743543DB
:103780002C43446082614A684263036270BD00BF9B
:103790000000014000040140036A23F480730362C7
:1037A000036A70B54468C2690D6822F073022A4347
:1037B0008D6823F4007343EA0523114DA84203D01A
:1037C00005F58065A84214D1CD6823F4006343EA6F
:1037D00005230B4DA84223F4806303D005F58065D3
:1037E000A84206D1D1E9055624F44054354344EAB1
:1037F00005144460C2614A68C263036270BD00BFC1
:1038000000000140036A23F480530362036A30B569
:103810004468C2690D6822F4E64242EA05228D68D6
:1038200023F4005343EA0533084DA84203D005F5BD
:103830008065A84204D14D6924F4804444EA85148B
:103840004460C2614A680264036230BD0000014006
:1038500090F83D30012B2CD10223174A80F83D30DF
:10386000036893421AD0B3F1804F17D0A2F57C427F
:10387000934213D002F5806293420FD002F580622A
:1038800093420BD002F57842934207D002F5705272
:10389000934203D0A2F59432934204D19A6802F085
:1038A0000702062A03D01A6842F001021A600020BB
:1038B00070470120704700BF0000014030B590F80C
:1038C0003E2090F83F3090F8425090F84340D2B2FA
:1038D000DBB2EDB2E4B2C9B9012A46D1012D46D11D
:1038E000022380F83E3080F8423003681A6A22F0E2
:1038F00001021A621A6A42F001021A62026813682F
:1039000043F0010313600023184630BD042911D190
:10391000012B2AD1012CF7D1022380F83F3080F807
:10392000433003681A6A22F010021A621A6A42F0DF
:103930001002E2E7012A18D1012B18D1012DE3D1A1
:10394000012CE1D1022380F83E3080F83F3080F82E
:10395000423080F8433003681A6A22F001021A628A
:103960001A6A42F001021A62DCE70123CCE713462F
:10397000CAE7082910D004D841B1042909D0002091
:1039800070470C29FBD10368186C70470368586BAB
:1039900070470368986B70470368D86B704770472F
:1039A00070477047704703681A69910710B504465D
:1039B0000ED5DA6892070BD56FF002021A61012268
:1039C00002779B699B0777D0FEF7D4FC002323770F
:1039D00023681A69500710D5DA6851070DD56FF0C2
:1039E00004021A61022222779B6913F4407F204669
:1039F00068D0FEF7BFFC0023237723681A691207FB
:103A00000FD5DA6810070CD56FF008021A6104228E
:103A10002277DB69990720465AD0FEF7ABFC0023DA
:103A2000237723681A69D20610D5DA68D0060DD537
:103A30006FF010021A6108222277DB6913F4407FCD
:103A400020464BD0FEF796FC0023237723681A69A3
:103A5000D10708D5DA68D20705D56FF001021A61DF
:103A60002046FFF79CFF23681A69100608D5DA681C
:103A7000110605D56FF080021A61204600F059FD4D
:103A800023681A69520608D5DA68500605D56FF022
:103A900040021A612046FFF785FF23681A699106E4
:103AA00022D5DA6892061FD56FF0200220461A61EF
:103AB000BDE8104000F03CBDFFF772FF2046FFF765
:103AC00070FF83E7FFF76CFF2046FFF76AFF92E77E
:103AD000FFF766FF2046FFF764FFA0E7FFF760FFF0
:103AE0002046FFF75EFFAFE710BD0000304A0368D5
:103AF000904212D0B0F1804F0FD0A2F57C4290429C
:103B00000BD002F58062904207D002F580629042AD
:103B100003D002F57842904219D14A6823F070032D
:103B20001343234A904229D0B0F1804F26D0A2F50A
:103B30007C42904222D002F5806290421ED002F573
:103B4000806290421AD002F57842904216D0194A0B
:103B5000904213D002F5806290420FD002F580624D
:103B600090420BD0A2F59832904207D002F58062C5
:103B7000904203D002F58062904203D1CA6823F4D8
:103B8000407313434A6923F08003134303608B6837
:103B9000C3620B688362064B984203D003F58063CF
:103BA000984201D10B69036301234361704700BF51
:103BB000000001400040014010B5044630B390F8C9
:103BC0003D3003F0FF021BB980F83C20FEF7ACFD4E
:103BD0000223206884F83D30211DFFF787FF012371
:103BE00084F84630002084F83E3084F83F3084F872
:103BF000403084F8413084F8423084F8433084F80F
:103C0000443084F8453084F83D3010BD0120FCE795
:103C100010B5044630B390F83D3003F0FF021BB9F5
:103C200080F83C20FEF7B8FC0223206884F83D3081
:103C3000211DFFF75BFF012384F84630002084F844
:103C40003E3084F83F3084F8403084F8413084F8C6
:103C5000423084F8433084F8443084F8453084F8A6
:103C60003D3010BD0120FCE710B5044630B390F89C
:103C70003D3003F0FF021BB980F83C20FEF716FD33
:103C80000223206884F83D30211DFFF72FFF012318
:103C900084F84630002084F83E3084F83F3084F8C1
:103CA000403084F8413084F8423084F8433084F85E
:103CB000443084F8453084F83D3010BD0120FCE7E5
:103CC000F8B50D46044600284DD090F83D3003F07D
:103CD000FF021BB980F83C20FEF776FC2146022348
:103CE00084F83D3051F8040B836823F4804323F0BB
:103CF00007038360FFF7FAFE20682B6886688269F5
:103D0000A968076A1E43AB6922F4407222F00302DD
:103D100041EA0323134323F47C422B69E9691B0125
:103D200043EA0123E9680B43296A22F0FC0243EAD3
:103D300001331343696927F0AA026F68866047EA76
:103D40000117836117430123076284F8463000207E
:103D500084F83E3084F83F3084F8423084F84330B1
:103D600084F83D30F8BD0120FCE70000036A23F031
:103D700010030362036A70B5446882690D6822F417
:103D8000E64242EA05228D6823F0200343EA051348
:103D9000104DA84203D005F58065A84214D1CD6826
:103DA00023F0800343EA05130A4DA84223F04003A1
:103DB00003D005F58065A84206D1D1E9055624F463
:103DC0004064354344EA8504446082614A68826302
:103DD000036270BD0000014070B590F83C30012BCB
:103DE0000546144654D00122082C80F83C203ED0D1
:103DF00007D8CCB1042C29D0002385F83C301046DC
:103E000070BD0C2CF8D10068FFF7FCFC2B68096929
:103E1000DA6942F40062DA61DA6922F48062DA6116
:103E2000DA6942EA012231E00068FFF783FC2B687F
:103E300009699A6942F008029A619A6922F00402BB
:103E40009A619A690A439A610022D5E70068FFF7F0
:103E50008DFF2B6809699A6942F400629A619A6938
:103E600022F480629A619A6942EA0122EBE70068D3
:103E7000FFF792FC2B680969DA6942F00802DA61FF
:103E8000DA6922F00402DA61DA690A43DA61DBE70F
:103E90000222B4E770B5046A1A4E24F001040462E9
:103EA000B0428469056A29D0B0F1804F26D0A6F5CA
:103EB0007C46B04222D006F58066B0421ED006F5A0
:103EC0008066B0421AD006F57846B04216D006F5A4
:103ED0007056B04212D0A6F59436B0420ED044F0DF
:103EE00001021B01DBB222F0F0021A4301F00A01C9
:103EF00025F00A0319438261016270BD24F00304B6
:103F00002243EEE700000140F8B590F83C30012B69
:103F100005460C4600F08980012085F83C009AB9DE
:103F2000CB682868D1E90012FFF7B4FF2B68A168BD
:103F30009A6922F00C029A619A690A439A610020F8
:103F4000002385F83C30F8BD042A23D12B681E6A73
:103F500026F01006D1E90027C9681E6298691E6A1A
:103F600020F4407040EA0720090320F4704089B231
:103F70001201014302F0A00226F0A0000243996161
:103F80001A629A69A16822F440629A619A6942EAC7
:103F90000122D3E7082A22D12B681E6A26F48076F4
:103FA000D1E90020C9681E62DF691E6A27F0030795
:103FB0003843090120F0F000C9B21202014302F4B3
:103FC000206226F420600243D9611A62DA69A1688E
:103FD00022F00C02DA61DA690A43DA61AFE70C2AEF
:103FE000AED12B681E6A26F48056D1E90027C96835
:103FF0001E62D8691E6A20F4407040EA0720090357
:1040000020F4704089B21203014302F4204226F4E6
:1040100020400243D9611A62DA69A16822F4406241
:10402000DA61DA6942EA0122D7E702208BE710B5AC
:104030008468114324F47F4441EA032323438360CB
:1040400010BD70B590F83C30012B04464FF00203D0
:1040500000F09180012280F83D3080F83C2000681B
:10406000836823F47F4323F0770383600B68602B1E
:1040700052D033D8402B67D016D8202B0DD00AD879
:1040800033F0100109D0012384F83D30002384F877
:104090003C30104670BD302BF5D1826822F07002A2
:1040A000134343F0070317E0502BECD14A68CE6866
:1040B000016A056A25F001050562836921F00A019C
:1040C00023F0F00343EA06130A4383610262836824
:1040D00023F0700343F05703836011E0B3F5805F72
:1040E0000ED0B3F5005F0DD0702BCCD1CB68D1E9E9
:1040F0000121FFF79CFF2268936843F077039360E8
:104100000022C0E7CB68D1E90121FFF790FF2268C8
:10411000936843F48043F2E74D68CE68016A21F06A
:10412000100101628269036A22F4704223F0A00345
:1041300043EA051342EA063282610362836823F090
:10414000700343F06703C7E74A68CE68016A056AEF
:1041500025F001050562836921F00A0123F0F003CF
:1041600043EA06130A4383610262836823F0700303
:1041700043F04703B0E71A468BE7036A01F01F01DB
:1041800010B501248C4023EA04030362036A8A40C9
:104190001A43026210BD000010B5044629B990F818
:1041A0003E30012B1DD0012032E0042907D190F8C8
:1041B0003F30012BF7D1022380F83F3014E008296B
:1041C00007D190F84030012BEDD1022380F8403028
:1041D0000AE090F84130012BE5D1022380F841300C
:1041E00002E0022380F83E3001222068FFF7C5FF7D
:1041F0002368194A93420CD018498B4209D0B3F175
:10420000804F0DD19A6802F00702062A1FD10020C4
:1042100010BD596C934241F400415964F2D0EEE76D
:104220000F4A9342EED002F580629342EAD002F543
:1042300080629342E6D002F578429342E2D002F5E2
:1042400070529342DED0A2F594329342DAD01A68CB
:1042500042F001021A60DAE7000001400004014068
:1042600000040040FFF798BF10B5044629B990F844
:104270003E30012B2CD0012046E004290BD190F8D0
:104280003F30012BF7D10223026880F83F30D3681A
:1042900043F0040323E008290BD190F84030012BB0
:1042A000E9D10223026880F84030D36843F0080364
:1042B00015E090F84130012BD8B2DCD102230C2953
:1042C00084F8413020D12268D36843F0100306E01F
:1042D0000223026880F83E30D36843F00203D360C3
:1042E00020680122FFF749FF2368194A93420CD046
:1042F00018498B4209D0B3F1804F0DD19A6802F072
:104300000702062A1FD1002010BD596C934241F4C8
:1043100000415964F2D0EEE70F4A9342EED002F525
:1043200080629342EAD002F580629342E6D002F5C1
:1043300078429342E2D002F570529342DED0A2F569
:1043400094329342DAD01A6842F001021A60DAE736
:10435000000001400004014000040040FFF784BF5A
:1043600010B50446002943D190F83E3090F8420041
:10437000DBB2012BC0B272D1012870D10223002917
:104380004CD1226884F83E3084F84230D36843F040
:104390000203D36020680122FFF7EFFE2368314A51
:1043A00093421AD0B3F1804F17D0A2F57C429342CA
:1043B00013D002F5806293420FD002F580629342DF
:1043C0000BD002F57842934207D002F57052934227
:1043D00003D0A2F59432934204D19A6802F0070206
:1043E000062A03D01A6842F001021A60002037E062
:1043F000042905D190F83F3090F84300DBB2B8E7CC
:1044000008290BBF90F8403094F8413090F84400F0
:1044100094F845000CBFDBB2DBB2AAE7042908D14F
:10442000226884F83F3084F84330D36843F00403B3
:10443000AFE7082908D1226884F8403084F8443076
:10444000D36843F00803A4E70C2984F8413084F8CA
:10445000453005D12268D36843F0100399E7012065
:1044600010BD00BF0000014030B590F83C30012B7A
:104470004FF0020332D080F83D3003680D685C686D
:104480009A6824F070042C435C60154CA3421AD047
:10449000B3F1804F17D0A4F57C44A34213D004F5A8
:1044A0008064A3420FD004F58064A3420BD004F5CE
:1044B0007844A34207D004F57054A34203D0A4F576
:1044C0009434A34204D1496822F080020A439A60DE
:1044D000012380F83D30002380F83C30184630BD81
:1044E0000000014090F83C30012B1FD0CB688A6857
:1044F00023F4407313434A6823F4806313430A6828
:1045000023F4006313430A6923F4805313434A6975
:1045100023F400531343CA6923F48043134302680E
:104520005364002380F83C301846704702207047DF
:1045300070477047026802F10C0353E8003F23F410
:1045400090730C3242E8003102680029F2D102F186
:10455000140353E8003F23F0010302F1140C4CE86C
:1045600000310029F3D1036B012B0BD102F10C03B5
:1045700053E8003F23F0100302F10C0C4CE800312B
:104580000029F3D1202380F83E30002303637047D5
:104590000268C16838B5136923F440530B431361B3
:1045A000054683680069D168034368690343E86985
:1045B00021F4164121F00C0103430B43D3605369EE
:1045C000A96923F440730B4353611F4B9A4203D0F4
:1045D00003F580639A4224D1FFF79CF8EA69192316
:1045E000B2F5004FA0FB0301D5E900431CD11A46E8
:1045F00092184FF000035B41FCF768F96421B0FBAF
:10460000F1F501FB1503DB003233B3FBF1F303F0EB
:1046100007025B0002EB051203F4F8731344A36076
:1046200038BDFFF767F8D9E79A009B0FFCF74EF902
:104630006422B0FBF2F102FB11031B013233B3FB26
:10464000F2F303EB0113EAE700100140F8B504466A
:104650000E4617461D462268136836EA030301D149
:10466000002028E06B1CF7D025B1FEF7D3F9C01B62
:104670008542F0D2226802F10C0353E8003F23F494
:10468000D0730C3242E8003021680028F2D101F1E9
:10469000140353E8003F23F0010301F1140040E844
:1046A0000032002AF3D1202384F83D3084F83C20E6
:1046B00084F83E300320F8BD10B5044640B390F8AE
:1046C0003D3003F0FF021BB980F83C20FEF7A2F852
:1046D0002268242384F83D30D36823F40053D36048
:1046E0002046FFF755FF23681A6922F490421A61A9
:1046F0005A6922F02A025A61DA6842F40052DA60FA
:1047000000202023206484F83D3084F83E3010BD22
:104710000120FCE7F7B5174690F83D200093202ACA
:1047200004460E4649D1002945D0002F43D090F8C9
:104730003C20012A41D0012280F83C200025212282
:10474000056480F83D20FEF765F9A168009BA78409
:10475000B1F5805F0246E78403D1216909B9354686
:104760000E46002184F83C10E18C89B241B9402109
:104770002046FFF76BFF60B9202384F83D3009E045
:1047800080212046CDE90023FFF760FFDDE900230B
:1047900010B1032003B0F0BD20684EB935F8021BFC
:1047A000C1F308014160E18C013989B2E184DBE7A2
:1047B00016F8011BF6E70120ECE70220EAE7704754
:1047C000704708B5806B0023C385C384FFF7F8FFEB
:1047D00008BD704713B590F83E30222B53D1816845
:1047E000836A0268B1F5805F3DD1016900293DD13E
:1047F0005268C2F3080223F8022BC48D8362013C85
:10480000A4B2C485002C2CD10368DA6822F02002FF
:10481000DA60DA6822F48072DA605A6922F0010202
:104820005A61202380F83E30036B012B036827D1A7
:10483000046303F10C0252E8002F22F0100203F18E
:104840000C0444E800210029F3D11A68D20605D5EA
:1048500001911A6801925B680193019B818DFFF7BA
:10486000B8FF002010E039B9016929B95268D2B205
:104870001A70836A0133C0E7526802F07F02F7E7DB
:10488000FCF7ACFCEDE7022002B010BD036837B5C1
:104890001A68D9685D6912F00F0F044608D19506B1
:1048A00068D58D0666D503B0BDE83040FFF792BFEE
:1048B00005F0010001F4907505435BD0D50705D5DF
:1048C000CB0542BF236C43F001032364550704D595
:1048D00018B1236C43F002032364930704D518B185
:1048E000236C43F004032364150707D501F020036C
:1048F00003431EBF236C43F008032364236C002B87
:1049000032D0900604D58A0602D52046FFF762FF12
:1049100023685B69256C03F0400305F008051D431F
:10492000204623D0FFF706FE226853695B0618D5A0
:1049300002F1140353E8003F23F0400302F1140096
:1049400040E800310029F3D1A06B50B1724B0365F0
:10495000FEF738FB40B1A06B036D03B0BDE83040FB
:1049600018472046FFF72CFF03B030BDFFF728FFA4
:104970002564F9E7206B012840F09180D50640F1CD
:104980008E80C80640F18B80002201921A68019245
:104990005A680192019A5A6955064CD5A16B0A686A
:1049A000526892B2002ADFD0A08D9042DCD9E28515
:1049B000CA69B2F5807F36D003F10C0252E8002FAD
:1049C00022F4807203F10C0040E800210029F3D1A9
:1049D00003F1140252E8002F22F0010203F1140047
:1049E00040E800210029F3D103F1140252E8002F1E
:1049F00022F0400203F1140040E800210029F3D125
:104A0000202284F83E20216303F10C0252E8002F9B
:104A100022F0100203F10C0040E800210029F3D13C
:104A2000A06BFEF78BFAE38DA18DC91A89B22046DF
:104A3000FFF7CFFE98E7E18D8AB2E18D89B20029B8
:104A400092D0A18D891A89B200298DD003F10C0270
:104A500052E8002F22F4907203F10C0545E8002083
:104A60000028F3D103F1140252E8002F22F00102D2
:104A700003F1140545E800200028F3D1202284F832
:104A80003E20206303F10C0252E8002F22F01002B6
:104A900003F10C0545E800200028F3D1C7E7100614
:104AA00028D50D0626D594F83D20212A7FF45CAF49
:104AB000A168226AB1F5805F17D12169A9B932F8DE
:104AC000021BC1F3080159602262E28C013A92B2E2
:104AD000E284002A7FF448AFDA6822F08002DA60CC
:104AE000DA6842F04002DA603EE7511C2162127837
:104AF0005A60EAE750067FF537AF4A067FF534AFD4
:104B0000DA6822F04002DA60202384F83D30204643
:104B1000FFF755FE28E700BFC3470008C28582851E
:104B200022230022026480F83E30036880F83C2093
:104B30008162D96841F48071D960596941F00101FD
:104B40005961D96841F02001D9601046704770B4AE
:104B500090F83E60202E10D161B15AB190F83C40DF
:104B6000012C0AD0012480F83C400024046370BC6E
:104B7000FFF7D4BF012070BC70470220FBE70000A4
:104B8000EFF305832BB9064B186828B901221A6088
:104B900070476FF0050070474FF0FF30704700BF5F
:104BA000F002002010B5EFF305845CB9084B1A68D9
:104BB000012A0AD1074AD47702221A6000F090FD38
:104BC000204610BD6FF00500FBE74FF0FF30F8E71F
:104BD000F002002000ED00E0F0B587B0144600229E
:104BE0000B460592EFF30582D2B9C8B1002C2FD045
:104BF000A569002D08BF1825691E3729AC462BD89A
:104C00006168C90728D466696EB1B208D4E9027E2A
:104C1000216857B1BEF15B0F02D9246904B1EEB926
:104C2000059807B0F0BD8022F0E7BEF1000FF7D184
:104C30002469002CF4D10C4605A9CDE900C192B23B
:104C4000214600F01FFD01281CBF00230593E7E764
:104C50004FF0180C8022EFE71046E2E7CDE901475C
:104C6000009500F0D7FC0590DAE710B5EFF3058466
:104C700024B910B100F090FE204610BD6FF0050081
:104C8000FBE70000034B0360034B0B6080231360C2
:104C9000704700BF9402002094000020034B036083
:104CA000034B0B604FF4807313607047F4060020D1
:104CB000F402002000F108034FF0FF32C0E90223A4
:104CC0004360036100230360704700230361704762
:104CD00043684B609A688A609A685160996003687B
:104CE000086101330360704730B50C68631C0AD15A
:104CF00003695A684A6091608B6059600368086173
:104D00000133036030BD00F1080213465268156894
:104D1000A542FAD9EDE7D0E9011203698A60516032
:104D20005968814208BF5A60002202611A68013A3C
:104D30001A601868704710B5044601F0FBF9A46BBF
:104D400001F01AFAB4FA84F0400910BDF8B515461E
:104D5000026C866B044652B9076847BB806800F056
:104D600055FFA76005460136A6632846F8BD65B91C
:104D7000406801F0BDFD6368226C1344A268636063
:104D80009342F0D323686360EDE7C06801F0B0FDA3
:104D9000226CE36851429B1A2268E36093423EBF53
:104DA000A3685B18E360022D01D116B1013E002516
:104DB000D9E73546D7E7034610B41A6C08466AB1FE
:104DC000DC68996814448C4228BF1968DC6028BFED
:104DD000D960D9685DF8044B01F08ABD5DF8044BD9
:104DE000704770B5044601F0A5F994F8455004F1F8
:104DF00024066DB2002D14DCFF2384F8453001F049
:104E0000BBF901F097F994F8445004F110066DB223
:104E1000002D12DCFF2384F84430BDE8704001F01F
:104E2000ABB9636A002BE7D0304600F04DFE08B105
:104E300000F0D6FE013D6DB2DCE72369002BE9D01E
:104E4000304600F041FE08B100F0CAFE013D6DB2EF
:104E5000DEE7000038B50D46044640B94FF0500378
:104E600083F31188BFF36F8FBFF34F8FFEE701F01D
:104E700061F9D4E90F31226862604B43D0185B1AA4
:104E80001344A060E3600020FF23A06384F8443053
:104E900084F8453095B9236963B104F1100000F03E
:104EA00013FE38B10A4B4FF080521A60BFF34F8F98
:104EB000BFF36F8F01F060F9012038BD04F11000DD
:104EC000FFF7F8FE04F12400FFF7F4FEF2E700BF5D
:104ED00004ED00E013B51C4640B94FF0500383F3D6
:104EE0001188BFF36F8FBFF34F8FFEE743B94FF0C9
:104EF000500383F31188BFF36F8FBFF34F8FFEE72B
:104F00004AB191B94FF0500383F31188BFF36F8F0B
:104F1000BFF34F8FFEE741B14FF0500383F3118889
:104F2000BFF36F8FBFF34F8FFEE750230193019BB9
:104F3000502B08D04FF0500383F31188BFF36F8FCD
:104F4000BFF34F8FFEE7002908BF2246019B226076
:104F50000123C4E90F0184F8463019462046FFF7C3
:104F600079FF9DF8103084F84C30204602B010BD17
:104F70002DE9FF47884601921F46044640B94FF08D
:104F8000500383F31188BFF36F8FBFF34F8FFEE79A
:104F900051B9036C43B14FF0500383F31188BFF351
:104FA0006F8FBFF34F8FFEE7022F0BD1E36B012B07
:104FB00008D04FF0500383F31188BFF36F8FBFF316
:104FC0004F8FFEE700F012FE064650B9019B4BB131
:104FD0004FF0500383F31188BFF36F8FBFF34F8FF0
:104FE000FEE70026DFF8E8A04FF0000937E0019D5A
:104FF0001DB901F0C1F8002050E016B902A800F078
:10500000A7FD01F0B9F800F0AFFB01F093F894F8B8
:105010004430FF2B08BF84F8449094F84530FF2BB0
:1050200008BF84F8459001F0A7F801A902A800F094
:105030009BFD002846D101F07DF8A26BE36B9A42FC
:105040002FD101F099F8019904F1100000F004FD4E
:105050002046FFF7C6FE00F02BFC50B3012601F0FE
:1050600069F8A26BE36B9A4201D3022FBFD13A4693
:1050700041462046FFF76AFE636A1BB104F1240033
:1050800000F022FD38B1124B4FF080521A60BFF38E
:105090004F8FBFF36F8F01F06FF8012004B0BDE8B0
:1050A000F08701F069F82046FFF79BFE00F000FC56
:1050B000D4E74FF08053CAF80030BFF34F8FBFF3EF
:1050C0006F8FCBE72046FFF78CFE00F0F1FB92E7F5
:1050D00004ED00E02DE9F843894690461F4604465A
:1050E00040B94FF0500383F31188BFF36F8FBFF3C4
:1050F0004F8FFEE751B9036C43B14FF0500383F378
:105100001188BFF36F8FBFF34F8FFEE7022F0BD1D4
:10511000E36B012B08D04FF0500383F31188BFF3EA
:105120006F8FBFF34F8FFEE701F020F9EFF3118689
:105130004FF0500383F31188BFF36F8FBFF34F8F8E
:10514000A26BE36B9A4201D3022F23D194F845500E
:10515000A36B6DB23A4649462046FFF7F7FD6B1C3C
:1051600013D1636A0BB901200BE004F1240000F0B5
:10517000ABFC0028F7D0B8F1000FF4D00120C8F83C
:10518000000086F31188BDE8F88301356DB284F81C
:105190004550E8E70020F4E72DE9F04385B00F46DD
:1051A0000192044640B94FF0500383F31188BFF3D6
:1051B0006F8FBFF34F8FFEE751B9036C43B14FF0D0
:1051C000500383F31188BFF36F8FBFF34F8FFEE758
:1051D00000F00CFD064650B9019B4BB14FF0500357
:1051E00083F31188BFF36F8FBFF34F8FFEE7002665
:1051F000DFF8E0904FF000083BE0019D1DB900F0A2
:10520000BBFF002052E016B902A800F0A1FC00F09C
:10521000B3FF00F0A9FA00F08DFF94F84430FF2BA3
:1052200008BF84F8448094F84530FF2B08BF84F809
:10523000458000F0A1FF01A902A800F095FC00281C
:105240003DD12046FFF777FD98B3019904F1240082
:1052500000F002FC2046FFF7C4FD00F029FB38B93E
:105260004FF08053C9F80030BFF34F8FBFF36F8FFB
:10527000012600F05FFFA56B002DBED03946204609
:10528000013DFFF798FDA563236963B104F11000A8
:1052900000F01AFC38B10F4B4FF080521A60BFF388
:1052A0004F8FBFF36F8F00F067FF012005B0BDE89F
:1052B000F0832046FFF795FD00F0FAFAD8E7204684
:1052C000FFF78FFD00F0F4FA2046FFF734FD0028C9
:1052D000CED096E704ED00E030B5074A002352F83F
:1052E000335002EBC3041DB942F83310606030BD87
:1052F0000133082BF3D1FAE7149C002070B5044663
:105300000D46164600F016FF94F84430FF2B04BFFC
:10531000002384F8443094F84530FF2B04BF002369
:1053200084F8453000F028FFA36B2BB9324629469C
:1053300004F1240000F0AAFB2046BDE87040FFF70E
:1053400050BD00002DE9F041044600F0F3FE2F4B64
:105350002F4D1A682F4F01321A602E68002E49D146
:105360002C601B68012B1FD1B84640460136FFF761
:10537000A1FC382E08F11408F7D1DFF8C480264EBE
:105380004046FFF797FC3046FFF794FC2348FFF7B1
:1053900091FC2348FFF78EFC2248FFF78BFC224B41
:1053A000C3F80080214B1E60214A1368013313604B
:1053B000204A63641168E36A14208B4200FB037087
:1053C00004F1040188BF1360FFF782FC00F0D4FEF3
:1053D000194B1B6863B12B68DA6AE36A9A4207D2F9
:1053E000164B4FF080521A60BFF34F8FBFF36F8F91
:1053F000BDE8F081104B1B68002BD5D12B68DA6A11
:10540000E36A9A4298BF2C60CEE700BFBC0B002035
:10541000500700205C070020E40B0020040C002053
:10542000300C00201C0C00205407002058070020DE
:10543000C80B0020CC0B0020180C002004ED00E06D
:10544000D00B0020064A13681968064B19B94FF0B3
:10545000FF321A6070471268D268D2685268F8E763
:1054600054070020F80B00202DE9F047DDE90984FE
:105470004FEA82094A4606460D46206BA5211F4683
:1054800001F044FA226BA9F10409914429F00709BB
:10549000ADB36B1E04F134020F3513F8011F02F88F
:1054A000011B197809B1AB42F7D1002384F84330CE
:1054B000089D372D28BF37254FF0000AE562E564C7
:1054C000201DC4F850A0FFF700FCC5F1380504F119
:1054D0001800FFF7FAFBC4F854A02461A5616462C8
:1054E00084F858A03A463146484600F0FBFD20605B
:1054F000B8F1000F01D0C8F80040BDE8F08784F88B
:105500003450D5E710B590F8593004463BB9006BDC
:1055100001F010F82046BDE8104001F00BB8012B57
:10552000F9D0022B08D04FF0500383F31188BFF35A
:105530006F8FBFF34F8FFEE710BD000080B5DFF81F
:105540005C80124F124C134D236863B9124B1B68D9
:10555000012BF8D94FF08053C8F80030BFF34F8FBC
:10556000BFF36F8FEEE700F0E5FDFB68DE68301DEE
:10557000FFF7D1FB2B68013B2B602368013B2360C5
:1055800000F0FAFD3046FFF7BDFFDDE7300C0020EC
:10559000C00B0020BC0B00205C07002004ED00E0E5
:1055A000F8B5164B164E1D680446306804300F4699
:1055B000FFF7B1FB631C334607D137B1316811489F
:1055C000BDE8F8400431FFF783BB1A682C1954601A
:1055D00007D30D4A10681968BDE8F8400431FFF799
:1055E00083BB0A4A106819680431FFF77DFB084B3A
:1055F0001A68A24288BF1C60F8BD00BF440C00209E
:10560000500700201C0C00205807002054070020E1
:10561000F80B002070B586B0DDE90B5445B94FF0AA
:10562000500383F31188BFF36F8FBFF34F8FFEE7F3
:1056300044B94FF0500383F31188BFF36F8FBFF36A
:105640004F8FFEE75C260596059E5C2E08D04FF036
:10565000500383F31188BFF36F8FBFF34F8FFEE7C3
:105660002563022584F8595004AD01950A9D0294E2
:105670000095059EFFF7F8FE2046FFF763FE0498AD
:1056800006B070BD2DE9F043074685B0900088460E
:105690001646994600F0BCFE0546E8B15C2000F0D5
:1056A000B7FE0446A8B1002380F859300D9B05636E
:1056B00001930C9B0290009332464B46414638467C
:1056C000FFF7D2FE2046FFF73DFE012005B0BDE802
:1056D000F083284600F02EFF4FF0FF30F6E7000081
:1056E00010B588B0002407AA06A905A8CDE905448D
:1056F000FFF7C8FA059B0293069B079A15491648BF
:10570000CDE900432346FFF785FFA8B100F014FB65
:10571000012813D14FF0500383F31188BFF36F8F2B
:10572000BFF34F8F0D4B4FF0FF321A600C4B1860D8
:105730000C4B1C6000F096FD08B010BD0130FBD191
:105740004FF0500383F31188BFF36F8FBFF34F8F78
:10575000FEE700BF607500083D550008F80B00200B
:10576000180C0020440C0020024A13680133136017
:10577000704700BFC40B0020014B1868704700BF82
:10578000440C00203F4B1B682DE9F74F002B73D1D1
:105790003D4B1D6801351D60BDB93C4B1A68126850
:1057A00042B14FF0500383F31188BFF36F8FBFF303
:1057B0004F8FFEE7364A1968106818601160354A45
:1057C000136801331360FFF73DFE334E334F3368E8
:1057D000DFF8D4809D424FF0000411D2D8F8003099
:1057E000DA6A14235343FB58022B2D4B1B6828BF46
:1057F0000124002B18BF0124204603B0BDE8F08F20
:10580000DFF88890DFF8A4A0D9F800301B681BB936
:105810004FF0FF333360E1E7D9F80030DB68D3F8AD
:105820000CB0DBF80420954201D23260D6E70BF1D0
:10583000040108460191FFF76EFADBF82820019970
:1058400022B10BF11800FFF766FA0199DBF82C0082
:10585000DAF800201423904288BFCAF8000003FB46
:105860000070FFF735FAD8F80010DBF82C20CB6A6F
:105870009A4228BF0124C7E70A4A1368013313601C
:105880000024B9E7C40B0020440C0020540700207A
:1058900058070020FC0B0020F80B00205C070020BC
:1058A000480C0020000C002050070020CC0B0020EA
:1058B000F7B5304C236843B94FF0500383F3118898
:1058C000BFF36F8FBFF34F8FFEE700F033FC236809
:1058D000013B236024682CB1002400F04DFC2046DD
:1058E00003B0F0BD244B1B68002BF5D0234D244E94
:1058F000244F1EE0EB68DC6804F11800FFF70BFA98
:10590000211D08460191FFF706FAE36A3268019902
:105910001420934200FB037088BF3360FFF7D8F96F
:10592000194BE26A1B68DB6A9A4202D3174B0122C9
:105930001A602B68002BDDD10CB1FFF783FD144DED
:105940002C6844B1114E0127FFF71CFF00B13760EE
:10595000013CF9D12C600D4B1B68002BBCD00D4BCA
:105960004FF080521A60BFF34F8FBFF36F8F012447
:10597000B3E700BFC40B0020BC0B0020040C0020C8
:10598000CC0B00205C07002050070020480C0020B2
:10599000000C002004ED00E008B540B90E4B4FF0BC
:1059A00080521A60BFF34F8FBFF36F8F08BD0B4B50
:1059B000196841B14FF0500383F31188BFF36F8F23
:1059C000BFF34F8FFEE7FFF7CFFEFFF7E9FDFFF7CD
:1059D0006FFF0028E2D0E9E704ED00E0C40B0020EF
:1059E000184B1A68184BF0B512B101221A60F0BDBD
:1059F000164D1A60164A2B681427164607FB03F14A
:105A0000501854588CB144680831646844600A44A2
:105A1000944204BF62684260142202FB036252682F
:105A2000D1680C4A11602B60E1E743B94FF0500395
:105A300083F31188BFF36F8FBFF34F8FFEE7013BF6
:105A4000DCE700BFC40B0020480C0020CC0B00207A
:105A50005C0700205007002010B50C4640B94FF0FD
:105A6000500383F31188BFF36F8FBFF34F8FFEE7AF
:105A7000054B19681831FFF737F920460121BDE8B9
:105A80001040FFF78DBD00BF5007002038B50D4610
:105A9000144640B94FF0500383F31188BFF36F8F62
:105AA000BFF34F8FFEE7074B19681831FFF710F966
:105AB000002C21460CBF28464FF0FF30BDE838408F
:105AC000FFF76EBD50070020C36813B5DC6844B90A
:105AD0004FF0500383F31188BFF36F8FBFF34F8FE5
