:020000040800F2
:1000000000000220692E0008D12D0008D32D000821
:10001000D52D0008D72D0008D92D000800000000BC
:100020000000000000000000000000001170000847
:10003000DB2D000800000000A1700008DD2D000885
:10004000B92E0008B92E0008B92E0008B92E0008F4
:10005000B92E0008B92E0008B92E0008B92E0008E4
:10006000B92E0008B92E0008B92E0008B92E0008D4
:10007000B92E0008B92E0008B92E0008B92E0008C4
:10008000B92E0008B92E0008B92E0008B92E0008B4
:10009000B92E0008B92E0008B92E0008F52D000869
:1000A000B92E0008B92E0008B92E0008B92E000894
:1000B000B92E0008B92E0008FD2D0008B92E000841
:1000C000B92E0008B92E0008B92E0008B92E000874
:1000D000B92E0008B92E0008B92E0008092E000814
:1000E000B92E0008B92E0008B92E0008B92E000854
:1000F000B92E0008B92E0008B92E0008B92E000844
:10010000B92E0008B92E0008B92E0008B92E000833
:10011000B92E0008B92E0008B92E0008B92E000823
:10012000B92E0008B92E0008B92E0008B92E000813
:10013000B92E0008B92E0008B92E0008B92E000803
:10014000B92E0008B92E0008B92E0008B92E0008F3
:10015000B92E0008B92E0008B92E0008B92E0008E3
:10016000B92E0008B92E0008B92E0008B92E0008D3
:10017000B92E0008B92E0008B92E000800000000B2
:08018000B92E0008B92E000899
:1001900010B5054C237833B9044B13B10448AFF3C1
:1001A00000800123237010BD7800002000000000B3
:1001B0009099000808B5034B1BB103490348AFF3FE
:1001C000008008BD000000007C000020909900081D
:1001D00001F0FF01102A2BDB10F0070F08D010F8F8
:1001E000013B013A8B422DD010F0070F42B3F6D1FC
:1001F000F0B441EA012141EA014122F007047FF015
:1002000000070023F0E80256083C85EA010586EA6B
:10021000010685FA47F5A3FA87F586FA47F6A5FAA7
:1002200087F68EB9EED1F0BC01F0FF0102F00702B3
:1002300032B110F8013B013A83EA010313B1F8D15E
:100240000020704701387047002D06BF354603383F
:10025000073815F0010F07D1013015F4807F02BF78
:10026000013015F4C03F0130F0BC0138704700BFC9
:1002700081F0004102E000BF83F0004330B54FEA57
:1002800041044FEA430594EA050F08BF90EA020FC4
:100290001FBF54EA000C55EA020C7FEA645C7FEA57
:1002A000655C00F0E2804FEA5454D4EB5555B8BF7A
:1002B0006D420CDD2C4480EA020281EA030382EAEB
:1002C000000083EA010180EA020281EA0303362D7D
:1002D00088BF30BD11F0004F4FEA01314FF4801C50
:1002E0004CEA113102D0404261EB410113F0004F62
:1002F0004FEA03334CEA133302D0524263EB430319
:1003000094EA050F00F0A780A4F10104D5F1200EB6
:100310000DDB02FA0EFC22FA05F2801841F1000111
:1003200003FA0EF2801843FA05F359410EE0A5F1E5
:1003300020050EF1200E012A03FA0EFC28BF4CF016
:10034000020C43FA05F3C01851EBE37101F00045CC
:1003500007D54FF0000EDCF1000C7EEB00006EEBD9
:100360000101B1F5801F1BD3B1F5001F0CD3490863
:100370005FEA30004FEA3C0C04F101044FEA4452BA
:1003800012F5800F80F09A80BCF1004F08BF5FEA41
:10039000500C50F1000041EB045141EA050130BD21
:1003A0005FEA4C0C404141EB0101013C28BFB1F533
:1003B000801FE9D291F0000F04BF01460020B1FA7E
:1003C00081F308BF2033A3F10B03B3F120020CDA51
:1003D0000C3208DD02F1140CC2F10C0201FA0CF02F
:1003E00021FA02F10CE002F11402D8BFC2F1200C94
:1003F00001FA02F120FA0CFCDCBF41EA0C0190404A
:10040000E41AA2BF01EB0451294330BD6FEA040492
:100410001F3C1CDA0C340EDC04F11404C4F120027D
:1004200020FA04F001FA02F340EA030021FA04F38F
:1004300045EA030130BDC4F10C04C4F1200220FAE6
:1004400002F001FA04F340EA0300294630BD21FA24
:1004500004F0294630BD94F0000F83F4801306BFEA
:1004600081F480110134013D4EE77FEA645C18BFDE
:100470007FEA655C29D094EA050F08BF90EA020F75
:1004800005D054EA000C04BF1946104630BD91EA6D
:10049000030F1EBF0021002030BD5FEA545C05D170
:1004A0004000494128BF41F0004130BD14F58004AF
:1004B0003CBF01F5801130BD01F0004545F0FE4123
:1004C00041F470014FF0000030BD7FEA645C1ABF58
:1004D000194610467FEA655C1CBF0B46024650EA8F
:1004E000013406BF52EA033591EA030F41F40021BB
:1004F00030BD00BF90F0000F04BF0021704730B541
:100500004FF4806404F132044FF000054FF0000115
:1005100050E700BF90F0000F04BF0021704730B5D6
:100520004FF4806404F1320410F0004548BF4042AB
:100530004FF000013EE700BF42004FEAE2014FEA00
:1005400031014FEA02701FBF12F07F4393F07F4FDB
:1005500081F06051704732F07F4208BF704793F0DE
:100560007F4F04BF41F40021704730B54FF46074F1
:1005700001F0004521F000411CE700BF50EA0102F4
:1005800008BF704730B54FF000050AE050EA01029D
:1005900008BF704730B511F0004502D5404261EB0D
:1005A00041014FF4806404F132045FEA915C3FF44E
:1005B000D8AE4FF003025FEADC0C18BF03325FEAEB
:1005C000DC0C18BF033202EBDC02C2F1200300FA9C
:1005D00003FC20FA02F001FA03FE40EA0E0021FAC1
:1005E00002F11444BDE600BF70B54FF0FF0C4CF4AF
:1005F000E06C1CEA11541DBF1CEA135594EA0C0F61
:1006000095EA0C0F00F0DEF82C4481EA030621EA9B
:100610004C5123EA4C5350EA013518BF52EA0335D6
:1006200041F4801143F4801338D0A0FB02CE4FF088
:100630000005E1FB02E506F00042E0FB03E54FF0B8
:100640000006E1FB03569CF0000F18BF4EF0010EB0
:10065000A4F1FF04B6F5007F64F5407404D25FEAAC
:100660004E0E6D4146EB060642EAC62141EA55515F
:100670004FEAC52040EA5E504FEACE2EB4F1FD0CA1
:1006800088BFBCF5E06F1ED8BEF1004F08BF5FEA1F
:10069000500E50F1000041EB045170BD06F00046D1
:1006A00046EA010140EA020081EA0301B4EB5C047E
:1006B000C2BFD4EB0C0541EA045170BD41F4801176
:1006C0004FF0000E013C00F3AB8014F1360FDEBF9B
:1006D000002001F0004170BDC4F10004203C35DA77
:1006E0000C341BDC04F11404C4F1200500FA05F3FA
:1006F00020FA04F001FA05F240EA020001F000429B
:1007000021F0004110EBD37021FA04F642EB060110
:100710005EEA430E08BF20EAD37070BDC4F10C043A
:10072000C4F1200500FA04F320FA05F001FA04F2FE
:1007300040EA020001F0004110EBD37041F10001EA
:100740005EEA430E08BF20EAD37070BDC4F12005F5
:1007500000FA05F24EEA020E20FA04F301FA05F25D
:1007600043EA020321FA04F001F0004121FA04F205
:1007700020EA020000EBD3705EEA430E08BF20EAD5
:10078000D37070BD94F0000F0FD101F0004640000F
:1007900041EB010111F4801F08BF013CF7D041EA91
:1007A000060195F0000F18BF704703F00046520095
:1007B00043EB030313F4801F08BF013DF7D043EA66
:1007C0000603704794EA0C0F0CEA135518BF95EA1C
:1007D0000C0F0CD050EA410618BF52EA4306D1D1A3
:1007E00081EA030101F000414FF0000070BD50EAC2
:1007F000410606BF1046194652EA430619D094EA4C
:100800000C0F02D150EA013613D195EA0C0F05D135
:1008100052EA03361CBF104619460AD181EA030189
:1008200001F0004141F0FE4141F470014FF0000041
:1008300070BD41F0FE4141F4780170BD70B54FF0DC
:10084000FF0C4CF4E06C1CEA11541DBF1CEA13555C
:1008500094EA0C0F95EA0C0F00F0A7F8A4EB05043E
:1008600081EA030E52EA03354FEA013100F0888035
:100870004FEA03334FF0805545EA131343EA1263FE
:100880004FEA022245EA111545EA10654FEA0026B3
:100890000EF000419D4208BF964244F1FD0404F56C
:1008A000407402D25B084FEA3202B61A65EB0305C8
:1008B0005B084FEA32024FF480104FF4002CB6EB85
:1008C000020E75EB030E22BFB61A754640EA0C0005
:1008D0005B084FEA3202B6EB020E75EB030E22BF45
:1008E000B61A754640EA5C005B084FEA3202B6EB86
:1008F000020E75EB030E22BFB61A754640EA9C0045
:100900005B084FEA3202B6EB020E75EB030E22BF14
:10091000B61A754640EADC0055EA060E18D04FEAD2
:10092000051545EA16754FEA06164FEAC30343EA72
:1009300052734FEAC2025FEA1C1CC0D111F4801F3F
:100940000BD141EA00014FF000004FF0004CB6E738
:1009500011F4801F04BF01430020B4F1FD0C88BFD7
:10096000BCF5E06F3FF6AFAEB5EB030C04BFB6EBE2
:10097000020C5FEA500C50F1000041EB045170BDD5
:100980000EF0004E4EEA113114EB5C04C2BFD4EB02
:100990000C0541EA045170BD41F480114FF0000E86
:1009A000013C90E645EA060E8DE60CEA135594EA02
:1009B0000C0F08BF95EA0C0F3FF43BAF94EA0C0F05
:1009C0000AD150EA01347FF434AF95EA0C0F7FF47A
:1009D00025AF104619462CE795EA0C0F06D152EACE
:1009E00003353FF4FDAE1046194622E750EA4106B2
:1009F00018BF52EA43067FF4C5AE50EA41047FF4C3
:100A00000DAF52EA43057FF4EBAE12E74FF0FF3C27
:100A100006E000BF4FF0010C02E000BF4FF0010CF8
:100A20004DF804CD4FEA410C7FEA6C5C4FEA430C71
:100A300018BF7FEA6C5C1BD001B050EA410C0CBFC0
:100A400052EA430C91EA030F02BF90EA020F002022
:100A5000704710F1000F91EA030F58BF994208BF89
:100A600090422CBFD8176FEAE37040F00100704746
:100A70004FEA410C7FEA6C5C02D150EA013C07D19D
:100A80004FEA430C7FEA6C5CD6D152EA033CD3D0E8
:100A90005DF8040B704700BF8446104662468C46E2
:100AA0001946634600E000BF01B5FFF7B7FF002815
:100AB00048BF10F1000F01BD4DF808EDFFF7F4FF3E
:100AC0000CBF012000205DF808FB00BF4DF808EDC9
:100AD000FFF7EAFF34BF012000205DF808FB00BFEC
:100AE0004DF808EDFFF7E0FF94BF012000205DF80E
:100AF00008FB00BF4DF808EDFFF7CEFF94BF0120C3
:100B000000205DF808FB00BF4DF808EDFFF7C4FFBB
:100B100034BF012000205DF808FB00BF4FEA410C04
:100B20007FEA6C5C02D150EA013C0AD14FEA430CE7
:100B30007FEA6C5C02D152EA033C02D14FF0000024
:100B400070474FF0010070474FEA410212F5001262
:100B500015D211D56FF47873B3EB625212D94FEA04
:100B6000C12343F0004343EA505311F0004F23FAEE
:100B700002F018BF404270474FF00000704750EA43
:100B8000013005D111F0004008BF6FF00040704700
:100B90004FF00000704700BF4FEA4102B2F1E0435E
:100BA00024BFB3F5001CDCF1FE5C0DD901F0004C54
:100BB0004FEAC0024CEA5070B2F1004F40EB8300A4
:100BC00008BF20F00100704711F0804F21D113F1D0
:100BD0003872BCBF01F00040704741F480114FEA09
:100BE0005252C2F11802C2F1200C10FA0CF320FA92
:100BF00002F018BF40F001004FEAC1234FEAD323AF
:100C000003FA0CFC40EA0C0023FA02F34FEA430318
:100C1000CCE77FEA625307D150EA01331EBF4FF0A1
:100C2000FE4040F44000704701F0004040F0FE40BC
:100C300040F40000704700BF53B94AB9002908BF0B
:100C400000281CBF4FF0FF314FF0FF3000F06EB9AD
:100C5000ADF1080C6DE904CE00F006F8DDF804E013
:100C6000DDE9022304B070472DE9F047089D0446F2
:100C70008C46002B40F083808A42174647D9B2FA4F
:100C800082F242B1C2F1200024FA00F09140974074
:100C900040EA010C94404FEA1748230CBCFBF8F6DD
:100CA0001FFA87FE08FB16C143EA014306FB0EF15B
:100CB000994209D9FB1806F1FF3080F01981994259
:100CC00040F21681023E3B445B1AA4B2B3FBF8F03B
:100CD00008FB103344EA034400FB0EFEA64509D985
:100CE0003C1900F1FF3380F00581A64540F20281F6
:100CF00002383C4440EA0640A4EB0E0400261DB135
:100D0000D4400023C5E900433146BDE8F08702B96D
:100D1000FFDEB2FA82F2002A50D1CB1B4FEA174E07
:100D20001FFA87F80126B3FBFEFC210C0EFB1C33D7
:100D300041EA034108FB0CF38B4207D979180CF107
:100D4000FF3002D28B4200F2E9808446C91AA3B276
:100D5000B1FBFEF00EFB101143EA014408FB00F862
:100D6000A04507D93C1900F1FF3302D2A04500F29B
:100D7000D9801846A4EB080440EA0C40BFE78B4238
:100D800009D9002D00F0B1800026C5E900013046E8
:100D90003146BDE8F087B3FA83F6002E4AD18B4284
:100DA00002D3824200F2B880841A61EB0301012071
:100DB0008C46002DA8D0C5E9004CA5E7C2F1200360
:100DC00020FA03F6974001FA02F04FEA174ED94095
:100DD0003043030CB1FBFEF61FFA87F80EFB161129
:100DE00043EA014306FB08F1994204FA02F409D9E7
:100DF000FB1806F1FF3C80F08D80994240F28A801A
:100E0000023E3B445B1A81B2B3FBFEF00EFB103393
:100E100041EA034100FB08F38B4207D9791800F13E
:100E2000FF3C73D28B4271D902383944CB1A40EA65
:100E3000064678E7C6F1200C03FA06F422FA0CF312
:100E40001C4320FA0CF701FA06F34FEA144E21FA7C
:100E50000CF11F433B0CB1FBFEF91FFA84F80EFBAB
:100E6000191143EA014109FB08FA8A4502FA06F220
:100E700000FA06F308D9611809F1FF3048D28A4513
:100E800046D9A9F102092144A1EB0A01BFB2B1FB85
:100E9000FEF00EFB101147EA014700FB08F8B845C9
:100EA00007D9E71900F1FF312ED2B8452CD9023805
:100EB000274440EA0940A7EB0807A0FB02894F45F9
:100EC000C64649461AD317D05DB1B3EB0E0267EBA5
:100ED000010707FA0CFCF2404CEA0202F740C5E9B0
:100EE000002700263146BDE8F0872E4628460BE74E
:100EF0000646E9E61846FDE64345E5D2B8EB020EA4
:100F000069EB04010138DFE70846D2E760468DE768
:100F10008146B9E7664675E730464AE7ACF1020C10
:100F2000394413E702383C4424E700BF704700BF50
:100F300008B51048104C114D0C2104F013F9264649
:100F400022682B689A4201D2236003E00C4B1B6895
:100F50009A42F9D80B4B1B784BB90B4B1B68054ACF
:100F600012681364094B186804F0FFFDE8E7336862
:100F7000F5E700BF384D0020AC4B0020A84A002008
:100F8000749C0020884C00208C9C0020FC4C00208D
:100F900008B5054D054C28464FF4806102F0A7FBCB
:100FA000206804F0E2FDF6E700100240D849002076
:100FB00080B5002129482A4D2A4E04F04FF92748D0
:100FC000042104F04BF9A8462A68002A02DA00231B
:100FD0002B6003E0244B1B689A42F9DC234F3A68EC
:100FE000002A02DA00233B6003E01F4B1B689A4291
:100FF000F9DC1F4C2278A2F146035A425A410821DB
:10100000304602F06FFB2278463A18BF01220421D5
:10101000304602F067FB2278A2F146014A424A417B
:101020003046102102F05EFB2278463A18BF0122BA
:101030002021304602F056FB237863B1D8F8001027
:10104000064A1268516303B13B689363094B186801
:1010500004F08BFDB8E71946F2E700BF084A00200C
:10106000D04D002000000240DC4C0020A84B0020A6
:101070007C9C0020D84C002000B595B02C2200218B
:1010800009A807F0FBF91422002103A807F0F6F9DC
:101090000023194A0193116C41F080511164126CC4
:1010A00002F080520192019A144A0293116841F4AD
:1010B0008041116012680E9302F480420292029AFB
:1010C0000222089201201022CDE90B0208A803F0A9
:1010D0001BF8014608B172B6FEE70F23CDE90330D5
:1010E000CDE90500079003A803F0E8F908B172B64E
:1010F000FEE715B05DF804FB0038024000700040C8
:10110000704700009FED0D7A00EB810398420BD1F0
:1011100089B107EE901AF8EEE77AC7EE276AE6EE95
:10112000800AB0EE600A7047F0EC017AF8EE677A58
:1011300037EE277AEAE79FED010A704700000000CA
:101140000144884201D1012303E010F8013B002B48
:10115000F7D118467047000080B598B09FED5A1A35
:101160009FED5A0A5A4D5B4FF6EE000A0EA806F0A4
:10117000BBFF002606F06EFD30B3684606F0C0FAED
:1011800003A806F0D9FA06A806F0F2FADDED052A62
:101190009DED042ADDED031A9DED021ADDED010A35
:1011A0009DED000A0EA806F0B0FFDDED107A4A4969
:1011B000FDEEE77A09A817EE902A07F067F90A21F1
:1011C00009AA084606F024FE444B29461A7809A8C5
:1011D00007F05CF9002109AA084606F019FE012172
:1011E0003F4802F079FA2946024609A807F04EF96D
:1011F00009AA0A21002006F00BFE3A4B29461A786C
:1012000009A807F043F909AA1421002006F000FEFE
:10121000354909A807F05AF9344B1C68344B1B6850
:101220009C420DDC334B142202FB04340A2120467D
:10123000FFF786FF012803D1214609A807F04EF9E0
:1012400009AA00210A2006F0E3FD2B4B2B491A685E
:1012500009A807F01BF909AA14210A2006F0D8FDF5
:10126000274B1868FFF768F93B463246FFF706F848
:10127000FFF76AFC2349024609A807F007F909AA03
:101280001E210A2006F0C4FD1F4B1868FFF754F911
:101290003B463246FEF7F2FFFFF756FC1B4902467B
:1012A00009A807F0F3F809AA28210A2006F0B0FDE2
:1012B000174A32210A2006F0ABFD06F00DFD154B52
:1012C000186804F052FC55E70000000000007A4462
:1012D000AD9900080000E03FA8990008124D0020D9
:1012E00000100240404E0020B0990008044D00203C
:1012F000BC490020544E0020F84C0020BB99000847
:10130000004D0020C7990008BC4D0020D39900086B
:10131000B04B0020A84D00208B4B1B78012B75D0C3
:10132000022B00F0A780002B40F0A380874B884A57
:101330001A60884B884A1A60DFED887A884B894AA0
:10134000C3ED007A884BDFED896AC3ED007A884BE4
:10135000C3ED007A874BC3ED007A874BC3ED007A6B
:10136000864BC3ED007A864B1A60864B4FF07C5259
:101370001A60854BB7EE007A83ED007A834BC3ED9C
:10138000007A834B83ED007A824B1B78002B824BD3
:1013900018BFF0EE476AC3ED006ADFED806A804B4C
:1013A00018BFF0EE676AC3ED006ADFED7E6A7E4B20
:1013B00018BFF0EE476AC3ED006ADFED7C6A7C4B34
:1013C00018BFF0EE676AC3ED006ADFED7A6A7A4B08
:1013D00018BFF0EE476AC3ED006ADFED786A784B1C
:1013E00018BFF0EE676AC3ED006ADFED766A764BF0
:1013F00008BFB0EE667A83ED007A9FED747A744B85
:1014000008BFF0EE477AC3ED007A2FE04F4B714AE8
:101410001A60504B704A1A60514A524900231360B7
:10142000514A1360524A1360524A1360524A136081
:10143000524A1360524A1160524A534913604FF0A6
:101440007E520A6051490B6051490A6052490A6054
:1014500053490B6054490A6055490B6056490A606C
:1014600057490B6058490A60594A13605B4B822206
:101470001A607047354B5A4A1A60364B594A1A60FF
:10148000DFED367A364BDFED586AC3ED007A364B26
:10149000C3ED007A364BC3ED007A364BC3ED007ACC
:1014A000354BC3ED007A354BC3ED007A344B4FF02A
:1014B00081421A60334BB7EE007A83ED007A324BEB
:1014C00083ED007A314BC3ED007A314B83ED007A26
:1014D000304B1B78002B304B18BFF0EE476AC3ED42
:1014E000006ADFED426A2E4B18BFF0EE676AC3ED6B
:1014F000006ADFED3F6A2C4B18BFF0EE476AC3ED80
:10150000006ADFED3C6A2A4B18BFF0EE676AC3ED54
:10151000006ADFED396A284B18BFF0EE476AC3ED69
:10152000006ADFED366A264B18BFF0EE676AC3ED3E
:10153000006ADFED336A244B08BFB0EE667A83EDB4
:10154000007A9FED307A5AE7124D00204C4E002071
:101550008635553ED44C0020646D0E3F00000000DF
:10156000C04900200000A040804C002081FCCF3EFC
:10157000A44B0020344E0020D4490020304C0020E1
:10158000E04C0020CC4B0020484E0020F04A0020C8
:10159000444E0020404E0020A44A002042E684BF72
:1015A000AC4D00209E9CBF3EA44D00200E744DBF4C
:1015B000A04D0020B9BDC73E789C002037DDB33F69
:1015C000849C002012B7BA3EA04A0020A186813F29
:1015D000E4490020E19E563ECFCB8D3FC849002014
:1015E0002080553EEC3B8B3FE59AF43EF2C601402D
:1015F0003BACD93E318FCC3F2CEAE73E72F16940DB
:10160000907FC33EBEC70340B0F5807F0BD1064933
:101610000B7803220133B3FBF2F202EB42029B1A76
:101620000B70FFF779BE7047124D00200C4B4FF046
:10163000FF3210B51A600B4B00241C600A4B184691
:101640001422002106F01AFF01340346B4F57A7F14
:1016500003F11403F3D1054B01221A7010BD00BF32
:10166000BC490020044D0020544E0020304E002084
:101670002DE9FF47374E384D37460A22294637486D
:1016800004F0E5F90A212846FFF75AFD01281CD18C
:101690000322294603A806F021FF03A806F0B1FEA5
:1016A000B0F57A7F04460BD22D48142202FB0400C9
:1016B000294606F013FF2B4B1A68A242B8BF1C60E4
:1016C00014220021284606F0D9FE3378022B2FD1B0
:1016D000DFF8A0A0224CDAF80020142101FB02421E
:1016E000002392F804903370B9F1430F884601D17A
:1016F000FFF79CFFDAF80010032208FB014103A862
:1017000006F0ECFE184B194903A8B9F1430F18BFB6
:101710001946019106F075FE01990246144806F03B
:10172000B5FE13490D484FF6FF73082203F072FF10
:101730003B784BB90F4A0B49136809688B42DFBFEE
:1017400001215B18397013600B4B186804F00DFA17
:1017500093E700BF304E0020244D0020AC4A00200B
:10176000544E0020BC490020E8990008DF99000889
:101770008C4D0020044D0020F44A00202DE9F04754
:101780009CB001F0BFFBFFF777FC1422002113A8E7
:1017900006F074FE0024B24B01941A6BB148B24EAD
:1017A00042F010021A631A6B02F010020192019AC1
:1017B00002941A6B42F004021A631A6B02F00402DC
:1017C0000292029A03941A6B42F001021A631A6B96
:1017D00002F001020392039A04941A6B42F0080289
:1017E0001A631A6B02F008020492049A05941A6BA9
:1017F00042F002021A631B6B03F0020305932246B8
:101800004FF4BC61059B01F06DFF984822463C21D6
:1018100001F068FF22469648102101F063FF01277E
:101820004FF4BC638F4813A9CDE91337CDE91544B4
:1018300001F078FE3C23CDE913378C481594022340
:1018400013A916934FF4807501F06CFE4FF4041346
:101850008848159413A9CDE9135301F063FE1025B0
:10186000834813A9CDE91357CDE9154401F05AFE79
:101870007C48159413A9CDE9137401F053FE224658
:101880000521172001F0A2FD172001F0D1FD1C2237
:1018900021460CA8CDE9084406F0F0FD202221469F
:1018A00013A806F0EBFDDFF8E0C1B4604FF4A073BD
:1018B000C6E900C34FF47A73C6E903343046802387
:1018C0007461B36103F024F908B172B6FEE7CDE9A3
:1018D000080008A9304603F047FD08B172B6FEE7DC
:1018E0006023CDE90C30CDE910000E9012900C224F
:1018F0000CA9304603F0F0F908B172B6FEE7CDE965
:101900001300CDE9150017904FF400531A9013A956
:101910003046189303F066FD044608B172B6FEE740
:10192000DFF86891304601F0E5F94FF00A0A4FF010
:1019300080434FF6FF78032613A94846CDE90C44AF
:10194000C9E90034C9E90384CDE91364CDE915740C
:10195000CDE917A4CDE91974C9F80840C9F81840B1
:10196000CDF86CA003F02CF908B172B6FEE7CDE912
:101970000C000CA9484603F0F7FC08B172B6FEE76C
:101980003D4C3E4B2061CDE90C00C4E90030C4E978
:101990000208CDE91360CDE91570CDE917A0CDE9B6
:1019A0001970A06113A92046CDF86CA003F008F9C6
:1019B00008B172B6FEE7CDE90C000CA9204603F091
:1019C000D3FC044608B172B6FEE72A46014608A8D1
:1019D00006F054FD1C2221460CA8CDE9064406F071
:1019E0004DFD2022214613A806F048FD244D254B2D
:1019F000AC60C5E90034284644F29F13C5E90334BE
:101A0000C5E9054403F058F808B172B6FEE74FF493
:101A1000805308A92846089303F093FA08B172B6D8
:101A2000FEE7174803F074F808B172B6FEE7CDE997
:101A3000060006A9124803F097FC024608B172B6E8
:101A4000FEE76023CDE90C30CDE90E00CDE91000B2
:101A500012900CA90A4803F03FF9C8B172B6FEE72C
:101A60000038024000100240384D002000000240C3
:101A700000040240000C0240344C002000040040EE
:101A8000084A00200004014000000140E84D002009
:101A9000744804220CA903F01FF908B172B6FEE7DE
:101AA0004FF40053CDE91300CDE9150017901A90BB
:101AB00013A96C48189303F095FC034608B172B65D
:101AC000FEE76948694C03614FF4E132C0E9004226
:101AD0000C22C0E90233C0E90523C36103F06CFDA9
:101AE000054608B172B6FEE7614C624F014610220E
:101AF00013A806F0C3FC604BA56001262046C4E98C
:101B000000352561257684F82050E562A762E560FE
:101B1000E66184F83050666101F034FA08B172B6BB
:101B2000FEE70A23159013A92046CDE9133601F0EC
:101B3000A9FB054608B172B6FEE7504C01461022DB
:101B400013A806F09BFC4E4BA5602046C4E9003567
:101B5000C4E90A752561257684F82050E560E661C0
:101B600084F83050666101F00DFA08B172B6FEE7F4
:101B70000E23159013A92046CDE9133601F082FB00
:101B800008B172B6FEE71022002113A806F076FC19
:101B90003C4C3D4A0F260023C4E9002620464FF066
:101BA000FF32CDE90C33C4E90323A360A36102F043
:101BB00083FF08B172B6FEE74FF4805313A92046A5
:101BC000139303F0BEF908B172B6FEE7CDE90C003D
:101BD0000CA9204603F0C8FB054608B172B6FEE723
:101BE000CDE90C000146102213A806F047FC274C53
:101BF000274BA560C4E9003620464FF6FF73C4E9C1
:101C00000335A56102F0B0FF08B172B6FEE7CDE979
:101C10000C000CA9204603F0A7FB08B172B6FEE742
:101C20000125CDE9145013901690082213A92046DF
:101C300003F0EAF8034608B172B6FEE71548164904
:101C4000164A0362C0E900124FF48042C0E9023331
:101C5000C0E90423C0E9063301F0B8FE0446F8B138
:101C600072B6FEE7084A0020AC4A00200048004057
:101C70008C4C00200100000F00200140F84A002099
:101C800000210140D04B0020000C0040584A0020A9
:101C900000080040404B002000540040A086010096
:101CA00006F0D6F805F0ACFF05F046FE694B6A4A2F
:101CB0001A606A4B6A4A1A606A4B02221A70FFF76E
:101CC0002BFB694B69491C60694B1C60694B4FF0E9
:101CD0007E521A60684A00231360684A1160684A9D
:101CE0001360684A42F228331360674A1360674BF7
:101CF00042F6E0621A60664B40F6E4421A60654BB9
:101D000040F6AC521A60FFF791FC1422214662485B
:101D100006F0B4FB14222146604806F0AFFB604B8E
:101D200060491C70604B61481C70614B1C70614BBA
:101D30001C70614B1C70614B1D7006F0C7FB604B43
:101D400060491C70604B4A221A60604B32221A6054
:101D50005F4B6D221A605F4B5F4A1C605F4B1C60DB
:101D60005F4B1C605F4B0525013D41F8044B42F879
:101D7000044B43F8044BF7D15B4B4FF4FA621A6003
:101D80005A4A012313605A4A1921116059496422A1
:101D90000A60594940F6B830086058490B60584904
:101DA0000A20086057490B6057490B60574B322196
:101DB0001960574B1A60574B4FF42F721A6003F09B
:101DC0005FFE554A5548294603F086FE544B554A56
:101DD00018602946544803F07FFE544B544A18605B
:101DE0002946544803F078FE534B544A186029465C
:101DF000534803F071FE534B534A18602946534829
:101E000003F06AFE524B534A18602946524803F0C9
:101E100063FE524B524A18602946524803F05CFE5A
:101E2000514B524A18602946514803F055FE514B18
:101E3000514A18602946514803F04EFE504B514A12
:101E400018602946504803F047FE504B186003F0D5
:101E500029FEFEE7384E0020DB0F49409C4B002056
:101E600066665640124D0020804D0020287E8C3C36
:101E7000F44C0020809C0020EC4900207C4C002089
:101E8000A04B0020E84C0020984B0020DC4C0020A8
:101E9000C4490020C04D0020244D00208C4D00205E
:101EA000884C0020F29900087C9C0020B04B002058
:101EB000944B0020134D0020104D0020404E002078
:101EC000114D0020D44D00208C9C0020A84A0020F9
:101ED000749C0020144D0020F4490020C84D0020BF
:101EE000E0490020184C0020844D00201C4D0020AB
:101EF000D0490020EC4C0020D8490020D84C0020CC
:101F0000A84D0020F44A0020FC4C0020504E002038
:101F1000E44C0020504A00205C9B00085911000846
:101F2000844C0020F09A0008A9200008CC4D002025
:101F3000809B000871160008C44D0020A49B000877
:101F4000310F0008E8490020A89A0008FD28000881
:101F5000084D0020849A000801210008544A0020FE
:101F6000149B0008910F0008CC490020C89B000872
:101F7000AD1F00080C4D0020389B0008B10F000871
:101F8000C44B0020CC9A0008612300082C4C002090
:101F9000054B19684A6A4B6A9A4288BF03F1FF33BE
:101FA0009B1A8342F7D37047D04B002008B5082115
:101FB0000F48104C0E4D03F053F90F4802F0C8FBC8
:101FC00001221021204601F08DFB0A20FFF7E0FFDF
:101FD00020460022102101F085FB2A68D36843F0D7
:101FE0000803D360054B186803F0BFFDE8E700BFA6
:101FF000584A002000040240D04B0020504E0020E0
:10200000031D00EB81018B4200D1704753F8042B74
:1020100043F8082CF7E70000F8B51E4A036893421E
:10202000044611D1027F042A0ED11B4A11781646AC
:1020300059B95962196A21F420611962196A41F487
:102040000071196201231370F8BD144D082102F0CC
:1020500010FC2B68042B074603D911480521FFF714
:10206000CFFF2B68052B16BF5A1C04232A600C4A8D
:1020700042F8237023681A6A22F420621A621A6AEC
:102080001A62084B1A68D36823F00803D360002350
:102090003370D9E700080040114D0020E0490020CE
:1020A000184C0020584A002080B5114E114F124D97
:1020B0003368042B03D905213846FFF7A1FF2846D2
:1020C00001F006F84FF6FF71284601F085F83468F4
:1020D000052C18BF631C284614BF3360042401F08C
:1020E000CEF8064B47F82400186803F03EFDDFE702
:1020F000C84D0020F44900208C4C0020EC4C0020FE
:10210000F8B5244C244F254E2368042B03D9052110
:102110003846FFF775FF304600F0DAFF4FF6FF71E3
:10212000304601F059F82568052D18BF6B1C304664
:102130000CBF0425236001F0A2F8DFED190A47F86F
:10214000250021681448B7EE000AFEF7DBFFDFED3B
:10215000157AB4EEE70AF1EE10FA08DD12491348D9
:1021600006F0B4F9124B186803F0FFFCCCE7DFED82
:10217000117AB4EEE70AF1EE10FA01DD0E49EEE74E
:10218000DFED0E7AB4EEE70AF1EE10FACCBF0C499F
:102190000C49E4E7144D0020D44D0020F84A0020FB
:1021A000000000000000AA44FD990008B04B002088
:1021B000844D002000C0A344089A000800007A441F
:1021C000139A00081E9A0008F0B5504B1B78012B9B
:1021D00007EE900A7FD14E4BDFED4E6A1B784E49D9
:1021E000462B0CBF4D4A4E4A92ED007A462B27EE05
:1021F000266A0CBF4B4A4C4AF8EE677A462B86EEAD
:10220000277A0CBF494B4A4B92ED006AD3ED004A46
:10221000484A494B15681B6867EE867A5A1B87EE59
:10222000A65A0A6045490C6845491B1B0B60454985
:1022300007EE902AD1ED005A434AB8EEE76A07EE5E
:10224000903AE5EE065A0023F8EEE76AD2ED007AFE
:10225000C1ED005AE5EE267AF5EEC05AF1EE10FA1D
:10226000C2ED007A38D50B60F5EEC07AF1EE10FAC7
:102270003FD51360354E3648376803683B4308BF87
:102280003560336808BF0460EB1A07EE903AF8EE49
:10229000E77A304B356067EE677AE6EE247A91EDA7
:1022A000006A77EE867AFDEEE77AC3ED007A03687E
:1022B0000460E31A07EE903AF8EEE77A264B27EE31
:1022C000677AD2ED007AA6EEA47A37EE277ABDEED1
:1022D000C77A83ED007AF0BD204890ED005AB8EE41
:1022E000C55AF4EEC55AF1EE10FAC8BF81ED005A96
:1022F000BAE71A4BD3ED005AF8EEE55AF4EEE57A58
:10230000F1EE10FAC8BFC2ED005AB3E7104D00203D
:102310007C9C002000007A44884D0020804C0020E6
:10232000C0490020344E0020A44B0020304C002037
:10233000D4490020B04D0020C8490020C04B0020E7
:10234000C84B0020BC4B0020204D00203C4E0020FC
:10235000F04C0020D04D0020A84B0020DC4C002089
:102360002DE9F84F604D614C614E2DED028B3C2103
:10237000284602F023FA3C21204602F01FFA2B687F
:102380009FED5C8AD3F824902368D3F8248000F072
:10239000DFFD074600F0DCFD3368C01B8342F9D245
:1023A0002968D4F800A04F6ADAF82420096811F0EF
:1023B000100F4FF6FF71A9EB070B0CBFC919594459
:1023C000DAF8007008BFA1EB0901A8EB02030029AD
:1023D0008BEAEB7E83EAE37CB8BF494217F0100F2B
:1023E000AEEBEB7EACEBE37C4FF6FF7774D03B4477
:1023F000002BB8BF5B42404A714528BF714611604F
:1024000063453E4A28BF634613603D4A1278012A5D
:1024100056D13C4A92ED006A3B4A07EE901AD2ED43
:10242000004A3A4A66EE245AB8EEE77A65EE877AB1
:1024300087EE885AD2ED007A35EE275A07EE903AA9
:10244000F8EEE77A82ED005A65EEA75A304B314A32
:1024500085EE885AD3ED005A75EE255A92ED005A52
:10246000C3ED005AB5EE405AF1EE10FA2A4B0CD1EA
:102470002A49D3ED006AD1ED005A35EE255A75EEA2
:10248000A65A82ED005AC3ED005A2549D1ED006AE3
:1024900066EE266A66EEA46A27EE267A67EEA67ACC
:1024A00087EE086A92ED007A36EE077A82ED007ABE
:1024B00087EE887AD3ED007A77EE277AC3ED007A3B
:1024C000FFF782FE2B68D3F824902368D3F824808A
:1024D00000F03EFD07465DE73A44A2EB080282EABF
:1024E000E273A3EBE27386E7E84D0020344C002052
:1024F000D049002000002543B04D0020C04B0020F3
:10250000134D0020384E00209C4B0020F049002045
:10251000DC490020004D0020BC4D0020D44C0020A0
:102520004C4E00200E4B10B500241C700D4B1C604F
:102530000D4B1C600D4B186803F017FB0C4B1A6811
:102540000C4B1A600C4B186803F00FFB0B4B1C7004
:102550000B4B1C700B4B1C700B4B02221A7010BDE6
:10256000104D0020D04D0020A84B0020E44C00204E
:102570008C9C0020AC4B0020504A0020134D0020C2
:10258000884C00207C9C0020304E00202DE9F34137
:10259000764B1A78002A40F0AB8001221A70744AF8
:1025A000744D754F754E00231360754A1360754A5C
:1025B0001360754A1360754B1B78002B40F09080B8
:1025C000DFF82C82037988F80030811D04226846E8
:1025D00005F084FF684605F014FF98F800306C4C55
:1025E000462B07EE900A0BBF6A4B6B4BD3ED006A8C
:1025F000D3ED006A0CBF694B694B6A48B8EEE77AC5
:1026000042F2107284ED007AD3ED007AE7EE267A7A
:102610000121FDEEE77A17EE903A5343624A1360C8
:10262000624B1B682B6001F057F80128604A28D1E3
:10263000604900230B6060490B6060490B60604992
:102640000B60604BD3ED007A5F4BF8EEE77AC3ED99
:10265000007A5E4BD3ED007A5D4BF8EEE77AC3ED7E
:10266000007A1378012B0AD094ED007AD5ED007A28
:10267000B4EEE77AF1EE10FACCBF012300235549FE
:102680000B70137843B994ED007AD5ED007AB4EE6F
:10269000E77AF1EE10FA17D94E4A1278012A13D0D0
:1026A000484A12683A6043B994ED007AD5ED007A51
:1026B000B4EEE77AF1EE10FA09D9464B1B78012BFC
:1026C00004D0424B1B6802E00022EBE7002333609A
:1026D000414B1B685A6A414B1A6002B0BDE8F08159
:1026E0003F4B1B682B603F4B1B683B603E4BE9E751
:1026F0002F4B1B78D3B9264BD3ED007A1D4B93EDAE
:10270000007A1B4B77EEC77A93ED007AF4EEC77A26
:10271000F1EE10FAE1D81A4B93ED007AF4EEC77A95
:10272000F1EE10FAD9D8FFF7FDFED6E7012BD4D190
:10273000294B1B68596A2D4B1960284B1868814238
:1027400008D30A1A002318490868002182428B41E5
:10275000C3DBE8E74FF0FF32121A4FF0000363F1DA
:102760000003521843F10003EDE700BF134D0020B2
:10277000004D0020B44D0020D04D0020A84B00207B
:10278000BC4D0020F0490020DC490020884C00208E
:10279000889C0020444E0020484E0020B84D002068
:1027A000F04A002000100240F84C0020E04C0020CD
:1027B000404E0020884D0020C84B00203C4E002099
:1027C000F04C0020E84C0020BC4B0020984B00202F
:1027D000204D0020104D0020D04B0020804D0020C7
:1027E000CC4B0020C4490020C04D0020F44C0020F8
:1027F0007C9C002037B52F4D2B780446002B56D1FA
:10280000C11D032201A805F069FE01A805F0F9FD2C
:10281000294B21791860294B62791A704C2907EEEF
:10282000900A274B29702ED1422A23D1254AF8EE4F
:10283000E77AD2ED006A244A92ED007AA7EEA67AF2
:1028400083ED007AD3ED007A204AFDEEE77A4C2939
:1028500017EE903A02FB03F31D4A13600CBF1D4BA9
:102860001D4B1E4A1B6813601D4B186803F07DF951
:1028700003B030BD462AE5D11A4AF8EEE77AD2ED28
:10288000006A194AD8E75229DCD1422A06D1174AF0
:10289000F8EEE77AD2ED006A154ACDE7462AD1D1A3
:1028A000144AF8EEE77AD2ED006A134AC4E7FFF75C
:1028B0006DFEDDE7884C0020184D00207C9C002038
:1028C000889C0020A44A0020AC4D0020A086010076
:1028D000F84C0020A84A0020749C0020AC4B00203B
:1028E000504A0020A44D0020A04D0020789C0020DC
:1028F000849C0020A04A0020E449002008B51B4C1D
:102900001B4D26462378012B22D11A4A2B681268C8
:1029100093421DDC1848142202FB030212794C2A50
:102920000CD8412A0CD9423A0A2A09D8DFE802F029
:102930000B1B08080B08080808081500522A0CD0C1
:1029400001332B6004E0142202FB0300FFF71EFE9C
:102950000A4B186803F009F9D4E7142202FB0300BC
:10296000FFF748FFF4E702233370F1E7304E002011
:10297000044D0020BC490020544E00201C4D002076
:1029800082B00E4B00220092596C41F48041596490
:10299000596C01F48041009100990192196C41F049
:1029A000805119641B6C03F080530193019B0F212C
:1029B0006FF0010002B000F009BD00BF0038024016
:1029C00010B514228AB0044600210DEB020005F078
:1029D00055FD23681F4A934220D11F4B00220192CC
:1029E000596C41F480715964596C01F48071019102
:1029F00001990292196B41F0040119631B6B03F0FA
:102A000004030293029B012305931448032305A9A1
:102A1000CDE9063200F086FD0AB010BD104A93429F
:102A2000FAD10D4B00220392596C41F400715964A4
:102A3000596C01F40071039103990492196B41F0F0
:102A4000040119631B6B03F004030493049B10231C
:102A5000DAE700BF002001400038024000080240D1
:102A60000021014030B5044689B01422002103A89A
:102A700005F004FD2268144B9A4222D1134C1448ED
:102A800000250195236B43F002032363236B059517
:102A900003F002030193019BC0221223CDE903231B
:102AA00003210423CDE9061303A900F03BFD0295A1
:102AB000236C43F400132364236C03F40013029388
:102AC000029B09B030BD00BF0054004000380240F6
:102AD000000402400268094B9A4282B00BD10023E5
:102AE0000193074B5A6C42F001025A645B6C03F08D
:102AF00001030193019B02B0704700BF0000014039
:102B00000038024070B514228AB0044600210DEB53
:102B1000020005F0B3FC2368B3F1804F39D103F50F
:102B20000E33002400941A6C2B4842F001021A6400
:102B30001A6C02F001020092009A01941A6B42F0A2
:102B400001021A631A6B02F001020192019A0294C7
:102B50001A6B42F002021A631B6B03F0020302932A
:102B6000029B02264FF40043012505A9CDE9053655
:102B7000CDE90744099500F0D5FC0823CDE90536D9
:102B8000CDE907441548099505A900F0CBFC0AB02A
:102B900070BD134A9342FAD1124B0F4800220392A0
:102BA000196C41F002011964196C01F002010391E2
:102BB00003990492196B41F0010119631B6B03F037
:102BC00001030493C021049B0223CDE90513CDE941
:102BD0000722099305A9D8E700000240000402403B
:102BE000000400400038024010B5044688B01422AA
:102BF000002103A805F042FC2268184B9A422AD112
:102C000003F50C33002401941A6C154842F00402B9
:102C10001A641A6C02F004020192019A02941A6B6F
:102C200042F008021A631B6B03F0080302934FF48F
:102C30008042029B03A90223CDE903230793CDE938
:102C4000054400F06FFC1E202246052100F0BEFB6B
:102C50001E2000F0EDFB08B010BD00BF00080040D2
:102C6000000C024010B5044688B01422002103A8CD
:102C700005F004FC23681B4A93420DD10023009306
:102C8000194B1A6C42F008021A641B6C03F008031B
:102C90000093009B08B010BD144A9342FAD1124B26
:102CA000134800220192596C41F002015964596C99
:102CB00001F00201019101990292196B41F00401A6
:102CC00019631B6B03F004030293029BC0210223D0
:102CD000CDE90313032303A9CDE90522079300F0EF
:102CE00021FCD7E7000C00400038024000040140FE
:102CF0000008024010B5044686B01422002101A845
:102D000005F0BCFB22680F4B9A4218D10E4A0F48BF
:102D100000230093116B41F010011163126B02F05C
:102D2000100200924FF48041009A0222CDE9011274
:102D3000CDE9033301A90123059300F0F3FB06B0AD
:102D400010BD00BF000001400038024000100240EA
:102D500010B5044688B01422002103A805F08EFBAC
:102D60002268194B9A422CD103F5F83300240194C0
:102D70001A6C164842F480221A641A6C02F48022FB
:102D80000192019A02941A6B42F004021A631B6BBF
:102D9000059403F0040302934FF44062029B022364
:102DA000CDE9032303210723CDE9061303A900F08E
:102DB000B9FB27202246052100F008FB272000F060
:102DC00037FB08B010BD00BF0048004000080240BB
:102DD000FEE7FEE7FEE7FEE7FEE7704708B500F016
:102DE000ABF803F083FE012803D0BDE8084004F0EF
:102DF00089B908BD4FF4807000F082BC014801F031
:102E000052BD00BF584A0020014802F0BFBC00BFBD
:102E1000AC4A00200B4B196810B5024609B90A49A3
:102E20001960186809490A4C0244091B8A4206D9EC
:102E300005F0ECFA0C2303604FF0FF3010BD1A6070
:102E4000FCE700BF94000020E8A000200000022062
:102E500000040000034AD2F8883043F47003C2F83B
:102E60008830704700ED00E0DFF834D00D480E499F
:102E70000E4A002302E0D458C4500433C4188C42D4
:102E8000F9D30B4A0B4C002301E013600432A24239
:102E9000FBD3FFF7DFFF05F0BFFAFEF76FFC7047CB
:102EA00000000220000000207800002030A8000868
:102EB00078000020E4A00020FEE7000038B50E4AAC
:102EC0000E4B054618784FF47A73B3FBF0F3106895
:102ED000B0FBF3F000F0BAFA044658B90F2D09D848
:102EE000024629464FF0FF3000F070FA044B2046AE
:102EF0001D6038BD0120FCE7000000200400002018
:102F00000800002008B50B4B1A6842F400721A60E2
:102F10001A6842F480621A601A6842F480721A6079
:102F2000032000F041FA0F20FFF7C8FFFFF728FD4C
:102F3000002008BD003C0240034A044B11681B7886
:102F40000B441360704700BF909C002004000020D9
:102F5000014B1868704700BF909C002038B50446AC
:102F6000FFF7F6FF631C1CBF054B1B78054618BF17
:102F7000E418FFF7EDFF431BA342FAD338BD00BFAF
:102F80000400002038B50446002800F09B80056C42
:102F900025B9FFF715FD656484F83C50236CDB060A
:102FA00000F18E80236C23F4885323F0020343F056
:102FB00002032364444B5A6822F440325A605A6830
:102FC00061680A435A60236821695A6822F4807252
:102FD0005A605A6842EA01225A605A68A16822F08F
:102FE00040725A605A680A435A609A68E16822F44B
:102FF00000629A609A680A439A603449A26A8A42D7
:1030000052D0996821F07061996099680A439A607A
:103010009A68E16A22F040529A609A680A439A607C
:103020009A6822F002029A609A68217E42EA41027E
:103030009A6094F82020002A3ED05A68616A42F4CF
:1030400000625A605A6822F460425A605A68013934
:1030500042EA41325A60DA6AE16922F47002DA62C5
:10306000DA6A013942EA0152DA629A6822F400729D
:103070009A609A6894F8301042EA41229A609A68FD
:10308000616922F480629A609A68002042EA812293
:103090009A606064236C23F0030343F0010323640C
:1030A000002384F83C3038BD9A6822F070629A6040
:1030B0009A6822F04052B2E75A6822F40062C9E7E7
:1030C0000120EDE70120EEE7002301400100000FA1
:1030D00013B50023019390F83C30012B6CD00123F1
:1030E000026880F83C309368D9070CD5936813F0D8
:1030F00001031AD1026C42F010020264426C42F0E9
:103100000102426456E093682D4943F00103936045
:103110002C4B1B68B3FBF1F303EB43030193019BBF
:10312000002BE3D0019B013BF8E7036C264C23F412
:10313000E06323F0010343F48073036453685B0589
:1031400041BF036C23F4405343F480530364036C86
:1031500013F480531CBF436C23F0060343646FF0E9
:103160002201002380F83C3011601849486810F0B3
:103170001F0019D1A24206D0154B9A420DD14B68BF
:1031800013F01F0F07D1906810F0405016D19368CC
:1031900043F08043936002B010BD0E4B9A42FAD1C7
:1031A0004B6813F0100FEDE7A24207D1906810F0C2
:1031B0004050ECD01846EEE70220ECE70020EAE7AA
:1031C00040420F0000000020002001400023014089
:1031D000002101400022014003689A68520570B541
:1031E00004460D460BD59B68DE0508D5036C43F0FD
:1031F00020030364002380F83C30012070BDFFF7FA
:10320000A7FE064623681A6891070CD56FF01202D4
:103210001A60226C42F4007222649A6812F0405FD5
:1032200017D00020EAE7681CEDD065B923681B6859
:1032300013F00203E6D1226C84F83C3042F0040221
:1032400022640320DAE7FFF783FE801BA842EDD853
:10325000D8E7207E0028E4D1DA6A12F4700F02D099
:103260009B685A05DDD4236C23F480732364236C9C
:10327000DB04D6D4236C43F001032364BEE7036868
:10328000D86C7047F7B50023019390F83C30012BC0
:1032900066D0012380F83C300D6803688E68092DE4
:1032A000ACB231D904EB4402DF681E3A4FF0070C90
:1032B0000CFA02FC27EA0C07DF60DF6806FA02F26C
:1032C0003A43DA604968062901EB81022CD8596B30
:1032D000053A1F26964021EA06015963596B04FA04
:1032E00002F20A435A632C4A934207D1122D39D174
:1032F000D2F8043343F48003C2F80433002380F887
:103300003C30184603B0F0BD1F6905EB45024FF095
:10331000070C0CFA02FC27EA0C071F611F6906FA6A
:1033200002F23A431A61CDE70C294FF01F010BD886
:103330001E6B233A914026EA01011963196B04FAC6
:1033400002F20A431A63CEE7DE6A413A914026EA66
:103350000101D962D96A04FA02F20A43DA62C2E7C9
:103360000220CFE7A5F11003012BC7D80B4A536801
:10337000102D43F400035360C0D1094B094A1B6868
:10338000B3FBF2F20A2353430193019B002BB5D008
:10339000019B013BF8E700BF0020014000230140F2
:1033A0000000002040420F000749CA6822F4E06292
:1033B0000302120403F4E063120C134343F0BF63EF
:1033C00043F40033CB60704700ED00E0164B30B59E
:1033D000DC68C4F30224C4F10705231D042D28BFB3
:1033E0000425062B4FF0FF338CBF033C002403FA67
:1033F00005F521EA0501A34022EA0302A1400028C5
:1034000041EA0203ACBF00F16040084A4FEA0313EF
:10341000B8BF00F00F00DBB2AABF00F56140135443
:1034200080F8003330BD00BF00ED00E014ED00E097
:10343000002808DB4209012300F01F0003FA00F016
:10344000014B43F82200704700E100E00138B0F181
:10345000807F0AD2064B074A5860F02182F8231079
:103460000020072298601A6070470120704700BF53
:1034700010E000E000ED00E070B50446866DFFF757
:1034800067FD94F83530022B054606D0802363652E
:10349000002384F83430012070BD23681A6822F0BC
:1034A00016021A605A6922F080025A61226C0AB927
:1034B000A26C1AB11A6822F008021A601A6822F087
:1034C00001021A6023681B6813F001030AD1E16D41
:1034D0003F228A40B260012284F8352084F83430DB
:1034E0001846D9E7FFF734FD401B0528EAD9202309
:1034F00063650320002384F8350084F83430CBE77B
:1035000090F83530022B03D08023436501207047AB
:103510000268052380F83530136823F00103136037
:10352000002070472DE9F74FDFF8A891674A002384
:103530000D6801249C4004EA050CAC4340F0B180C6
:103540004D6805F003044FEA43080326671E06FA98
:1035500008F6012F6FEA060634D8876807EA060ED8
:10356000CF6807FA08F747EA0E078760476827EA37
:103570000C0EC5F300179F4047EA0E074760C76867
:1035800007EA060E8F6807FA08F747EA0E07022CCB
:10359000C76019D14FEAD30A00EB8A0A03F0070B80
:1035A000DAF820704FEA8B0B4FF00F0E0EFA0BFE7D
:1035B00027EA0E0E0F6907FA0BF747EA0E07CAF85B
:1035C000207001E0032CDAD1076804FA08F43E40C9
:1035D000264315F4403F066063D04FF0000ACDF853
:1035E00004A0D9F844603A4C46F48046C9F84460D7
:1035F000D9F8446006F480460196019E23F0030644
:1036000006F1804606F59C3603F0030ED6F80880D6
:103610004FEA8E0E0F2707FA0EF7A04228EA070797
:1036200046D004F58064A04244D004F58064A042F2
:1036300042D004F58064A04240D004F58064A042EA
:103640003ED004F58064A0423CD004F58064A042E2
:103650003AD004F58064A0420CBF0724082404FA81
:103660000EF43C43B46014686FEA0C06EF0354BFD9
:1036700034404CEA040414605468AF0354BF34402F
:103680004CEA040454609468EF0254BF34404CEA9E
:1036900004049460D468AD0254BF34404CEA04047E
:1036A000D4600133102B7FF443AF03B0BDE8F08F3B
:1036B0005446D4E70124D2E70224D0E70324CEE71E
:1036C0000424CCE70524CAE70624C8E7003C0140EF
:1036D00000000240003802400369194214BF012073
:1036E000002070470AB1816170470904FBE7436914
:1036F00001EA030221EA030141EA024181617047C4
:10370000044A5169014208B502D05061FDF77CFFBF
:1037100008BD00BF003C014001684B6913F48063A1
:103720004FF0000210D06FF480634B6120230263DE
:1037300080F83D3080F83E20036C80F83C2043F058
:103740000403036401207047184670472DE9F041D7
:1037500004460F46164698462568686927EA000021
:1037600080B2B8B16B695A0516D52B6843F4007363
:103770002B606FF480636B6120220023236384F845
:103780003D2084F83E30226C42F00402226484F82A
:103790003C300120BDE8F081731CDED0FFF7D8FB80
:1037A000A0EB0800B04201D8002ED5D10023202282
:1037B000236384F83D2084F83E30226C42F02002DE
:1037C000E4E770B504460D46164623685B695B075F
:1037D00001D5002070BD2046FFF79EFFA8B96A1CE6
:1037E000F3D0FFF7B5FB801BA84201D8002DECD128
:1037F00000232022236384F83D2084F83E30226C8D
:1038000084F83C3042F0200222640120E2E770B5E7
:1038100004460D46164621684B6913F0400301D05B
:10382000002010E04A69D2060ED56FF010024A61FE
:103830002022236384F83D2084F83E30226C2264E9
:1038400084F83C30012070BDFFF782FB801BA8424A
:1038500001D8002DDFD100232022236384F83D20EE
:1038600084F83E30226C42F02002E8E72DE9F84669
:1038700006460F4691461D464FEA114A3368BAF193
:10388000010F0CBF5C699C6927EA0404A4B2B4FA76
:1038900084F46409A14501D0002017E06A1CEED031
:1038A000FFF756FB089BC01AA84201D8002DE5D1AE
:1038B00000232022336386F83D2086F83E30326CA8
:1038C00086F83C3042F0200232640120BDE8F886E0
:1038D00070B504460D46164623685B691B0601D584
:1038E000002070BD2046FFF717FFA8B96A1CF3D06F
:1038F000FFF72EFB801BA84201D8002DECD100233E
:103900002022236384F83D2084F83E30226C84F822
:103910003C3042F0200222640120E2E72DE9F0432E
:103920001546026885B0DDE90C789946136843F4C2
:10393000807313600E463B46CDF8008000224FF0A6
:1039400001110446FFF792FF236838B11B68DB05BD
:1039500002D54FF40073236403200AE006F0FE064C
:103960001E61194943463A462046FFF7EFFE18B15B
:10397000012005B0BDE8F083236803905A690392E3
:103980009B690393424639462046039BFFF7A0FFFD
:1039900040B1236C042B01BF2268136843F4007309
:1039A0001360E5E7B9F1010F236802D1EDB21D61A3
:1039B000DFE72A0A1A61394642462046FFF788FFA8
:1039C0000028E6D12368F1E70200010070B5044643
:1039D00008B9012070BD90F83D3003F0FF021BB91B
:1039E00080F83C20FFF73EF8242384F83D3023681C
:1039F0001A6822F001021A601A6842F400421A6042
:103A00001A6822F400421A6000F0F4FD3F4A63682D
:103A1000934294BF3E4A3F4A90428CBF002201220B
:103A2000002AD6D121683C4E4A68B0FBF6F622F057
:103A30003F0232434A60354A0D6A934284BF4FF4D5
:103A40009672724325F03F0591BF721C4FF47A764F
:103A5000B2FBF6F201322A430A62CD69421E2B48BC
:103A600025F44F45834225F0FF0532D85B00B2FBB9
:103A7000F3F340F6FC720133134242D0C3F30B035D
:103A80002B43CB61D4E907300A68034322F0C0021C
:103A900013430B608A68D4E9030322F4034203430F
:103AA00022F0FF0213438B60D4E90530CA68034358
:103AB00022F0FF021343CB600B6843F001030B605D
:103AC00000202023206484F83D30206384F83E00E9
:103AD00080E7A06850B903EB4303B2FBF3F3013373
:103AE000C3F30B037BB143F40043C9E719204343FD
:103AF000B2FBF3F30133C3F30B0323B143F44043AD
:103B0000BEE70423BCE70123BAE700BFA08601009B
:103B10007F841E00FF083D0040420F002DE9F04366
:103B2000044685B098460C9F0D469146FFF710FA63
:103B300094F83D30202B064604D00225284605B0D7
:103B4000BDE8F08300905D49192301222046FFF76C
:103B50008DFE0028F1D194F83C30012BEDD0216886
:103B6000012384F83C300B68DA075EBF0B6843F032
:103B700001030B600B6823F400630B60212384F8BE
:103B80003D30102384F83E3000232364A4F82A80BB
:103B9000638D23854A4BE362E36AC4F82490082BC3
:103BA00004D0012B02D013F5803F04D10B6843F4FD
:103BB00080730B6002E0236B122BF7D0002200967B
:103BC0003B464FF001112046FFF750FE226838B106
:103BD0001368DB0544BF4FF4007323640125ADE790
:103BE0002369B3F5804F21D105F0FE0515613549F4
:103BF00033463A462046FFF7A9FD05460028EDD199
:103C0000236803905A6903929B690393039B238D56
:103C1000F3B921680A6842F400720A60202284F82D
:103C20003D2084F83C3084F83E3087E7EB1103F008
:103C3000060343F0F0031361234933463A46204616
:103C4000FFF784FD0028C9D12368EDB21D61CEE7DE
:103C5000324639462046FFF73BFE40B1236C042B29
:103C6000BCD12268136843F400731360B6E7636A3B
:103C700020681A4612F8011B01616262628D013AE6
:103C800092B26285228DD0F814C0511E89B21CF008
:103C9000040F21850AD049B159780161023363626A
:103CA000638D013B9BB2023A6385228532463946D9
:103CB0002046FFF786FD0028A9D0CFE702001000BC
:103CC0000000FFFF02000100080001002DE9F043A1
:103CD000044689B09846109F0E469146FFF738F982
:103CE00094F83D30202B054604D00226304609B01A
:103CF000BDE8F08300909A49192301222046FFF77E
:103D0000B5FD0028F1D194F83C30012BEDD02168AD
:103D1000012384F83C300B68DB075EBF0B6843F07F
:103D200001030B600B6823F400630B60222384F80B
:103D30003D30102384F83E3000232364A4F82A8009
:103D4000638D2385874BE362E36A0A68C4F8249095
:103D500042F48062082B0A6004D0012B02D013F5D4
:103D6000803F04D10B6843F480730B6002E0236B47
:103D7000112BF7D03B46009500224FF00111204651
:103D8000FFF774FD236838B11B68D80502D54FF4DE
:103D9000007323640126A9E72269B2F5804F27D179
:103DA00046F00106F6B21E616F492B463A462046A0
:103DB000FFF7CCFC06460028ECD1228D2368002AB0
:103DC0004BD103905A6903929A690392039A1A6835
:103DD00042F400721A60DFF89881238D002B64D1C1
:103DE000202284F83D2084F83C3084F83E307DE782
:103DF0004FEAE61808F0060848F0F0021A615B493D
:103E00002B463A462046FFF7A1FC0028C2D1236882
:103E10005549F6B21E613A462B462046FFF796FCFE
:103E20000028B7D1236807905A6907929A690792C8
:103E3000079A1A6842F480721A604FF00111024624
:103E400000953B462046FFF711FD226808B1136834
:103E50009BE748F0F1031361A6E7012A0AD11A682B
:103E600022F480621A6004905A6904929A6904925A
:103E7000049AACE7022A1A680DD122F480621A6013
:103E80001A6842F400621A6005905A6905929B69AB
:103E90000593059B9FE742F480621A6006905A6979
:103EA00006929B690693069B95E7032B62D8012B2C
:103EB00016D12A4639462046FFF7A9FC00287FF490
:103EC00069AF23681A69636A1A70636A01336362AF
:103ED000238D013B2385638D013B9BB263857CE78A
:103EE000022B00953B464FF00002414620461AD176
:103EF000FFF7BCFC00287FF44DAF23681A6842F43A
:103F000000721A601A69636A1A70626A531C6362EB
:103F1000238D013B2385638D013B9BB26385236821
:103F20001B695370D1E7FFF7A1FC00287FF432AF83
:103F300023681A6822F480621A601A69636A1A7028
:103F4000636A009501336362238D013B2385638D92
:103F5000013B9BB2638502463B4641462046C7E78C
:103F6000020010000000FFFF020001000800010035
:103F7000040001002A4639462046FFF748FC002885
:103F80007FF408AF23681A69636A1A70626A531C67
:103F90006362238D013B2385638D013B9BB2638567
:103FA0002368596949077FF518AFB9E72DE9F74349
:103FB000044699460C9E0F469046FEF7C9FF94F8BA
:103FC0003D30202B054603D0022003B0BDE8F0832E
:103FD00000903C49192301222046FFF747FC0028A6
:103FE000F2D194F83C30012BEED02068012384F804
:103FF0003C300368D9075EBF036843F001030360E8
:10400000036823F400630360212384F83D304023D8
:1040100084F83E30002323640A9B6362BDF82C3091
:104020006385638D2385284BE362CDE900654B46AC
:10403000424639462046FFF771FC00282AD001206D
:10404000C3E7FFF745FC40B1236C042B01BF226896
:10405000136843F400731360F1E7636A27681A4634
:1040600012F8011B39616262628D218D013A92B2B0
:1040700062857A69481E80B2520720850AD548B108
:104080005A783A6102336362638D013B02399BB215
:1040900021856385238D2A4631462046002BD0D1C9
:1040A000FFF78FFB0028CFD12268136843F4007319
:1040B0001360202384F83D3084F83C0084F83E00EF
:1040C00083E700BF020010000000FFFF006C704794
:1040D000044B01221A60044B82B01B680193019BC0
:1040E00002B0704720000E4200700040044B0022D6
:1040F0001A60044B82B01B680193019B02B07047A9
:1041000020000E42007000402DE9F341044640B308
:104110000368DD0710D4236898075ED423681A0764
:1041200000F1A08023685B0700F1BE80A069002831
:1041300040F01F8100202BE0A64B9A6802F00C0291
:10414000042A07D09A6802F00C02082A0BD15A6898
:10415000510208D59F4B1B689A03DCD56368002B7E
:10416000D9D1012014E06268B2F5803F13D11A68FA
:1041700042F480321A60FEF7EBFE964E0546336835
:104180009B03C8D4FEF7E4FE401B6428F7D9032044
:1041900002B0BDE8F0818F4DB2F5A02F2B6807D19A
:1041A00043F480232B602B6843F480332B60E2E7D9
:1041B00023F480332B602B6823F480232B60002AA8
:1041C000D9D1FEF7C5FE06462B689F03A3D5FEF79F
:1041D000BFFE801B6428F7D9D9E77E4B9A6812F09E
:1041E0000C0F07D09A6802F00C02082A11D15B6804
:1041F0005E020ED4774B1A68950702D5E268012A51
:10420000AFD11A68216922F0F80242EAC1021A60AD
:1042100084E7E268704BB2B101221A60FEF798FEA3
:104220006C4D06462B68980707D52B68226923F04A
:10423000F80343EAC2032B6070E7FEF789FE801B98
:104240000228EFD9A3E71A60FEF782FE614E054609
:10425000336899077FF562AFFEF77AFE401B0228AC
:10426000F6D994E762695D4B7AB101221A60FEF7D4
:104270006FFE584E0546736F9F073FF553AFFEF72D
:1042800067FE401B0228F6D981E71A60FEF760FE40
:10429000504E0546736F98077FF544AFFEF758FE02
:1042A000401B0228F6D972E74A4B1A6C12F0805272
:1042B00028D101921A6C42F080521A641B6C03F0F0
:1042C00080530193019B0127454D2B68D9051BD5D0
:1042D000A368404D012B27D12B6F43F001032B67BF
:1042E000FEF736FE3B4E054641F28838336F9B079A
:1042F00039D5002F3FF41AAF364A136C23F08053A0
:10430000136413E70027DFE72B6843F480732B6007
:10431000FEF71EFE06462B68DA05D9D4FEF718FE16
:10432000801B0228F7D932E7052B04D12B6F43F00D
:1043300004032B67D0E72A6F22F001022A672A6F55
:1043400022F004022A67002BCAD1FEF701FE41F2D7
:10435000883806462B6F9807CBD5FEF7F9FD801BF2
:104360004045F7D913E7FEF7F3FD401B4045BDD9A3
:104370000DE7184DAB6803F00C03082B47D0194E1E
:1043800000230228336035D1FEF7E2FD07462B6893
:10439000990129D4D4E907321343626A43EA8213AC
:1043A000E26A43EA0263A26A5208013A43EA02431C
:1043B0006B6001233360FEF7CBFD064D04462B688E
:1043C0009A013FF5B7AEFEF7C3FD001B0228F6D9F0
:1043D000DDE600BF0038024000004742800E474241
:1043E0000070004060004742FEF7B2FDC01B02288B
:1043F000CDD9CCE6FEF7ACFD04462B689B017FF5DA
:1044000099AEFEF7A5FD001B0228F6D9BFE60128EC
:104410003FF4BEAE6B68E26903F4800191427FF421
:10442000A0AE216A03F03F028A427FF49AAE616A2D
:1044300047F6C0721A40B2EB811F7FF492AEA26AB7
:10444000520803F44031013AB1EB024F7FF489AED8
:10445000E26A03F07063B3EB026F3FF46BAE80E689
:10446000134908B58B6803F00C03042B1CD0082BF0
:104470001CD14A684B68496813F4800314BF0D4887
:104480000D48C1F3881118BF002302F03F02A1FBC1
:104490000001FCF7D1FB064B5B68C3F3014301331A
:1044A0005B00B0FBF3F008BD0248FCE70248FAE706
:1044B0000038024040787D010024F4002DE9F041ED
:1044C0000D46044610B90120BDE8F081444B1A683E
:1044D00002F007028A4228D3226897072DD4D0071A
:1044E00041D43F4B1A6802F00702AA4266D82268FC
:1044F00051076CD4130707D53A4A2169936823F40E
:10450000604343EAC1039360FFF7AAFF354B364A85
:104510009B68C3F30313D35CD840344B1860344B0F
:104520001868FEF7CBFC0020CEE7CAB21A701B68F1
:1045300003F007038B42C6D1CEE72A4B12F0040FDB
:104540001EBF996841F4E0519960160742BF99680F
:1045500041F4604199602349A0688B6823F0F0031F
:1045600003438B60BBE762681E4B012A1CD11B68AA
:1045700013F4003FA7D01B4EB36823F0030313438B
:10458000B360FEF7E5FC41F288380746B36862681D
:1045900003F00C03B3EB820FA3D0FEF7D9FCC01BD2
:1045A0004045F3D903208FE7911E01291B6802D8EB
:1045B00013F0007FDEE713F0020FDBE7EAB21A70B8
:1045C0001B6803F00703AB427FF47DAF8FE705491B
:1045D000E0688B6823F4E05303438B608AE700BFF5
:1045E000003C024000380240EC9B00080000002024
:1045F00008000020044B054A9B68C3F38223D35C68
:10460000034A1068D840704700380240FC9B0008FD
:1046100000000020044B054A9B68C3F34233D35C7F
:10462000034A1068D840704700380240FC9B0008DD
:1046300000000020036A23F001030362036A70B5DF
:10464000446882690D6822F073022A438D6823F062
:1046500002032B430E4DA84202D00E4EB04210D1A1
:10466000CE6823F008033343A84223F0040302D0AA
:10467000084DA84205D1D1E9055624F440743543CC
:104680002C43446082614A684263036270BD00BF8C
:104690000000014000040140036A23F480730362B8
:1046A000036A70B54468C2690D6822F073022A4338
:1046B0008D6823F4007343EA0523114DA84203D00B
:1046C00005F58065A84214D1CD6823F4006343EA60
:1046D00005230B4DA84223F4806303D005F58065C4
:1046E000A84206D1D1E9055624F44054354344EAA2
:1046F00005144460C2614A68C263036270BD00BFB2
:1047000000000140036A23F480530362036A30B55A
:104710004468C2690D6822F4E64242EA05228D68C7
:1047200023F4005343EA0533084DA84203D005F5AE
:104730008065A84204D14D6924F4804444EA85147C
:104740004460C2614A680264036230BD00000140F7
:1047500090F83D30012B2CD10223174A80F83D30D0
:10476000036893421AD0B3F1804F17D0A2F57C4270
:10477000934213D002F5806293420FD002F580621B
:1047800093420BD002F57842934207D002F5705263
:10479000934203D0A2F59432934204D19A6802F076
:1047A0000702062A03D01A6842F001021A600020AC
:1047B00070470120704700BF0000014030B590F8FD
:1047C0003E2090F83F3090F8425090F84340D2B2EB
:1047D000DBB2EDB2E4B2C9B9012A46D1012D46D10E
:1047E000022380F83E3080F8423003681A6A22F0D3
:1047F00001021A621A6A42F001021A620268136820
:1048000043F0010313600023184630BD042911D181
:10481000012B2AD1012CF7D1022380F83F3080F8F8
:10482000433003681A6A22F010021A621A6A42F0D0
:104830001002E2E7012A18D1012B18D1012DE3D192
:10484000012CE1D1022380F83E3080F83F3080F81F
:10485000423080F8433003681A6A22F001021A627B
:104860001A6A42F001021A62DCE70123CCE7134620
:10487000CAE7082910D004D841B1042909D0002082
:1048800070470C29FBD10368186C70470368586B9C
:1048900070470368986B70470368D86B7047704720
:1048A00070477047704703681A69910710B504464E
:1048B0000ED5DA6892070BD56FF002021A61012259
:1048C00002779B699B0777D0FDF7A6FB0023237730
:1048D00023681A69500710D5DA6851070DD56FF0B3
:1048E00004021A61022222779B6913F4407F20465A
:1048F00068D0FDF791FB0023237723681A6912071C
:104900000FD5DA6810070CD56FF008021A6104227F
:104910002277DB69990720465AD0FDF77DFB0023FB
:10492000237723681A69D20610D5DA68D0060DD528
:104930006FF010021A6108222277DB6913F4407FBE
:1049400020464BD0FDF768FB0023237723681A69C4
:10495000D10708D5DA68D20705D56FF001021A61D0
:104960002046FFF79CFF23681A69100608D5DA680D
:10497000110605D56FF080021A61204600F059FD3E
:1049800023681A69520608D5DA68500605D56FF013
:1049900040021A612046FFF785FF23681A699106D5
:1049A00022D5DA6892061FD56FF0200220461A61E0
:1049B000BDE8104000F03CBDFFF772FF2046FFF756
:1049C00070FF83E7FFF76CFF2046FFF76AFF92E76F
:1049D000FFF766FF2046FFF764FFA0E7FFF760FFE1
:1049E0002046FFF75EFFAFE710BD0000304A0368C6
:1049F000904212D0B0F1804F0FD0A2F57C4290428D
:104A00000BD002F58062904207D002F5806290429E
:104A100003D002F57842904219D14A6823F070031E
:104A20001343234A904229D0B0F1804F26D0A2F5FB
:104A30007C42904222D002F5806290421ED002F564
:104A4000806290421AD002F57842904216D0194AFC
:104A5000904213D002F5806290420FD002F580623E
:104A600090420BD0A2F59832904207D002F58062B6
:104A7000904203D002F58062904203D1CA6823F4C9
:104A8000407313434A6923F08003134303608B6828
:104A9000C3620B688362064B984203D003F58063C0
:104AA000984201D10B69036301234361704700BF42
:104AB000000001400040014010B5044630B390F8BA
:104AC0003D3003F0FF021BB980F83C20FEF7CAF826
:104AD0000223206884F83D30211DFFF787FF012362
:104AE00084F84630002084F83E3084F83F3084F863
:104AF000403084F8413084F8423084F8433084F800
:104B0000443084F8453084F83D3010BD0120FCE786
:104B100010B5044630B390F83D3003F0FF021BB9E6
:104B200080F83C20FDF7D6FF0223206884F83D3052
:104B3000211DFFF75BFF012384F84630002084F835
:104B40003E3084F83F3084F8403084F8413084F8B7
:104B5000423084F8433084F8443084F8453084F897
:104B60003D3010BD0120FCE710B5044630B390F88D
:104B70003D3003F0FF021BB980F83C20FEF734F80B
:104B80000223206884F83D30211DFFF72FFF012309
:104B900084F84630002084F83E3084F83F3084F8B2
:104BA000403084F8413084F8423084F8433084F84F
:104BB000443084F8453084F83D3010BD0120FCE7D6
:104BC000F8B50D46044600284DD090F83D3003F06E
:104BD000FF021BB980F83C20FDF794FF2146022319
:104BE00084F83D3051F8040B836823F4804323F0AC
:104BF00007038360FFF7FAFE20682B6886688269E6
:104C0000A968076A1E43AB6922F4407222F00302CE
:104C100041EA0323134323F47C422B69E9691B0116
:104C200043EA0123E9680B43296A22F0FC0243EAC4
:104C300001331343696927F0AA026F68866047EA67
:104C40000117836117430123076284F8463000206F
:104C500084F83E3084F83F3084F8423084F84330A2
:104C600084F83D30F8BD0120FCE70000036A23F022
:104C700010030362036A70B5446882690D6822F408
:104C8000E64242EA05228D6823F0200343EA051339
:104C9000104DA84203D005F58065A84214D1CD6817
:104CA00023F0800343EA05130A4DA84223F0400392
:104CB00003D005F58065A84206D1D1E9055624F454
:104CC0004064354344EA8504446082614A688263F3
:104CD000036270BD0000014070B590F83C30012BBC
:104CE0000546144654D00122082C80F83C203ED0C2
:104CF00007D8CCB1042C29D0002385F83C301046CD
:104D000070BD0C2CF8D10068FFF7FCFC2B6809691A
:104D1000DA6942F40062DA61DA6922F48062DA6107
:104D2000DA6942EA012231E00068FFF783FC2B6870
:104D300009699A6942F008029A619A6922F00402AC
:104D40009A619A690A439A610022D5E70068FFF7E1
:104D50008DFF2B6809699A6942F400629A619A6929
:104D600022F480629A619A6942EA0122EBE70068C4
:104D7000FFF792FC2B680969DA6942F00802DA61F0
:104D8000DA6922F00402DA61DA690A43DA61DBE700
:104D90000222B4E770B5046A1A4E24F001040462DA
:104DA000B0428469056A29D0B0F1804F26D0A6F5BB
:104DB0007C46B04222D006F58066B0421ED006F591
:104DC0008066B0421AD006F57846B04216D006F595
:104DD0007056B04212D0A6F59436B0420ED044F0D0
:104DE00001021B01DBB222F0F0021A4301F00A01BA
:104DF00025F00A0319438261016270BD24F00304A7
:104E00002243EEE700000140F8B590F83C30012B5A
:104E100005460C4600F08980012085F83C009AB9CF
:104E2000CB682868D1E90012FFF7B4FF2B68A168AE
:104E30009A6922F00C029A619A690A439A610020E9
:104E4000002385F83C30F8BD042A23D12B681E6A64
:104E500026F01006D1E90027C9681E6298691E6A0B
:104E600020F4407040EA0720090320F4704089B222
:104E70001201014302F0A00226F0A0000243996152
:104E80001A629A69A16822F440629A619A6942EAB8
:104E90000122D3E7082A22D12B681E6A26F48076E5
:104EA000D1E90020C9681E62DF691E6A27F0030786
:104EB0003843090120F0F000C9B21202014302F4A4
:104EC000206226F420600243D9611A62DA69A1687F
:104ED00022F00C02DA61DA690A43DA61AFE70C2AE0
:104EE000AED12B681E6A26F48056D1E90027C96826
:104EF0001E62D8691E6A20F4407040EA0720090348
:104F000020F4704089B21203014302F4204226F4D7
:104F100020400243D9611A62DA69A16822F4406232
:104F2000DA61DA6942EA0122D7E702208BE710B59D
:104F30008468114324F47F4441EA032323438360BC
:104F400010BD70B590F83C30012B04464FF00203C1
:104F500000F09180012280F83D3080F83C2000680C
:104F6000836823F47F4323F0770383600B68602B0F
:104F700052D033D8402B67D016D8202B0DD00AD86A
:104F800033F0100109D0012384F83D30002384F868
:104F90003C30104670BD302BF5D1826822F0700293
:104FA000134343F0070317E0502BECD14A68CE6857
:104FB000016A056A25F001050562836921F00A018D
:104FC00023F0F00343EA06130A4383610262836815
:104FD00023F0700343F05703836011E0B3F5805F63
:104FE0000ED0B3F5005F0DD0702BCCD1CB68D1E9DA
:104FF0000121FFF79CFF2268936843F077039360D9
:105000000022C0E7CB68D1E90121FFF790FF2268B9
:10501000936843F48043F2E74D68CE68016A21F05B
:10502000100101628269036A22F4704223F0A00336
:1050300043EA051342EA063282610362836823F081
:10504000700343F06703C7E74A68CE68016A056AE0
:1050500025F001050562836921F00A0123F0F003C0
:1050600043EA06130A4383610262836823F07003F4
:1050700043F04703B0E71A468BE7036A01F01F01CC
:1050800010B501248C4023EA04030362036A8A40BA
:105090001A43026210BD000010B5044629B990F809
:1050A0003E30012B1DD0012032E0042907D190F8B9
:1050B0003F30012BF7D1022380F83F3014E008295C
:1050C00007D190F84030012BEDD1022380F8403019
:1050D0000AE090F84130012BE5D1022380F84130FD
:1050E00002E0022380F83E3001222068FFF7C5FF6E
:1050F0002368194A93420CD018498B4209D0B3F166
:10510000804F0DD19A6802F00702062A1FD10020B5
:1051100010BD596C934241F400415964F2D0EEE75E
:105120000F4A9342EED002F580629342EAD002F534
:1051300080629342E6D002F578429342E2D002F5D3
:1051400070529342DED0A2F594329342DAD01A68BC
:1051500042F001021A60DAE7000001400004014059
:1051600000040040FFF798BF10B5044629B990F835
:105170003E30012B2CD0012046E004290BD190F8C1
:105180003F30012BF7D10223026880F83F30D3680B
:1051900043F0040323E008290BD190F84030012BA1
:1051A000E9D10223026880F84030D36843F0080355
:1051B00015E090F84130012BD8B2DCD102230C2944
:1051C00084F8413020D12268D36843F0100306E010
:1051D0000223026880F83E30D36843F00203D360B4
:1051E00020680122FFF749FF2368194A93420CD037
:1051F00018498B4209D0B3F1804F0DD19A6802F063
:105200000702062A1FD1002010BD596C934241F4B9
:1052100000415964F2D0EEE70F4A9342EED002F516
:1052200080629342EAD002F580629342E6D002F5B2
:1052300078429342E2D002F570529342DED0A2F55A
:1052400094329342DAD01A6842F001021A60DAE727
:10525000000001400004014000040040FFF784BF4B
:1052600010B50446002943D190F83E3090F8420032
:10527000DBB2012BC0B272D1012870D10223002908
:105280004CD1226884F83E3084F84230D36843F031
:105290000203D36020680122FFF7EFFE2368314A42
:1052A00093421AD0B3F1804F17D0A2F57C429342BB
:1052B00013D002F5806293420FD002F580629342D0
:1052C0000BD002F57842934207D002F57052934218
:1052D00003D0A2F59432934204D19A6802F00702F7
:1052E000062A03D01A6842F001021A60002037E053
:1052F000042905D190F83F3090F84300DBB2B8E7BD
:1053000008290BBF90F8403094F8413090F84400E1
:1053100094F845000CBFDBB2DBB2AAE7042908D140
:10532000226884F83F3084F84330D36843F00403A4
:10533000AFE7082908D1226884F8403084F8443067
:10534000D36843F00803A4E70C2984F8413084F8BB
:10535000453005D12268D36843F0100399E7012056
:1053600010BD00BF0000014030B590F83C30012B6B
:105370004FF0020332D080F83D3003680D685C685E
:105380009A6824F070042C435C60154CA3421AD038
:10539000B3F1804F17D0A4F57C44A34213D004F599
:1053A0008064A3420FD004F58064A3420BD004F5BF
:1053B0007844A34207D004F57054A34203D0A4F567
:1053C0009434A34204D1496822F080020A439A60CF
:1053D000012380F83D30002380F83C30184630BD72
:1053E0000000014090F83C30012B1FD0CB688A6848
:1053F00023F4407313434A6823F4806313430A6819
:1054000023F4006313430A6923F4805313434A6966
:1054100023F400531343CA6923F4804313430268FF
:105420005364002380F83C301846704702207047D0
:1054300070477047026802F10C0353E8003F23F401
:1054400090730C3242E8003102680029F2D102F177
:10545000140353E8003F23F0010302F1140C4CE85D
:1054600000310029F3D1036B012B0BD102F10C03A6
:1054700053E8003F23F0100302F10C0C4CE800311C
:105480000029F3D1202380F83E30002303637047C6
:105490000268C16838B5136923F440530B431361A4
:1054A000054683680069D168034368690343E86976
:1054B00021F4164121F00C0103430B43D3605369DF
:1054C000A96923F440730B4353611F4B9A4203D0E5
:1054D00003F580639A4224D1FFF79CF8EA69192307
:1054E000B2F5004FA0FB0301D5E900431CD11A46D9
:1054F00092184FF000035B41FBF79EFB6421B0FB69
:10550000F1F501FB1503DB003233B3FBF1F303F0DC
:1055100007025B0002EB051203F4F8731344A36067
:1055200038BDFFF767F8D9E79A009B0FFBF784FBBC
:105530006422B0FBF2F102FB11031B013233B3FB17
:10554000F2F303EB0113EAE700100140F8B504465B
:105550000E4617461D462268136836EA030301D13A
:10556000002028E06B1CF7D025B1FDF7F1FCC01B33
:105570008542F0D2226802F10C0353E8003F23F485
:10558000D0730C3242E8003021680028F2D101F1DA
:10559000140353E8003F23F0010301F1140040E835
:1055A0000032002AF3D1202384F83D3084F83C20D7
:1055B00084F83E300320F8BD10B5044640B390F89F
:1055C0003D3003F0FF021BB980F83C20FDF7C0FB23
:1055D0002268242384F83D30D36823F40053D36039
:1055E0002046FFF755FF23681A6922F490421A619A
:1055F0005A6922F02A025A61DA6842F40052DA60EB
:1056000000202023206484F83D3084F83E3010BD13
:105610000120FCE7F7B5174690F83D200093202ABB
:1056200004460E4649D1002945D0002F43D090F8BA
:105630003C20012A41D0012280F83C200025212273
:10564000056480F83D20FDF783FCA168009BA784DA
:10565000B1F5805F0246E78403D1216909B9354677
:105660000E46002184F83C10E18C89B241B94021FA
:105670002046FFF76BFF60B9202384F83D3009E036
:1056800080212046CDE90023FFF760FFDDE90023FC
:1056900010B1032003B0F0BD20684EB935F8021BED
:1056A000C1F308014160E18C013989B2E184DBE793
:1056B00016F8011BF6E70120ECE70220EAE7704745
:1056C000704708B5806B0023C385C384FFF7F8FFDC
:1056D00008BD704713B590F83E30222B53D1816836
:1056E000836A0268B1F5805F3DD1016900293DD12F
:1056F0005268C2F3080223F8022BC48D8362013C76
:10570000A4B2C485002C2CD10368DA6822F02002F0
:10571000DA60DA6822F48072DA605A6922F00102F3
:105720005A61202380F83E30036B012B036827D198
:10573000046303F10C0252E8002F22F0100203F17F
:105740000C0444E800210029F3D11A68D20605D5DB
:1057500001911A6801925B680193019B818DFFF7AB
:10576000B8FF002010E039B9016929B95268D2B2F6
:105770001A70836A0133C0E7526802F07F02F7E7CC
:10578000FBF7BEFCEDE7022002B010BD036837B5A1
:105790001A68D9685D6912F00F0F044608D19506A2
:1057A00068D58D0666D503B0BDE83040FFF792BFDF
:1057B00005F0010001F4907505435BD0D50705D5D0
:1057C000CB0542BF236C43F001032364550704D586
:1057D00018B1236C43F002032364930704D518B176
:1057E000236C43F004032364150707D501F020035D
:1057F00003431EBF236C43F008032364236C002B78
:1058000032D0900604D58A0602D52046FFF762FF03
:1058100023685B69256C03F0400305F008051D4310
:10582000204623D0FFF706FE226853695B0618D591
:1058300002F1140353E8003F23F0400302F1140087
:1058400040E800310029F3D1A06B50B1724B0365E1
:10585000FDF756FE40B1A06B036D03B0BDE83040CC
:1058600018472046FFF72CFF03B030BDFFF728FF95
:105870002564F9E7206B012840F09180D50640F1BE
:105880008E80C80640F18B80002201921A68019236
:105890005A680192019A5A6955064CD5A16B0A685B
:1058A000526892B2002ADFD0A08D9042DCD9E28506
:1058B000CA69B2F5807F36D003F10C0252E8002F9E
:1058C00022F4807203F10C0040E800210029F3D19A
:1058D00003F1140252E8002F22F0010203F1140038
:1058E00040E800210029F3D103F1140252E8002F0F
:1058F00022F0400203F1140040E800210029F3D116
:10590000202284F83E20216303F10C0252E8002F8C
:1059100022F0100203F10C0040E800210029F3D12D
:10592000A06BFDF7A9FDE38DA18DC91A89B22046B0
:10593000FFF7CFFE98E7E18D8AB2E18D89B20029A9
:1059400092D0A18D891A89B200298DD003F10C0261
:1059500052E8002F22F4907203F10C0545E8002074
:105960000028F3D103F1140252E8002F22F00102C3
:1059700003F1140545E800200028F3D1202284F823
:105980003E20206303F10C0252E8002F22F01002A7
:1059900003F10C0545E800200028F3D1C7E7100605
:1059A00028D50D0626D594F83D20212A7FF45CAF3A
:1059B000A168226AB1F5805F17D12169A9B932F8CF
:1059C000021BC1F3080159602262E28C013A92B2D3
:1059D000E284002A7FF448AFDA6822F08002DA60BD
:1059E000DA6842F04002DA603EE7511C2162127828
:1059F0005A60EAE750067FF537AF4A067FF534AFC5
:105A0000DA6822F04002DA60202384F83D30204634
:105A1000FFF755FE28E700BFC3560008C285828500
:105A200022230022026480F83E30036880F83C2084
:105A30008162D96841F48071D960596941F00101EE
:105A40005961D96841F02001D9601046704770B49F
:105A500090F83E60202E10D161B15AB190F83C40D0
:105A6000012C0AD0012480F83C400024046370BC5F
:105A7000FFF7D4BF012070BC70470220FBE7000095
:105A8000EFF305832BB9064B186828B901221A6079
:105A900070476FF0050070474FF0FF30704700BF50
:105AA000F402002010B5EFF305845CB9084B1A68C6
:105AB000012A0AD1074AD47702221A6000F090FD29
:105AC000204610BD6FF00500FBE74FF0FF30F8E710
:105AD000F402002000ED00E0F0B587B0144600228B
