:020000040800F2
:10000000000002203D370008A5360008A73600088A
:10001000A9360008AB360008AD3600080000000025
:10002000000000000000000000000000F17800085F
:10003000AF3600080000000081790008B1360008E2
:100040008D3700088D3700088D3700088D37000880
:100050008D3700088D3700088D3700088D37000870
:100060008D3700088D3700088D3700088D37000860
:100070008D3700088D3700088D3700088D37000850
:100080008D3700088D3700088D3700088D37000840
:100090008D3700088D3700088D370008C9360008F5
:1000A0008D3700088D3700088D3700088D37000820
:1000B0008D3700088D370008D13600088D370008CD
:1000C0008D3700088D3700088D3700088D37000800
:1000D0008D3700088D3700088D370008DD360008A1
:1000E0008D3700088D3700088D3700088D370008E0
:1000F0008D3700088D3700088D3700088D370008D0
:100100008D3700088D3700088D3700088D370008BF
:100110008D3700088D3700088D3700088D370008AF
:100120008D3700088D3700088D3700088D3700089F
:100130008D3700088D3700088D3700088D3700088F
:100140008D3700088D3700088D3700088D3700087F
:100150008D3700088D3700088D3700088D3700086F
:100160008D3700088D3700088D3700088D3700085F
:100170008D3700088D3700088D370008000000001B
:080180008D3700088D370008DF
:1001900010B5054C237833B9044B13B10448AFF3C1
:1001A00000800123237010BD7400002000000000B7
:1001B00020AA000808B5034B1BB103490348AFF35D
:1001C000008008BD000000007800002020AA000880
:1001D00001F0FF01102A2BDB10F0070F08D010F8F8
:1001E000013B013A8B422DD010F0070F42B3F6D1FC
:1001F000F0B441EA012141EA014122F007047FF015
:1002000000070023F0E80256083C85EA010586EA6B
:10021000010685FA47F5A3FA87F586FA47F6A5FAA7
:1002200087F68EB9EED1F0BC01F0FF0102F00702B3
:1002300032B110F8013B013A83EA010313B1F8D15E
:100240000020704701387047002D06BF354603383F
:10025000073815F0010F07D1013015F4807F02BF78
:10026000013015F4C03F0130F0BC0138704700BFC9
:1002700081F0004102E000BF83F0004330B54FEA57
:1002800041044FEA430594EA050F08BF90EA020FC4
:100290001FBF54EA000C55EA020C7FEA645C7FEA57
:1002A000655C00F0E2804FEA5454D4EB5555B8BF7A
:1002B0006D420CDD2C4480EA020281EA030382EAEB
:1002C000000083EA010180EA020281EA0303362D7D
:1002D00088BF30BD11F0004F4FEA01314FF4801C50
:1002E0004CEA113102D0404261EB410113F0004F62
:1002F0004FEA03334CEA133302D0524263EB430319
:1003000094EA050F00F0A780A4F10104D5F1200EB6
:100310000DDB02FA0EFC22FA05F2801841F1000111
:1003200003FA0EF2801843FA05F359410EE0A5F1E5
:1003300020050EF1200E012A03FA0EFC28BF4CF016
:10034000020C43FA05F3C01851EBE37101F00045CC
:1003500007D54FF0000EDCF1000C7EEB00006EEBD9
:100360000101B1F5801F1BD3B1F5001F0CD3490863
:100370005FEA30004FEA3C0C04F101044FEA4452BA
:1003800012F5800F80F09A80BCF1004F08BF5FEA41
:10039000500C50F1000041EB045141EA050130BD21
:1003A0005FEA4C0C404141EB0101013C28BFB1F533
:1003B000801FE9D291F0000F04BF01460020B1FA7E
:1003C00081F308BF2033A3F10B03B3F120020CDA51
:1003D0000C3208DD02F1140CC2F10C0201FA0CF02F
:1003E00021FA02F10CE002F11402D8BFC2F1200C94
:1003F00001FA02F120FA0CFCDCBF41EA0C0190404A
:10040000E41AA2BF01EB0451294330BD6FEA040492
:100410001F3C1CDA0C340EDC04F11404C4F120027D
:1004200020FA04F001FA02F340EA030021FA04F38F
:1004300045EA030130BDC4F10C04C4F1200220FAE6
:1004400002F001FA04F340EA0300294630BD21FA24
:1004500004F0294630BD94F0000F83F4801306BFEA
:1004600081F480110134013D4EE77FEA645C18BFDE
:100470007FEA655C29D094EA050F08BF90EA020F75
:1004800005D054EA000C04BF1946104630BD91EA6D
:10049000030F1EBF0021002030BD5FEA545C05D170
:1004A0004000494128BF41F0004130BD14F58004AF
:1004B0003CBF01F5801130BD01F0004545F0FE4123
:1004C00041F470014FF0000030BD7FEA645C1ABF58
:1004D000194610467FEA655C1CBF0B46024650EA8F
:1004E000013406BF52EA033591EA030F41F40021BB
:1004F00030BD00BF90F0000F04BF0021704730B541
:100500004FF4806404F132044FF000054FF0000115
:1005100050E700BF90F0000F04BF0021704730B5D6
:100520004FF4806404F1320410F0004548BF4042AB
:100530004FF000013EE700BF42004FEAE2014FEA00
:1005400031014FEA02701FBF12F07F4393F07F4FDB
:1005500081F06051704732F07F4208BF704793F0DE
:100560007F4F04BF41F40021704730B54FF46074F1
:1005700001F0004521F000411CE700BF50EA0102F4
:1005800008BF704730B54FF000050AE050EA01029D
:1005900008BF704730B511F0004502D5404261EB0D
:1005A00041014FF4806404F132045FEA915C3FF44E
:1005B000D8AE4FF003025FEADC0C18BF03325FEAEB
:1005C000DC0C18BF033202EBDC02C2F1200300FA9C
:1005D00003FC20FA02F001FA03FE40EA0E0021FAC1
:1005E00002F11444BDE600BF70B54FF0FF0C4CF4AF
:1005F000E06C1CEA11541DBF1CEA135594EA0C0F61
:1006000095EA0C0F00F0DEF82C4481EA030621EA9B
:100610004C5123EA4C5350EA013518BF52EA0335D6
:1006200041F4801143F4801338D0A0FB02CE4FF088
:100630000005E1FB02E506F00042E0FB03E54FF0B8
:100640000006E1FB03569CF0000F18BF4EF0010EB0
:10065000A4F1FF04B6F5007F64F5407404D25FEAAC
:100660004E0E6D4146EB060642EAC62141EA55515F
:100670004FEAC52040EA5E504FEACE2EB4F1FD0CA1
:1006800088BFBCF5E06F1ED8BEF1004F08BF5FEA1F
:10069000500E50F1000041EB045170BD06F00046D1
:1006A00046EA010140EA020081EA0301B4EB5C047E
:1006B000C2BFD4EB0C0541EA045170BD41F4801176
:1006C0004FF0000E013C00F3AB8014F1360FDEBF9B
:1006D000002001F0004170BDC4F10004203C35DA77
:1006E0000C341BDC04F11404C4F1200500FA05F3FA
:1006F00020FA04F001FA05F240EA020001F000429B
:1007000021F0004110EBD37021FA04F642EB060110
:100710005EEA430E08BF20EAD37070BDC4F10C043A
:10072000C4F1200500FA04F320FA05F001FA04F2FE
:1007300040EA020001F0004110EBD37041F10001EA
:100740005EEA430E08BF20EAD37070BDC4F12005F5
:1007500000FA05F24EEA020E20FA04F301FA05F25D
:1007600043EA020321FA04F001F0004121FA04F205
:1007700020EA020000EBD3705EEA430E08BF20EAD5
:10078000D37070BD94F0000F0FD101F0004640000F
:1007900041EB010111F4801F08BF013CF7D041EA91
:1007A000060195F0000F18BF704703F00046520095
:1007B00043EB030313F4801F08BF013DF7D043EA66
:1007C0000603704794EA0C0F0CEA135518BF95EA1C
:1007D0000C0F0CD050EA410618BF52EA4306D1D1A3
:1007E00081EA030101F000414FF0000070BD50EAC2
:1007F000410606BF1046194652EA430619D094EA4C
:100800000C0F02D150EA013613D195EA0C0F05D135
:1008100052EA03361CBF104619460AD181EA030189
:1008200001F0004141F0FE4141F470014FF0000041
:1008300070BD41F0FE4141F4780170BD70B54FF0DC
:10084000FF0C4CF4E06C1CEA11541DBF1CEA13555C
:1008500094EA0C0F95EA0C0F00F0A7F8A4EB05043E
:1008600081EA030E52EA03354FEA013100F0888035
:100870004FEA03334FF0805545EA131343EA1263FE
:100880004FEA022245EA111545EA10654FEA0026B3
:100890000EF000419D4208BF964244F1FD0404F56C
:1008A000407402D25B084FEA3202B61A65EB0305C8
:1008B0005B084FEA32024FF480104FF4002CB6EB85
:1008C000020E75EB030E22BFB61A754640EA0C0005
:1008D0005B084FEA3202B6EB020E75EB030E22BF45
:1008E000B61A754640EA5C005B084FEA3202B6EB86
:1008F000020E75EB030E22BFB61A754640EA9C0045
:100900005B084FEA3202B6EB020E75EB030E22BF14
:10091000B61A754640EADC0055EA060E18D04FEAD2
:10092000051545EA16754FEA06164FEAC30343EA72
:1009300052734FEAC2025FEA1C1CC0D111F4801F3F
:100940000BD141EA00014FF000004FF0004CB6E738
:1009500011F4801F04BF01430020B4F1FD0C88BFD7
:10096000BCF5E06F3FF6AFAEB5EB030C04BFB6EBE2
:10097000020C5FEA500C50F1000041EB045170BDD5
:100980000EF0004E4EEA113114EB5C04C2BFD4EB02
:100990000C0541EA045170BD41F480114FF0000E86
:1009A000013C90E645EA060E8DE60CEA135594EA02
:1009B0000C0F08BF95EA0C0F3FF43BAF94EA0C0F05
:1009C0000AD150EA01347FF434AF95EA0C0F7FF47A
:1009D00025AF104619462CE795EA0C0F06D152EACE
:1009E00003353FF4FDAE1046194622E750EA4106B2
:1009F00018BF52EA43067FF4C5AE50EA41047FF4C3
:100A00000DAF52EA43057FF4EBAE12E74FF0FF3C27
:100A100006E000BF4FF0010C02E000BF4FF0010CF8
:100A20004DF804CD4FEA410C7FEA6C5C4FEA430C71
:100A300018BF7FEA6C5C1BD001B050EA410C0CBFC0
:100A400052EA430C91EA030F02BF90EA020F002022
:100A5000704710F1000F91EA030F58BF994208BF89
:100A600090422CBFD8176FEAE37040F00100704746
:100A70004FEA410C7FEA6C5C02D150EA013C07D19D
:100A80004FEA430C7FEA6C5CD6D152EA033CD3D0E8
:100A90005DF8040B704700BF8446104662468C46E2
:100AA0001946634600E000BF01B5FFF7B7FF002815
:100AB00048BF10F1000F01BD4DF808EDFFF7F4FF3E
:100AC0000CBF012000205DF808FB00BF4DF808EDC9
:100AD000FFF7EAFF34BF012000205DF808FB00BFEC
:100AE0004DF808EDFFF7E0FF94BF012000205DF80E
:100AF00008FB00BF4DF808EDFFF7CEFF94BF0120C3
:100B000000205DF808FB00BF4DF808EDFFF7C4FFBB
:100B100034BF012000205DF808FB00BF4FEA410C04
:100B20007FEA6C5C02D150EA013C0AD14FEA430CE7
:100B30007FEA6C5C02D152EA033C02D14FF0000024
:100B400070474FF0010070474FEA410212F5001262
:100B500015D211D56FF47873B3EB625212D94FEA04
:100B6000C12343F0004343EA505311F0004F23FAEE
:100B700002F018BF404270474FF00000704750EA43
:100B8000013005D111F0004008BF6FF00040704700
:100B90004FF00000704700BF4FEA4102B2F1E0435E
:100BA00024BFB3F5001CDCF1FE5C0DD901F0004C54
:100BB0004FEAC0024CEA5070B2F1004F40EB8300A4
:100BC00008BF20F00100704711F0804F21D113F1D0
:100BD0003872BCBF01F00040704741F480114FEA09
:100BE0005252C2F11802C2F1200C10FA0CF320FA92
:100BF00002F018BF40F001004FEAC1234FEAD323AF
:100C000003FA0CFC40EA0C0023FA02F34FEA430318
:100C1000CCE77FEA625307D150EA01331EBF4FF0A1
:100C2000FE4040F44000704701F0004040F0FE40BC
:100C300040F40000704700BF53B94AB9002908BF0B
:100C400000281CBF4FF0FF314FF0FF3000F074B9A7
:100C5000ADF1080C6DE904CE00F006F8DDF804E013
:100C6000DDE9022304B070472DE9F047089D0446F2
:100C70008E46002B4DD18A42944669D9B2FA82F24F
:100C800052B101FA02F3C2F1200120FA01F10CFA8B
:100C900002FC41EA030E94404FEA1C48210CBEFBC3
:100CA000F8F61FFA8CF708FB16E341EA034306FB4C
:100CB00007F199420AD91CEB030306F1FF3080F0DB
:100CC0001F81994240F21C81023E63445B1AA4B228
:100CD000B3FBF8F008FB103344EA034400FB07F7CA
:100CE000A7420AD91CEB040400F1FF3380F00A810B
:100CF000A74240F207816444023840EA0640E41B00
:100D000000261DB1D4400023C5E900433146BDE8AB
:100D1000F0878B4209D9002D00F0EF800026C5E94D
:100D2000000130463146BDE8F087B3FA83F6002E65
:100D30004AD18B4202D3824200F2F980841A61EBDD
:100D4000030301209E46002DE0D0C5E9004EDDE7FB
:100D500002B9FFDEB2FA82F2002A40F09280A1EBE3
:100D60000C014FEA1C471FFA8CFE0126200CB1FB38
:100D7000F7F307FB131140EA01410EFB03F0884231
:100D800008D91CEB010103F1FF3802D2884200F2BE
:100D9000CB804346091AA4B2B1FBF7F007FB101150
:100DA00044EA01440EFB00FEA64508D91CEB0404EE
:100DB00000F1FF3102D2A64500F2BB800846A4EB49
:100DC0000E0440EA03409CE7C6F12007B34022FA34
:100DD00007FC4CEA030C20FA07F401FA06F31C4363
:100DE000F9404FEA1C4900FA06F3B1FBF9F8200C70
:100DF0001FFA8CFE09FB181140EA014108FB0EF0B6
:100E0000884202FA06F20BD91CEB010108F1FF3A05
:100E100080F08880884240F28580A8F10208614411
:100E2000091AA4B2B1FBF9F009FB101144EA01411F
:100E300000FB0EFE8E4508D91CEB010100F1FF34CA
:100E40006CD28E456AD90238614440EA0840A0FB62
:100E50000294A1EB0E01A142C846A64656D353D038
:100E60005DB1B3EB080261EB0E0101FA07F722FA5C
:100E700006F3F1401F43C5E9007100263146BDE885
:100E8000F087C2F12003D8400CFA02FC21FA03F3E8
:100E9000914001434FEA1C471FFA8CFEB3FBF7F069
:100EA00007FB10360B0C43EA064300FB0EF69E428E
:100EB00004FA02F408D91CEB030300F1FF382FD227
:100EC0009E422DD9023863449B1B89B2B3FBF7F6CF
:100ED00007FB163341EA034106FB0EF38B4208D9A8
:100EE0001CEB010106F1FF3816D28B4214D9023EE9
:100EF0006144C91A46EA004638E72E46284605E707
:100F00000646E3E61846F8E64B45A9D2B9EB0208D7
:100F100064EB0C0E0138A3E74646EAE7204694E767
:100F20004046D1E7D0467BE7023B614432E730469A
:100F300009E76444023842E7704700BF90ED007A49
:100F4000D1ED007AB4EEE77AF1EE10FA03D4CCBF1B
:100F50000120002070474FF0FF30704708B50F4860
:100F60000F4C104D0C2104F069FD22682B689A4249
:100F700001D2236003E00C4B1B689A42F9D80B4B5B
:100F80001B784BB90A4B1B68044A12681364094B5F
:100F9000186805F05CFAE8E72368F5E75C50002084
:100FA00028550020185500201C550020CC0000209A
:100FB000105500201455002008B5054D054C284655
:100FC0004FF4806102F0FBFF206805F040FAF6E77D
:100FD000001002409054002080B500212848294D7F
:100FE000294E04F0A9FD2648042104F0A5FD2A6835
:100FF000002A02DA00232B6003E0244B1B689A428C
:10100000F9DC234F3A68002A02DA00233B6003E050
:101010001E4B1B689A42F9DC1E4C2278A2F1460353
:101020005A425A410821304602F0C4FF2278463A1B
:1010300018BF01220421304602F0BCFF2278A2F141
:1010400046014A424A413046102102F0B3FF22785D
:10105000463A18BF01222021304602F0ABFF237828
:101060005BB12968064A1268516303B13B68936318
:10107000094B186805F0EBF9B9E71946F2E700BF2C
:10108000C4510020A854002000000240A4540020B5
:10109000AC5400203C4F0020B054002000B595B067
:1010A0002C22002109A808F097F81422002103A897
:1010B00008F092F80023194A0193116C41F0805115
:1010C0001164126C02F080520192019A144A029348
:1010D000116841F48041116012680E9302F480425D
:1010E0000292029A0222089201201022CDE90B02FC
:1010F00008A803F071FC014608B172B6FEE70F23A1
:10110000CDE90330CDE90500079003A803F042FEC6
:1011100008B172B6FEE715B05DF804FB0038024076
:101120000070004070470000DFED0F6AB0EE407ABB
:10113000002399420BDCA1B107EE901AF8EEE77A92
:1011400086EEA76AE6EE070AB0EE600A704750F82E
:10115000232007EE902AF8EE677A013376EEA76A2D
:10116000E7E79FED010A70470000000070B52DED24
:10117000028B8A0082B0064610460C46019207F0A8
:10118000F3FF019A0546314607F0FEFF042221468F
:1011900028460F4B08F040F9630814F0010F05EBE7
:1011A000830308BF13ED010A93ED008A08BF30EEF8
:1011B000088A284604BFB6EE000A28EE008A07F027
:1011C000DBFFB0EE480A02B0BDEC028B70BD00BF81
:1011D0003D0F000808B5214BDFED210A19782148A1
:1011E000B7EE000AFFF7A0FF1F4900230A46F1EC03
:1011F000017AF4EEC07AF1EE10FA15D853B302EB8F
:10120000830212ED017A30EE470A37EEC77AC0EE5C
:10121000077A07EE103AB8EEC70A37EE800AF2EE08
:10122000047A20EE270A08BD0133082BDFD1D2ED66
:10123000067A30EE670AB2EE047A20EE070A92EDE3
:10124000077A37EE677AC0EE077A9FED080A37EE25
:10125000800AE8E79FED020AE5E700BF9052002010
:1012600000000000C8520020A052002000008C4264
:1012700002460023994201DC01207047D05C00281F
:10128000FBD00133F6E70000BFB507F043FADFF803
:101290006481444F0026444901A808F03DFA434BBD
:1012A0001B78012B61D1424901A808F035FA01AA47
:1012B00000210A2007F00EFA3E4B3F491A7801A898
:1012C00008F00AFA0A2101AA084607F003FA0121E8
:1012D000404602F069FE3949024601A808F0FCF9CF
:1012E00001AA14210A2007F0F5F9FFF773FF10EEA9
:1012F000100AFFF721F93B463246FEF7BFFFFFF722
:1013000023FC2F49024601A808F0E6F901AA1E2194
:101310000A2007F0DFF92B4BDFED2B0A93ED000AD3
:101320002A4B2B481978FFF7FFFE10EE100AFFF743
:1013300003F93B463246FEF7A1FFFFF705FC2549BE
:10134000024601A808F0C8F901AA28210A2007F0DE
:10135000C1F9214A32210A2007F0BCF907F01EF931
:101360001E4B186805F073F895E71D4B1B78013B81
:10137000012B01D81B4997E71B4B1C4A1B681268BD
:10138000934294DC1A4C142505FB03440A212046A1
:10139000FFF76EFF01288AD12A46214601A808F0EE
:1013A000C3F984E70000E03FE8AA00083D4F0020B1
:1013B00038AA0008D85400204EAA00085AAA0008EB
:1013C00062AA000864550020000000005D5500205E
:1013D000785500206BAA0008D4000020B4540020E7
:1013E000CC00002043AA0008BC0000206C4F002065
:1013F000010100200010024010B5514B1B7813B1C1
:10140000012B5CD010BD4F4B4F4A1A604F4B504AD6
:101410001A60504A4FF07E5313604F4A4FF0874195
:1014200011604E494FF085420A604D490B604D49AD
:101430004FF0804008604C484FF0844101604B48B9
:1014400003604B484FF0834404604A4801604A49B6
:101450000B604A494FF08240086049490A60494A96
:101460001360494A1360494B494A1A60494B4A4A3A
:101470001A604A4B4A4A1A604A4B4B4A1A604B4B15
:101480004B4A1A604B4B4C4A1A604C4B4C4A1A6000
:101490004C4B4D4A1A604D4B42F260221A604C4B45
:1014A00042F21C521A604B4B40F648521A604A4BAB
:1014B00040F6AC521A60494B82221A60A2E7214AD8
:1014C00022494FF07E53136000220A6021490B60CD
:1014D00021490B6021490B6021490B6021490B60B8
:1014E00021490B6021490B6021490B6021490B60A8
:1014F00021490B6021490B6021490B6021490A6099
:1015000021490A6021490B6022490A6023490B6086
:1015100024490A6025490B6026490A6027490B6067
:10152000284B1A60294A42F21C531360284A136060
:10153000284A40F6AC531360274A1360BBE700BF4C
:10154000D8540020544F00202080553E584F002092
:10155000EC3B8B3F58540020685400207854002006
:101560006054002070540020805400205C540020FF
:101570006C5400207C5400206454002074540020DB
:1015800084540020384F002040550020885400200B
:10159000E59AF43E8C540020F2C601409454002099
:1015A0003BACD93E98540020318FCC3FE054002012
:1015B0002CEAE73EE454002072F16940E854002030
:1015C000907FC33EEC540020BEC70340545000201F
:1015D000585000209C540020A05400205C4F002054
:1015E000B0F5807F06D1044A1378C3F1010313706C
:1015F000FFF702BF704700BFD85400200C4B4FF0DC
:10160000FF3210B51A600B4B00241C600A4B1846C1
:101610001422002107F0E0FD01340346B4F57A7F7F
:1016200003F11403F3D1054B01221A7010BD00BF62
:101630006C4F0020BC0000200101002000010020B0
:101640002DE9F0479CB002F0C7F8FFF727FD142200
:10165000002113A807F0C0FD0024AD4B01941A6BC4
:10166000AC4842F010021A631A6B02F010020192A9
:10167000019A02941A6B42F004021A631A6B02F088
:1016800004020292029A03941A6B42F001021A6356
:101690001A6B02F001020392039A04941A6B42F04F
:1016A00008021A631A6B02F008020492049A059465
:1016B0001A6B42F002021A631B6B03F002030593DC
:1016C00022464FF4BC61059B02F074FC924822460E
:1016D0003C2102F06FFC22469048102102F06AFC87
:1016E00001274FF4BC638B4813A9CDE91337CDE92B
:1016F000154402F07FFB3C23CDE91337864815944F
:10170000022313A916934FF4807502F073FB4FF474
:1017100004138348159413A9CDE91353102602F03E
:1017200069FB7E487F4D13A9CDE91367CDE91544C8
:1017300002F060FB7748159413A9CDE9137402F009
:1017400059FB22460521172002F0AAFA172002F0C1
:10175000D9FA1C2221460CA8CDE9084407F03CFD2B
:101760002022214613A807F037FDDFF8D0C1AC6076
:101770004FF4A073C5E900C34FF47A73C5E903348D
:10178000284680236C61AB6103F02EFE08B172B66F
:10179000FEE7CDE9080008A9284604F053FA08B18D
:1017A00072B6FEE76023CDE90C30CDE910000E9053
:1017B00012900C220CA9284603F0FAFE08B172B66A
:1017C000FEE7CDE91300CDE9150017904FF4005363
:1017D0001A9013A92846189304F072FA044608B127
:1017E00072B6FEE72846504D01F0F2FE21461C225B
:1017F00014A807F0F1FC4FF00A084FF080434FF6B1
:10180000FF794FF0030A13A92846CDE90C44C5E936
:101810000034C5E90394AC60AC61CDF84CA01597D9
:10182000CDF85C801997CDF86C8003F035FE08B1D7
:1018300072B6FEE7CDE90C000CA9284604F002FAC6
:10184000044608B172B6FEE7384D01461C2214A8C2
:1018500007F0C2FC364B2C6113A92846CDE90C4495
:10186000C5E90034C5E90249AC61CDF84CA0159733
:10187000CDF85C801997CDF86C8003F00DFE08B1AF
:1018800072B6FEE7CDE90C000CA9284604F0DAF99F
:10189000044608B172B6FEE70146324608A807F0D2
:1018A0009BFC1C2221460CA8CDE9064407F094FCC1
:1018B0002022214613A807F08FFC1E4D1E4BAC6062
:1018C000C5E90034284644F29F13C5E90334C5E94D
:1018D000054403F05DFD08B172B6FEE74FF4805396
:1018E00008A92846089303F096FF08B172B6FEE7F0
:1018F000104803F079FD08B172B6FEE7CDE90600A5
:1019000006A90C4804F09EF90246C8B172B6FEE77B
:101910000038024000100240000002400004024073
:10192000000C02405C500020A4500020EC5000202D
:1019300000040040C45100200004014000000140A8
:101940006023CDE90C30CDE90E00CDE910001290F6
:101950000CA9784803F02CFE08B172B6FEE7754872
:1019600004220CA903F024FE08B172B6FEE74FF47E
:101970000053CDE91300CDE9150017901A9013A973
:101980006C48189304F09CF9034608B172B6FEE760
:1019900069486A4C03614FF4E132C0E900420C220D
:1019A000C0E90233C0E90523C36104F073FA0546B8
:1019B00008B172B6FEE7624C624F0146102213A8CE
:1019C00007F00AFC604BA56001262046C4E90035FB
:1019D0002561257684F82050E562A762E560E6611E
:1019E00084F83050666101F037FF08B172B6FEE747
:1019F0000A23159013A92046CDE9133602F0ACF85E
:101A0000054608B172B6FEE7504C0146102213A8F5
:101A100007F0E2FB4E4BA5602046C4E90035C4E95F
:101A20000A752561257684F82050E560E66184F822
:101A30003050666101F010FF08B172B6FEE70E2368
:101A4000159013A92046CDE9133602F085F808B1A8
:101A500072B6FEE71022002113A807F0BDFB3D4D32
:101A60003D4A0F270023C5E9002728464FF0FF32E3
:101A7000CDE90C33C5E90323AB60AB6103F088FC0F
:101A800008B172B6FEE74FF4805313A928461393AA
:101A900003F0C1FE08B172B6FEE7CDE90C000CA957
:101AA000284604F0CFF8064608B172B6FEE7CDE945
:101AB0000C000146102213A807F08EFB274C284B80
:101AC000A660C4E9003720464FF6FF73C4E9033629
:101AD000A66103F0B5FC08B172B6FEE7CDE90C00D3
:101AE0000CA9204604F0AEF808B172B6FEE7012654
:101AF000CDE9146013901690082213A9204603F034
:101B0000EDFD034608B172B6FEE716481649174ABE
:101B10000362C0E900124FF48042C0E90233C0E919
:101B20000423C0E9063302F0B9FB044600B372B6E1
:101B3000FEE700BFC45100200C52002000480040C6
:101B4000704F00200100000F00200140B84F00201E
:101B5000002101407C510020000C00403451002045
:101B6000000800400050002000540040801A060089
:101B70008E4B8F4A1A608F4B8F4A1A608F4B904A58
:101B80001A60904B90481860904B91491960914BA6
:101B9000914F1F60914B924F1F60924F5F60924F29
:101BA0009F60924FDF60924F1F61924F5F61924F33
:101BB0009F61924FDF61924B924F1F60924B186072
:101BC000924B93481860934B1960934B934919605B
:101BD000934B94491960944B944919604FF081419B
:101BE0005960934999609349D960934B1A60934B1C
:101BF00042F6E0621A60924B14271F60FFF7FEFC6A
:101C00003A4621468F4807F0E7FA3A4621468E4881
:101C100007F0E2FA8D4B8E491C708E4B8E481C707B
:101C20008E4B1C708E4B1C708E4B1C708E4B1C7020
:101C300007F072FD8D4B1C70FFF7DEFB8C4B8D4A5D
:101C40001C708D4B8D481C708D4B1C708D4B1E7005
:101C50004A2313608C4A322111608C4A6D21116035
:101C60008B4A412111608B4A552111608A4A1360C9
:101C70008A4B1C708A4B1C708A4B1C708A4B3A46EC
:101C800021461C7007F0A8FA3A462146874807F01B
:101C9000A3FA4FF4C8722146854807F09DFA4FF425
:101CA000C8722146834807F097FA834B4FF4FA62D3
:101CB0001A60824B824A1E6019231360814A1360A6
:101CC000814B1E60814B40F6B8321A60804B814ACE
:101CD0001E600A231360804A1660804A1660804A9C
:101CE0001660804A4FF42F7111607F4A0221116003
:101CF0007E4A13607E4B64221A607E4B4FF4FA7268
:101D000028461A6003F090F904F02CFB7A4A7B48CD
:101D1000214604F053FB7A4B7A4A186021467A48F0
:101D200004F04CFB794B7A4A18602146794804F05C
:101D300045FB794B794A18602146794804F03EFB0F
:101D4000784B794A18602146784804F037FB784B85
:101D5000784A18602146784804F030FB774B784A7F
:101D600018602146774804F029FB774B774A1860C2
:101D70002146774804F022FB764B774A18602146CB
:101D8000764804F01BFB764B764A1860214676486D
:101D900004F014FB754B764A18602146754804F030
:101DA0000DFB754B186004F0EFFAFEE7B854002005
:101DB000DB0F4940DC54002066665640C800002016
:101DC0000000A040FC000020000020419C520020A8
:101DD00000004040C052002000002042A0520020DD
:101DE0000080F7440080A244008072440000434415
:101DF00000802244000007440000EB430000D3436E
:101E000064550020287E8C3C6C55002068550020CD
:101E100000007041F800002084520020111155414B
:101E2000D4540020000080BF105700200000AA42B8
:101E300000006D4300001A4320570020A4540020E6
:101E4000244F0020FC54002048550020CC000020E6
:101E500077AA00083C4F0020D4000020454F002006
:101E6000885200202C5500202D550020D8540020E9
:101E70005C55002010550020444F0020E400002055
:101E8000684F002008570020185500201C550020DE
:101E9000205500202455002028550020CD0000208A
:101EA000905200205D550020095700202457002043
:101EB000C852002078550020D0000020284F002074
:101EC000504F00205852002094520020905400207F
:101ED000B0540020B4540020F854002014550020C1
:101EE00060550020C00000208C520020C452002009
:101EF00030550020445500207CAC000889120008B1
:101F0000AC00002010AC000889210008A0000020CF
:101F1000A0AC0008452F0008B0000020C4AC0008A9
:101F20005D0F0008B4000020A4AB00088131000858
:101F30009400002080AB0008E521000890000020FC
:101F400034AC0008B90F0008A4000020E8AC000879
:101F5000991F0008B800002058AC0008D90F0008ED
:101F6000A8000020C8AB0008352500089800002014
:101F7000ECAB0008F51F00089C000020054B196819
:101F80004A6A4B6A9A4288BF03F1FF339B1A834225
:101F9000F7D370477C51002008B50E480E4C0D4D0C
:101FA000082103F0CBFD01221021204602F002F8A7
:101FB0000A20FFF7E3FF20460022102101F0FAFF7C
:101FC0002A68D36843F00803D360044B186804F010
:101FD0003EFAE8E73451002000040240605500203A
:101FE0004A1E00294FEA820200F1040108BF0022C4
:101FF00007F0D8B800B5334D334E344C8BB006F0F3
:1020000071FA06F002F92868FEF774FA02460B46E8
:1020100000202F49FEF712FCFEF7BEFD2D4B93ED7D
:10202000001A2D4B00EE100AD3ED000A2B4806F0E3
:10203000BDFC06F07DFA01283CD101A805F0D2FFD5
:1020400004A805F0B3FF3378012B02D107A805F0EF
:10205000E7FFDFED237A9DED061ADDED050A9DED24
:10206000040A9DED094ADDED083A9DED073ADDEDE4
:10207000032A9DED022ADDED011A184821EE271AE8
:1020800060EEA70A20EE270A06F0AEFD2378042BA7
:1020900003D914480521FFF7A3FF2378052B1CBFA4
:1020A0005A1C22700F4A08BF042302EB83030B4A19
:1020B00092681A6006F01CF806F00AF8286804F026
:1020C000C6F9B6E7585200200857002009570020EB
:1020D00000408F4084520020F80000205C52002015
:1020E00035FA8E3C245700204A1E00294FEA82020E
:1020F00000F1040108BF002207F054B8F8B51D4AEA
:1021000003689342044610D1027F042A0DD11A4D70
:102110002A785AB95A621A6A22F420621A621A6A32
:1021200042F400721A6201232B70F8BD134F08218C
:1021300003F00BF83B78632B064603D91048642163
:10214000FFF7D2FF3B78642B1ABF5A1C3A70632307
:102150000B4A42F8236023681A6A22F420621A624A
:102160001A6A1A62074B1A68D36823F00803D3600F
:102170000023D9E7000800405C5500205D55002091
:10218000785500203451002080B5124E124F134D67
:102190003378632B03D964213846FFF7A5FF28461F
:1021A00001F000FC4FF6FF71284601F07FFC337808
:1021B000642B18BF5A1C284616BF1C466324327075
:1021C00001F0C7FC064B47F82400186804F03FF9FB
:1021D000DEE700BF90520020C8520020704F002060
:1021E00094520020F8B5324D324F334E2B78042BE9
:1021F00003D905213846FFF777FF304601F0D2FBBF
:102200004FF6FF71304601F051FC2B78052B18BFBB
:102210005A1C304616BF1C4604242A7001F099FC53
:10222000DFED260A47F8240029782248B7EE000A95
:10223000FEF77AFFDFED227AB4EEE70AF1EE10FA4C
:1022400008DD2049204807F067FA204B186804F0A1
:10225000FEF8CBE7DFED1E7AB4EEE70AF1EE10FAF6
:1022600001DD1C49EEE7DFED1C7AB4EEE70AF1EE82
:1022700010FA01DD1949E5E7DFED197AB4EEE70A56
:10228000F1EE10FA01DD1749DCE7DFED177AB4EE65
:10229000E70AF1EE10FA01DD1449D3E7DFED147A15
:1022A000B4EEE70AF1EE10FACCBF12491249C9E7C1
:1022B000CD000020E4000020B84F00200000000006
:1022C0000000AA4484AA0008D4000020D000002006
:1022D00000C0A84491AA00080040A6449EAA000895
:1022E0000000A544ABAA000800C0A344B8AA000897
:1022F00000007A44C5AA0008D2AA0008184A194961
:1023000013780B70462B0CBF422146211170164AE0
:102310001168164A1160164A1278022A1DD0462BFF
:1023200009D1144BD3ED007AF5EEC07AF1EE10FA34
:102330000BDC114B0AE0422BFBD10E4BD3ED007AA4
:10234000F5EEC07AF1EE10FAF3D50C4B0C4A1B688F
:1023500013600C4B186804F07AB80B4BF6E700BF1B
:10236000C40000203C4F0020C8000020F45400208E
:10237000CC0000200C5700202055002024550020C0
:1023800028550020445500201055002030B54D4BF5
:102390001B78012B07EE900A40F093804A4A13689D
:1023A000591C1160494A12689342C0F28A80484B16
:1023B0009FED487A1B7848494848462B0CBF484A4D
:1023C000484AD2ED006A462B0CBF474A474AF8EE0E
:1023D000677A66EE876A462B86EEA75AD2ED006AC8
:1023E0000BBF434A434AD2ED003AD2ED003A0CBF4C
:1023F000414A424A67EEA66A462B86EE873AD2EDFC
:10240000006A0CBF3E4A3F4A66EE876A462B86EE5C
:10241000A76A0CBF3C4B3D4BD2ED006A93ED004ADE
:102420003B4A3C4B14681B6867EEA67A1A1BC7EE42
:10243000875A0A60384909685B1A0360374805689B
:1024400007EE902A364AF8EEE74AD2ED006A07EE28
:10245000903A344BB8EEE77AE3EE246AD3ED007A93
:10246000C2ED006AE5EE877A2F4AC3ED007A136861
:102470002B4308BF0460036808BF1160E31A05EE30
:10248000903AF8EEE55A294B046065EE655AE4EEA1
:10249000A35A76EEA56AFDEEE66AC3ED006A1368FC
:1024A0001160CB1A06EE903AF8EEE66A204B66EE23
:1024B000666AE7EE046A77EEA67AFDEEE77AC3ED88
:1024C000007A30BD2D550020BC540020244F002040
:1024D0003C4F002000007A44604F0020644F0020F1
:1024E000605400205854002070540020685400208C
:1024F0008054002078540020645400205C54002054
:10250000745400206C540020845400207C5400201B
:10251000484F00205C4F00204C4F0020C05400204A
:102520005052002054520020C4540020A8540020CF
:10253000AC5400202DE9F74F4C4D4D4CDFF858813D
:102540003C21284602F0A6FD3C21204602F0A2FDD7
:102550002B685F6A23685E6A01F064F94FF6FF79C1
:1025600082466FEA0A0B01F05DF9D8F80030824527
:1025700094BFA0EB0A010BEB00018B42F3D2D5F81C
:1025800000A0D4F800E0DAF82420DEF82430DAF8ED
:1025900000A0A7EB020C8CEAEC701AF0100FA0EB75
:1025A000EC700ABF02EB090CCC44ACEB070CDEF874
:1025B00000200190BCF1000FA6EB030080EAE07B55
:1025C000B8BFCCF1000CD206ABEBE07B56BF03EBFF
:1025D00009004844801B019B0028B8BF40429C452D
:1025E00028BF9C46234B5845C3F800C0224B28BF48
:1025F00058461860214B1B78012B2CD1204B9FEDA6
:10260000216AD3ED007A204BD3ED006A1F4B67EEB1
:10261000A67AD3ED006A1E4B67EEA66A07EE90CA53
:10262000B8EEE77A27EE267AC7EE067A93ED007ABF
:1026300077EE877AC3ED007A07EE900AF8EEE77A34
:10264000144B67EEA67A87EE867AD3ED007A77EEA2
:10265000277AC3ED007A0846FFF798FE2B685F6A79
:1026600023685E6A01F0DEF882467AE7A450002013
:10267000EC500020484F00204C4F00202C550020EB
:10268000544F002000002543B8540020DC540020A3
:102690002C4F0020304F0020504F00202DE9F041FA
:1026A000734B744C00252DED028B1D70724B2678F8
:1026B0001D60724B1D60724B186803F0C8FE2378D2
:1026C000032B2FD16F4B2570D3ED007A6E4B93ED1A
:1026D000007A6E4BF4EEC77AF1EE10FA88BFF0EE96
:1026E000477A93ED007AB5EE407AF1EE10FA1CBF0E
:1026F000F0EE006AD7EE267A17EE900AFDF71CFF7F
:10270000634B0022FDF7BAFDFEF71EFA614902464F
:10271000614806F0E1FF604960484FF6FF731322FD
:1027200003F0E6FB5E4BDFF8BC811B785D4D012BAF
:1027300077D0002798F800105B48FEF717FD85ED6D
:10274000000A002F00F09080584B186803F07FFEBD
:10275000574B95ED008A1A78564B03EB8203D3ED65
:10276000008A78EE687AF0EEE77A17EE900AFDF7C5
:10277000E3FE514B0022FDF77FFD21F000430246AE
:102780004D490020FDF778FDFEF706FA07EE100A26
:10279000DFED4A6A4A4B78EE077AF4EEE67AF1EE1C
:1027A00010FAA8BF77EEE67AF6EE006A77EEE87ADE
:1027B000F0EEE77AF4EEE67AF1EE10FAFFEE007A48
:1027C000F7EE006A88BFF0EE667A67EE277AC3ED0F
:1027D000007A3C4B93ED007AF0EEE77AF4EEC77A9C
:1027E000F1EE10FA40DD0123237000262378012B3F
:1027F0002ED1FFF783FD0EB100232370324B002250
:102800001A702378591E012907D930490A7023B953
:102810002F4B2B602F4B02221A70BDEC028BBDE8B0
:10282000F08198F800102048FEF7A0FCD5ED007A62
:10283000B4EE670AF1EE10FA3FF47BAF2778023F5F
:1028400018BF012776E702232370FFF757FDCCE777
:1028500013F0FD0FCFD0204B1A68204B1A60204B8D
:10286000186803F0F4FDC6E7012EECD00126BDE7A1
:102870002D550020CC000020A8540020AC5400208E
:10288000305500202C4F0020304F0020404F0020BA
:102890000000E03FDFAA0008485500200C5200204D
:1028A000444F0020D454002024570020C0000020B2
:1028B000684F002010570020008066400000B4439D
:1028C0000C570020205700202C5500203C4F0020A2
:1028D000000080BF00010020105500202855002076
:1028E00044550020095700202DE9F047644E654CFF
:1028F00033782DED028B82B0002B40F00581624DC4
:10290000DFF8F8812A78614FDFF8F8A1DFF8F0915D
:10291000002A40F086805E4903790B70462B5D4BA0
:102920000CBF4221462119704379492B64D10323FE
:1029300000F10801022268462B7006F0F5FE684699
:1029400006F0E4FB07EE900A534BF8EEE77AC3ED8E
:10295000007A524B2A78D3ED007AB2FA82F35B09FF
:10296000032AC7ED007A8AF8003055D04C4BD3EDDE
:10297000006AB0EE007AD6EE877A98ED007AF4EE2F
:10298000C77AF1EE10FA4CBF01230023454889F8BD
:102990000030012101F008FB0128434B3ED199F89A
:1029A0000020012A3AD11A70404A00231360404A9D
:1029B0001360404AD2ED007A3F4AF8EEE77AC2ED62
:1029C000007A3E4AD2ED007A3D4AF8EEE77AC2ED4F
:1029D000007A3C4A136098ED007AD7ED007A3A4AC3
:1029E000B4EEE77AF1EE10FA23DC2B78032B20D03B
:1029F000002313601A4623E0811D2A7068460422D2
:102A000006F092FE684606F081FB07EE900AF8EEAB
:102A1000E77AC8ED007A9CE70123B7E700221A7035
:102A2000D9E72A4A8AF8003012683A6089F80030FB
:102A3000D1E7274B1B681360002BDBD0254A1268B7
:102A400025490A60254A1168254A11600022A3B170
:102A5000244B1B6824490B6024490B6024490A60FD
:102A6000244A00231370244A237013700123337007
:102A700002B0BDEC028BBDE8F0871346EAE700BF69
:102A80002C5500203D4F0020CC000020344F00206A
:102A90003C4F0020C400002098520020384F0020F6
:102AA000FC00002000100240454F0020C0540020D0
:102AB000C454002054500020505200205850002090
:102AC00054520020BC540020A8540020405500203F
:102AD0009C540020A0540020AC5400206C550020D1
:102AE00074550020584F00202C4F0020304F0020FC
:102AF000404F0020705500202D550020F454002038
:102B0000474F0020464F0020FEF764FBA24BDFED4D
:102B1000A30AA348B0EE408A93ED000AA14B1978AE
:102B2000FEF702FB2278012A40F0CD809E4BD3EDC8
:102B3000007AF4EEC07AF1EE10FA03D50023237088
:102B4000FFF7ACFD3378012B92D12378002B8FD186
:102B5000964D2A78032A00F08F81954BD3ED007AA9
:102B6000944B93ED007A944B77EEC77A93ED007A0D
:102B7000F4EEC77AF1EE10FA11D8904B93ED007A8B
:102B8000F4EEC77AF1EE10FA09D8FFF787FD337833
:102B9000012B7FF46DAF2378002B7FF469AF2A7887
:102BA000032A40F0A781864B86491868436A0B6068
:102BB00085490C68A342A3EB0403844C38BF03F19E
:102BC000FF332360824C24684FF47A756C439C4237
:102BD000804B00F26D811C78022C00F06D81012C7D
:102BE00040F0668102241C707B4B1C687B4B1C6090
:102BF000436A0B607A4B197801292BD17949D1EDC1
:102C0000007A6C4991ED007A6B4977EEC77A91EDC5
:102C1000007AF4EEC77AF1EE10FA1BD8674991ED0D
:102C2000007AF4EEC77AF1EE10FA13D86E4908680C
:102C30006E4908606E4908686E4908606E49086808
:102C4000594908606D490978012904BF6C48017031
:102C500000211970002A7FF40BAF6A4B1978012903
:102C60007FF406AF5249D1ED007A524991ED007AD6
:102C70005C49D1ED006A504977EEC77A91ED007A50
:102C800037EEC77AB4EEE67AF1EE10FA3FF6F0AE20
:102C90004A4991ED007A77EEC77AF4EEE76AF1EEF1
:102CA00010FAFFF6E5AE56491A700A7056490868E0
:102CB0004E490860554908684E49086054490868FB
:102CC00039490860D4E6002A7FF43CAF364BD3ED97
:102CD000007AF4EEC07AF1EE10FA2ADB01212170BD
:102CE00047490A70314A1278032A0FD1324AD2ED8D
:102CF000007A324A92ED007A464AF4EEC77AF1EE53
:102D000010FA88BFF0EE477AC2ED007A424A4221BB
:102D100011703D4A1168354A11603C4A1168354AC4
:102D200011603B4A12681A602B4B1A682B4B1A60D1
:102D300008E73A490A78002A78D12A4A92ED007ABF
:102D400037EE877AB4EEC07AF1EE10FAFFF6FAAEFB
:102D50002B480278002A18BF02220270204802780D
:102D6000002A18BF0222027020482D4A056815600B
:102D7000204A2C4D17682F602B4DC5ED007A224D4F
:102D80002D680560214800681060214A12681A60A9
:102D900001230B70D6E600BF645500200000000040
:102DA000785500205D55002074550020CC0000208F
:102DB000F4540020344F00202C4F0020304F0020CE
:102DC0007C51002038550020345500203C5500200F
:102DD0008C520020885200201055002028550020D9
:102DE000474F0020FC00002054500020A854002031
:102DF00058500020AC54002068550020454F00205A
:102E00002D550020464F00209C540020A054002047
:102E10006C550020404F00203C4F00207055002092
:102E2000C8540020CC540020D0540020012A7FF444
:102E300089AE324890ED007A77EE877AF4EEC07A68
:102E4000F1EE10FA7FF57EAE2D4805682D4805603D
:102E50002D4805682D4805602D48006818602D4BE9
:102E60001878022808BF1A702B4B1A78022A04BF60
:102E700001221A7000238CE7284AD2ED007AF4EE82
:102E8000C87AF1EE10FA3FF68AAE234A1370244B4B
:102E90001A681C4B1A60234B1A681C4B1A60224B91
:102EA0001A68224B1A60224B186803F0D0FA6CE6BD
:102EB0001C78002C7FF49EAE01241C701D4B93EDFA
:102EC000007A1D4B78EE477AD3ED006AF0EEE77A90
:102ED000F4EEE67AF1EE10FA04D8134B134C1B68AB
:102EE000236085E6B4EEC87AF1EE10FA4CBF134BBE
:102EF000134BF3E7002A3FF47DAEB9E5FC00002058
:102F0000C8540020A8540020CC540020AC54002009
:102F1000D0540020474F00202D550020C0520020E3
:102F20009C540020A054002010550020285500205B
:102F3000C4520020985200209C52002024550020AA
:102F400020550020F7B5384D384E374938480A2209
:102F500003F0EFF934480A21FEF78AF9012812D16B
:102F60002B78532B44D1334C334A277800232370DA
:102F70001370FFF793FBFEF741FB2770142200212B
:102F8000284606F029F93378022B20D1002333702C
:102F90002A4B2B491B68142202FB031101A80C7950
:102FA000032206F0C1FB432C3BD1FEF727FB254C47
:102FB00001A806F0ABF821460246234806F08CFB38
:102FC00021491B484FF6FF73132202F091FF33781B
:102FD0004BB91A4A1D49136809688B42DFBF0121AA
:102FE0005B18317013601A4B186803F030FAACE7C5
:102FF0000322294601A806F097FB01A806F086F8EF
:10300000B0F57A7F0446B9D20D48142202FB0400C1
:10301000294606F089FB0D4B1A68A242B8BF1C6016
:10302000ACE70C4CC4E700BFFC54002000010020BA
:103030000C520020444F0020CC000020BC00002097
:1030400001010020F3AA0008485500206C4F002021
:10305000F854002007AB000837B5374D2B780446ED
:10306000002B64D1C11D032201A806F05DFB01A85D
:1030700006F04CF8314B32491860637922790B70B5
:10308000462B30492A7007EE900A0CBF422046209A
:103090004C2A08702C4934D1422B1ED12B4BF8EE10
:1030A000E77AD3ED006A2A4B93ED007A294BA7EE1D
:1030B000A67A83ED007A0B78013303F003034C2AE0
:1030C0000B700CBF244B254B254A1B681360254B06
:1030D000186803F0BCF903B030BD462B0CD1224B6D
:1030E000F8EEE77AD3ED006A204B93ED007A194BA6
:1030F000A7EEA67A83ED007A0B78B3B1013BDBB281
:10310000DDE7522AF8D1422B06D1194BF8EEE77AC7
:10311000D3ED006A174BE8E7462BEDD1164BF8EEDE
:10312000E77AD3ED006A154BBEE70323C7E703B088
:10313000BDE83040FFF7D8BBCC000020F0540020A1
:103140003C4F0020C4000020684F0020885400201D
:103150008C540020F4540020185500201C550020E9
:1031600028550020445500209454002098540020F5
:10317000E0540020E4540020E8540020EC540020E7
:10318000F8B52D4E2D4D00243378012B1FD12C493D
:103190002C4A0B681268934219DC2B4A142000FB5E
:1031A00003273F79A7F1420CBCF1130F41D8DFE8A8
:1031B0000CF00A3240400A40401840401340404062
:1031C00040401340401800FB0320FFF78DFB1F4BCE
:1031D000186803F03CF9D7E700FB0320FFF73CFF3A
:1031E000F5E7492F1AD1FDF7F5FF10EE100AFDF7AC
:1031F000A3F92B462246FDF741F8FDF7A5FC14493B
:103200000246144806F068FA124913484FF6FF7355
:10321000132202F06DFE02233370D8E70F4BDFED6F
:10322000100A93ED000A0F4B0F481978FDF77CFF49
:10323000DBE701330B60CAE7000100200000E03F3C
:10324000BC0000206C4F002001010020284F00200E
:10325000DFAA0008485500200C52002064550020C9
:10326000000000005D5500207855002082B00E4B14
:1032700000220092596C41F480415964596C01F468
:103280008041009100990192196C41F080511964BC
:103290001B6C03F080530193019B0F216FF0010021
:1032A00002B000F0FDBC00BF0038024010B514228F
:1032B0008AB0044600210DEB020005F08DFF236863
:1032C0001E4A93421FD11E4B002101915A6C42F4B9
:1032D00080725A645A6C02F480720192019A0291CF
:1032E0001A6B42F004021A631B6B03F0040302938F
:1032F000029B012305931348032305A9069300F0BD
:1033000079FD0AB010BD104A9342FAD10C4B00214E
:1033100003915A6C42F400725A645A6C02F40072BF
:103320000392039A04911A6B42F004021A631B6B16
:1033300003F004030493049B1023DBE70020014007
:1033400000380240000802400021014030B5044628
:1033500089B01422002103A805F03EFF2268154B16
:103360009A4224D1144C154800250195236B43F053
:1033700002032363236B03F002030193019B4FF4C9
:1033800040721223CDE9032301210323CDE9051364
:10339000042303A9079300F02DFD0295236C43F449
:1033A00000132364236C03F400130293029B09B0FF
:1033B00030BD00BF0054004000380240000402400D
:1033C0000268094B9A4282B00BD100230193074B4C
:1033D0005A6C42F001025A645B6C03F001030193E2
:1033E000019B02B0704700BF00000140003802405E
:1033F00070B514228AB0044600210DEB020005F0DE
:10340000EBFE2368B3F1804F37D103F50E33002470
:1034100000941A6C294842F001021A641A6C02F0F6
:1034200001020092009A01941A6B42F001021A63A1
:103430001A6B02F001020192019A02941A6B42F097
:1034400002021A631B6B03F002030293029B022623
:103450004FF40043012505A9CDE90536099500F093
:10346000C9FC0823CDE90536CDE907441448099580
:1034700005A900F0BFFC0AB070BD124A9342FAD110
:10348000114B0E48002103911A6C42F002021A649B
:103490001A6C02F002020392039A04911A6B42F032
:1034A00001021A631B6B03F001030493049BC02207
:1034B0000223CDE90523099305A9DAE700000240BC
:1034C00000040240000400400038024010B50446E9
:1034D00088B01422002103A805F07EFE2268174B55
:1034E0009A4228D103F50C33002401941A6C144835
:1034F00042F004021A641A6C02F004020192019A6A
:1035000002941A6B42F008021A631B6B03F0080363
:1035100002934FF48042029B03A90223CDE90323C7
:10352000079300F067FC1E202246052100F0B8FB3F
:103530001E2000F0E7FB08B010BD00BF00080040EF
:10354000000C024010B5044688B01422002103A8E4
:1035500005F042FE23681A4A93420DD100230093DE
:10356000184B1A6C42F008021A641B6C03F0080333
:103570000093009B08B010BD134A9342FAD1114B3F
:103580001248002101915A6C42F002025A645A6CAE
:1035900002F002020192019A02911A6B42F00402B7
:1035A0001A631B6B03F004030293029BC0220223E5
:1035B000CDE9032303A90323079300F01BFCD9E7FC
:1035C000000C0040003802400004014000080240A6
:1035D00010B5044686B01422002101A805F0FCFDB8
:1035E00022680E4B9A4216D1002300930C4B0D48D3
:1035F0001A6B42F010021A631B6B03F01003009366
:10360000009B4FF480420223CDE9012301A901234D
:10361000059300F0EFFB06B010BD00BF00000140B5
:10362000003802400010024010B5044688B0142251
:10363000002103A805F0D0FD2268184B9A422BD137
:1036400003F5F833002401941A6C154842F48022E3
:103650001A641A6C02F480220192019A02941A6B85
:1036600042F004021A631B6B03F0040302934FF44D
:103670004062029B0223CDE9032303210723CDE906
:10368000061303A900F0B6FB27202246052100F00F
:1036900007FB272000F036FB08B010BD00480040B3
:1036A00000080240FEE7FEE7FEE7FEE7FEE77047A0
:1036B00008B500F0ABF803F083FE012803D0BDE8A5
:1036C000084004F08FB908BD4FF4807000F080BC52
:1036D000014801F054BD00BF34510020014802F000
:1036E000BDBC00BF0C5200200B4A116810B5034648
:1036F00009B90A491160106809490A4C0344091BB9
:103700008B4206D905F006FD0C2303604FF0FF3015
:1037100010BD1360FCE700BF38570020B0A40020A4
:103720000000022000040000034AD2F8883043F46D
:103730007003C2F88830704700ED00E0DFF834D045
:103740000D480E490E4A002302E0D458C4500433F9
:10375000C4188C42F9D30B4A0B4C002301E01360D0
:103760000432A242FBD3FFF7DFFF05F0D9FCFDF7DF
:1037700067FF704700000220000000207400002056
:1037800050B9000874000020ACA40020FEE700003F
:1037900038B50E4A0E4B054618784FF47A73B3FBD2
:1037A000F0F31068B0FBF3F000F0BAFA044658B931
:1037B0000F2D09D8024629464FF0FF3000F070FA6D
:1037C000044B20461D6038BD0120FCE700000020AE
:1037D000040000200800002008B50B4B1A6842F4D2
:1037E00000721A601A6842F480621A601A6842F421
:1037F00080721A60032000F041FA0F20FFF7C8FF23
:10380000FFF734FD002008BD003C0240034A044B92
:1038100011681B780B441360704700BF3C570020B1
:1038200004000020014B1868704700BF3C5700207F
:1038300038B50446FFF7F6FF631C1CBF054B1B7829
:10384000054618BFE418FFF7EDFF431BA342FAD368
:1038500038BD00BF0400002038B50446002800F041
:103860009B80056C25B9FFF721FD656484F83C5009
:10387000236CDB0600F18E80236C23F4885323F045
:10388000020343F002032364444B5A6822F440329B
:103890005A605A6861680A435A60236821695A6805
:1038A00022F480725A605A6842EA01225A605A68C9
:1038B000A16822F040725A605A680A435A609A68B6
:1038C000E16822F400629A609A680A439A60344977
:1038D000A26A8A4252D0996821F070619960996811
:1038E0000A439A609A68E16A22F040529A609A68A4
:1038F0000A439A609A6822F002029A609A68217ECE
:1039000042EA41029A6094F82020002A3ED05A6888
:10391000616A42F400625A605A6822F460425A6056
:103920005A68013942EA41325A60DA6AE16922F49E
:103930007002DA62DA6A013942EA0152DA629A689E
:1039400022F400729A609A6894F8301042EA412298
:103950009A609A68616922F480629A609A6800208D
:1039600042EA81229A606064236C23F0030343F0EF
:1039700001032364002384F83C3038BD9A6822F0A8
:1039800070629A609A6822F04052B2E75A6822F454
:103990000062C9E70120EDE70120EEE700230140C6
:1039A0000100000F13B50023019390F83C30012B68
:1039B0006CD00123026880F83C309368D9070CD59D
:1039C000936813F001031AD1026C42F010020264F2
:1039D000426C42F00102426456E093682D4943F084
:1039E000010393602C4B1B68B3FBF1F303EB430320
:1039F0000193019B002BE3D0019B013BF8E7036C93
:103A0000264C23F4E06323F0010343F48073036442
:103A100053685B0541BF036C23F4405343F4805368
:103A20000364036C13F480531CBF436C23F0060340
:103A300043646FF02201002380F83C301160184984
:103A4000486810F01F0019D1A24206D0154B9A42C7
:103A50000DD14B6813F01F0F07D1906810F0405044
:103A600016D1936843F08043936002B010BD0E4BB3
:103A70009A42FAD14B6813F0100FEDE7A24207D13A
:103A8000906810F04050ECD01846EEE70220ECE7CA
:103A90000020EAE740420F00000000200020014023
:103AA00000230140002101400022014003689A6880
:103AB000520570B504460D460BD59B68DE0508D54A
:103AC000036C43F020030364002380F83C300120A2
:103AD00070BDFFF7A7FE064623681A6891070CD54C
:103AE0006FF012021A60226C42F4007222649A682B
:103AF00012F0405F17D00020EAE7681CEDD065B9EE
:103B000023681B6813F00203E6D1226C84F83C3072
:103B100042F0040222640320DAE7FFF783FE801BF1
:103B2000A842EDD8D8E7207E0028E4D1DA6A12F462
:103B3000700F02D09B685A05DDD4236C23F4807388
:103B40002364236CDB04D6D4236C43F00103236489
:103B5000BEE70368D86C7047F7B50023019390F86F
:103B60003C30012B66D0012380F83C300D6803689F
:103B70008E68092DACB231D904EB4402DF681E3ADD
:103B80004FF0070C0CFA02FC27EA0C07DF60DF6835
:103B900006FA02F23A43DA604968062901EB81022B
:103BA0002CD8596B053A1F26964021EA0601596325
:103BB000596B04FA02F20A435A632C4A934207D122
:103BC000122D39D1D2F8043343F48003C2F8043300
:103BD000002380F83C30184603B0F0BD1F6905EBA8
:103BE00045024FF0070C0CFA02FC27EA0C071F6194
:103BF0001F6906FA02F23A431A61CDE70C294FF029
:103C00001F010BD81E6B233A914026EA010119636C
:103C1000196B04FA02F20A431A63CEE7DE6A413AEC
:103C2000914026EA0101D962D96A04FA02F20A43F4
:103C3000DA62C2E70220CFE7A5F11003012BC7D853
:103C40000B4A5368102D43F400035360C0D1094B55
:103C5000094A1B68B3FBF2F30A2253430193019B09
:103C6000002BB5D0019B013BF8E700BF00200140CD
:103C7000002301400000002040420F000749CA68AD
:103C800022F4E0620302120403F4E063120C134313
:103C900043F0BF6343F40033CB60704700ED00E0B6
:103CA000164B30B5DC68C4F30224C4F10705231DAC
:103CB000042D28BF0425062B4FF0FF338CBF033C97
:103CC000002403FA05F521EA0501A34022EA0302D4
:103CD000A140002841EA0203ACBF00F16040084A5D
:103CE0004FEA0313B8BF00F00F00DBB2AABF00F524
:103CF0006140135480F8003330BD00BF00ED00E098
:103D000014ED00E0002808DB4209012300F01F0049
:103D100003FA00F0014B43F82200704700E100E095
:103D20000138B0F1807F0BD24FF0E023054A586193
:103D3000F02182F823100020072298611A61704751
:103D40000120704700ED00E070B50446866DFFF776
:103D500069FD94F83530022B054606D08023636553
:103D6000002384F83430012070BD23681A6822F0E3
:103D700016021A605A6922F080025A61226C0AB94E
:103D8000A26C1AB11A6822F008021A601A6822F0AE
:103D900001021A6023681B6813F001030AD1E16D68
:103DA0003F228A40B260012284F8352084F8343002
:103DB0001846D9E7FFF736FD401B0528EAD920232E
:103DC00063650320002384F8350084F83430CBE7A2
:103DD00090F83530022B03D08023436501207047D3
:103DE0000268052380F83530136823F0010313605F
:103DF000002070472DE9F74FDFF8A891674A0023AC
:103E00000D6801249C4004EA050CAC4340F0B180ED
:103E10004D6805F003044FEA43080326671E06FABF
:103E200008F6012F6FEA060634D8876807EA060EFF
:103E3000CF6807FA08F747EA0E078760476827EA5E
:103E40000C0EC5F300179F4047EA0E074760C7688E
:103E500007EA060E8F6807FA08F747EA0E07022CF2
:103E6000C76019D14FEAD30A00EB8A0A03F0070BA7
:103E7000DAF820704FEA8B0B4FF00F0E0EFA0BFEA4
:103E800027EA0E0E0F6907FA0BF747EA0E07CAF882
:103E9000207001E0032CDAD1076804FA08F43E40F0
:103EA000264315F4403F066063D04FF0000ACDF87A
:103EB00004A0D9F844603A4C46F48046C9F84460FE
:103EC000D9F8446006F480460196019E23F003066B
:103ED00006F1804606F59C3603F0030ED6F80880FE
:103EE0004FEA8E0E0F2707FA0EF7A04228EA0707BF
:103EF00046D004F58064A04244D004F58064A0421A
:103F000042D004F58064A04240D004F58064A04211
:103F10003ED004F58064A0423CD004F58064A04209
:103F20003AD004F58064A0420CBF0724082404FAA8
:103F30000EF43C43B46094686FEA0C06EF0254BF81
:103F400034404CEA04049460D468AF0254BF344057
:103F50004CEA0404D4605468AF0354BF34404CEAC4
:103F6000040454601468ED0354BF34404CEA040464
:103F700014600133102B7FF443AF03B0BDE8F08F22
:103F80005446D4E70124D2E70224D0E70324CEE745
:103F90000424CCE70524CAE70624C8E7003C014016
:103FA00000000240003802400369194214BF01209A
:103FB000002070470AB1816170470904FBE743693B
:103FC00001EA030221EA030141EA024181617047EB
:103FD000044A5169014208B502D05061FDF700FB67
:103FE00008BD00BF003C014001684B6913F48063C9
:103FF0004FF0000210D06FF480634B612023026306
:1040000080F83D3080F83E20036C80F83C2043F07F
:104010000403036401207047184670472DE9F846F1
:1040200006460F4691461D464FEA114A3368BAF1DB
:10403000010F0CBF5C699C6927EA0404A4B2B4FABE
:1040400084F46409A14501D0002017E06A1CEED079
:10405000FFF7E8FB089BC01AA84201D8002DE5D164
:1040600000232022336386F83D2086F83E30326CF0
:1040700086F83C3042F0200232640120BDE8F88628
:104080002DE9F04104460F461646984625686869B2
:1040900027EA000080B2B8B16B695A0516D52B68C3
:1040A00043F400732B606FF480636B612022002364
:1040B000236384F83D2084F83E30226C42F00402F1
:1040C000226484F83C300120BDE8F081731CDED00E
:1040D000FFF7A8FBA0EB0800B04201D8002ED5D115
:1040E00000232022236384F83D2084F83E30226C94
:1040F00042F02002E4E770B504460D4616462168FA
:104100004B6913F0400301D0002010E04A69D20649
:104110000ED56FF010024A612022236384F83D20FF
:1041200084F83E30226C226484F83C30012070BD5B
:10413000FFF778FB801BA84201D8002DDFD10023B8
:104140002022236384F83D2084F83E30226C42F024
:104150002002E8E770B504460D46164623685B6901
:104160005B0701D5002070BD2046FFF73DFFA8B9D1
:104170006A1CF3D0FFF756FB801BA84201D8002D24
:10418000ECD100232022236384F83D2084F83E30C4
:10419000226C84F83C3042F0200222640120E2E7E5
:1041A00070B504460D46164623685B691B0601D5AB
:1041B000002070BD2046FFF717FFA8B96A1CF3D096
:1041C000FFF730FB801BA84201D8002DECD1002363
:1041D0002022236384F83D2084F83E30226C84F84A
:1041E0003C3042F0200222640120E2E72DE9F04356
:1041F0001546026885B0DDE90C789946136843F4EA
:10420000807313600E463B46CDF8008000224FF0CD
:1042100001110446FFF702FF236838B11B68DB0574
:1042200002D54FF40073236403200AE006F0FE0673
:104230001E61194943463A462046FFF721FF18B14F
:10424000012005B0BDE8F083236803905A6903920A
:104250009B690393424639462046039BFFF7A0FF24
:1042600040B1236C042B01BF2268136843F4007330
:104270001360E5E7B9F1010F236802D1EDB21D61CA
:10428000DFE72A0A1A61394642462046FFF788FFCF
:104290000028E6D12368F1E70200010070B504466A
:1042A00008B9012070BD90F83D3003F0FF021BB942
:1042B00080F83C20FFF74AF8242384F83D30236837
:1042C0001A6822F001021A601A6842F400421A6069
:1042D0001A6822F400421A6000F0F8FD3F4B65684E
:1042E0009D4294BF3E4B3F4B98428CBF002301231D
:1042F000002BD6D12268394E53683B49B0FBF1F10F
:1043000023F03F030B43B542536088BF4FF49676CA
:10431000136A88BF714323F03F0384BF4FF47A765A
:10432000B1FBF6F1013119431162D169431E2B48EB
:1043300021F44F41854221F0FF0132D86D0040F653
:10434000FC70B3FBF5F30133034242D0C3F30B031C
:104350000B43D361D4E907301168034321F0C00156
:104360000B4313609168D4E9030321F40341034331
:1043700021F0FF010B439360D4E90530D16803437A
:1043800021F0FF010B43D360136843F00103136076
:1043900000202023206484F83D30206384F83E0010
:1043A00080E7A06850B905EB4505B3FBF5F3013391
:1043B000C3F30B037BB143F40043C9E71920454322
:1043C000B3FBF5F30133C3F30B0323B143F44043D1
:1043D000BEE70423BCE70123BAE700BFA0860100C3
:1043E0007F841E00FF083D0040420F002DE9F0438E
:1043F000044685B098460C9F0D469146FFF712FA89
:1044000094F83D30202B064604D00225284605B0FE
:10441000BDE8F08300905D49192301222046FFF793
:10442000FDFD0028F1D194F83C30012BEDD021683E
:10443000012384F83C300B68DA075EBF0B6843F059
:1044400001030B600B6823F400630B60212384F8E5
:104450003D30102384F83E3000232364A4F82A80E2
:10446000638D23854A4BE362E36AC4F82490082BEA
:1044700004D0012B02D013F5803F04D10B6843F424
:1044800080730B6002E0236B122BF7D000220096A2
:104490003B464FF001112046FFF7C0FD226838B1BE
:1044A0001368DB0544BF4FF4007323640125ADE7B7
:1044B0002369B3F5804F21D105F0FE05156135491B
:1044C00033463A462046FFF7DBFD05460028EDD18E
:1044D000236803905A6903929B690393039B238D7E
:1044E000F3B921680A6842F400720A60202284F855
:1044F0003D2084F83C3084F83E3087E7EB1103F030
:10450000060343F0F0031361234933463A4620463D
:10451000FFF7B6FD0028C9D12368EDB21D61CEE7D3
:10452000324639462046FFF73BFE40B1236C042B50
:10453000BCD12268136843F400731360B6E7636A62
:1045400020681A4612F8011B01616262628D013A0D
:1045500092B26285228DD0F814C0511E89B21CF02F
:10456000040F21850AD049B1597801610233636291
:10457000638D013B9BB2023A638522853246394600
:104580002046FFF7E7FD0028A9D0CFE70200100082
:104590000000FFFF02000100080001002DE9F043C8
:1045A000044689B09846109F0E469146FFF73AF9A7
:1045B00094F83D30202B054604D00226304609B041
:1045C000BDE8F08300909A49192301222046FFF7A5
:1045D00025FD0028F1D194F83C30012BEDD0216865
:1045E000012384F83C300B68DB075EBF0B6843F0A7
:1045F00001030B600B6823F400630B60222384F833
:104600003D30102384F83E3000232364A4F82A8030
:10461000638D2385874BE362E36A0A68C4F82490BC
:1046200042F48062082B0A6004D0012B02D013F5FB
:10463000803F04D10B6843F480730B6002E0236B6E
:10464000112BF7D03B46009500224FF00111204678
:10465000FFF7E4FC236838B11B68D80502D54FF496
:10466000007323640126A9E72269B2F5804F27D1A0
:1046700046F00106F6B21E616F492B463A462046C7
:10468000FFF7FEFC06460028ECD1238D2168002BA5
:104690004BD103904B6903938B690393039B0B6886
:1046A00043F400730B60DFF89881238D002B64D1F5
:1046B000202284F83D2084F83C3084F83E307DE7A9
:1046C0004FEAE61808F0060848F0F0021A615B4964
:1046D0002B463A462046FFF7D3FC0028C2D1236878
:1046E0005549F6B21E613A462B462046FFF7C8FCF4
:1046F0000028B7D1236807905A6907929A690792F0
:10470000079A1A6842F480721A604FF0011102464B
:1047100000953B462046FFF781FC226808B11368EC
:104720009BE748F0F1031361A6E7012B0AD10B6860
:1047300023F480630B6004904B6904938B690493AA
:10474000049BACE7022B0B680DD123F480630B6054
:104750000B6843F400630B6005904B6905938B690C
:104760000593059B9FE743F480630B6006904B69BC
:1047700006938B690693069B95E7032B62D8012B62
:1047800016D12A4639462046FFF7B5FC00287FF4AB
:1047900069AF23681A69636A1A70636A01336362D6
:1047A000238D013B2385638D013B9BB263857CE7B1
:1047B000022B00953B464FF00002414620461AD19D
:1047C000FFF72CFC00287FF44DAF23681A6842F4F1
:1047D00000721A601A69636A1A70626A531C636213
:1047E000238D013B2385638D013B9BB26385236849
:1047F0001B695370D1E7FFF711FC00287FF432AF3B
:1048000023681A6822F480621A601A69636A1A704F
:10481000636A009501336362238D013B2385638DB9
:10482000013B9BB2638502463B4641462046C7E7B3
:10483000020010000000FFFF02000100080001005C
:10484000040001002A4639462046FFF754FC0028A0
:104850007FF408AF23681A69636A1A70626A531C8E
:104860006362238D013B2385638D013B9BB263858E
:104870002368596949077FF518AFB9E72DE9F74370
:10488000044699460C9E0F469046FEF7CBFF94F8DF
:104890003D30202B054603D0022003B0BDE8F08355
:1048A00000903C49192301222046FFF7B7FB00285E
:1048B000F2D194F83C30012BEED02068012384F82B
:1048C0003C300368D9075EBF036843F0010303600F
:1048D000036823F400630360212384F83D30402300
:1048E00084F83E30002323640A9B6362BDF82C30B9
:1048F0006385638D2385284BE362CDE900654B46D4
:10490000424639462046FFF771FC00282AD0012094
:10491000C3E7FFF745FC40B1236C042B01BF2268BD
:10492000136843F400731360F1E7636A27681A465B
:1049300012F8011B39616262628D218D013A92B2D7
:1049400062857A69481E80B2520720850AD548B12F
:104950005A783A6102336362638D013B02399BB23C
:1049600021856385238D2A4631462046002BD0D1F0
:10497000FFF7F0FB0028CFD12268136843F40073DF
:104980001360202384F83D3084F83C0084F83E0016
:1049900083E700BF020010000000FFFF006C7047BB
:1049A000044B01221A62044B82B01B680193019BE5
:1049B00002B0704700000E4200700040044B00221D
:1049C0001A62044B82B01B680193019B02B07047CE
:1049D00000000E42007000402DE9F341044640B350
:1049E0000368DD0710D4236898075ED423681A078C
:1049F00000F1A08023685B0700F1C080A069002857
:104A000040F0288100202BE08F4B9A6802F00C02C6
:104A1000042A07D09A6802F00C02082A0BD15A68BF
:104A2000510208D5884B1B689A03DCD56368002BBC
:104A3000D9D1012014E06268B2F5803F13D11A6821
:104A400042F480321A60FEF7EDFE7F4E0546336871
:104A50009B03C8D4FEF7E6FE401B6428F7D9032069
:104A600002B0BDE8F081784DB2F5A02F2B6807D1D8
:104A700043F480232B602B6843F480332B60E2E700
:104A800023F480332B602B6823F480232B60002ACF
:104A9000D9D1FEF7C7FE06462B689F03A3D5FEF7C4
:104AA000C1FE801B6428F7D9D9E7674B9A6812F0DA
:104AB0000C0F07D09A6802F00C02082A11D15B682B
:104AC0005E020ED4604A13689D0702D5E368012B8D
:104AD000AFD11368216923F0F80343EAC1031360DF
:104AE00084E7E268594BB2B101221A60FEF79AFEE0
:104AF000554D06462B68980707D52B68226923F089
:104B0000F80343EAC2032B6070E7FEF78BFE801BBD
:104B10000228EFD9A3E71A60FEF784FE4A4E054645
:104B2000336899077FF562AFFEF77CFE401B0228D1
:104B3000F6D994E76269454B82B10122C3F8802E11
:104B4000FEF770FE404E0546736F9F073FF552AF6C
:104B5000FEF768FE401B0228F6D980E7C3F8802ED6
:104B6000FEF760FE384E0546736F98077FF542AF3B
:104B7000FEF758FE401B0228F6D970E7324B1A6C3C
:104B800012F0805228D101921A6C42F080521A64BD
:104B90001B6C03F080530193019B01272C4D2B6864
:104BA000D9051BD5A368284D012B27D12B6F43F0C6
:104BB00001032B67FEF736FE234E054641F2883887
:104BC000336F9B0739D5002F3FF418AF1E4A136C83
:104BD00023F08053136411E70027DFE72B6843F4C9
:104BE00080732B60FEF71EFE06462B68DA05D9D4CB
:104BF000FEF718FE801B0228F7D930E7052B04D1F9
:104C00002B6F43F004032B67D0E72A6F22F00102D9
:104C10002A672A6F22F004022A67002BCAD1FEF706
:104C200001FE41F2883806462B6F9807CBD5FEF778
:104C3000F9FD801B4045F7D911E7FEF7F3FD401B56
:104C40004045BDD90BE700BF003802400000474295
:104C500000700040364DAB6803F00C03082B3DD0CC
:104C6000344B002202281A662BD1FEF7DBFD0646E4
:104C70002B6899011FD4D4E907321343626A43EACF
:104C80008213E26A43EA0263A26A5208013A43EAE3
:104C900002436B60274B264D01221A66FEF7C2FDC8
:104CA00004462B689A013FF5ADAEFEF7BBFD001B35
:104CB0000228F6D9D3E6FEF7B5FD801B0228D7D926
:104CC000CDE6FEF7AFFD04462B689B017FF59AAE5B
:104CD000FEF7A8FD001B0228F6D9C0E601283FF424
:104CE000BFAE6B68E26903F4800191427FF4A1AE2C
:104CF000216A03F03F028A427FF49BAE616A47F665
:104D0000C0721A40B2EB811F7FF493AEA26A5208C0
:104D100003F44031013AB1EB024F7FF48AAEE26A0C
:104D200003F07063B3EB026F3FF46CAE81E600BF3B
:104D30000038024000004742134908B58B6803F071
:104D40000C03042B1CD0082B1CD14A684B68496803
:104D500013F4800314BF0D480D48C1F3881118BF28
:104D6000002302F03F02A1FB0001FBF765FF064BA9
:104D70005B68C3F3014301335B00B0FBF3F008BD94
:104D80000248FCE70248FAE70038024040787D011B
:104D90000024F4002DE9F0410D46044610B901202D
:104DA000BDE8F081444B1A6802F007028A4228D31A
:104DB000226897072DD4D00741D43F4B1A6802F0E0
:104DC0000702AA4266D8226851076CD4130707D598
:104DD0003A4A2169936823F4604343EAC10393602C
:104DE000FFF7AAFF354B364A9B68C3F30313D35C26
:104DF000D840344B1860344B1868FEF7C9FC0020CB
:104E0000CEE7CAB21A701B6803F007038B42C6D103
:104E1000CEE72A4B12F0040F1EBF996841F4E0510F
:104E20009960160742BF996841F46041996023492F
:104E3000A0688B6823F0F00303438B60BBE76268D4
:104E40001E4B012A1CD11B6813F4003FA7D01B4E38
:104E5000B36823F003031343B360FEF7E3FC41F2AE
:104E600088380746B368626803F00C03B3EB820F1F
:104E7000A3D0FEF7D7FCC01B4045F3D903208FE732
:104E8000911E01291B6802D813F0007FDEE713F0A2
:104E9000020FDBE7EAB21A701B6803F00703AB42AC
:104EA0007FF47DAF8FE70549E0688B6823F4E0531A
:104EB00003438B608AE700BF003C02400038024099
:104EC0000CAD00080000002008000020044B054A3B
:104ED0009B68C3F38223D35C034A1068D8407047B1
:104EE000003802401CAD000800000020044B054AB9
:104EF0009B68C3F34233D35C034A1068D8407047C1
:104F0000003802401CAD000800000020036A23F0B6
:104F100001030362036A70B5446882690D6822F078
:104F200073022A438D6823F002032B430E4DA842DF
:104F300002D00E4EB04210D1CE6823F008033343A6
:104F4000A84223F0040302D0084DA84205D1D1E9BC
:104F5000055624F4407435432C43446082614A680A
:104F60004263036270BD00BF0000014000040140C5
:104F7000036A23F480730362036A70B54468C269EC
:104F80000D6822F073022A438D6823F4007343EA0C
:104F90000523114DA84203D005F58065A84214D120
:104FA000CD6823F4006343EA05230B4DA84223F4A4
:104FB000806303D005F58065A84206D1D1E9055686
:104FC00024F44054354344EA05144460C2614A68FD
:104FD000C263036270BD00BF00000140036A23F496
:104FE00080530362036A30B54468C2690D6822F4D5
:104FF000E64242EA05228D6823F4005343EA053372
:10500000084DA84203D005F58065A84204D14D693A
:1050100024F4804444EA85144460C2614A6802640E
:10502000036230BD0000014090F83D30012B2CD1CF
:105030000223174A80F83D30036893421AD0B3F137
:10504000804F17D0A2F57C42934213D002F58062C4
:1050500093420FD002F5806293420BD002F5784262
:10506000934207D002F57052934203D0A2F59432D6
:10507000934204D19A6802F00702062A03D01A6804
:1050800042F001021A60002070470120704700BF03
:105090000000014030B590F83E2090F83F3090F885
:1050A000425090F84340D2B2DBB2EDB2E4B2C9B99B
:1050B000012A46D1012D46D1022380F83E3080F8E6
:1050C000423003681A6A22F001021A621A6A42F038
:1050D00001021A620268136843F00103136000239F
:1050E000184630BD042911D1012B2AD1012CF7D14A
:1050F000022380F83F3080F8433003681A6A22F0B8
:1051000010021A621A6A42F01002E2E7012A18D16C
:10511000012B18D1012DE3D1012CE1D1022380F81C
:105120003E3080F83F3080F8423080F843300368EA
:105130001A6A22F001021A621A6A42F001021A6225
:10514000DCE70123CCE71346CAE7082910D004D8CE
:1051500041B1042909D0002070470C29FBD1036814
:10516000186C70470368586B70470368986B7047FA
:105170000368D86B70477047704770477047036883
:105180001A69910710B504460ED5DA6892070BD557
:105190006FF002021A61012202779B699B0777D0A8
:1051A000FCF7ACFF0023237723681A69500710D55A
:1051B000DA6851070DD56FF004021A6102222277D6
:1051C0009B6913F4407F204668D0FCF797FF0023CB
:1051D000237723681A6912070FD5DA6810070CD5F0
:1051E0006FF008021A6104222277DB6999072046D2
:1051F0005AD0FCF783FF0023237723681A69D2066D
:1052000010D5DA68D0060DD56FF010021A610822A9
:105210002277DB6913F4407F20464BD0FCF76EFF0A
:105220000023237723681A69D10708D5DA68D207E3
:1052300005D56FF001021A612046FFF79CFF236835
:105240001A69100608D5DA68110605D56FF08002D4
:105250001A61204600F05BFD23681A69520608D5E2
:10526000DA68500605D56FF040021A612046FFF754
:1052700085FF23681A69910622D5DA6892061FD540
:105280006FF0200220461A61BDE8104000F03EBDDC
:10529000FFF772FF2046FFF770FF83E7FFF76CFF11
:1052A0002046FFF76AFF92E7FFF766FF2046FFF709
:1052B00064FFA0E7FFF760FF2046FFF75EFFAFE760
:1052C00010BD0000304A0368904212D0B0F1804F08
:1052D0000FD0A2F57C4290420BD002F58062904242
:1052E00007D002F58062904203D002F578429042E6
:1052F00019D14A6823F070031343234A904229D0FE
:10530000B0F1804F26D0A2F57C42904222D002F527
:10531000806290421ED002F5806290421AD002F55F
:105320007842904216D0194A904213D002F580621A
:1053300090420FD002F5806290420BD0A2F59832D5
:10534000904207D002F58062904203D002F580625D
:10535000904203D1CA6823F4407313434A6923F08F
:105360008003134303608B68C3620B688362064B40
:10537000984203D003F58063984201D10B6903631F
:1053800001234361704700BF00000140004001401D
:1053900010B5044630B390F83D3003F0FF021BB95E
:1053A00080F83C20FEF7CEF80223206884F83D30D8
:1053B000211DFFF787FF012384F84630002084F881
:1053C0003E3084F83F3084F8403084F8413084F82F
:1053D000423084F8433084F8443084F8453084F80F
:1053E0003D3010BD0120FCE710B5044630B390F805
:1053F0003D3003F0FF021BB980F83C20FDF7E0FFD1
:105400000223206884F83D30211DFFF75BFF012354
:1054100084F84630002084F83E3084F83F3084F829
:10542000403084F8413084F8423084F8433084F8C6
:10543000443084F8453084F83D3010BD0120FCE74D
:1054400010B5044630B390F83D3003F0FF021BB9AD
:1054500080F83C20FEF73AF80223206884F83D30BB
:10546000211DFFF72FFF012384F84630002084F828
:105470003E3084F83F3084F8403084F8413084F87E
:10548000423084F8433084F8443084F8453084F85E
:105490003D3010BD0120FCE7F8B50D46044600285C
:1054A0004DD090F83D3003F0FF021BB980F83C204E
:1054B000FDF79EFF2146022384F83D3051F8040B8E
:1054C000836823F4804323F007038360FFF7FAFE29
:1054D00020682A6886688369A968076A1643AA69EA
:1054E00023F4407341EA022123F003030B4323F426
:1054F0007C422B69E9691B0143EA0123E9680B43FC
:10550000296A22F0FC0243EA01331343696927F058
:10551000AA026F68866047EA011783611743012377
:10552000076284F84630002084F83E3084F83F302B
:1055300084F8423084F8433084F83D30F8BD0120CF
:10554000FCE70000036A23F010030362036A70B5EE
:10555000446882690D6822F4E64242EA05228D68B9
:1055600023F0200343EA0513104DA84203D005F5AC
:105570008065A84214D1CD6823F0800343EA051367
:105580000A4DA84223F0400303D005F58065A842E8
:1055900006D1D1E9055624F44064354344EA850434
:1055A000446082614A688263036270BD000001400A
:1055B00070B590F83C30012B054653D00120082AE5
:1055C00085F83C003DD006D8C2B1042A28D000237B
:1055D00085F83C3070BD0C2AF9D12868FFF7FEFC35
:1055E0002B680969DA6942F40062DA61DA6922F447
:1055F0008062DA61DA6942EA012231E02868FFF765
:1056000085FC2B6809699A6942F008029A619A69D7
:1056100022F004029A619A690A439A610020D6E74F
:105620002868FFF78FFF2B6809699A6942F40062C6
:105630009A619A6922F480629A619A6942EA012227
:10564000EBE72868FFF794FC2B680969DA6942F0F8
:105650000802DA61DA6922F00402DA61DA690A43DF
:10566000DA61DBE70220B5E770B5046A1A4E24F070
:1056700001040462B0428469056A29D0B0F1804F08
:1056800026D0A6F57C46B04222D006F58066B04210
:105690001ED006F58066B0421AD006F57846B042B4
:1056A00016D006F57056B04212D0A6F59436B04228
:1056B0000ED044F001021B01DBB222F0F0021A43CB
:1056C00001F00A0125F00A0319438261016270BDED
:1056D00024F003042243EEE700000140F8B590F8FF
:1056E0003C30012B05460C4600F08980012085F8EE
:1056F0003C009AB9CB682868D1E90012FFF7B4FFE3
:105700002B68A1689A6922F00C029A619A690A438F
:105710009A610020002385F83C30F8BD042A23D18B
:105720002B681E6A26F01006D1E90027C9681E62A0
:1057300098691E6A20F4407040EA0720090320F4AB
:10574000704089B21201014302F0A00226F0A000CD
:10575000024399611A629A69A16822F440629A61CF
:105760009A6942EA0122D3E7082A22D12B681E6AED
:1057700026F48076D1E90020C9681E62DF691E6ABE
:1057800027F003073843090120F0F000C9B21202E4
:10579000014302F4206226F420600243D9611A62B8
:1057A000DA69A16822F00C02DA61DA690A43DA6187
:1057B000AFE70C2AAED12B681E6A26F48056D1E9D9
:1057C0000027C9681E62D8691E6A20F4407040EA4A
:1057D0000720090320F4704089B21203014302F448
:1057E000204226F420400243D9611A62DA69A16896
:1057F00022F44062DA61DA6942EA0122D7E7022044
:105800008BE710B58468114324F47F4441EA0323F5
:105810002343836010BD70B590F83C30012B0446E3
:105820004FF0020300F09180012280F83D3080F8B3
:105830003C200068836823F47F4323F07703836070
:105840000B68602B52D033D8402B67D016D8202B52
:105850000DD00AD833F0100109D0012384F83D306F
:10586000002384F83C30104670BD302BF5D182689F
:1058700022F07002134343F0070317E0502BECD1E2
:105880004A68CE68016A056A25F0010505628369E8
:1058900021F00A0123F0F00343EA06130A4383616F
:1058A0000262836823F0700343F05703836011E0C2
:1058B000B3F5805F0ED0B3F5005F0DD0702BCCD167
:1058C000CB68D1E90121FFF79CFF2268936843F080
:1058D000770393600022C0E7CB68D1E90121FFF78D
:1058E00090FF2268936843F48043F2E74D68CE68E6
:1058F000016A21F0100101628269036A22F4704298
:1059000023F0A00343EA051342EA063282610362F0
:10591000836823F0700343F06703C7E74A68CE68E3
:10592000016A056A25F001050562836921F00A0113
:1059300023F0F00343EA06130A438361026283689B
:1059400023F0700343F04703B0E71A468BE7036A7E
:1059500001F01F0110B501248C4023EA0403036207
:10596000036A8A401A43026210BD000010B5044663
:1059700029B990F83E30012B18D001202DE00429E0
:105980000DD190F83F30013B18BF0123002BF4D11B
:1059900004294FF0020321D184F83F3009E008299F
:1059A0000CBF90F8403090F84130ECE7022380F8CB
:1059B0003E3020680122FFF7CAFF23681C498B4252
:1059C00013D01C4A934210D0B3F1804F14D19A687F
:1059D00002F00702062A26D1002010BD08290CBFBC
:1059E00084F8403084F84130E3E75A6C8B4242F44B
:1059F00000425A64EBD0E7E70F4A9342E7D002F542
:105A000080629342E3D002F580629342DFD002F5D8
:105A100078429342DBD002F570529342D7D0A2F580
:105A200094329342D3D01A6842F001021A60D3E74D
:105A3000000001400004014000040040FFF796BF51
:105A400010B5044629B990F83E30012B1CD0012036
:105A500036E0042911D190F83F30013B18BF0123F3
:105A6000002BF4D104294FF002032AD1226884F8D4
:105A70003F30D36843F004030DE008290CBF90F8D1
:105A8000403090F84130E8E70223026880F83E3069
:105A9000D36843F00203D36020680122FFF757FF69
:105AA000236822498B421ED0214A93421BD0B3F176
:105AB000804F1FD19A6802F00702062A31D10020D8
:105AC00010BD082906D1226884F84030D36843F01D
:105AD0000803E0E70C2984F84130B8D12268D36884
