:020000040800F2
:1000000000000220C925000831250008332500081A
:1000100035250008372500083925000800000000B4
:10002000000000000000000000000000115F000858
:100030003B25000800000000A15F00083D250008E6
:100040001926000819260008192600081926000894
:100050001926000819260008192600081926000884
:100060001926000819260008192600081926000874
:100070001926000819260008192600081926000864
:100080001926000819260008192600081926000854
:100090001926000819260008192600085525000809
:1000A0001926000819260008192600081926000834
:1000B00019260008192600085D25000819260008E1
:1000C0001926000819260008192600081926000814
:1000D00019260008192600081926000869250008B5
:1000E00019260008192600081926000819260008F4
:1000F00019260008192600081926000819260008E4
:1001000019260008192600081926000819260008D3
:1001100019260008192600081926000819260008C3
:1001200019260008192600081926000819260008B3
:1001300019260008192600081926000819260008A3
:100140001926000819260008192600081926000893
:100150001926000819260008192600081926000883
:100160001926000819260008192600081926000873
:1001700019260008192600081926000800000000AA
:080180001926000819260008E9
:1001900010B5054C237833B9044B13B10448AFF3C1
:1001A00000800123237010BD7400002000000000B7
:1001B000B070000808B5034B1BB103490348AFF307
:1001C000008008BD0000000078000020B07000082A
:1001D00001F0FF01102A2BDB10F0070F08D010F8F8
:1001E000013B013A8B422DD010F0070F42B3F6D1FC
:1001F000F0B441EA012141EA014122F007047FF015
:1002000000070023F0E80256083C85EA010586EA6B
:10021000010685FA47F5A3FA87F586FA47F6A5FAA7
:1002200087F68EB9EED1F0BC01F0FF0102F00702B3
:1002300032B110F8013B013A83EA010313B1F8D15E
:100240000020704701387047002D06BF354603383F
:10025000073815F0010F07D1013015F4807F02BF78
:10026000013015F4C03F0130F0BC0138704700BFC9
:1002700053B94AB9002908BF00281CBF4FF0FF310D
:100280004FF0FF3000F06EB9ADF1080C6DE904CE0F
:1002900000F006F8DDF804E0DDE9022304B0704761
:1002A0002DE9F047089D04468C46002B40F08380E2
:1002B0008A42174647D9B2FA82F242B1C2F120000F
:1002C00024FA00F09140974040EA010C94404FEA34
:1002D0001748230CBCFBF8F61FFA87FE08FB16C173
:1002E00043EA014306FB0EF1994209D9FB1806F1D6
:1002F000FF3080F01981994240F21681023E3B4462
:100300005B1AA4B2B3FBF8F008FB103344EA0344D1
:1003100000FB0EFEA64509D93C1900F1FF3380F021
:100320000581A64540F2028102383C4440EA06407D
:10033000A4EB0E0400261DB1D4400023C5E9004300
:100340003146BDE8F08702B9FFDEB2FA82F2002A38
:1003500050D1CB1B4FEA174E1FFA87F80126B3FB8B
:10036000FEFC210C0EFB1C3341EA034108FB0CF39D
:100370008B4207D979180CF1FF3002D28B4200F280
:10038000E9808446C91AA3B2B1FBFEF00EFB10113E
:1003900043EA014408FB00F8A04507D93C1900F1E5
:1003A000FF3302D2A04500F2D9801846A4EB08041E
:1003B00040EA0C40BFE78B4209D9002D00F0B18024
:1003C0000026C5E9000130463146BDE8F087B3FAA2
:1003D00083F6002E4AD18B4202D3824200F2B880CB
:1003E000841A61EB030101208C46002DA8D0C5E9D9
:1003F000004CA5E7C2F1200320FA03F6974001FA6A
:1004000002F04FEA174ED9403043030CB1FBFEF621
:100410001FFA87F80EFB161143EA014306FB08F1A9
:10042000994204FA02F409D9FB1806F1FF3C80F066
:100430008D80994240F28A80023E3B445B1A81B231
:10044000B3FBFEF00EFB103341EA034100FB08F35F
:100450008B4207D9791800F1FF3C73D28B4271D9D6
:1004600002383944CB1A40EA064678E7C6F1200C38
:1004700003FA06F422FA0CF31C4320FA0CF701FAF3
:1004800006F34FEA144E21FA0CF11F433B0CB1FB6B
:10049000FEF91FFA84F80EFB191143EA014109FB2A
:1004A00008FA8A4502FA06F200FA06F308D961183A
:1004B00009F1FF3048D28A4546D9A9F10209214401
:1004C000A1EB0A01BFB2B1FBFEF00EFB101147EA2F
:1004D000014700FB08F8B84507D9E71900F1FF31DB
:1004E0002ED2B8452CD90238274440EA0940A7EB60
:1004F0000807A0FB02894F45C64649461AD317D0C4
:100500005DB1B3EB0E0267EB010707FA0CFCF2409A
:100510004CEA0202F740C5E9002700263146BDE853
:10052000F0872E4628460BE70646E9E61846FDE624
:100530004345E5D2B8EB020E69EB04010138DFE771
:100540000846D2E760468DE78146B9E7664675E71B
:1005500030464AE7ACF1020C394413E702383C4418
:1005600024E700BF704700BF08B51048104C114D7C
:100570000C2103F073FD264622682B689A4201D2B3
:10058000236003E00C4B1B689A42F9D80B4B1B7895
:100590004BB90B4B1B68054A12681364094B18686A
:1005A00004F05FFAE8E73368F5E700BF384D002054
:1005B000944B0020984A0020789C0020784C002022
:1005C0009C9C0020F84C002008B5054D054C2846A1
:1005D0004FF4806102F03BFC206804F042FAF6E739
:1005E00000100240C449002080B5002129482A4D4E
:1005F0002A4E03F0AFFD2748042103F0ABFDA846C7
:100600002A68002A02DA00232B6003E0244B1B68CF
:100610009A42F9DC234F3A68002A02DA00233B6051
:1006200003E01F4B1B689A42F9DC1F4C2278A2F1B1
:1006300046035A425A410821304602F003FC227810
:10064000463A18BF01220421304602F0FBFB227813
:10065000A2F146014A424A413046102102F0F2FB23
:100660002278463A18BF01222021304602F0EAFBE8
:10067000237863B1D8F80010064A1268516303B1B9
:100680003B689363094B186804F0EBF9B8E7194627
:10069000F2E700BFF8490020D84D002000000240DA
:1006A000CC4C0020904B0020849C0020C84C0020A3
:1006B00000B595B02C22002109A806F027F81422D5
:1006C000002103A806F022F80023194A0193116CB7
:1006D00041F080511164126C02F080520192019A33
:1006E000144A0293116841F48041116012680E931C
:1006F00002F480420292029A022208920120102201
:10070000CDE90B0208A802F07BFC014608B172B6E5
:10071000FEE70F23CDE90330CDE90500079003A8DC
:1007200002F048FE08B172B6FEE715B05DF804FBB2
:100730000038024000700040704700009FED0D7AC5
:1007400000EB810398420BD189B107EE901AF8EEC5
:10075000E77AC7EE276AE6EE800AB0EE600A7047D5
:10076000F0EC017AF8EE677A37EE277AEAE79FED48
:10077000010A7047000000000144884201D10123B2
:1007800003E010F8013B002BF7D11846704700003A
:100790007FB5374D374B29461A7801A805F0BEFFC3
:1007A000002101AA084605F0CDFE0121324802F0E1
:1007B00043FB2946024601A805F0B0FF01AA0A2121
:1007C000002005F0BFFE2D4901A805F0C7FF2C4B06
:1007D0001C682C4B1B689C420DDC2B4B142202FB2B
:1007E00004340A212046FFF7C7FF012803D1214620
:1007F00001A805F0BBFF01AA00210A2005F0A2FE16
:10080000224B23491A6801A805F088FF0A2101AA92
:10081000084605F097FE1F4B1F491A6801A805F00E
:100820007DFF01AA14210A2005F08CFE1B4B1C49F8
:100830001A6801A805F072FF01AA1E210A2005F01E
:1008400081FE184B18491A6801A805F067FF01AA34
:1008500028210A2005F076FE144A32210A2005F0EC
:1008600071FE05F0D3FD124B186804F0FAF891E719
:10087000C87000080E4D00200010024004710008EE
:10088000004D0020A8490020504E0020D84D0020E7
:10089000CB700008904B0020D8700008B44D0020A9
:1008A000E5700008AC4B0020F0700008984B002069
:1008B000AC4D002010B57A4B1B78032B62D8DFE8D3
:1008C00013F00400620099006301764B764A1A60C7
:1008D000764B774A1A60774A00231360764A136092
:1008E000764A1360764A1360764A1360764A13603C
:1008F000764A1360764A1360764A1360764A13602C
:10090000764A1360764A1360764B774A1A60774BC3
:100910004FF07C521A60764B764A1A60764B774AD3
:100920001A60774B774A1A60774B784A1A60784B8F
:10093000784A1A60784B794A1A60794B794A1A607A
:10094000794B7A4A1A607A4B42F260221A60794BEC
:1009500042F21C521A60784B40F6E4421A60774B20
:1009600040F6AC521A60764B82221A60754B3222E6
:100970001A60754A00231360744A1360744A136046
:10098000744A136010BD474B734A1A60474B734A51
:100990001A60484A544900231360474A1360474A83
:1009A0001360474A1360474A1360474A1360474A37
:1009B0001360474A1360474A1360474A1360474A27
:1009C0001360474A1360474A1160484A4849136018
:1009D0004FF07E520A6048490B6049490A604A4913
:1009E0000B604B490A604C490B604D490A604E4A06
:1009F0001360A8E72B4B5A4A1A602C4B594A1A60CD
:100A00002C4A4FF07E5313602B4A4FF08741116000
:100A10002A494FF085420A6029490B6029494FF065
:100A20008040086028484FF08441016027480360F7
:100A300027484FF0834404602648016026490B6034
:100A400026494FF08240086025490A60254A002166
:100A50001160264A1360264B434A1A60264B434ACC
:100A60001A60274B424A1A60274B424A1A60284BA9
:100A7000414A1A60284B414A1A60294B404A1A6081
:100A8000294B404A1A602A4B42F260221A60294BD5
:100A900042F21C521A60284B40F648525EE700BFF3
:100AA0000E4D0020484E00208635553EC44C002097
:100AB000646D0E3FA84D0020AC4900207C9C0020B6
:100AC000DC4C0020844B0020184D0020949C00201A
:100AD000744C0020B04B0020384E0020C849002044
:100AE000B4490020D04C00200000A040C04B0020A2
:100AF000944A002081FCCF3EB04D002042E684BFE6
:100B0000A44D00209E9CBF3EA04D00200E744DBF02
:100B1000809C0020B9BDC73E8C9C002037DDB33FD0
:100B2000904A002012B7BA3ED4490020A186813FE6
:100B3000D84C0020C0490020E44C0020749C0020C8
:100B4000F44C0020EC4C0020D04D0020C04D002083
:100B5000E04C0020804D0020E19E563ECFCB8D3FE3
:100B60002080553EEC3B8B3FE59AF43EF2C60140B7
:100B70003BACD93E318FCC3F2CEAE73E72F1694065
:100B8000907FC33EBEC70340364B374A1A60374B8F
:100B9000374A1A60374A4FF07E531360364A4FF097
:100BA0008741116035494FF085420A6034490B6036
:100BB00034494FF08040086033484FF08441016071
:100BC0003248036032484FF083440460314801608A
:100BD00031490B6031494FF08240086030490A606A
:100BE000304A00211160304A1360304B304A1A609D
:100BF000304B314A1A60314B314A1A60314B324A1C
:100C00001A60324B324A1A60324B334A1A60334B05
:100C1000334A1A60334B344A1A60344B42F2602232
:100C20001A60334B42F21C521A60324B40F6485263
:100C30001A60314B40F6AC521A60304B82221A6077
:100C40002F4B32221A602F4A002313602E4A136062
:100C50002E4A13602E4A13602E4A0A2313602E4A2E
:100C60008FE600BF484E00202080553EC44C002037
:100C7000EC3B8B3FA84D0020AC4900207C9C002021
:100C8000DC4C0020844B0020184D0020949C002058
:100C9000744C0020B04B0020384E0020C849002082
:100CA000B4490020D04C0020C04B0020944A0020C2
:100CB000E59AF43EB04D0020F2C60140A44D00205C
:100CC0003BACD93EA04D0020318FCC3F809C002012
:100CD0002CEAE73E8C9C002072F16940904A00208B
:100CE000907FC33ED4490020BEC70340D84C0020AB
:100CF000C0490020E44C0020749C0020F44C0020EB
:100D0000EC4C0020D04D0020C04D0020E04C0020D5
:100D1000804D0020D44C0020404A0020B0F5807F58
:100D200007D1044A1378013303F003031370FFF76C
:100D3000C1BD70470E4D00200C4B4FF0FF3210B577
:100D40001A600B4B00241C600A4B18461422002129
:100D500005F0DCFC01340346B4F57A7F03F114039B
:100D6000F3D1054B01221A7010BD00BFA849002025
:100D7000004D0020504E00203C4E00202DE9FF4742
:100D8000374E384D37460A222946374803F0DBFDF7
:100D90000A212846FFF7F0FC01281CD1032229462E
:100DA00003A805F0E3FC03A805F074FCB0F57A7F16
:100DB00004460BD22D48142202FB0400294605F0FC
:100DC000D5FC2B4B1A68A242B8BF1C60142200212C
:100DD000284605F09BFC3378022B2FD1DFF8A0A02A
:100DE000224CDAF80020142101FB0242002392F881
:100DF00004903370B9F1430F884601D1FFF79CFF8F
:100E0000DAF80010032208FB014103A805F0AEFC4C
:100E1000184B194903A8B9F1430F18BF194601919E
:100E200005F038FC01990246144805F077FC134997
:100E30000D484FF6FF73132203F068FB3B784BB964
:100E40000F4A0B49136809688B42DFBF01215B1809
:100E5000397013600B4B186803F003FE93E700BF73
:100E60003C4E0020244D00209C4A0020504E002083
:100E7000A84900200F710008FB7000088C4D00206D
:100E8000004D0020E04A00202DE9F0479CB001F021
:100E9000E9FBFFF70DFC1422002113A805F036FC36
:100EA0000024B24B01941A6BB148B24E42F01002CA
:100EB0001A631A6B02F010020192019A02941A6BE3
:100EC00042F004021A631A6B02F004020292029AC0
:100ED00003941A6B42F001021A631A6B02F00102CA
:100EE0000392039A04941A6B42F008021A631A6B75
:100EF00002F008020492049A05941A6B42F002026E
:100F00001A631B6B03F00203059322464FF4BC6186
:100F1000059B01F097FF984822463C2101F092FF83
:100F200022469648102101F08DFF01274FF4BC6343
:100F30008F4813A9CDE91337CDE9154401F0A2FE7E
:100F40003C23CDE913378C481594022313A916933B
:100F50004FF4807501F096FE4FF404138848159401
:100F600013A9CDE9135301F08DFE1025834813A971
:100F7000CDE91357CDE9154401F084FE7C48159462
:100F800013A9CDE9137401F07DFE22460521172037
:100F900001F0CCFD172001F0FBFD1C2221460CA81E
:100FA000CDE9084405F0B2FB2022214613A805F044
:100FB000ADFBDFF8E0C1B4604FF4A073C6E900C335
:100FC0004FF47A73C6E90334304680237461B36109
:100FD00002F01AFD08B172B6FEE7CDE9080008A9D3
:100FE000304603F03DF908B172B6FEE76023CDE963
:100FF0000C30CDE910000E9012900C220CA9304656
:1010000002F0E6FD08B172B6FEE7CDE91300CDE9C6
:10101000150017904FF400531A9013A930461893F7
:1010200003F05CF9044608B172B6FEE7DFF8689198
:10103000304601F00FFA4FF00A0A4FF080434FF6A6
:10104000FF78032613A94846CDE90C44C9E90034CA
:10105000C9E90384CDE91364CDE91574CDE917A47A
:10106000CDE91974C9F80840C9F81840CDF86CA04A
:1010700002F022FD08B172B6FEE7CDE90C000CA922
:10108000484603F0EDF808B172B6FEE73D4C3E4B22
:101090002061CDE90C00C4E90030C4E90208CDE9C3
:1010A0001360CDE91570CDE917A0CDE91970A061E5
:1010B00013A92046CDF86CA002F0FEFC08B172B670
:1010C000FEE7CDE90C000CA9204603F0C9F8044660
:1010D00008B172B6FEE72A46014608A805F016FBDD
:1010E0001C2221460CA8CDE9064405F00FFB202266
:1010F000214613A805F00AFB244D254BAC60C5E939
:101100000034284644F29F13C5E90334C5E9054479
:1011100002F04EFC08B172B6FEE74FF4805308A906
:101120002846089302F089FE08B172B6FEE7174818
:1011300002F06AFC08B172B6FEE7CDE9060006A926
:10114000124803F08DF8024608B172B6FEE760233C
:10115000CDE90C30CDE90E00CDE9100012900CA9BC
:101160000A4802F035FDC8B172B6FEE70038024009
:1011700000100240384D00200000024000040240F0
:10118000000C0240244C002000040040F8490020DC
:101190000004014000000140F04D0020744804228A
:1011A0000CA902F015FD08B172B6FEE74FF400532A
:1011B000CDE91300CDE9150017901A9013A96C48DA
:1011C000189303F08BF8034608B172B6FEE769483E
:1011D000694C03614FF4E132C0E900420C22C0E9DE
:1011E0000233C0E90523C36103F062F9054608B183
:1011F00072B6FEE7614C624F0146102213A805F05B
:1012000085FA604BA56001262046C4E900352561BA
:10121000257684F82050E562A762E560E66184F8EF
:101220003050666101F05EFA08B172B6FEE70A233B
:10123000159013A92046CDE9133601F0D3FB0546DE
:1012400008B172B6FEE7504C0146102213A805F013
:101250005DFA4E4BA5602046C4E90035C4E90A7525
:101260002561257684F82050E560E66184F83050E9
:10127000666101F037FA08B172B6FEE70E231590E9
:1012800013A92046CDE9133601F0ACFB08B172B6C4
:10129000FEE71022002113A805F038FA3C4C3D4A25
:1012A0000F260023C4E9002620464FF0FF32CDE987
:1012B0000C33C4E90323A360A36102F079FB08B1F6
:1012C00072B6FEE74FF4805313A92046139302F041
:1012D000B4FD08B172B6FEE7CDE90C000CA92046BA
:1012E00002F0BEFF054608B172B6FEE7CDE90C007C
:1012F0000146102213A805F009FA274C274BA560D8
:10130000C4E9003620464FF6FF73C4E90335A561F2
:1013100002F0A6FB08B172B6FEE7CDE90C000CA9FD
:10132000204602F09DFF08B172B6FEE70123CDE929
:10133000143013901690082213A9204602F0E0FC06
:10134000034608B172B6FEE715481649164A03620D
:10135000C0E900124FF48042C0E90233C0E904231F
:10136000C0E9063301F088FD0446F8B172B6FEE725
:10137000F84900209C4A0020004800407C4C002096
:101380000100000F00200140E44A0020002101403C
:10139000C44B0020000C0040484A002000080040D8
:1013A0002C4B002000540040A086010005F0EAF814
:1013B000624B634A1A60634B634A1A60634B644A28
:1013C0001A60644B644902221A70644B4FF07E52DB
:1013D0001A60634A00231360624A1160624A136014
:1013E000624B42F6E0621A60614B14221A60FFF70A
:1013F000A3FC142221465F4805F088F914222146F7
:101400005D4805F083F95D4B5D491C705D4B5E489E
:101410001C705E4B1C705E4B1C705E4B1C7005F0AC
:101420009DF95D4B5D491C705D4B4A221A605D4B16
:1014300032221A605C4B6D221A605C4B5C4A1C6065
:101440005C4B1C605C4B1C605C4B0525013D41F80E
:10145000044B42F8044B43F8044BF7D1584B4FF47C
:10146000FA621A60574A01231360574A1921116022
:10147000564964220A60564940F6B830086055491A
:101480000B6055490A20086054490B6054490B60B1
:10149000544B32211960544B1A60544B4FF42F7245
:1014A0001A60FFF707FA03F067FA514A51482946D4
:1014B00003F08EFA504B514A18602946504803F009
:1014C00087FA504B504A18602946504803F080FA7A
:1014D0004F4B504A186029464F4803F079FA4F4B5A
:1014E0004F4A186029464F4803F072FA4E4B4F4A54
:1014F000186029464E4803F06BFA4E4B4E4A18606E
:1015000029464E4803F064FA4D4B4E4A186029466E
:101510004D4803F05DFA4D4B4D4A186029464D4841
:1015200003F056FA4C4B4D4A186029464C4803F0DC
:101530004FFA4C4B186003F031FAFEE7404E0020A2
:10154000DB0F4940884B002066665640989C00207F
:10155000000020410E4D0020287E8C3C889C0020FD
:10156000DC4900206C4C00208C4B0020CC4C00202F
:10157000B44B0020244D00208C4D0020784C0020DE
:1015800024710008849C0020984B0020804B002090
:101590000F4D00200C4D00200D4D0020DC4D002093
:1015A0009C9C0020984A0020789C0020104D002030
:1015B000E4490020CC4D0020D04900200C4C0020F4
:1015C000844D00201C4D0020BC490020E84C002028
:1015D000C4490020C84C0020AC4D0020E04A002047
:1015E000F84C00204C4E0020D44C0020404A0020F3
:1015F000BC72000891070008704C0020507200086F
:1016000081170008D44D0020E07200087D0D00080D
:10161000C44D00200473000869050008D849002063
:101620000872000859200008044D0020E4710008E9
:10163000D9170008444A002074720008C905000840
:10164000B84900202873000885160008084D0020BE
:1016500098720008E9050008B84B00202C720008B9
:10166000A91A0008204C0020054B19684A6A4B6AE9
:101670009A4288BF03F1FF339B1A8342F7D3704726
:10168000C44B002008B508210F48104C0E4D02F045
:1016900063FD0F4801F0D8FF01221021204601F020
:1016A000D1FB0A20FFF7E0FF20460022102101F0C5
:1016B000C9FB2A68D36843F00803D360054B186858
:1016C00003F0CFF9E8E700BF484A002000040240D9
:1016D000C44B00204C4E0020031D00EB81018B42C7
:1016E00000D1704753F8042B43F8082CF7E70000AB
:1016F000F8B51E4A03689342044611D1027F042ABA
:101700000ED11B4A1178164659B95962196A21F44B
:1017100020611962196A41F4007119620123137082
:10172000F8BD144D082102F020F82B68042B074661
:1017300003D911480521FFF7CFFF2B68052B16BFF2
:101740005A1C04232A600C4A42F8237023681A6A40
:1017500022F420621A621A6A1A62084B1A68D36865
:1017600023F00803D36000233370D9E7000800405A
:101770000D4D0020D04900200C4C0020484A00208C
:1017800080B5114E114F124D3368042B03D905213A
:101790003846FFF7A1FF284601F04AF84FF6FF71DF
:1017A000284601F0C9F83468052C18BF631C284688
:1017B00014BF3360042401F012F9064B47F82400EB
:1017C000186803F04EF9DFE7CC4D0020E449002013
:1017D0007C4C0020E84C0020F8B5294C294F2A4EBB
:1017E0002368042B03D905213846FFF775FF3046DF
:1017F00001F01EF84FF6FF71304601F09DF82568A4
:10180000052D18BF6B1C30460CBF0425236001F06A
:10181000E6F8DFED1E0A47F8250021681948B7EE03
:10182000000AFEF78BFFDFED1A7AB4EEE70AF1EE5D
:1018300010FA08DD1749184804F090FF174B186894
:1018400003F00FF9CCE7DFED167AB4EEE70AF1EE1C
:1018500010FA01DD1349EEE7DFED137AB4EEE70A83
:10186000F1EE10FA01DD1149E5E7DFED117AB4EE92
:10187000E70AF1EE10FACCBF0E490F49DBE700BFD3
:10188000104D0020DC4D0020E44A00200000000044
:101890000000AA4431710008984B0020844D0020BC
:1018A0000000A5443E71000800C0A3444B7100082D
:1018B00000007A445871000865710008F7B55B4B69
:1018C0001B78012B07EE900A40F0AE80584A594829
:1018D0001368594C594DDFF8C8C1591C1160584A5A
:1018E00012689342C0F28B80564B9FED577A1B785B
:1018F0000168564FDFF8ACE1462B0CBF544A554AFD
:10190000D2ED006A462B0CBF534A544AF8EE677A70
:1019100066EE876A462B86EEA75AD2ED006A0BBFA9
:101920004F4A504AD2ED003AD2ED003A0CBF4E4A2F
:101930004E4A67EEA66A462B86EE873AD2ED006ADB
:101940000CBF4B4A4B4A66EE876A462B86EEA76A67
:101950000CBF494B494BD2ED006A93ED004A484B0E
:10196000484A1B6867EEA67A5E1AC7EE875A166069
:1019700022689B1A3B60444F07EE906A434EF8EE94
:10198000E74A07EE903A424BD6ED006AB8EEE77AA6
:10199000D3ED007AE3EE246AE5EE877AC6ED006ABD
:1019A000C3ED007A3E68DEF800301E4308BF3960A0
:1019B0003E6808BFCEF800208E1B05EE906AF8EE58
:1019C000E55ADEF80060396065EE655A961BE4EE74
:1019D000A35ACEF8002076EEA56AFDEEE66AC5EDC4
:1019E000006A06EE906AF8EEE66A66EE666AE7EE70
:1019F000046A77EEA67AFDEEE77ACCED007ADCF8A1
:101A0000003001932B680093026823682149224823
:101A100004F084FE204921484FF6FF73132203B0DF
:101A2000BDE8F04002F072BD03B0F0BD0C4D0020E7
:101A3000709C0020B44D0020AC4B0020D84D0020FD
:101A4000B44B0020849C002000007A44BC4B002052
:101A5000DC4C0020A84D0020844B0020AC49002025
:101A6000184D00207C9C0020384E0020949C0020C3
:101A7000C8490020744C0020B4490020B04B00201D
:101A8000B0490020884D0020444E0020A84B002083
:101A9000204D0020727100088C4D00209C4A0020CF
:101AA000904B0020F04C00202DE9F74F584D594C39
:101AB000DFF890813C21284601F0FCFD3C212046C6
:101AC00001F0F8FD2B685F6A23685E6A00F0F0FDA4
:101AD0004FF6FF7982466FEA0A0B00F0E9FDD8F86D
:101AE0000030824594BFA0EB0A010BEB00018B4252
:101AF000F3D2D5F800A0D4F800E0DAF82420DEF81C
:101B00002430DAF800A0A7EB020C8CEAEC701AF093
:101B1000100FA0EBEC700ABF02EB090CCC44ACEB4D
:101B2000070CDEF800200190BCF1000FA6EB0300CB
:101B300080EAE07BB8BFCCF1000CD206ABEBE07BD7
:101B400056BF03EB09004844801B019B0028B8BF27
:101B500040429C4528BF9C462F4B5845C3F800C0C7
:101B60002E4B28BF584618602D4B1B78012B44D1B3
:101B70002C4BDFED2D5A93ED006A2C4B07EE90CAEB
:101B800093ED004A2A4B26EE045AB8EEE77A65EE4A
:101B9000077AC7EEA54AD3ED007A74EEA74A07EE9E
:101BA000900AF8EEE77AC3ED004A25EE275A214B5A
:101BB000C5EE254A93ED005A34EE855A83ED005A5E
:101BC0001D4BD3ED006A1D4B66EE266A66EE846AF5
:101BD00027EE267A67EEA67A87EE256A93ED007ADD
:101BE00036EE077A83ED007A87EEA57A144BD3EDB3
:101BF000007A77EE277AC3ED007A0846FFF75EFE9B
:101C00002B685F6A23685E6A00F052FD824662E7D5
:101C1000F04D0020244C0020B44D0020AC4B00209F
:101C20000F4D0020404E002000002543884B00202F
:101C3000E0490020CC490020484E0020FC4C002008
:101C4000BC4D0020BC490020104A002310B5137081
:101C50000F4A104C1360104A1360104B186802F0C2
:101C600000FF0F4B1A680F4B1A6022781AB10E4B07
:101C7000186802F0F6FE0D4A002313700C4A237018
:101C800013700C4B02221A7010BD00BF0C4D0020C7
:101C9000D84D0020784C0020904B0020D44C0020E0
:101CA0009C9C0020944B0020404A00200F4D0020B7
:101CB000849C00203C4E00202DE9F3417B4E7C4D5E
:101CC00033787C4CDFF85C82002B40F088807A4BC4
:101CD0001F78002F7FD1794B02791A70811D042261
:101CE000684604F043FD684604F0D4FC07EE900A11
:101CF000734B74481B682360F8EEE77A0121C5ED49
:101D0000007A01F099F801286F4B61D16F4AD4ED48
:101D1000007AD2ED006AB0EE007AD6EE877A95EDC1
:101D2000007AF4EEC77AF1EE10FA51D51870684BCC
:101D30001F60684B1F60684BD3ED007A674BF8EE6D
:101D4000E77AC3ED007A664BD3ED007A654BF8EE87
:101D5000E77AC3ED007A644B1F60644B1A68644BEA
:101D60001A6095ED007AD4ED007A624AB4EEE77A13
:101D7000F1EE10FA88BF604BB4EEE77A8CBF1B68B7
:101D80000023F1EE10FA136088BF5C4B5C4A8CBFF5
:101D90001B68002313605B4A00231360B4EEE77AEC
:101DA000594AF1EE10FA1360C8BF584B584AC8BFE1
:101DB0001B681360574AC8F8003000231370564A56
:101DC0001370564A13700123337002B0BDE8F081DE
:101DD00000221A70C5E7524B1B682360C1E794EDDF
:101DE000006AD5ED007A98ED007A77EEC67AF4EEC7
:101DF000C77AF1EE10FA0AD8454BD3ED006AF4EE3B
:101E0000E67AF1EE10FA02D8FFF71EFFDDE72A4B63
:101E10001B78002BD9D13F4A13780BBB2A4B1B7878
:101E2000012B1DD12949D1ED006A76EEC66AB4EEC8
:101E3000E67AF1EE10FA13DB354991ED006AF4EE23
:101E4000C66AF1EE10FA0BD82349137008682949C5
:101E50000860234908682A49086030490B70B4E7D4
:101E60002D4B1A78002AB0D1184937EEC77AD1ED38
:101E7000006AB4EEE67AF1EE10FAA6D8244991EDA4
:101E8000007A77EEC77AF4EEE76AF1EE10FA9CDB9F
:101E900022490A70184A1168164A1160174A1168D7
:101EA000174A116001221A708FE700BF0F4D002002
:101EB000909C0020B84D0020784C0020849C00208D
:101EC000D04C002000100240804B0020989C002045
:101ED000444E0020F04C0020D84C0020A84B00209D
:101EE000C0490020204D0020709C0020F44C0020B0
:101EF000B0490020D84D0020E44C0020749C002004
:101F0000904B0020E0490020CC490020C44C002028
:101F1000BC4D0020C94D0020C84D00200C4D0020B4
:101F2000C04B0020FC4C002037B5374D2B780446C1
:101F3000002B66D1C11D032201A804F017FC01A8E3
:101F400004F0A8FB21796379304A314C10604C29A8
:101F5000297023702DD1422B1CD12E4B1B681844A5
:101F600007EE900A2C4B1060D3ED006A2B4BF8EE75
:101F7000E77A93ED007A2A4BA7EEA67A83ED007AF2
:101F8000284B294A1B681360284B186802F069FD2A
:101F900003B030BD462BF3D1254B1B68184407EE28
:101FA000900A244B1060D3ED006A234BF8EEE77AD9
:101FB000DFE7522914D1422B14D1204B1B6818445F
:101FC00007EE900A1E4B1060D3ED006A1D4BF8EE31
:101FD000E77A93ED007A124BA7EEA67A83ED007AAA
:101FE000194BCEE7462BFBD1184B1B68184407EE64
:101FF000900A174B1060D3ED006A164BF8EEE77AA3
:10200000E7E7FFF759FEC3E7784C0020144D0020A6
:10201000849C0020D04D0020944A0020B04D002028
:10202000909C0020984A0020944B0020404A0020B9
:10203000C04D0020A44D0020A04D0020E04C002009
:10204000809C00208C9C0020789C0020804D0020EB
:10205000904A0020D449002008B51B4C1B4D264651
:102060002378012B22D11A4A2B68126893421DDC77
:102070001848142202FB030212794C2A0CD8412A78
:102080000CD9423A0A2A09D8DFE802F00B1B0808EB
:102090000B08080808081500522A0CD001332B60E1
:1020A00004E0142202FB0300FFF706FE0A4B186847
:1020B00002F0D7FCD4E7142202FB0300FFF734FF41
:1020C000F4E702233370F1E73C4E0020004D00207E
:1020D000A8490020504E00201C4D002082B00E4B1D
:1020E00000220092596C41F480415964596C01F40A
:1020F0008041009100990192196C41F0805119645E
:102100001B6C03F080530193019B0F216FF00100C2
:1021100002B000F00BBD00BF0038024010B5142221
:102120008AB0044600210DEB020004F0EFFA2368A8
:102130001F4A934220D11F4B00220192596C41F457
:1021400080715964596C01F4807101910199029276
:10215000196B41F0040119631B6B03F00403029334
:10216000029B012305931448032305A9CDE90632F8
:1021700000F088FD0AB010BD104A9342FAD10D4B11
:1021800000220392596C41F400715964596C01F4B6
:102190000071039103990492196B41F004011963D2
:1021A0001B6B03F004030493049B1023DAE700BFC6
:1021B0000020014000380240000802400021014098
:1021C00030B5044689B01422002103A804F09EFA19
:1021D0002268154B9A4224D1144C154800250195CC
:1021E000236B43F002032363236B03F00203019389
:1021F000019B4FF440721223CDE9032301210323F5
:10220000CDE90513042303A9079300F03BFD0295D4
:10221000236C43F400132364236C03F40013029330
:10222000029B09B030BD00BF00540040003802409E
:10223000000402400268094B9A4282B00BD100238D
:102240000193074B5A6C42F001025A645B6C03F035
:1022500001030193019B02B0704700BF00000140E1
:102260000038024070B514228AB0044600210DEBFC
:10227000020004F04BFA2368B3F1804F39D103F523
:102280000E33002400941A6C2B4842F001021A64A9
:102290001A6C02F001020092009A01941A6B42F04B
:1022A00001021A631A6B02F001020192019A029470
:1022B0001A6B42F002021A631B6B03F002030293D3
:1022C000029B02264FF40043012505A9CDE90536FE
:1022D000CDE90744099500F0D5FC0823CDE9053682
:1022E000CDE907441548099505A900F0CBFC0AB0D3
:1022F00070BD134A9342FAD1124B0F480022039249
:10230000196C41F002011964196C01F0020103918A
:1023100003990492196B41F0010119631B6B03F0DF
:1023200001030493C021049B0223CDE90513CDE9E9
:102330000722099305A9D8E70000024000040240E3
:10234000000400400038024010B5044688B0142252
:10235000002103A804F0DAF92268184B9A422AD126
:1023600003F50C33002401941A6C154842F0040262
:102370001A641A6C02F004020192019A02941A6B18
:1023800042F008021A631B6B03F0080302934FF438
:102390008042029B03A90223CDE903230793CDE9E1
:1023A000054400F06FFC1E202246052100F0BEFB14
:1023B0001E2000F0EDFB08B010BD00BF000800407B
:1023C000000C024010B5044688B01422002103A876
:1023D00004F09CF923681B4A93420DD1002300931B
:1023E000194B1A6C42F008021A641B6C03F00803C4
:1023F0000093009B08B010BD144A9342FAD1124BCF
:10240000134800220192596C41F002015964596C41
:1024100001F00201019101990292196B41F004014E
:1024200019631B6B03F004030293029BC021022378
:10243000CDE90313032303A9CDE90522079300F097
:1024400021FCD7E7000C00400038024000040140A6
:102450000008024010B5044686B01422002101A8ED
:1024600004F054F922680F4B9A4218D10E4A0F48D3
:1024700000230093116B41F010011163126B02F005
:10248000100200924FF48041009A0222CDE901121D
:10249000CDE9033301A90123059300F0F3FB06B056
:1024A00010BD00BF00000140003802400010024093
:1024B00010B5044688B01422002103A804F026F9C0
:1024C0002268194B9A422CD103F5F8330024019469
:1024D0001A6C164842F480221A641A6C02F48022A4
:1024E0000192019A02941A6B42F004021A631B6B68
:1024F000059403F0040302934FF44062029B02230D
:10250000CDE9032303210723CDE9061303A900F036
:10251000B9FB27202246052100F008FB272000F008
:1025200037FB08B010BD00BF004800400008024063
:10253000FEE7FEE7FEE7FEE7FEE7704708B500F0BE
:10254000ABF803F04FFA012803D0BDE8084003F0D0
:1025500059BD08BD4FF4807000F082BC014801F005
:102560001EB900BF484A0020014802F08BB800BFE6
:102570009C4A00200B4B196810B5024609B90A495C
:102580001960186809490A4C0244091B8A4206D995
:1025900004F084F80C2303604FF0FF3010BD1A6084
:1025A000FCE700BF90000020F8A0002000000220FF
:1025B00000040000034AD2F8883043F47003C2F8E4
:1025C0008830704700ED00E0DFF834D00D480E4948
:1025D0000E4A002302E0D458C4500433C4188C427D
:1025E000F9D30B4A0B4C002301E013600432A242E2
:1025F000FBD3FFF7DFFF04F057F8FEF745FC704709
:10260000000002200000002074000020207F00084D
:1026100074000020F4A00020FEE7000038B50E4A48
:102620000E4B054618784FF47A73B3FBF0F310683D
:10263000B0FBF3F000F0BAFA044658B90F2D09D8F0
:10264000024629464FF0FF3000F070FA044B204656
:102650001D6038BD0120FCE70000002004000020C0
:102660000800002008B50B4B1A6842F400721A608B
:102670001A6842F480621A601A6842F480721A6022
:10268000032000F041FA0F20FFF7C8FFFFF726FDF7
:10269000002008BD003C0240034A044B11681B782F
:1026A0000B441360704700BFA09C00200400002072
:1026B000014B1868704700BFA09C002038B5044645
:1026C000FFF7F6FF631C1CBF054B1B78054618BFC0
:1026D000E418FFF7EDFF431BA342FAD338BD00BF58
:1026E0000400002038B50446002800F09B80056CEB
:1026F00025B9FFF713FD656484F83C50236CDB06B5
:1027000000F18E80236C23F4885323F0020343F0FE
:1027100002032364444B5A6822F440325A605A68D8
:1027200061680A435A60236821695A6822F48072FA
:102730005A605A6842EA01225A605A68A16822F037
:1027400040725A605A680A435A609A68E16822F4F3
:1027500000629A609A680A439A603449A26A8A427F
:1027600052D0996821F07061996099680A439A6023
:102770009A68E16A22F040529A609A680A439A6025
:102780009A6822F002029A609A68217E42EA410227
:102790009A6094F82020002A3ED05A68616A42F478
:1027A00000625A605A6822F460425A605A680139DD
:1027B00042EA41325A60DA6AE16922F47002DA626E
:1027C000DA6A013942EA0152DA629A6822F4007246
:1027D0009A609A6894F8301042EA41229A609A68A6
:1027E000616922F480629A609A68002042EA81223C
:1027F0009A606064236C23F0030343F001032364B5
:10280000002384F83C3038BD9A6822F070629A60E8
:102810009A6822F04052B2E75A6822F40062C9E78F
:102820000120EDE70120EEE7002301400100000F49
:1028300013B50023019390F83C30012B6CD0012399
:10284000026880F83C309368D9070CD5936813F080
:1028500001031AD1026C42F010020264426C42F091
:102860000102426456E093682D4943F001039360EE
:102870002C4B1B68B3FBF1F303EB43030193019B68
:10288000002BE3D0019B013BF8E7036C264C23F4BB
:10289000E06323F0010343F48073036453685B0532
:1028A00041BF036C23F4405343F480530364036C2F
:1028B00013F480531CBF436C23F0060343646FF092
:1028C0002201002380F83C3011601849486810F05C
:1028D0001F0019D1A24206D0154B9A420DD14B6868
:1028E00013F01F0F07D1906810F0405016D1936875
:1028F00043F08043936002B010BD0E4B9A42FAD170
:102900004B6813F0100FEDE7A24207D1906810F06A
:102910004050ECD01846EEE70220ECE70020EAE752
:1029200040420F0000000020002001400023014031
:10293000002101400022014003689A68520570B5E9
:1029400004460D460BD59B68DE0508D5036C43F0A5
:1029500020030364002380F83C30012070BDFFF7A2
:10296000A7FE064623681A6891070CD56FF012027D
:102970001A60226C42F4007222649A6812F0405F7E
:1029800017D00020EAE7681CEDD065B923681B6802
:1029900013F00203E6D1226C84F83C3042F00402CA
:1029A00022640320DAE7FFF783FE801BA842EDD8FC
:1029B000D8E7207E0028E4D1DA6A12F4700F02D042
:1029C0009B685A05DDD4236C23F480732364236C45
:1029D000DB04D6D4236C43F001032364BEE7036811
:1029E000D86C7047F7B50023019390F83C30012B69
:1029F00066D0012380F83C300D6803688E68092D8D
:102A0000ACB231D904EB4402DF681E3A4FF0070C38
:102A10000CFA02FC27EA0C07DF60DF6806FA02F214
:102A20003A43DA604968062901EB81022CD8596BD8
:102A3000053A1F26964021EA06015963596B04FAAC
:102A400002F20A435A632C4A934207D1122D39D11C
:102A5000D2F8043343F48003C2F80433002380F82F
:102A60003C30184603B0F0BD1F6905EB45024FF03E
:102A7000070C0CFA02FC27EA0C071F611F6906FA13
:102A800002F23A431A61CDE70C294FF01F010BD82F
:102A90001E6B233A914026EA01011963196B04FA6F
:102AA00002F20A431A63CEE7DE6A413A914026EA0F
:102AB0000101D962D96A04FA02F20A43DA62C2E772
:102AC0000220CFE7A5F11003012BC7D80B4A5368AA
:102AD000102D43F400035360C0D1094B094A1B6811
:102AE000B3FBF2F20A2353430193019B002BB5D0B1
:102AF000019B013BF8E700BF00200140002301409B
:102B00000000002040420F000749CA6822F4E0623A
:102B10000302120403F4E063120C134343F0BF6397
:102B200043F40033CB60704700ED00E0164B30B546
:102B3000DC68C4F30224C4F10705231D042D28BF5B
:102B40000425062B4FF0FF338CBF033C002403FA0F
:102B500005F521EA0501A34022EA0302A14000286D
:102B600041EA0203ACBF00F16040084A4FEA031398
:102B7000B8BF00F00F00DBB2AABF00F561401354EC
:102B800080F8003330BD00BF00ED00E014ED00E040
:102B9000002808DB4209012300F01F0003FA00F0BF
:102BA000014B43F82200704700E100E00138B0F12A
:102BB000807F0AD2064B074A5860F02182F8231022
:102BC0000020072298601A6070470120704700BFFC
:102BD00010E000E000ED00E070B50446866DFFF700
:102BE00067FD94F83530022B054606D080236365D7
:102BF000002384F83430012070BD23681A6822F065
:102C000016021A605A6922F080025A61226C0AB9CF
:102C1000A26C1AB11A6822F008021A601A6822F02F
:102C200001021A6023681B6813F001030AD1E16DE9
:102C30003F228A40B260012284F8352084F8343083
:102C40001846D9E7FFF734FD401B0528EAD92023B1
:102C500063650320002384F8350084F83430CBE723
:102C600090F83530022B03D0802343650120704754
:102C70000268052380F83530136823F001031360E0
:102C8000002070472DE9F74FDFF8A891674A00232D
:102C90000D6801249C4004EA050CAC4340F0B1806F
:102CA0004D6805F003044FEA43080326671E06FA41
:102CB00008F6012F6FEA060634D8876807EA060E81
:102CC000CF6807FA08F747EA0E078760476827EAE0
:102CD0000C0EC5F300179F4047EA0E074760C76810
:102CE00007EA060E8F6807FA08F747EA0E07022C74
:102CF000C76019D14FEAD30A00EB8A0A03F0070B29
:102D0000DAF820704FEA8B0B4FF00F0E0EFA0BFE25
:102D100027EA0E0E0F6907FA0BF747EA0E07CAF803
:102D2000207001E0032CDAD1076804FA08F43E4071
:102D3000264315F4403F066063D04FF0000ACDF8FB
:102D400004A0D9F844603A4C46F48046C9F844607F
:102D5000D9F8446006F480460196019E23F00306EC
:102D600006F1804606F59C3603F0030ED6F808807F
:102D70004FEA8E0E0F2707FA0EF7A04228EA070740
:102D800046D004F58064A04244D004F58064A0429B
:102D900042D004F58064A04240D004F58064A04293
:102DA0003ED004F58064A0423CD004F58064A0428B
:102DB0003AD004F58064A0420CBF0724082404FA2A
:102DC0000EF43C43B46014686FEA0C06EF0354BF82
:102DD00034404CEA040414605468AF0354BF3440D8
:102DE0004CEA040454609468EF0254BF34404CEA47
:102DF00004049460D468AD0254BF34404CEA040427
:102E0000D4600133102B7FF443AF03B0BDE8F08FE3
:102E10005446D4E70124D2E70224D0E70324CEE7C6
:102E20000424CCE70524CAE70624C8E7003C014097
:102E300000000240003802400369194214BF01201B
:102E4000002070470AB1816170470904FBE74369BC
:102E500001EA030221EA030141EA0241816170476C
:102E6000044A5169014208B502D05061FDF756FF8E
:102E700008BD00BF003C014070B5044608B9012000
:102E800070BD90F83D3003F0FF021BB980F83C2084
:102E9000FFF796F9242384F83D3023681A6822F05E
:102EA00001021A601A6842F400421A601A6822F499
:102EB00000421A6000F01AFB3F4A6368934294BFD5
:102EC0003E4A3F4A90428CBF00220122002AD6D1BE
:102ED00021683C4E4A68B0FBF6F622F03F023243CE
:102EE0004A60354A0D6A934284BF4FF4967272432A
:102EF00025F03F0591BF721C4FF47A76B2FBF6F2D3
:102F000001322A430A62CD69421E2B4825F44F45FF
:102F1000834225F0FF0532D85B00B2FBF3F340F6A5
:102F2000FC720133134242D0C3F30B032B43CB613A
:102F3000D4E907300A68034322F0C00213430B6050
:102F40008A68D4E9030322F40342034322F0FF0218
:102F500013438B60D4E90530CA68034322F0FF02B3
:102F60001343CB600B6843F001030B600020202368
:102F7000206484F83D30206384F83E0080E7A06838
:102F800050B903EB4303B2FBF3F30133C3F30B0379
:102F90007BB143F40043C9E719204343B2FBF3F389
:102FA0000133C3F30B0323B143F44043BEE70423CF
:102FB000BCE70123BAE700BFA08601007F841E00A2
:102FC000FF083D0040420F00044B01221A60044BF1
:102FD00082B01B680193019B02B0704720000E4233
:102FE00000700040044B00221A60044B82B01B6842
:102FF0000193019B02B0704720000E420070004018
:103000002DE9F341044640B30368DD0710D423687B
:1030100098075ED423681A0700F1A08023685B0735
:1030200000F1BE80A069002840F01F8100202BE045
:10303000A64B9A6802F00C02042A07D09A6802F0A4
:103040000C02082A0BD15A68510208D59F4B1B6805
:103050009A03DCD56368002BD9D1012014E06268A3
:10306000B2F5803F13D11A6842F480321A60FFF73C
:103070001FFB964E054633689B03C8D4FFF718FB29
:10308000401B6428F7D9032002B0BDE8F0818F4DC2
:10309000B2F5A02F2B6807D143F480232B602B6857
:1030A00043F480332B60E2E723F480332B602B68FA
:1030B00023F480232B60002AD9D1FFF7F9FA0646C2
:1030C0002B689F03A3D5FFF7F3FA801B6428F7D979
:1030D000D9E77E4B9A6812F00C0F07D09A6802F07D
:1030E0000C02082A11D15B685E020ED4774B1A6875
:1030F000950702D5E268012AAFD11A68216922F04A
:10310000F80242EAC1021A6084E7E268704BB2B189
:1031100001221A60FFF7CCFA6C4D06462B6898071F
:1031200007D52B68226923F0F80343EAC2032B601A
:1031300070E7FFF7BDFA801B0228EFD9A3E71A60FA
:10314000FFF7B6FA614E0546336899077FF562AF1F
:10315000FFF7AEFA401B0228F6D994E762695D4B8F
:103160007AB101221A60FFF7A3FA584E0546736F31
:103170009F073FF553AFFFF79BFA401B0228F6D994
:1031800081E71A60FFF794FA504E0546736F98076F
:103190007FF544AFFFF78CFA401B0228F6D972E79F
:1031A0004A4B1A6C12F0805228D101921A6C42F0EC
:1031B00080521A641B6C03F080530193019B01271A
:1031C000454D2B68D9051BD5A368404D012B27D150
:1031D0002B6F43F001032B67FFF76AFA3B4E05465E
:1031E00041F28838336F9B0739D5002F3FF41AAF6F
:1031F000364A136C23F08053136413E70027DFE78C
:103200002B6843F480732B60FFF752FA06462B6855
:10321000DA05D9D4FFF74CFA801B0228F7D932E738
:10322000052B04D12B6F43F004032B67D0E72A6FE3
:1032300022F001022A672A6F22F004022A67002B7B
:10324000CAD1FFF735FA41F2883806462B6F980746
:10325000CBD5FFF72DFA801B4045F7D913E7FFF7D1
:1032600027FA401B4045BDD90DE7184DAB6803F068
:103270000C03082B47D0194E00230228336035D1A8
:10328000FFF716FA07462B68990129D4D4E90732CB
:103290001343626A43EA8213E26A43EA0263A26A60
:1032A0005208013A43EA02436B6001233360FFF79F
:1032B000FFF9064D04462B689A013FF5B7AEFFF7BC
:1032C000F7F9001B0228F6D9DDE600BF00380240FE
:1032D00000004742800E47420070004060004742B5
:1032E000FFF7E6F9C01B0228CDD9CCE6FFF7E0F9DD
:1032F00004462B689B017FF599AEFFF7D9F9001BB7
:103300000228F6D9BFE601283FF4BEAE6B68E26939
:1033100003F4800191427FF4A0AE216A03F03F02E2
:103320008A427FF49AAE616A47F6C0721A40B2EBE5
:10333000811F7FF492AEA26A520803F44031013A31
:10334000B1EB024F7FF489AEE26A03F07063B3EB36
:10335000026F3FF46BAE80E6134908B58B6803F04B
:103360000C03042B1CD0082B1CD14A684B684968FD
:1033700013F4800314BF0D480D48C1F3881118BF22
:10338000002302F03F02A1FB0001FCF771FF064B96
:103390005B68C3F3014301335B00B0FBF3F008BD8E
:1033A0000248FCE70248FAE70038024040787D0115
:1033B0000024F4002DE9F0410D46044610B9012027
:1033C000BDE8F081444B1A6802F007028A4228D314
:1033D000226897072DD4D00741D43F4B1A6802F0DA
:1033E0000702AA4266D8226851076CD4130707D592
:1033F0003A4A2169936823F4604343EAC103936026
:10340000FFF7AAFF354B364A9B68C3F30313D35C1F
:10341000D840344B1860344B1868FFF7FFF8002091
:10342000CEE7CAB21A701B6803F007038B42C6D1FD
:10343000CEE72A4B12F0040F1EBF996841F4E05109
:103440009960160742BF996841F460419960234929
:10345000A0688B6823F0F00303438B60BBE76268CE
:103460001E4B012A1CD11B6813F4003FA7D01B4E32
:10347000B36823F003031343B360FFF719F941F274
:1034800088380746B368626803F00C03B3EB820F19
:10349000A3D0FFF70DF9C01B4045F3D903208FE7F8
:1034A000911E01291B6802D813F0007FDEE713F09C
:1034B000020FDBE7EAB21A701B6803F00703AB42A6
:1034C0007FF47DAF8FE70549E0688B6823F4E05314
:1034D00003438B608AE700BF003C02400038024093
:1034E0004C7300080000002008000020044B054A2F
:1034F0009B68C3F38223D35C034A1068D8407047AB
:10350000003802405C73000800000020044B054AAC
:103510009B68C3F34233D35C034A1068D8407047BA
:10352000003802405C73000800000020036A23F0AA
:1035300001030362036A70B5446882690D6822F072
:1035400073022A438D6823F002032B430E4DA842D9
:1035500002D00E4EB04210D1CE6823F008033343A0
:10356000A84223F0040302D0084DA84205D1D1E9B6
:10357000055624F4407435432C43446082614A6804
:103580004263036270BD00BF0000014000040140BF
:10359000036A23F480730362036A70B54468C269E6
:1035A0000D6822F073022A438D6823F4007343EA06
:1035B0000523114DA84203D005F58065A84214D11A
:1035C000CD6823F4006343EA05230B4DA84223F49E
:1035D000806303D005F58065A84206D1D1E9055680
:1035E00024F44054354344EA05144460C2614A68F7
:1035F000C263036270BD00BF00000140036A23F490
:1036000080530362036A30B54468C2690D6822F4CE
:10361000E64242EA05228D6823F4005343EA05336B
:10362000084DA84203D005F58065A84204D14D6934
:1036300024F4804444EA85144460C2614A68026408
:10364000036230BD0000014090F83D30012B2CD1C9
:103650000223174A80F83D30036893421AD0B3F131
:10366000804F17D0A2F57C42934213D002F58062BE
:1036700093420FD002F5806293420BD002F578425C
:10368000934207D002F57052934203D0A2F59432D0
:10369000934204D19A6802F00702062A03D01A68FE
:1036A00042F001021A60002070470120704700BFFD
:1036B0000000014030B590F83E2090F83F3090F87F
:1036C000425090F84340D2B2DBB2EDB2E4B2C9B995
:1036D000012A46D1012D46D1022380F83E3080F8E0
:1036E000423003681A6A22F001021A621A6A42F032
:1036F00001021A620268136843F001031360002399
:10370000184630BD042911D1012B2AD1012CF7D143
:10371000022380F83F3080F8433003681A6A22F0B1
:1037200010021A621A6A42F01002E2E7012A18D166
:10373000012B18D1012DE3D1012CE1D1022380F816
:103740003E3080F83F3080F8423080F843300368E4
:103750001A6A22F001021A621A6A42F001021A621F
:10376000DCE70123CCE71346CAE7082910D004D8C8
:1037700041B1042909D0002070470C29FBD103680E
:10378000186C70470368586B70470368986B7047F4
:103790000368D86B7047704770477047704703687D
:1037A0001A69910710B504460ED5DA6892070BD551
:1037B0006FF002021A61012202779B699B0777D0A2
:1037C000FDF796FF0023237723681A69500710D569
:1037D000DA6851070DD56FF004021A6102222277D0
:1037E0009B6913F4407F204668D0FDF781FF0023DA
:1037F000237723681A6912070FD5DA6810070CD5EA
:103800006FF008021A6104222277DB6999072046CB
:103810005AD0FDF76DFF0023237723681A69D2067B
:1038200010D5DA68D0060DD56FF010021A610822A3
:103830002277DB6913F4407F20464BD0FDF758FF19
:103840000023237723681A69D10708D5DA68D207DD
:1038500005D56FF001021A612046FFF79CFF23682F
:103860001A69100608D5DA68110605D56FF08002CE
:103870001A61204600F059FD23681A69520608D5DE
:10388000DA68500605D56FF040021A612046FFF74E
:1038900085FF23681A69910622D5DA6892061FD53A
:1038A0006FF0200220461A61BDE8104000F03CBDD8
:1038B000FFF772FF2046FFF770FF83E7FFF76CFF0B
:1038C0002046FFF76AFF92E7FFF766FF2046FFF703
:1038D00064FFA0E7FFF760FF2046FFF75EFFAFE75A
:1038E00010BD0000304A0368904212D0B0F1804F02
:1038F0000FD0A2F57C4290420BD002F5806290423C
:1039000007D002F58062904203D002F578429042DF
:1039100019D14A6823F070031343234A904229D0F7
:10392000B0F1804F26D0A2F57C42904222D002F521
:10393000806290421ED002F5806290421AD002F559
:103940007842904216D0194A904213D002F5806214
:1039500090420FD002F5806290420BD0A2F59832CF
:10396000904207D002F58062904203D002F5806257
:10397000904203D1CA6823F4407313434A6923F089
:103980008003134303608B68C3620B688362064B3A
:10399000984203D003F58063984201D10B69036319
:1039A00001234361704700BF000001400040014017
:1039B00010B5044630B390F83D3003F0FF021BB958
:1039C00080F83C20FEF7FEFC0223206884F83D309E
:1039D000211DFFF787FF012384F84630002084F87B
:1039E0003E3084F83F3084F8403084F8413084F829
:1039F000423084F8433084F8443084F8453084F809
:103A00003D3010BD0120FCE710B5044630B390F8FE
:103A10003D3003F0FF021BB980F83C20FEF70AFCA2
:103A20000223206884F83D30211DFFF75BFF01234E
:103A300084F84630002084F83E3084F83F3084F823
:103A4000403084F8413084F8423084F8433084F8C0
:103A5000443084F8453084F83D3010BD0120FCE747
:103A600010B5044630B390F83D3003F0FF021BB9A7
:103A700080F83C20FEF768FC0223206884F83D3083
:103A8000211DFFF72FFF012384F84630002084F822
:103A90003E3084F83F3084F8403084F8413084F878
:103AA000423084F8433084F8443084F8453084F858
:103AB0003D3010BD0120FCE7F8B50D460446002856
:103AC0004DD090F83D3003F0FF021BB980F83C2048
:103AD000FEF7C8FB2146022384F83D3051F8040B61
:103AE000836823F4804323F007038360FFF7FAFE23
:103AF00020682B6886688269A968076A1E43AB69DB
:103B000022F4407222F0030241EA0323134323F418
:103B10007C422B69E9691B0143EA0123E9680B43F5
:103B2000296A22F0FC0243EA01331343696927F052
:103B3000AA026F68866047EA011783611743012371
:103B4000076284F84630002084F83E3084F83F3025
:103B500084F8423084F8433084F83D30F8BD0120C9
:103B6000FCE70000036A23F010030362036A70B5E8
:103B7000446882690D6822F4E64242EA05228D68B3
:103B800023F0200343EA0513104DA84203D005F5A6
:103B90008065A84214D1CD6823F0800343EA051361
:103BA0000A4DA84223F0400303D005F58065A842E2
:103BB00006D1D1E9055624F44064354344EA85042E
:103BC000446082614A688263036270BD0000014004
:103BD00070B590F83C30012B0546144654D00122B4
:103BE000082C80F83C203ED007D8CCB1042C29D03A
:103BF000002385F83C30104670BD0C2CF8D10068CD
:103C0000FFF7FCFC2B680969DA6942F40062DA61AB
:103C1000DA6922F48062DA61DA6942EA012231E08B
:103C20000068FFF783FC2B6809699A6942F0080273
:103C30009A619A6922F004029A619A690A439A6128
:103C40000022D5E70068FFF78DFF2B6809699A69A4
:103C500042F400629A619A6922F480629A619A69D8
:103C600042EA0122EBE70068FFF792FC2B68096942
:103C7000DA6942F00802DA61DA6922F00402DA61F4
:103C8000DA690A43DA61DBE70222B4E770B5046A55
:103C90001A4E24F001040462B0428469056A29D0F6
:103CA000B0F1804F26D0A6F57C46B04222D006F572
:103CB0008066B0421ED006F58066B0421AD006F586
:103CC0007846B04216D006F57056B04212D0A6F52E
:103CD0009436B0420ED044F001021B01DBB222F058
:103CE000F0021A4301F00A0125F00A031943826128
:103CF000016270BD24F003042243EEE7000001409E
:103D0000F8B590F83C30012B05460C4600F0898050
:103D1000012085F83C009AB9CB682868D1E90012E7
:103D2000FFF7B4FF2B68A1689A6922F00C029A6130
:103D30009A690A439A610020002385F83C30F8BD57
:103D4000042A23D12B681E6A26F01006D1E9002729
:103D5000C9681E6298691E6A20F4407040EA072014
:103D6000090320F4704089B21201014302F0A0025D
:103D700026F0A000024399611A629A69A16822F4B0
:103D800040629A619A6942EA0122D3E7082A22D165
:103D90002B681E6A26F48076D1E90020C9681E626D
:103DA000DF691E6A27F003073843090120F0F0009D
:103DB000C9B21202014302F4206226F420600243D9
:103DC000D9611A62DA69A16822F00C02DA61DA6953
:103DD0000A43DA61AFE70C2AAED12B681E6A26F4DB
:103DE0008056D1E90027C9681E62D8691E6A20F48E
:103DF000407040EA0720090320F4704089B21203A2
:103E0000014302F4204226F420400243D9611A62A1
:103E1000DA69A16822F44062DA61DA6942EA0122D1
:103E2000D7E702208BE710B58468114324F47F4460
:103E300041EA03232343836010BD70B590F83C3002
:103E4000012B04464FF0020300F09180012280F81C
:103E50003D3080F83C200068836823F47F4323F0E2
:103E6000770383600B68602B52D033D8402B67D028
:103E700016D8202B0DD00AD833F0100109D0012319
:103E800084F83D30002384F83C30104670BD302B60
:103E9000F5D1826822F07002134343F0070317E064
:103EA000502BECD14A68CE68016A056A25F00105FD
:103EB0000562836921F00A0123F0F00343EA061347
:103EC0000A4383610262836823F0700343F057035F
:103ED000836011E0B3F5805F0ED0B3F5005F0DD0C5
:103EE000702BCCD1CB68D1E90121FFF79CFF226870
:103EF000936843F0770393600022C0E7CB68D1E971
:103F00000121FFF790FF2268936843F48043F2E7B2
:103F10004D68CE68016A21F0100101628269036A6E
:103F200022F4704223F0A00343EA051342EA06326A
:103F300082610362836823F0700343F06703C7E77D
:103F40004A68CE68016A056A25F001050562836941
:103F500021F00A0123F0F00343EA06130A438361C8
:103F60000262836823F0700343F04703B0E71A4608
:103F70008BE7036A01F01F0110B501248C4023EA8E
:103F800004030362036A8A401A43026210BD000000
:103F900010B5044629B990F83E30012B1DD0012000
:103FA00032E0042907D190F83F30012BF7D10223EA
:103FB00080F83F3014E0082907D190F84030012BF9
:103FC000EDD1022380F840300AE090F84130012B17
:103FD000E5D1022380F8413002E0022380F83E3030
:103FE00001222068FFF7C5FF2368194A93420CD0CD
:103FF00018498B4209D0B3F1804F0DD19A6802F075
:104000000702062A1FD1002010BD596C934241F4CB
:1040100000415964F2D0EEE70F4A9342EED002F528
:1040200080629342EAD002F580629342E6D002F5C4
:1040300078429342E2D002F570529342DED0A2F56C
:1040400094329342DAD01A6842F001021A60DAE739
:10405000000001400004014000040040FFF798BF49
:1040600010B5044629B990F83E30012B2CD0012020
:1040700046E004290BD190F83F30012BF7D1022301
:10408000026880F83F30D36843F0040323E0082936
:104090000BD190F84030012BE9D10223026880F85F
:1040A0004030D36843F0080315E090F84130012B0D
:1040B000D8B2DCD102230C2984F8413020D1226807
:1040C000D36843F0100306E00223026880F83E3014
:1040D000D36843F00203D36020680122FFF749FF51
:1040E0002368194A93420CD018498B4209D0B3F186
:1040F000804F0DD19A6802F00702062A1FD10020D6
:1041000010BD596C934241F400415964F2D0EEE77E
:104110000F4A9342EED002F580629342EAD002F554
:1041200080629342E6D002F578429342E2D002F5F3
:1041300070529342DED0A2F594329342DAD01A68DC
:1041400042F001021A60DAE7000001400004014079
:1041500000040040FFF784BF10B50446002943D196
:1041600090F83E3090F84200DBB2012BC0B272D121
:10417000012870D1022300294CD1226884F83E30F6
:1041800084F84230D36843F00203D36020680122F0
:10419000FFF7EFFE2368314A93421AD0B3F1804F04
:1041A00017D0A2F57C42934213D002F5806293426D
:1041B0000FD002F5806293420BD002F57842934211
:1041C00007D002F57052934203D0A2F59432934285
:1041D00004D19A6802F00702062A03D01A6842F056
:1041E00001021A60002037E0042905D190F83F3021
:1041F00090F84300DBB2B8E708290BBF90F84030D5
:1042000094F8413090F8440094F845000CBFDBB2BC
:10421000DBB2AAE7042908D1226884F83F3084F889
:104220004330D36843F00403AFE7082908D122687C
:1042300084F8403084F84430D36843F00803A4E79E
:104240000C2984F8413084F8453005D12268D368C0
:1042500043F0100399E7012010BD00BF00000140AA
:1042600030B590F83C30012B4FF0020332D080F88B
:104270003D3003680D685C689A6824F070042C4334
:104280005C60154CA3421AD0B3F1804F17D0A4F54F
:104290007C44A34213D004F58064A3420FD004F5FC
:1042A0008064A3420BD004F57844A34207D004F500
:1042B0007054A34203D0A4F59434A34204D14968B6
:1042C00022F080020A439A60012380F83D300023E7
:1042D00080F83C30184630BD0000014090F83C307A
:1042E000012B1FD0CB688A6823F4407313434A68BC
:1042F00023F4806313430A6823F4006313430A69B9
:1043000023F4805313434A6923F400531343CA69C7
:1043100023F48043134302685364002380F83C3045
:10432000184670470220704770477047026802F1D4
:104330000C0353E8003F23F490730C3242E8003141
:1043400002680029F2D102F1140353E8003F23F080
:10435000010302F1140C4CE800310029F3D1036B86
:10436000012B0BD102F10C0353E8003F23F01003A3
:1043700002F10C0C4CE800310029F3D1202380F825
:104380003E300023036370470268C16838B5136983
:1043900023F440530B431361054683680069D168D9
:1043A000034368690343E86921F4164121F00C01D5
:1043B00003430B43D3605369A96923F440730B4350
:1043C00053611F4B9A4203D003F580639A4224D174
:1043D000FFF79CF8EA691923B2F5004FA0FB03012F
:1043E000D5E900431CD11A4692184FF000035B41F7
:1043F000FBF73EFF6421B0FBF1F501FB1503DB0089
:104400003233B3FBF1F303F007025B0002EB05125A
:1044100003F4F8731344A36038BDFFF767F8D9E7D6
:104420009A009B0FFBF724FF6422B0FBF2F102FB22
:1044300011031B013233B3FBF2F303EB0113EAE781
:1044400000100140F8B504460E4617461D46226886
:10445000136836EA030301D1002028E06B1CF7D073
:1044600025B1FEF725F9C01B8542F0D2226802F182
:104470000C0353E8003F23F4D0730C3242E80030C1
:1044800021680028F2D101F1140353E8003F23F022
:10449000010301F1140040E80032002AF3D1202387
:1044A00084F83D3084F83C2084F83E300320F8BD89
:1044B00010B5044640B390F83D3003F0FF021BB93D
:1044C00080F83C20FDF7F4FF2268242384F83D3077
:1044D000D36823F40053D3602046FFF755FF2368C9
:1044E0001A6922F490421A615A6922F02A025A612A
:1044F000DA6842F40052DA6000202023206484F855
:104500003D3084F83E3010BD0120FCE7F7B517467A
:1045100090F83D200093202A04460E4649D10029F8
:1045200045D0002F43D090F83C20012A41D00122F1
:1045300080F83C2000252122056480F83D20FEF70C
:10454000B7F8A168009BA784B1F5805F0246E784B5
:1045500003D1216909B935460E46002184F83C1083
:10456000E18C89B241B940212046FFF76BFF60B969
:10457000202384F83D3009E080212046CDE9002346
:10458000FFF760FFDDE9002310B1032003B0F0BDA9
:1045900020684EB935F8021BC1F308014160E18C77
:1045A000013989B2E184DBE716F8011BF6E7012047
:1045B000ECE70220EAE77047704708B5806B0023FC
:1045C000C385C384FFF7F8FF08BD704713B590F8A3
:1045D0003E30222B53D18168836A0268B1F5805F37
:1045E0003DD1016900293DD15268C2F3080223F888
:1045F000022BC48D8362013CA4B2C485002C2CD153
:104600000368DA6822F02002DA60DA6822F4807245
:10461000DA605A6922F001025A61202380F83E30A4
:10462000036B012B036827D1046303F10C0252E8EA
:10463000002F22F0100203F10C0444E800210029AD
:10464000F3D11A68D20605D501911A6801925B6808
:104650000193019B818DFFF7B8FF002010E039B96D
:10466000016929B95268D2B21A70836A0133C0E76E
:10467000526802F07F02F7E7FCF75EF8EDE70220F0
:1046800002B010BD036837B51A68D9685D6912F0C9
:104690000F0F044608D1950668D58D0666D503B080
:1046A000BDE83040FFF792BF05F0010001F49075BE
:1046B00005435BD0D50705D5CB0542BF236C43F03E
:1046C00001032364550704D518B1236C43F002039A
:1046D0002364930704D518B1236C43F004032364C7
:1046E000150707D501F0200303431EBF236C43F0D9
:1046F00008032364236C002B32D0900604D58A066D
:1047000002D52046FFF762FF23685B69256C03F042
:10471000400305F008051D43204623D0FFF706FEA1
:10472000226853695B0618D502F1140353E8003F71
:1047300023F0400302F1140040E800310029F3D1D6
:10474000A06B50B1724B0365FEF78AFA40B1A06BC3
:10475000036D03B0BDE8304018472046FFF72CFF3B
:1047600003B030BDFFF728FF2564F9E7206B01286F
:1047700040F09180D50640F18E80C80640F18B80D4
:10478000002201921A6801925A680192019A5A69AC
:1047900055064CD5A16B0A68526892B2002ADFD048
:1047A000A08D9042DCD9E285CA69B2F5807F36D00F
:1047B00003F10C0252E8002F22F4807203F10C0086
:1047C00040E800210029F3D103F1140252E8002F40
:1047D00022F0010203F1140040E800210029F3D186
:1047E00003F1140252E8002F22F0400203F11400FA
:1047F00040E800210029F3D1202284F83E202163E3
:1048000003F10C0252E8002F22F0100203F10C0019
:1048100040E800210029F3D1A06BFEF7DDF9E38D1C
:10482000A18DC91A89B22046FFF7CFFE98E7E18D26
:104830008AB2E18D89B2002992D0A18D891A89B2FC
:1048400000298DD003F10C0252E8002F22F490725F
:1048500003F10C0545E800200028F3D103F1140210
:1048600052E8002F22F0010203F1140545E8002070
:104870000028F3D1202284F83E20206303F10C02AB
:1048800052E8002F22F0100203F10C0545E8002049
:104890000028F3D1C7E7100628D50D0626D594F8D1
:1048A0003D20212A7FF45CAFA168226AB1F5805FC8
:1048B00017D12169A9B932F8021BC1F30801596067
:1048C0002262E28C013A92B2E284002A7FF448AF7D
:1048D000DA6822F08002DA60DA6842F04002DA60D8
:1048E0003EE7511C216212785A60EAE750067FF5D4
:1048F00037AF4A067FF534AFDA6822F04002DA605B
:10490000202384F83D302046FFF755FE28E700BFFE
:10491000BB450008C285828522230022026480F8FC
:104920003E30036880F83C208162D96841F4807190
:10493000D960596941F001015961D96841F02001FC
:10494000D9601046704770B490F83E60202E10D1A8
:1049500061B15AB190F83C40012C0AD0012480F892
:104960003C400024046370BCFFF7D4BF012070BC3E
:1049700070470220FBE70000EFF305832BB9064BDD
:10498000186828B901221A6070476FF00500704757
:104990004FF0FF30704700BFF002002010B5EFF37A
:1049A00005845CB9084B1A68012A0AD1074AD477F2
:1049B00002221A6000F090FD204610BD6FF0050045
:1049C000FBE74FF0FF30F8E7F002002000ED00E0D9
:1049D000F0B587B0144600220B460592EFF305822E
:1049E000D2B9C8B1002C2FD0A569002D08BF182559
:1049F000691E3729AC462BD86168C90728D4666977
:104A00006EB1B208D4E9027E216857B1BEF15B0FE6
:104A100002D9246904B1EEB9059807B0F0BD80222F
:104A2000F0E7BEF1000FF7D12469002CF4D10C4659
:104A300005A9CDE900C192B2214600F01FFD012871
:104A40001CBF00230593E7E74FF0180C8022EFE727
:104A50001046E2E7CDE90147009500F0D7FC05904C
:104A6000DAE710B5EFF3058424B910B100F090FE39
:104A7000204610BD6FF00500FBE70000034B03600C
:104A8000034B0B6080231360704700BF940200202B
:104A900094000020034B0360034B0B604FF48073C2
:104AA00013607047F4060020F402002000F10803B0
:104AB0004FF0FF32C0E9022343600361002303602B
:104AC000704700230361704743684B609A688A60AF
:104AD0009A68516099600368086101330360704708
:104AE00030B50C68631C0AD103695A684A6091604A
:104AF0008B605960036808610133036030BD00F1C9
:104B00000802134652681568A542FAD9EDE7D0E9C4
:104B1000011203698A6051605968814208BF5A6076
:104B2000002202611A68013A1A601868704710B5CD
:104B3000044601F0FFF9A46B01F01EFAB4FA84F008
:104B4000400910BDF8B51546026C866B044652B993
:104B5000076847BB806800F055FFA760054601362F
:104B6000A6632846F8BD65B9406801F0C1FD6368D9
:104B7000226C1344A26863609342F0D3236863609D
:104B8000EDE7C06801F0B4FD226CE36851429B1A66
:104B90002268E36093423EBFA3685B18E360022D86
:104BA00001D116B1013E0025D9E73546D7E70346C6
:104BB00010B41A6C08466AB1DC68996814448C42D7
:104BC00028BF1968DC6028BFD960D9685DF8044B3C
:104BD00001F08EBD5DF8044B704770B5044601F0DE
:104BE000A9F994F8455004F124066DB2002D14DCA7
:104BF000FF2384F8453001F0BFF901F09BF994F8E8
:104C0000445004F110066DB2002D12DCFF2384F82D
:104C10004430BDE8704001F0AFB9636A002BE7D0C3
:104C2000304600F04DFE08B100F0D6FE013D6DB2F9
:104C3000DCE72369002BE9D0304600F041FE08B1E3
:104C400000F0CAFE013D6DB2DEE7000038B50D464A
:104C5000044640B94FF0500383F31188BFF36F8FC0
:104C6000BFF34F8FFEE701F065F9D4E90F312268F9
:104C700062604B43D0185B1A1344A060E3600020CD
:104C8000FF23A06384F8443084F8453095B9236944
:104C900063B104F1100000F013FE38B10A4B4FF07D
:104CA00080521A60BFF34F8FBFF36F8F01F064F92A
:104CB000012038BD04F11000FFF7F8FE04F12400D4
:104CC000FFF7F4FEF2E700BF04ED00E013B51C4669
:104CD00040B94FF0500383F31188BFF36F8FBFF3D8
:104CE0004F8FFEE743B94FF0500383F31188BFF3B2
:104CF0006F8FBFF34F8FFEE74AB191B94FF050036A
:104D000083F31188BFF36F8FBFF34F8FFEE741B17D
:104D10004FF0500383F31188BFF36F8FBFF34F8FB2
:104D2000FEE750230193019B502B08D04FF0500316
:104D300083F31188BFF36F8FBFF34F8FFEE7002916
:104D400008BF2246019B22600123C4E90F0184F8B9
:104D5000463019462046FFF779FF9DF8103084F859
:104D60004C30204602B010BD2DE9FF478846019225
:104D70001F46044640B94FF0500383F31188BFF338
:104D80006F8FBFF34F8FFEE751B9036C43B14FF004
:104D9000500383F31188BFF36F8FBFF34F8FFEE78C
:104DA000022F0BD1E36B012B08D04FF0500383F39C
:104DB0001188BFF36F8FBFF34F8FFEE700F012FE35
:104DC000064650B9019B4BB14FF0500383F3118855
:104DD000BFF36F8FBFF34F8FFEE70026DFF8E8A029
:104DE0004FF0000937E0019D1DB901F0C5F8002022
:104DF00050E016B902A800F0A7FD01F0BDF800F0E0
:104E0000AFFB01F097F894F84430FF2B08BF84F80B
:104E1000449094F84530FF2B08BF84F8459001F08A
:104E2000ABF801A902A800F09BFD002846D101F0D3
:104E300081F8A26BE36B9A422FD101F09DF80199A2
:104E400004F1100000F004FD2046FFF7C6FE00F05C
:104E50002BFC50B3012601F06DF8A26BE36B9A4274
:104E600001D3022FBFD13A4641462046FFF76AFEE2
:104E7000636A1BB104F1240000F022FD38B1124B2B
:104E80004FF080521A60BFF34F8FBFF36F8F01F066
:104E900073F8012004B0BDE8F08701F06DF82046FA
:104EA000FFF79BFE00F000FCD4E74FF08053CAF8F8
:104EB0000030BFF34F8FBFF36F8FCBE72046FFF774
:104EC0008CFE00F0F1FB92E704ED00E02DE9F843E1
:104ED000894690461F46044640B94FF0500383F37D
:104EE0001188BFF36F8FBFF34F8FFEE751B9036C8B
:104EF00043B14FF0500383F31188BFF36F8FBFF3BB
:104F00004F8FFEE7022F0BD1E36B012B08D04FF040
:104F1000500383F31188BFF36F8FBFF34F8FFEE70A
:104F200001F024F9EFF311864FF0500383F3118859
:104F3000BFF36F8FBFF34F8FA26BE36B9A4201D326
:104F4000022F23D194F84550A36B6DB23A464946DF
:104F50002046FFF7F7FD6B1C13D1636A0BB90120E4
:104F60000BE004F1240000F0ABFC0028F7D0B8F10E
:104F7000000FF4D00120C8F8000086F31188BDE8C6
:104F8000F88301356DB284F84550E8E70020F4E776
:104F90002DE9F04385B00F460192044640B94FF029
:104FA000500383F31188BFF36F8FBFF34F8FFEE77A
:104FB00051B9036C43B14FF0500383F31188BFF331
:104FC0006F8FBFF34F8FFEE700F00CFD064650B920
:104FD000019B4BB14FF0500383F31188BFF36F8FE8
:104FE000BFF34F8FFEE70026DFF8E0904FF0000898
:104FF0003BE0019D1DB900F0BFFF002052E016B953
:1050000002A800F0A1FC00F0B7FF00F0A9FA00F040
:1050100091FF94F84430FF2B08BF84F8448094F843
:105020004530FF2B08BF84F8458000F0A5FF01A99B
:1050300002A800F095FC00283DD12046FFF777FD3F
:1050400098B3019904F1240000F002FC2046FFF718
:10505000C4FD00F029FB38B94FF08053C9F8003087
:10506000BFF34F8FBFF36F8F012600F063FFA56B77
:10507000002DBED039462046013DFFF798FDA563BF
:10508000236963B104F1100000F01AFC38B10F4B32
:105090004FF080521A60BFF34F8FBFF36F8F00F055
:1050A0006BFF012005B0BDE8F0832046FFF795FDBA
:1050B00000F0FAFAD8E72046FFF78FFD00F0F4FA87
:1050C0002046FFF734FD0028CED096E704ED00E03F
:1050D00030B5074A002352F8335002EBC3041DB920
:1050E00042F83310606030BD0133082BF3D1FAE78A
:1050F000A49C002070B504460D46164600F01AFF29
:1051000094F84430FF2B04BF002384F8443094F813
:105110004530FF2B04BF002384F8453000F02CFFFE
:10512000A36B2BB93246294604F1240000F0AAFBF8
:105130002046BDE87040FFF750BD00002DE9F0416A
:10514000044600F0F7FE2F4B2F4D1A682F4F013207
:105150001A602E68002E49D12C601B68012B1FD1CC
:10516000B84640460136FFF7A1FC382E08F1140876
:10517000F7D1DFF8C480264E4046FFF797FC304653
:10518000FFF794FC2348FFF791FC2348FFF78EFCC0
:105190002248FFF78BFC224BC3F80080214B1E6096
:1051A000214A136801331360204A63641168E36A7B
:1051B00014208B4200FB037004F1040188BF1360CC
:1051C000FFF782FC00F0D8FE194B1B6863B12B6817
:1051D000DA6AE36A9A4207D2164B4FF080521A609D
:1051E000BFF34F8FBFF36F8FBDE8F081104B1B688B
:1051F000002BD5D12B68DA6AE36A9A4298BF2C60FB
:10520000CEE700BFBC0B0020500700205C07002049
:10521000E40B0020040C0020300C00201C0C0020AB
:105220005407002058070020C80B0020CC0B00209A
:10523000180C002004ED00E0D00B0020064A136893
:105240001968064B19B94FF0FF321A60704712689F
:10525000D268D2685268F8E754070020F80B0020A3
:105260002DE9F047DDE909844FEA82094A460646FE
:105270000D46206BA5211F4601F048FA226BA9F1CB
:105280000409914429F00709ADB36B1E04F13402FF
:105290000F3513F8011F02F8011B197809B1AB4251
:1052A000F7D1002384F84330089D372D28BF3725D8
:1052B0004FF0000AE562E564201DC4F850A0FFF736
:1052C00000FCC5F1380504F11800FFF7FAFBC4F83B
:1052D00054A02461A561646284F858A03A4631461E
:1052E000484600F0FBFD2060B8F1000F01D0C8F87F
:1052F0000040BDE8F08784F83450D5E710B590F849
:10530000593004463BB9006B01F014F82046BDE863
:10531000104001F00FB8012BF9D0022B08D04FF04C
:10532000500383F31188BFF36F8FBFF34F8FFEE7F6
:1053300010BD000080B5DFF85C80124F124C134D99
:10534000236863B9124B1B68012BF8D94FF08053C7
:10535000C8F80030BFF34F8FBFF36F8FEEE700F058
:10536000E9FDFB68DE68301DFFF7D1FB2B68013BD0
:105370002B602368013B236000F0FEFD3046FFF701
:10538000BDFFDDE7300C0020C00B0020BC0B00206F
:105390005C07002004ED00E0F8B5164B164E1D68C2
:1053A0000446306804300F46FFF7B1FB631C3346F8
:1053B00007D137B131681148BDE8F8400431FFF733
:1053C00083BB1A682C19546007D30D4A10681968FA
:1053D000BDE8F8400431FFF783BB0A4A106819683A
:1053E0000431FFF77DFB084B1A68A24288BF1C609E
:1053F000F8BD00BF440C0020500700201C0C00200A
:105400005807002054070020F80B002070B586B024
:10541000DDE90B5445B94FF0500383F31188BFF316
:105420006F8FBFF34F8FFEE744B94FF0500383F304
:105430001188BFF36F8FBFF34F8FFEE75C26059691
:10544000059E5C2E08D04FF0500383F31188BFF304
:105450006F8FBFF34F8FFEE72563022584F8595005
:1054600004AD01950A9D02940095059EFFF7F8FE94
:105470002046FFF763FE049806B070BD2DE9F043A7
:10548000074685B0900088461646994600F0C0FE53
:105490000546E8B15C2000F0BBFE0446A8B100233D
:1054A00080F859300D9B056301930C9B029000938B
:1054B00032464B4641463846FFF7D2FE2046FFF7BC
:1054C0003DFE012005B0BDE8F083284600F032FF24
:1054D0004FF0FF30F6E7000010B588B0002407AAAF
:1054E00006A905A8CDE90544FFF7C8FA059B029374
:1054F000069B079A15491648CDE900432346FFF756
:1055000085FFA8B100F014FB012813D14FF0500320
:1055100083F31188BFF36F8FBFF34F8F0D4B4FF0A5
:10552000FF321A600C4B18600C4B1C6000F09AFDA7
:1055300008B010BD0130FBD14FF0500383F3118848
:10554000BFF36F8FBFF34F8FFEE700BF6473000898
:1055500035530008F80B0020180C0020440C0020E4
:10556000024A136801331360704700BFC40B002068
:10557000014B1868704700BF440C00203F4B1B686C
:105580002DE9F74F002B73D13D4B1D6801351D6090
:10559000BDB93C4B1A68126842B14FF0500383F317
:1055A0001188BFF36F8FBFF34F8FFEE7364A19683C
:1055B000106818601160354A136801331360FFF7F3
:1055C0003DFE334E334F3368DFF8D4809D424FF0B9
:1055D000000411D2D8F80030DA6A14235343FB5880
:1055E000022B2D4B1B6828BF0124002B18BF012460
:1055F000204603B0BDE8F08FDFF88890DFF8A4A064
:10560000D9F800301B681BB94FF0FF333360E1E776
:10561000D9F80030DB68D3F80CB0DBF804209542F1
:1056200001D23260D6E70BF1040108460191FFF781
:105630006EFADBF82820019922B10BF11800FFF770
:1056400066FA0199DBF82C00DAF800201423904266
:1056500088BFCAF8000003FB0070FFF735FAD8F8DE
:105660000010DBF82C20CB6A9A4228BF0124C7E740
:105670000A4A1368013313600024B9E7C40B002001
:10568000440C00205407002058070020FC0B002089
:10569000F80B00205C070020480C0020000C0020C4
:1056A00050070020CC0B0020F7B5304C236843B9DD
:1056B0004FF0500383F31188BFF36F8FBFF34F8F09
:1056C000FEE700F037FC2368013B236024682CB11F
:1056D000002400F051FC204603B0F0BD244B1B68B1
:1056E000002BF5D0234D244E244F1EE0EB68DC68E0
:1056F00004F11800FFF70BFA211D08460191FFF78E
:1057000006FAE36A326801991420934200FB0370A1
:1057100088BF3360FFF7D8F9194BE26A1B68DB6A70
:105720009A4202D3174B01221A602B68002BDDD15D
:105730000CB1FFF783FD144D2C6844B1114E0127C5
:10574000FFF71CFF00B13760013CF9D12C600D4B15
:105750001B68002BBCD00D4B4FF080521A60BFF37A
:105760004F8FBFF36F8F0124B3E700BFC40B00203E
:10577000BC0B0020040C0020CC0B00205C07002098
:1057800050070020480C0020000C002004ED00E031
:1057900008B540B90E4B4FF080521A60BFF34F8FDF
:1057A000BFF36F8F08BD0B4B196841B14FF0500329
:1057B00083F31188BFF36F8FBFF34F8FFEE7FFF7BF
:1057C000CFFEFFF7E9FDFFF76FFF0028E2D0E9E722
:1057D00004ED00E0C40B0020184B1A68184BF0B51C
:1057E00012B101221A60F0BD164D1A60164A2B68DC
:1057F0001427164607FB03F1501854588CB144681F
:105800000831646844600A44944204BF626842609C
:10581000142202FB03625268D1680C4A11602B60AB
:10582000E1E743B94FF0500383F31188BFF36F8F63
:10583000BFF34F8FFEE7013BDCE700BFC40B002046
:10584000480C0020CC0B00205C07002050070020F3
:1058500010B50C4640B94FF0500383F31188BFF3E5
:105860006F8FBFF34F8FFEE7054B19681831FFF7B5
:1058700037F920460121BDE81040FFF78DBD00BF7C
:105880005007002038B50D46144640B94FF050037C
:1058900083F31188BFF36F8FBFF34F8FFEE7074B82
:1058A00019681831FFF710F9002C21460CBF284663
:1058B0004FF0FF30BDE83840FFF76EBD50070020C5
:1058C000C36813B5DC6844B94FF0500383F3118803
:1058D000BFF36F8FBFF34F8FFEE704F11801084647
:1058E0000191FFF714F9124B01991B68EBB9211DC7
:1058F00008460191FFF70BF90E4AE36A1068019917
:10590000834288BF13600C4A142000FB0320FFF77A
:10591000DBF80A4BE26A1B68DB6A9A4285BF084BD8
:1059200001200020186002B010BD0648EFE700BF5C
:10593000C40B0020CC0B00205C0700205007002087
:10594000480C0020040C0020034B1B680360034B31
:105950001B684360704700BFFC0B0020440C002014
:1059600070B50C46054640B94FF0500383F31188DB
:10597000BFF36F8FBFF34F8FFEE741B94FF0500376
:1059800083F31188BFF36F8FBFF34F8FFEE700F0F3
:10599000D1FA0F4B196823685A1C10D00D482E6895
:1059A00000686A68864201D08A420FD9881A834209
:1059B0000AD95B1A134423602846FFF7C5FF002469
:1059C00000F0DAFA204670BD002323600124F7E7D7
:1059D000440C0020FC0B0020014B01221A60704790
:1059E000480C0020054B1B6833B1054B1B68002B8E
:1059F0000CBF02200020704701207047180C0020C7
:105A0000C40B002013B510B9002002B010BD1C4B10
:105A10001C68844208D04FF0500383F31188BFF311
:105A20006F8FBFF34F8FFEE7236D43B94FF05003E5
:105A300083F31188BFF36F8FBFF34F8FFEE7E16AE7
:105A4000E26C013B91422365DED0002BDCD1211DAD
:105A500008460191FFF75BF8E36C0199E362C3F13B
:105A60003802A261074A1068834288BF1360064A61
:105A7000142000FB0320FFF727F80120C5E700BF33
:105A800050070020CC0B00205C070020F7B5114C1C
:105A900000F050FA2568BDB90F4F104E3846FFF799
:105AA00005F83046FFF702F80D4B0E4A1F600E4B0B
:105AB00010211E600A200D4B0095FFF707F92060AA
:105AC00010B10B49FFF704FB03B0BDE8F04000F054
:105AD00053BA00BF700D0020F40C0020080D002008
