:020000040800F2
:100000000000022011300008792F00087B2F000823
:100010007D2F00087F2F0008812F000800000000BE
:10002000000000000000000000000000C171000896
:10003000832F00080000000051720008852F00087F
:10004000613000086130000861300008613000084C
:10005000613000086130000861300008613000083C
:10006000613000086130000861300008613000082C
:10007000613000086130000861300008613000081C
:10008000613000086130000861300008613000080C
:100090006130000861300008613000089D2F0008C1
:1000A00061300008613000086130000861300008EC
:1000B0006130000861300008A52F00086130000899
:1000C00061300008613000086130000861300008CC
:1000D000613000086130000861300008B12F00086D
:1000E00061300008613000086130000861300008AC
:1000F000613000086130000861300008613000089C
:10010000613000086130000861300008613000088B
:10011000613000086130000861300008613000087B
:10012000613000086130000861300008613000086B
:10013000613000086130000861300008613000085B
:10014000613000086130000861300008613000084B
:10015000613000086130000861300008613000083B
:10016000613000086130000861300008613000082B
:1001700061300008613000086130000800000000B4
:08018000613000086130000845
:1001900010B5054C237833B9044B13B10448AFF3C1
:1001A00000800123237010BD7400002000000000B7
:1001B000809F000808B5034B1BB103490348AFF308
:1001C000008008BD0000000078000020809F00082B
:1001D00001F0FF01102A2BDB10F0070F08D010F8F8
:1001E000013B013A8B422DD010F0070F42B3F6D1FC
:1001F000F0B441EA012141EA014122F007047FF015
:1002000000070023F0E80256083C85EA010586EA6B
:10021000010685FA47F5A3FA87F586FA47F6A5FAA7
:1002200087F68EB9EED1F0BC01F0FF0102F00702B3
:1002300032B110F8013B013A83EA010313B1F8D15E
:100240000020704701387047002D06BF354603383F
:10025000073815F0010F07D1013015F4807F02BF78
:10026000013015F4C03F0130F0BC0138704700BFC9
:1002700081F0004102E000BF83F0004330B54FEA57
:1002800041044FEA430594EA050F08BF90EA020FC4
:100290001FBF54EA000C55EA020C7FEA645C7FEA57
:1002A000655C00F0E2804FEA5454D4EB5555B8BF7A
:1002B0006D420CDD2C4480EA020281EA030382EAEB
:1002C000000083EA010180EA020281EA0303362D7D
:1002D00088BF30BD11F0004F4FEA01314FF4801C50
:1002E0004CEA113102D0404261EB410113F0004F62
:1002F0004FEA03334CEA133302D0524263EB430319
:1003000094EA050F00F0A780A4F10104D5F1200EB6
:100310000DDB02FA0EFC22FA05F2801841F1000111
:1003200003FA0EF2801843FA05F359410EE0A5F1E5
:1003300020050EF1200E012A03FA0EFC28BF4CF016
:10034000020C43FA05F3C01851EBE37101F00045CC
:1003500007D54FF0000EDCF1000C7EEB00006EEBD9
:100360000101B1F5801F1BD3B1F5001F0CD3490863
:100370005FEA30004FEA3C0C04F101044FEA4452BA
:1003800012F5800F80F09A80BCF1004F08BF5FEA41
:10039000500C50F1000041EB045141EA050130BD21
:1003A0005FEA4C0C404141EB0101013C28BFB1F533
:1003B000801FE9D291F0000F04BF01460020B1FA7E
:1003C00081F308BF2033A3F10B03B3F120020CDA51
:1003D0000C3208DD02F1140CC2F10C0201FA0CF02F
:1003E00021FA02F10CE002F11402D8BFC2F1200C94
:1003F00001FA02F120FA0CFCDCBF41EA0C0190404A
:10040000E41AA2BF01EB0451294330BD6FEA040492
:100410001F3C1CDA0C340EDC04F11404C4F120027D
:1004200020FA04F001FA02F340EA030021FA04F38F
:1004300045EA030130BDC4F10C04C4F1200220FAE6
:1004400002F001FA04F340EA0300294630BD21FA24
:1004500004F0294630BD94F0000F83F4801306BFEA
:1004600081F480110134013D4EE77FEA645C18BFDE
:100470007FEA655C29D094EA050F08BF90EA020F75
:1004800005D054EA000C04BF1946104630BD91EA6D
:10049000030F1EBF0021002030BD5FEA545C05D170
:1004A0004000494128BF41F0004130BD14F58004AF
:1004B0003CBF01F5801130BD01F0004545F0FE4123
:1004C00041F470014FF0000030BD7FEA645C1ABF58
:1004D000194610467FEA655C1CBF0B46024650EA8F
:1004E000013406BF52EA033591EA030F41F40021BB
:1004F00030BD00BF90F0000F04BF0021704730B541
:100500004FF4806404F132044FF000054FF0000115
:1005100050E700BF90F0000F04BF0021704730B5D6
:100520004FF4806404F1320410F0004548BF4042AB
:100530004FF000013EE700BF42004FEAE2014FEA00
:1005400031014FEA02701FBF12F07F4393F07F4FDB
:1005500081F06051704732F07F4208BF704793F0DE
:100560007F4F04BF41F40021704730B54FF46074F1
:1005700001F0004521F000411CE700BF50EA0102F4
:1005800008BF704730B54FF000050AE050EA01029D
:1005900008BF704730B511F0004502D5404261EB0D
:1005A00041014FF4806404F132045FEA915C3FF44E
:1005B000D8AE4FF003025FEADC0C18BF03325FEAEB
:1005C000DC0C18BF033202EBDC02C2F1200300FA9C
:1005D00003FC20FA02F001FA03FE40EA0E0021FAC1
:1005E00002F11444BDE600BF70B54FF0FF0C4CF4AF
:1005F000E06C1CEA11541DBF1CEA135594EA0C0F61
:1006000095EA0C0F00F0DEF82C4481EA030621EA9B
:100610004C5123EA4C5350EA013518BF52EA0335D6
:1006200041F4801143F4801338D0A0FB02CE4FF088
:100630000005E1FB02E506F00042E0FB03E54FF0B8
:100640000006E1FB03569CF0000F18BF4EF0010EB0
:10065000A4F1FF04B6F5007F64F5407404D25FEAAC
:100660004E0E6D4146EB060642EAC62141EA55515F
:100670004FEAC52040EA5E504FEACE2EB4F1FD0CA1
:1006800088BFBCF5E06F1ED8BEF1004F08BF5FEA1F
:10069000500E50F1000041EB045170BD06F00046D1
:1006A00046EA010140EA020081EA0301B4EB5C047E
:1006B000C2BFD4EB0C0541EA045170BD41F4801176
:1006C0004FF0000E013C00F3AB8014F1360FDEBF9B
:1006D000002001F0004170BDC4F10004203C35DA77
:1006E0000C341BDC04F11404C4F1200500FA05F3FA
:1006F00020FA04F001FA05F240EA020001F000429B
:1007000021F0004110EBD37021FA04F642EB060110
:100710005EEA430E08BF20EAD37070BDC4F10C043A
:10072000C4F1200500FA04F320FA05F001FA04F2FE
:1007300040EA020001F0004110EBD37041F10001EA
:100740005EEA430E08BF20EAD37070BDC4F12005F5
:1007500000FA05F24EEA020E20FA04F301FA05F25D
:1007600043EA020321FA04F001F0004121FA04F205
:1007700020EA020000EBD3705EEA430E08BF20EAD5
:10078000D37070BD94F0000F0FD101F0004640000F
:1007900041EB010111F4801F08BF013CF7D041EA91
:1007A000060195F0000F18BF704703F00046520095
:1007B00043EB030313F4801F08BF013DF7D043EA66
:1007C0000603704794EA0C0F0CEA135518BF95EA1C
:1007D0000C0F0CD050EA410618BF52EA4306D1D1A3
:1007E00081EA030101F000414FF0000070BD50EAC2
:1007F000410606BF1046194652EA430619D094EA4C
:100800000C0F02D150EA013613D195EA0C0F05D135
:1008100052EA03361CBF104619460AD181EA030189
:1008200001F0004141F0FE4141F470014FF0000041
:1008300070BD41F0FE4141F4780170BD70B54FF0DC
:10084000FF0C4CF4E06C1CEA11541DBF1CEA13555C
:1008500094EA0C0F95EA0C0F00F0A7F8A4EB05043E
:1008600081EA030E52EA03354FEA013100F0888035
:100870004FEA03334FF0805545EA131343EA1263FE
:100880004FEA022245EA111545EA10654FEA0026B3
:100890000EF000419D4208BF964244F1FD0404F56C
:1008A000407402D25B084FEA3202B61A65EB0305C8
:1008B0005B084FEA32024FF480104FF4002CB6EB85
:1008C000020E75EB030E22BFB61A754640EA0C0005
:1008D0005B084FEA3202B6EB020E75EB030E22BF45
:1008E000B61A754640EA5C005B084FEA3202B6EB86
:1008F000020E75EB030E22BFB61A754640EA9C0045
:100900005B084FEA3202B6EB020E75EB030E22BF14
:10091000B61A754640EADC0055EA060E18D04FEAD2
:10092000051545EA16754FEA06164FEAC30343EA72
:1009300052734FEAC2025FEA1C1CC0D111F4801F3F
:100940000BD141EA00014FF000004FF0004CB6E738
:1009500011F4801F04BF01430020B4F1FD0C88BFD7
:10096000BCF5E06F3FF6AFAEB5EB030C04BFB6EBE2
:10097000020C5FEA500C50F1000041EB045170BDD5
:100980000EF0004E4EEA113114EB5C04C2BFD4EB02
:100990000C0541EA045170BD41F480114FF0000E86
:1009A000013C90E645EA060E8DE60CEA135594EA02
:1009B0000C0F08BF95EA0C0F3FF43BAF94EA0C0F05
:1009C0000AD150EA01347FF434AF95EA0C0F7FF47A
:1009D00025AF104619462CE795EA0C0F06D152EACE
:1009E00003353FF4FDAE1046194622E750EA4106B2
:1009F00018BF52EA43067FF4C5AE50EA41047FF4C3
:100A00000DAF52EA43057FF4EBAE12E74FF0FF3C27
:100A100006E000BF4FF0010C02E000BF4FF0010CF8
:100A20004DF804CD4FEA410C7FEA6C5C4FEA430C71
:100A300018BF7FEA6C5C1BD001B050EA410C0CBFC0
:100A400052EA430C91EA030F02BF90EA020F002022
:100A5000704710F1000F91EA030F58BF994208BF89
:100A600090422CBFD8176FEAE37040F00100704746
:100A70004FEA410C7FEA6C5C02D150EA013C07D19D
:100A80004FEA430C7FEA6C5CD6D152EA033CD3D0E8
:100A90005DF8040B704700BF8446104662468C46E2
:100AA0001946634600E000BF01B5FFF7B7FF002815
:100AB00048BF10F1000F01BD4DF808EDFFF7F4FF3E
:100AC0000CBF012000205DF808FB00BF4DF808EDC9
:100AD000FFF7EAFF34BF012000205DF808FB00BFEC
:100AE0004DF808EDFFF7E0FF94BF012000205DF80E
:100AF00008FB00BF4DF808EDFFF7CEFF94BF0120C3
:100B000000205DF808FB00BF4DF808EDFFF7C4FFBB
:100B100034BF012000205DF808FB00BF4FEA410C04
:100B20007FEA6C5C02D150EA013C0AD14FEA430CE7
:100B30007FEA6C5C02D152EA033C02D14FF0000024
:100B400070474FF0010070474FEA410212F5001262
:100B500015D211D56FF47873B3EB625212D94FEA04
:100B6000C12343F0004343EA505311F0004F23FAEE
:100B700002F018BF404270474FF00000704750EA43
:100B8000013005D111F0004008BF6FF00040704700
:100B90004FF00000704700BF4FEA4102B2F1E0435E
:100BA00024BFB3F5001CDCF1FE5C0DD901F0004C54
:100BB0004FEAC0024CEA5070B2F1004F40EB8300A4
:100BC00008BF20F00100704711F0804F21D113F1D0
:100BD0003872BCBF01F00040704741F480114FEA09
:100BE0005252C2F11802C2F1200C10FA0CF320FA92
:100BF00002F018BF40F001004FEAC1234FEAD323AF
:100C000003FA0CFC40EA0C0023FA02F34FEA430318
:100C1000CCE77FEA625307D150EA01331EBF4FF0A1
:100C2000FE4040F44000704701F0004040F0FE40BC
:100C300040F40000704700BF53B94AB9002908BF0B
:100C400000281CBF4FF0FF314FF0FF3000F074B9A7
:100C5000ADF1080C6DE904CE00F006F8DDF804E013
:100C6000DDE9022304B070472DE9F047089D0446F2
:100C70008E46002B4DD18A42944669D9B2FA82F24F
:100C800052B101FA02F3C2F1200120FA01F10CFA8B
:100C900002FC41EA030E94404FEA1C48210CBEFBC3
:100CA000F8F61FFA8CF708FB16E341EA034306FB4C
:100CB00007F199420AD91CEB030306F1FF3080F0DB
:100CC0001F81994240F21C81023E63445B1AA4B228
:100CD000B3FBF8F008FB103344EA034400FB07F7CA
:100CE000A7420AD91CEB040400F1FF3380F00A810B
:100CF000A74240F207816444023840EA0640E41B00
:100D000000261DB1D4400023C5E900433146BDE8AB
:100D1000F0878B4209D9002D00F0EF800026C5E94D
:100D2000000130463146BDE8F087B3FA83F6002E65
:100D30004AD18B4202D3824200F2F980841A61EBDD
:100D4000030301209E46002DE0D0C5E9004EDDE7FB
:100D500002B9FFDEB2FA82F2002A40F09280A1EBE3
:100D60000C014FEA1C471FFA8CFE0126200CB1FB38
:100D7000F7F307FB131140EA01410EFB03F0884231
:100D800008D91CEB010103F1FF3802D2884200F2BE
:100D9000CB804346091AA4B2B1FBF7F007FB101150
:100DA00044EA01440EFB00FEA64508D91CEB0404EE
:100DB00000F1FF3102D2A64500F2BB800846A4EB49
:100DC0000E0440EA03409CE7C6F12007B34022FA34
:100DD00007FC4CEA030C20FA07F401FA06F31C4363
:100DE000F9404FEA1C4900FA06F3B1FBF9F8200C70
:100DF0001FFA8CFE09FB181140EA014108FB0EF0B6
:100E0000884202FA06F20BD91CEB010108F1FF3A05
:100E100080F08880884240F28580A8F10208614411
:100E2000091AA4B2B1FBF9F009FB101144EA01411F
:100E300000FB0EFE8E4508D91CEB010100F1FF34CA
:100E40006CD28E456AD90238614440EA0840A0FB62
:100E50000294A1EB0E01A142C846A64656D353D038
:100E60005DB1B3EB080261EB0E0101FA07F722FA5C
:100E700006F3F1401F43C5E9007100263146BDE885
:100E8000F087C2F12003D8400CFA02FC21FA03F3E8
:100E9000914001434FEA1C471FFA8CFEB3FBF7F069
:100EA00007FB10360B0C43EA064300FB0EF69E428E
:100EB00004FA02F408D91CEB030300F1FF382FD227
:100EC0009E422DD9023863449B1B89B2B3FBF7F6CF
:100ED00007FB163341EA034106FB0EF38B4208D9A8
:100EE0001CEB010106F1FF3816D28B4214D9023EE9
:100EF0006144C91A46EA004638E72E46284605E707
:100F00000646E3E61846F8E64B45A9D2B9EB0208D7
:100F100064EB0C0E0138A3E74646EAE7204694E767
:100F20004046D1E7D0467BE7023B614432E730469A
:100F300009E76444023842E7704700BF08B50F482C
:100F40000F4C104D0C2104F0E3F922682B689A42F3
:100F500001D2236003E00C4B1B689A42F9D80B4B7B
:100F60001B784BB90A4B1B68044A12681364094B7F
:100F7000186804F0D6FEE8E72368F5E7585000202B
:100F800068530020585300205C530020C800002004
:100F9000505300205453002008B5054D054C2846F9
:100FA0004FF4806102F075FC206804F0BAFEF6E7A9
:100FB00000100240E052002080B500212848294D51
:100FC000294E04F023FA2648042104F01FFA2A6867
:100FD000002A02DA00232B6003E0244B1B689A42AC
:100FE000F9DC234F3A68002A02DA00233B6003E071
:100FF0001E4B1B689A42F9DC1E4C2278A2F1460374
:101000005A425A410821304602F03EFC2278463AC4
:1010100018BF01220421304602F036FC2278A2F1EA
:1010200046014A424A413046102102F02DFC227806
:10103000463A18BF01222021304602F025FC2378D1
:101040005BB12968064A1268516303B13B68936338
:10105000094B186804F065FEB9E71946F2E700BFCE
:10106000C0510020F852002000000240F45200203D
:10107000FC520020444F00200053002000B5234DB7
:101080009FED238A234C8BB001A806F011FC04A825
:1010900006F0F2FB2B78012B22D107A806F024FCE6
:1010A0009DED061ADDED050A9DED040A9DED094A48
:1010B000DDED083A9DED073ADDED032A9DED022AAC
:1010C000DDED011A21EE081A60EE880A20EE080A0A
:1010D000204607F0D1F9104B186804F022FED3E740
:1010E0009DED061ADDED050A9DED040ADDED032AEE
:1010F0009DED022ADDED011A21EE081A60EE880A44
:1011000020EE080A204607F0AAF8E4E7C4530020BE
:1011100035FA8E3C585200205452002000B595B04C
:101120002C22002109A807F08FFC1422002103A81B
:1011300007F08AFC0023194A0193116C41F0805199
:101140001164126C02F080520192019A144A0293C7
:10115000116841F48041116012680E9302F48042DC
:101160000292029A0222089201201022CDE90B027B
:1011700008A803F09BF8014608B172B6FEE70F23FA
:10118000CDE90330CDE90500079003A803F06CFA20
:1011900008B172B6FEE715B05DF804FB00380240F6
:1011A0000070004070470000DFED0E6AB0EE407A3C
:1011B00000EB810398420BD189B107EE901AF8EE4B
:1011C000E77A86EEA76AE6EE070AB0EE600A704795
:1011D000F0EC017AF8EE677A76EEA76AEAE79FED1F
:1011E000010A7047000000000144884201D1012338
:1011F00003E010F8013B002BF7D1184670470000C0
:10120000BFB53D4D3D4F00263D4B29461A7801A8FC
:1012100007F022FC002101AA084606F0A5FE0121E4
:10122000384802F02BFB2946024601A807F014FCBF
:1012300001AA0A21002006F097FE334901A807F011
:101240002BFC324B324A1B68126893420DDC314C46
:10125000142202FB03440A212046FFF7C5FF0128A0
:1012600003D1214601A807F01FFC01AA00210A2092
:1012700006F07AFE284B9868FFF75EF93B46324647
:10128000FEF7FCFFFFF760FC2449024601A807F0C7
:10129000E3FB0A2101AA084606F066FE204B21491D
:1012A0001A6801A807F0D8FB01AA14210A2006F049
:1012B0005BFE1D4B1D491A6801A807F0CDFB01AA72
:1012C0001E210A2006F050FE194B1A491A6801A87F
:1012D00007F0C2FB01AA28210A2006F045FE164AA3
:1012E00032210A2006F040FE06F0A2FD134B1868DA
:1012F00004F017FD88E700BF989F00080000E03F5A
:101300001853002000100240D19F0008BC000020AC
:10131000684F002009010020585200209B9F0008C0
:10132000FC520020A59F0008484F0020B29F0008F3
:101330004C4F0020BD9F0008DC000020045300201B
:1013400010B5724B1B78012B55D0022B00F0898011
:10135000002B4FD16E4B6F4A1A606F4B6F4A1A6069
:101360006F4A002313606F4A13606F4A13606F4A1D
:1013700013606F4A13606F4A13606F4A13606F4ABD
:1013800013606F4A13606F4A13606F4A13606F4AAD
:1013900013606F4A4FF07E5313606E4A13606E4BBA
:1013A0006E4A1A606E4B6F4A1A606F4B6F4A1A6032
:1013B0006F4B704A1A60704B704A1A60704B714ADA
:1013C0001A60714B714A1A60714B724A1A60724B03
:1013D00042F260221A60714B42F21C521A60704B4A
:1013E00040F6E4421A606F4B40F6AC521A606E4B06
:1013F00082221A6010BD464B6C4A1A60464B6C4AFA
:101400001A60474A524900231360464A1360464A0D
:101410001360464A1360464A1360464A1360464AC0
:101420001360464A1360464A1360464A1360464AB0
:101430001360464A13604FF07E520A6045490A60C5
:1014400045490A6046490B6047490A6048490B60B4
:1014500049490A604A490B604B490A604C4A13608B
:10146000B5E72B4B534A1A602B4B534A1A602C4A50
:101470004FF07E5313602B4A4FF0874111602A4989
:101480004FF085420A6029490B6029494FF080409E
:10149000086028484FF084410160274803602748CE
:1014A0004FF0834404602648016026490B602649BA
:1014B0004FF08240086025490A60254A1360254A9A
:1014C0001360254B3D4A1A60254B3D4A1A60264B56
:1014D0003C4A1A60264B3C4A1A60274B3B4A1A602A
:1014E000274B3B4A1A60284B3A4A1A60284B3A4A23
:1014F0001A60294B42F260221A60284B42F21C52B9
:101500001A60274B40F648526CE700BF1853002082
:10151000544F00208635553E584F0020646D0E3FD5
:10152000A8520020B8520020C8520020B05200201B
:10153000C0520020D0520020AC520020BC520020EB
:10154000CC520020B4520020C4520020D4520020BB
:10155000404F002080530020D852002081FCCF3E15
:10156000DC52002042E684BFE45200209E9CBF3E35
:10157000E85200200E744DBF20530020B9BDC73E75
:101580002453002037DDB33F2853002012B7BA3E62
:101590002C530020A186813F505000205450002041
:1015A000EC520020F05200205C4F0020E19E563E9D
:1015B000CFCB8D3F2080553EEC3B8B3FE59AF43EF0
:1015C000F2C601403BACD93E318FCC3F2CEAE73E1E
:1015D00072F16940907FC33EBEC70340B0F5807F83
:1015E00007D1044A1378013303F003031370FFF7A4
:1015F000A7BE7047185300200C4B4FF0FF3210B5B8
:101600001A600B4B00241C600A4B18461422002160
:1016100007F01AFA01340346B4F57A7F03F1140394
:10162000F3D1054B01221A7010BD00BF684F002096
:10163000BC00002009010020080100202DE9F04332
:10164000354D364E85B0294635480A2204F0DBFA7E
:101650000A212846FFF7C8FD01281CD1032229468C
:1016600003A807F021FA03A807F098F9B0F57A7FEC
:1016700004460BD22B48142202FB0400294607F033
:1016800013FA294B1A68A242B8BF1C601422002129
:10169000284607F0D9F93378022B2CD1DFF898903F
:1016A000204F00233370D9F800304FF0140808FBA6
:1016B00003731C79432C01D1FFF79EFFD9F800106A
:1016C000032208FB017103A807F0EEF9174B184934
:1016D00003A8432C18BF1946019107F05FF901993F
:1016E0000246144807F0B8F912490D484FF6FF7347
:1016F000132204F067F833784BB90F4A0A4913688C
:1017000009688B42DFBF01215B18317013600B4BFE
:10171000186804F006FB96E73C53002008010020FF
:101720000852002009010020684F0020DC9F0008BB
:10173000C89F000888530020BC00002038530020B8
:101740002DE9F0479CB001F0B1FCFFF7E7FC142253
:10175000002113A807F078F90024AD4B01941A6B0F
:10176000AC4842F010021A631A6B02F010020192A8
:10177000019A02941A6B42F004021A631A6B02F087
:1017800004020292029A03941A6B42F001021A6355
:101790001A6B02F001020392039A04941A6B42F04E
:1017A00008021A631A6B02F008020492049A059464
:1017B0001A6B42F002021A631B6B03F002030593DB
:1017C00022464FF4BC61059B02F05EF89248224627
:1017D0003C2102F059F822469048102102F054F8BA
:1017E00001274FF4BC638B4813A9CDE91337CDE92A
:1017F000154401F069FF3C23CDE913378648159461
:10180000022313A916934FF4807501F05DFF4FF486
:1018100004138348159413A9CDE91353102601F03E
:1018200053FF7E487F4D13A9CDE91367CDE91544D9
:1018300001F04AFF7748159413A9CDE9137401F01C
:1018400043FF22460521172001F094FE172001F0E6
:10185000C3FE1C2221460CA8CDE9084407F0F4F889
:101860002022214613A807F0EFF8DFF8D0C1AC60C2
:101870004FF4A073C5E900C34FF47A73C5E903348C
:10188000284680236C61AB6103F018FA08B172B688
:10189000FEE7CDE9080008A9284603F03DFE08B19F
:1018A00072B6FEE76023CDE90C30CDE910000E9052
:1018B00012900C220CA9284603F0E4FA08B172B683
:1018C000FEE7CDE91300CDE9150017904FF4005362
:1018D0001A9013A92846189303F05CFE044608B139
:1018E00072B6FEE72846504D01F0DCFA21461C2274
:1018F00014A807F0A9F84FF00A084FF080434FF6FC
:10190000FF794FF0030A13A92846CDE90C44C5E935
:101910000034C5E90394AC60AC61CDF84CA01597D8
:10192000CDF85C801997CDF86C8003F01FFA08B1F0
:1019300072B6FEE7CDE90C000CA9284603F0ECFDD9
:10194000044608B172B6FEE7384D01461C2214A8C1
:1019500007F07AF8364B2C6113A92846CDE90C44E0
:10196000C5E90034C5E90249AC61CDF84CA0159732
:10197000CDF85C801997CDF86C8003F0F7F908B1C9
:1019800072B6FEE7CDE90C000CA9284603F0C4FDB1
:10199000044608B172B6FEE70146324608A807F0D1
:1019A00053F81C2221460CA8CDE9064407F04CF858
:1019B0002022214613A807F047F81E4D1E4BAC60AD
:1019C000C5E90034284644F29F13C5E90334C5E94C
:1019D000054403F047F908B172B6FEE74FF48053AF
:1019E00008A92846089303F080FB08B172B6FEE709
:1019F000104803F063F908B172B6FEE7CDE90600BE
:101A000006A90C4803F088FD0246C8B172B6FEE78D
:101A10000038024000100240000002400004024072
:101A2000000C024058500020A0500020E850002038
:101A300000040040C05100200004014000000140AB
:101A40006023CDE90C30CDE90E00CDE910001290F5
:101A50000CA9784803F016FA08B172B6FEE775488B
:101A600004220CA903F00EFA08B172B6FEE74FF497
:101A70000053CDE91300CDE9150017901A9013A972
:101A80006C48189303F086FD034608B172B6FEE772
:101A900069486A4C03614FF4E132C0E900420C220C
:101AA000C0E90233C0E90523C36103F05DFE0546CA
:101AB00008B172B6FEE7624C624F0146102213A8CD
:101AC00006F0C2FF604BA56001262046C4E9003540
:101AD0002561257684F82050E562A762E560E6611D
:101AE00084F83050666101F021FB08B172B6FEE760
:101AF0000A23159013A92046CDE9133601F096FC70
:101B0000054608B172B6FEE7504C0146102213A8F4
:101B100006F09AFF4E4BA5602046C4E90035C4E9A3
:101B20000A752561257684F82050E560E66184F821
:101B30003050666101F0FAFA08B172B6FEE70E2382
:101B4000159013A92046CDE9133601F06FFC08B1BA
:101B500072B6FEE71022002113A806F075FF3D4C77
:101B60003D4A0F260023C4E9002620464FF0FF32ED
:101B7000CDE90C33C4E90323A360A36103F072F839
:101B800008B172B6FEE74FF4805313A920461393B1
:101B900003F0ABFA08B172B6FEE7CDE90C000CA970
:101BA000204603F0B9FC054608B172B6FEE7CDE960
:101BB0000C000146102213A806F046FF274C284BC4
:101BC000A560C4E9003620464FF6FF73C4E903352B
:101BD000A56103F09FF808B172B6FEE7CDE90C00ED
:101BE0000CA9204603F098FC08B172B6FEE7012567
:101BF000CDE9145013901690082213A9204603F043
:101C0000D7F9034608B172B6FEE716481649174AD7
:101C10000362C0E900124FF48042C0E90233C0E918
:101C20000423C0E9063301F0A3FF044600B372B6F3
:101C3000FEE700BFC05100200852002000480040CD
:101C40006C4F00200100000F00200140B44F002025
:101C50000021014078510020000C0040305100204C
:101C600000080040FC4F002000540040801A06008D
:101C700006F09AF906F088F805F01AFF7E4B7F4AC5
:101C80001A607F4B7F4A1A607F4B8049804FDFF894
:101C900050834FF080421A607E4B7F4A1A607F4B20
:101CA00002221A707E4B1D707E4B4FF07E521A60DE
:101CB0007D4A002313607D4A11607D4A13607D4B8D
:101CC0007D4A1A607D4B3B607D4BC8F800307D4BF0
:101CD00042F6E0621A607C4B14261E60FFF78CFC13
:101CE00032462146794806F0AFFE32462146784812
:101CF00006F0AAFE774B78491C70784B78481C7028
:101D0000784B1C70784B1C70784B1C7006F0C4FE2E
:101D1000774B78481C70784B4A221A60774B4FF00B
:101D20003209C3F80090764B6D221A60754B412240
:101D30001A60754B55221A60744B1C60744B1C6002
:101D4000744B324621461C6006F07EFE3246214628
:101D5000714806F079FE324621467048704E06F012
:101D600073FE704B35604FF4FA621A606E4B1D6063
:101D70006E4B19221A606E4A642313606D4A40F656
:101D8000B83111606C4A15606C4A0A2111606C4AC6
:101D900015606C4A15606C4AC2F800906B4A13607B
:101DA0006B4B4FF42F721A60FFF7CAFA3068FEF7D8
:101DB000A1FB0B46024667490020FEF73FFDFEF7F8
:101DC000EBFE98ED001AD7ED000A00EE100A62480B
:101DD00006F034FA03F030FF604A6148214603F010
:101DE00057FF604B604A18602146604803F050FF7F
:101DF0005F4B604A186021465F4803F049FF5F4B24
:101E00005F4A186021465F4803F042FF5E4B5F4A1D
:101E1000186021465E4803F03BFF5E4B5E4A186047
:101E200021465E4803F034FF5D4B5E4A1860214650
:101E30005D4803F02DFF5D4B5D4A186021465D480B
:101E400003F026FF5C4B5D4A186021465C4803F0B6
:101E50001FFF5C4B5C4A186021465C4803F018FF8A
:101E60005B4B5C4A186021465B4803F011FF5B4BFB
:101E7000186003F0F3FEFEE708530020DB0F494033
:101E80001C53002066665640C4000020287E8C3C0F
:101E90000001002004010020000020411853002010
:101EA000C45300208C52002090520020A8530020E0
:101EB000AC530020CC0000200000A040CDCCCC3D95
:101EC00011115541F45200202C4F00203C530020AA
:101ED00088530020C8000020F19F0008444F0020D4
:101EE000DC000020454F00206C5300206D53002083
:101EF0009C530020EC000020505300205853002039
:101F00005C5300206053002064530020D400002064
:101F100084520020A053002094520020B05300208F
:101F200054520020D8000020304F0020504F002095
:101F300088520020E052002000530020045300206B
:101F40003853002054530020A45300207453002021
:101F50008453002000408F4058520020B4A1000854
:101F600001120008AC00002048A10008ED20000884
:101F7000A0000020D8A100083D160008B0000020F5
:101F8000FCA100083D0F0008B4000020DCA0000800
:101F9000BD2A000894000020B8A0000845210008D0
:101FA000900000206CA10008990F0008A4000020F8
:101FB00020A2000801200008B800002090A100081D
:101FC000B90F0008A800002000A10008D1240008D3
:101FD0009800002024A100087D1000089C0000202B
:101FE00080520020054B19684A6A4B6A9A4288BFA2
:101FF00003F1FF339B1A8342F7D3704778510020D7
:1020000008B508210F48104C0E4D03F001FA0F4897
:1020100002F074FC01221021204601F035FC0A2058
:10202000FFF7E0FF20460022102101F02DFC2A6876
:10203000D36843F00803D360054B186803F071FEC2
:10204000E8E700BF30510020000402407851002032
:10205000A453002001398A00011D06F0DBBC0000FA
:10206000F8B51D4A03689342044610D1027F042A42
:102070000DD11A4D2A785AB95A621A6A22F420628E
:102080001A621A6A42F400721A6201232B70F8BDB8
:10209000134F082102F0C3FC3B68042B064603D90A
:1020A00010480521FFF7D6FF3B68052B16BF5A1CC9
:1020B00004233A600B4A42F8236023681A6A22F428
:1020C00020621A621A6A1A62074B1A68D36823F0F0
:1020D0000803D3600023D9E7000800409C53002088
:1020E000A0530020B05300203051002080B5114E85
:1020F000114F124D3368042B03D905213846FFF7E1
:10210000A9FF284601F0B8F84FF6FF71284601F004
:1021100037F93468052C18BF631C284614BF336098
:10212000042401F080F9064B47F82400186803F0F6
:10213000F8FDDFE784520020945200206C4F00200D
:1021400088520020F8B5294C294F2A4E2368042BC9
:1021500003D905213846FFF77DFF304601F08CF8A2
:102160004FF6FF71304601F00BF92568052D18BFB9
:102170006B1C30460CBF0425236001F054F9DFEDE1
:102180001E0A47F8250021681948B7EE000AFFF734
:102190000BF8DFED1A7AB4EEE70AF1EE10FA08DD7B
:1021A0001749184806F078FC174B186803F0B9FD7A
:1021B000CCE7DFED167AB4EEE70AF1EE10FA01DDB6
:1021C0001349EEE7DFED137AB4EEE70AF1EE10FA09
:1021D00001DD1149E5E7DFED117AB4EEE70AF1EE32
:1021E00010FACCBF0E490F49DBE700BFD400002036
:1021F000EC000020B44F0020000000000000AA44C2
:10220000FE9F0008DC000020D80000200000A5444C
:102210000BA0000800C0A34418A0000800007A44E6
:1022200025A0000832A0000830B401794379214884
:10223000214C02782270214C2568214C462A2560C9
:102240000CBF4224462404701E48D0ED007A1E487C
:10225000F8EEE77A90ED007AF4EEC77AF1EE10FA34
:1022600016D54C2908D1422B0CD1462A0ED1174B3A
:10227000174A1B68136011E052290FD1462BF4D086
:10228000422B00E0462B09D1462AF0D1114BEFE753
:102290004C2908D1422BF7D0462BE6D00E4B30BC50
:1022A000186803F03EBD5229F8D1462BECD0422BE2
:1022B000F3E700BFC0000020444F0020C40000200E
:1022C0003453002030530020D00000206053002001
:1022D0006853002064530020845300202DE9F3410B
:1022E0005C4B1B78012B07EE900A40F0AF805A4AF6
:1022F000DFF8D0E11368DFF8D081584D584E591CF3
:102300001160584A12689342C0F28A80564B9FED82
:10231000577A1B78DEF80010DFF8B0C1462B0CBFEF
:10232000534A544AD2ED006A462B0CBF524A534AD4
:10233000F8EE677A66EE876A462B86EEA75AD2EDEC
:10234000006A0BBF4E4A4F4AD2ED003AD2ED003A36
:102350000CBF4D4A4D4A67EEA66A462B86EE873A79
:10236000D2ED006A0CBF4A4A4A4A66EE876A462B9B
:1023700086EEA76A0CBF484B484BD2ED006A93ED3E
:10238000004A474B474A1B6867EEA67A5F1AC7EEBA
:10239000875A1760D8F800209B1ACCF8003007EE57
:1023A000907A414FF8EEE74A07EE903A3F4BD7ED6F
:1023B000006AB8EEE77AD3ED007AE3EE246AE5EE40
:1023C000877AC7ED006AC3ED007A394F394B386818
:1023D0001C68204308BF3960386808BF1A60081AB3
:1023E00005EE900AF8EEE55A1868396065EE655A10
:1023F000101AE4EEA35A1A6076EEA56AFDEEE66ABC
:10240000C5ED006A06EE900AF8EEE66A66EE666AC8
:10241000E7EE046A77EEA67AFDEEE77AC6ED007A7B
:10242000336801932B680093DEF80020D8F8003061
:102430002149224806F010FB204921484FF6FF733E
:10244000132202B0BDE8F04103F0BCB902B0BDE810
:10245000F08100BF6D5300200C530020F852002083
:10246000FC5200202C4F0020444F002000007A44F2
:10247000B0520020A8520020C0520020B8520020C4
:10248000D0520020C8520020B4520020AC5200208C
:10249000C4520020BC520020D4520020CC52002054
:1024A0005C4F0020604F00204C5200205052002012
:1024B00010530020145300203FA000088853002030
:1024C00008520020484F00204C4F0020644F00204D
:1024D0002DE9F74F584D594CDFF890813C212846A3
:1024E00002F042FA3C21204602F03EFA2B685F6A75
:1024F00023685E6A00F000FE4FF6FF7982466FEABD
:102500000A0B00F0F9FDD8F80030824594BFA0EB2B
:102510000A010BEB00018B42F3D2D5F800A0D4F8EE
:1025200000E0DAF82420DEF82430DAF800A0A7EB87
:10253000020C8CEAEC701AF0100FA0EBEC700ABFE2
:1025400002EB090CCC44ACEB070CDEF80020019048
:10255000BCF1000FA6EB030080EAE07BB8BFCCF132
:10256000000CD206ABEBE07B56BF03EB09004844FE
:10257000801B019B0028B8BF40429C4528BF9C4659
:102580002F4B5845C3F800C02E4B28BF5846186043
:102590002D4B1B78012B44D12C4BDFED2D5A93EDA5
:1025A000006A2C4B07EE90CA93ED004A2A4B26EEA8
:1025B000045AB8EEE77A65EE077AC7EEA54AD3ED7E
:1025C000007A74EEA74A07EE900AF8EEE77AC3EDB8
:1025D000004A25EE275A214BC5EE254A93ED005AB5
:1025E00034EE855A83ED005A1D4BD3ED006A1D4B26
:1025F00066EE266A66EE846A27EE267A67EEA67A8B
:1026000087EE256A93ED007A36EE077A83ED007A3D
:1026100087EEA57A144BD3ED007A77EE277AC3EDD7
:10262000007A0846FFF75AFE2B685F6A23685E6AE5
:1026300000F062FD824662E7A0500020E8500020D2
:10264000484F00204C4F00206C53002008530020BE
:10265000000025431C530020785300207C530020A9
:10266000544F0020344F0020384F0020504F00209E
:10267000234A38B500231370224A234C1360234A9F
:102680001360234B0546186803F04BFB214B1A6877
:10269000214B1A60237843B3204B186803F041FBA9
:1026A0001F4BD3ED027A1F4B93ED007A1E4B77EE52
:1026B000C77AF0EEE77AC3ED007A1C4B93ED007A0F
:1026C0001B4BB8EEC77A77EEC77A93ED007AF0EE3F
:1026D000E77AF4EEC77AF1EE10FA8CBF01230023FB
:1026E000237013B12846FFF79FFD124A0023137091
:1026F000114A1370237813B9104B02221A7038BD97
:102700006D530020F8520020C8000020FC52002029
:10271000745300205053002068530020845300203D
:102720005852002070530020D00000203053002069
:10273000CC0000206C530020444F002008010020F2
:102740002DE9F341DFF85C827A4D98F800307A4C3D
:102750007A4F0146002B40F08480794B1E78002E82
:102760007BD1784B02791A7006310422684606F054
:102770009BF9684606F012F907EE900A724B73480F
:102780001B682360F8EEE77A0121C5ED007A01F0BD
:1027900075F801286E4B5DD16E4AD4ED007AD2ED0A
:1027A000006AB0EE007AD6EE877A95ED007AF4EE04
:1027B000C77AF1EE10FA4DD51870674B1E60674B63
:1027C0001E60674BD3ED007A664BF8EEE77AC3EDF7
:1027D000007A654BD3ED007A644BF8EEE77AC3EDEF
:1027E000007A634B1E6095ED007AD4ED007A614A61
:1027F000B4EEE77AF1EE10FA88BF5F4BB4EEE77AF9
:102800008CBF1B680023F1EE10FA136088BF5B4B8E
:102810005B4A8CBF1B68002313605A4A0023136075
:10282000B4EEE77A584AF1EE10FA1360C8BF574B7E
:10283000574AC8BF1B681360564A3B600023137099
:10284000554A1370554A1370012388F8003002B0BE
:10285000BDE8F08100221A70C5E7514B1B68236068
:10286000C1E794ED006AD5ED007A97ED007A77EE36
:10287000C67AF4EEC77AF1EE10FA0CD8444BD3EDD9
:10288000006AF4EEE67AF1EE10FA04D802B0BDE880
:10289000F041FFF7EDBE2A4B1B78002BD7D13D4A04
:1028A00013780BBB2A4B1B78012B1DD12949D1ED85
:1028B000006A76EEC66AB4EEE67AF1EE10FA13DB41
:1028C000334991ED006AF4EEC66AF1EE10FA0BD8C6
:1028D0002349137008682749086023490868284974
:1028E00008602E490B70B2E72B4B1A78002AAED144
:1028F000184937EEC77AD1ED006AB4EEE67AF1EE08
:1029000010FAA4D8224991ED007A77EEC77AF4EE56
:10291000E76AF1EE10FA9ADB20490A70164A11684C
:10292000144A1160154A1168154A116001221A7083
:102930008DE700BF345300203C4F0020344F00206F
:10294000C8000020444F0020404F002000100240EB
:10295000454F002004010020105300201453002094
:10296000505000204C520020545000205052002063
:102970000C530020F8520020EC520020F0520020AE
:10298000FC520020785300207C530020584F002038
:10299000384F0020195300201A5300206D53002097
:1029A000805300206C53002037B5314D2B780446FE
:1029B000002B57D1C11D032201A806F075F801A80C
:1029C00005F0ECFF2B4B2C4918602C4B46221A705B
:1029D000227963792A704C2A07EE900A0B7025D170
:1029E000422B1AD1264BF8EEE77AD3ED006A254B3D
:1029F00093ED007A244BA7EEA67A83ED007A234B61
:102A0000234A1B681360234B186803F08AF9224B92
:102A10009A68224B1A6003B030BD462BEFD1204B91
:102A2000F8EEE77AD3ED006A1E4BE1E7522A0ED1A9
:102A3000422B0ED11C4BF8EEE77AD3ED006A1B4B0C
:102A400093ED007A104BA7EEA67A83ED007A184B2F
:102A5000D6E7462BFBD1174BF8EEE77AD3ED006AA9
:102A6000154BEDE703B0BDE83040FFF769BE00BF8E
:102A7000C800002030530020444F0020C000002038
:102A8000D8520020DC52002034530020585300203C
:102A900068530020845300205852002070530020B7
:102AA000E4520020E852002020530020245300204C
:102AB0005C530020285300202C53002008B51B4CE9
:102AC0001B4D2378012B22D11A4A2B68126893429E
:102AD0001DDC1949142202FB031212794C2A0CD86E
:102AE000412A0CD9423A0A2A09D8DFE802F00B1B26
:102AF00008080B08080808081500522A0CD00133F2
:102B00002B6004E0142000FB0310FFF719FE0B4BB1
:102B1000186803F006F9D4E7142000FB0310FFF750
:102B200043FFF4E702232370F1E700BF0801002010
:102B3000BC000020684F002009010020304F002019
:102B400082B00E4B00220092596C41F480415964CE
:102B5000596C01F48041009100990192196C41F087
:102B6000805119641B6C03F080530193019B0F216A
:102B70006FF0010002B000F0FDBC00BF0038024061
:102B800010B514228AB0044600210DEB020005F0B6
:102B90005BFF23681E4A93421FD11E4B0021019107
:102BA0005A6C42F480725A645A6C02F48072019238
:102BB000019A02911A6B42F004021A631B6B03F034
:102BC00004030293029B012305931348032305A9E1
:102BD000069300F079FD0AB010BD104A9342FAD175
:102BE0000C4B002103915A6C42F400725A645A6CE7
:102BF00002F400720392039A04911A6B42F00402E9
:102C00001A631B6B03F004030493049B1023DBE79C
:102C1000002001400038024000080240002101402D
:102C200030B5044689B01422002103A805F00CFF3A
:102C30002268154B9A4224D1144C15480025019561
:102C4000236B43F002032363236B03F0020301931E
:102C5000019B4FF440721223CDE90323012103238A
:102C6000CDE90513042303A9079300F02DFD029578
:102C7000236C43F400132364236C03F400130293C6
:102C8000029B09B030BD00BF005400400038024034
:102C9000000402400268094B9A4282B00BD1002323
:102CA0000193074B5A6C42F001025A645B6C03F0CB
:102CB00001030193019B02B0704700BF0000014077
:102CC0000038024070B514228AB0044600210DEB92
:102CD000020005F0B9FE2368B3F1804F37D103F548
:102CE0000E33002400941A6C294842F001021A6441
:102CF0001A6C02F001020092009A01941A6B42F0E1
:102D000001021A631A6B02F001020192019A029405
:102D10001A6B42F002021A631B6B03F00203029368
:102D2000029B02264FF40043012505A9CDE9053693
:102D3000099500F0C9FC0823CDE90536CDE9074423
:102D40001448099505A900F0BFFC0AB070BD124AED
:102D50009342FAD1114B0E48002103911A6C42F0B4
:102D600002021A641A6C02F002020392039A04919E
:102D70001A6B42F001021A631B6B03F00103049308
:102D8000049BC0220223CDE90523099305A9DAE7B4
:102D900000000240000402400004004000380240ED
:102DA00010B5044688B01422002103A805F04CFE9B
:102DB0002268174B9A4228D103F50C330024019462
:102DC0001A6C144842F004021A641A6C02F00402ED
:102DD0000192019A02941A6B42F008021A631B6B6B
:102DE00003F0080302934FF48042029B03A90223DD
:102DF000CDE90323079300F067FC1E20224605213E
:102E000000F0B8FB1E2000F0E7FB08B010BD00BFCB
:102E100000080040000C024010B5044688B014229F
:102E2000002103A805F010FE23681A4A93420DD131
:102E300000230093184B1A6C42F008021A641B6CB2
:102E400003F008030093009B08B010BD134A93429F
:102E5000FAD1114B1248002101915A6C42F0020242
:102E60005A645A6C02F002020192019A02911A6BA2
:102E700042F004021A631B6B03F004030293029BEB
:102E8000C0220223CDE9032303A90323079300F003
:102E90001BFCD9E7000C0040003802400004014050
:102EA0000008024010B5044686B01422002101A893
:102EB00005F0CAFD22680E4B9A4216D100230093FA
:102EC0000C4B0D481A6B42F010021A631B6B03F097
:102ED00010030093009B4FF480420223CDE90123AD
:102EE00001A90123059300F0EFFB06B010BD00BF60
:102EF00000000140003802400010024010B50446B6
:102F000088B01422002103A805F09EFD2268184B0A
:102F10009A422BD103F5F833002401941A6C15481A
:102F200042F480221A641A6C02F480220192019AFF
:102F300002941A6B42F004021A631B6B03F0040341
:102F400002934FF44062029B0223CDE90323032145
:102F50000723CDE9061303A900F0B6FB272022467C
:102F6000052100F007FB272000F036FB08B010BD5C
:102F70000048004000080240FEE7FEE7FEE7FEE7EB
:102F8000FEE7704708B500F0ABF803F083FE0128B8
:102F900003D0BDE8084004F08DB908BD4FF480703F
:102FA00000F080BC014801F054BD00BF305100204A
:102FB000014802F0BDBC00BF085200200B4A116856
:102FC00010B5034609B90A491160106809490A4C4D
:102FD0000344091B8B4206D905F0E4FC0C23036073
:102FE0004FF0FF3010BD1360FCE700BFC853002056
:102FF00040A100200000022000040000034AD2F893
:10300000883043F47003C2F88830704700ED00E068
:10301000DFF834D00D480E490E4A002302E0D458A0
:10302000C4500433C4188C42F9D30B4A0B4C002310
:1030300001E013600432A242FBD3FFF7DFFF05F08B
:10304000B7FCFEF77DFB7047000002200000002067
:103050007400002088AE0008740000203CA100200D
:10306000FEE7000038B50E4A0E4B054618784FF4BF
:103070007A73B3FBF0F31068B0FBF3F000F0BAFA28
:10308000044658B90F2D09D8024629464FF0FF30A3
:1030900000F070FA044B20461D6038BD0120FCE7AB
:1030A00000000020040000200800002008B50B4BA1
:1030B0001A6842F400721A601A6842F480621A6058
:1030C0001A6842F480721A60032000F041FA0F205F
:1030D000FFF7C8FFFFF734FD002008BD003C0240A9
:1030E000034A044B11681B780B441360704700BF00
:1030F000CC53002004000020014B1868704700BF2B
:10310000CC53002038B50446FFF7F6FF631C1CBF04
:10311000054B1B78054618BFE418FFF7EDFF431B6E
:10312000A342FAD338BD00BF0400002038B50446DE
:10313000002800F09B80056C25B9FFF721FD656430
:1031400084F83C50236CDB0600F18E80236C23F462
:10315000885323F0020343F002032364444B5A686C
:1031600022F440325A605A6861680A435A60236800
:1031700021695A6822F480725A605A6842EA012230
:103180005A605A68A16822F040725A605A680A432D
:103190005A609A68E16822F400629A609A680A4369
:1031A0009A603449A26A8A4252D0996821F07061CB
:1031B000996099680A439A609A68E16A22F04052DD
:1031C0009A609A680A439A609A6822F002029A60AA
:1031D0009A68217E42EA41029A6094F82020002AEF
:1031E0003ED05A68616A42F400625A605A6822F41A
:1031F00060425A605A68013942EA41325A60DA6ADA
:10320000E16922F47002DA62DA6A013942EA0152B3
:10321000DA629A6822F400729A609A6894F8301020
:1032200042EA41229A609A68616922F480629A6057
:103230009A68002042EA81229A606064236C23F03D
:10324000030343F001032364002384F83C3038BDBA
:103250009A6822F070629A609A6822F04052B2E74F
:103260005A6822F40062C9E70120EDE70120EEE789
:10327000002301400100000F13B50023019390F8D3
:103280003C30012B6CD00123026880F83C309368FD
:10329000D9070CD5936813F001031AD1026C42F0E0
:1032A00010020264426C42F00102426456E09368EC
:1032B0002D4943F0010393602C4B1B68B3FBF1F3E2
:1032C00003EB43030193019B002BE3D0019B013BE4
:1032D000F8E7036C264C23F4E06323F0010343F486
:1032E0008073036453685B0541BF036C23F4405350
:1032F00043F480530364036C13F480531CBF436C8A
:1033000023F0060343646FF02201002380F83C3071
:1033100011601849486810F01F0019D1A24206D068
:10332000154B9A420DD14B6813F01F0F07D19068CF
:1033300010F0405016D1936843F08043936002B080
:1033400010BD0E4B9A42FAD14B6813F0100FEDE707
:10335000A24207D1906810F04050ECD01846EEE73A
:103360000220ECE70020EAE740420F0000000020C6
:1033700000200140002301400021014000220140C3
:1033800003689A68520570B504460D460BD59B68D4
:10339000DE0508D5036C43F020030364002380F8A6
:1033A0003C30012070BDFFF7A7FE064623681A686F
:1033B00091070CD56FF012021A60226C42F4007271
:1033C00022649A6812F0405F17D00020EAE7681C78
:1033D000EDD065B923681B6813F00203E6D1226CB7
:1033E00084F83C3042F0040222640320DAE7FFF75D
:1033F00083FE801BA842EDD8D8E7207E0028E4D1C8
:10340000DA6A12F4700F02D09B685A05DDD4236C7F
:1034100023F480732364236CDB04D6D4236C43F041
:1034200001032364BEE70368D86C7047F7B5002337
:10343000019390F83C30012B66D0012380F83C309A
:103440000D6803688E68092DACB231D904EB4402D3
:10345000DF681E3A4FF0070C0CFA02FC27EA0C0753
:10346000DF60DF6806FA02F23A43DA60496806294B
:1034700001EB81022CD8596B053A1F26964021EAB0
:1034800006015963596B04FA02F20A435A632C4A43
:10349000934207D1122D39D1D2F8043343F480037B
:1034A000C2F80433002380F83C30184603B0F0BD66
:1034B0001F6905EB45024FF0070C0CFA02FC27EAE6
:1034C0000C071F611F6906FA02F23A431A61CDE741
:1034D0000C294FF01F010BD81E6B233A914026EAAE
:1034E00001011963196B04FA02F20A431A63CEE769
:1034F000DE6A413A914026EA0101D962D96A04FAAA
:1035000002F20A43DA62C2E70220CFE7A5F1100314
:10351000012BC7D80B4A5368102D43F400035360A6
:10352000C0D1094B094A1B68B3FBF2F30A2253438B
:103530000193019B002BB5D0019B013BF8E700BF35
:1035400000200140002301400000002040420F0005
:103550000749CA6822F4E0620302120403F4E0633C
:10356000120C134343F0BF6343F40033CB60704746
:1035700000ED00E0164B30B5DC68C4F30224C4F162
:103580000705231D042D28BF0425062B4FF0FF330C
:103590008CBF033C002403FA05F521EA0501A34092
:1035A00022EA0302A140002841EA0203ACBF00F175
:1035B0006040084A4FEA0313B8BF00F00F00DBB2C7
:1035C000AABF00F56140135480F8003330BD00BF3E
:1035D00000ED00E014ED00E0002808DB42090123C3
:1035E00000F01F0003FA00F0014B43F8220070477F
:1035F00000E100E00138B0F1807F0BD24FF0E02312
:10360000054A5861F02182F82310002007229861B2
:103610001A6170470120704700ED00E070B5044664
:10362000866DFFF769FD94F83530022B054606D00C
:1036300080236365002384F83430012070BD236843
:103640001A6822F016021A605A6922F080025A6142
:10365000226C0AB9A26C1AB11A6822F008021A6028
:103660001A6822F001021A6023681B6813F0010334
:103670000AD1E16D3F228A40B260012284F83520F0
:1036800084F834301846D9E7FFF736FD401B05288B
:10369000EAD9202363650320002384F8350084F8E9
:1036A0003430CBE790F83530022B03D080234365CC
:1036B000012070470268052380F83530136823F035
:1036C00001031360002070472DE9F74FDFF8A89140
:1036D000674A00230D6801249C4004EA050CAC43B2
:1036E00040F0B1804D6805F003044FEA430803261B
:1036F000671E06FA08F6012F6FEA060634D88768B7
:1037000007EA060ECF6807FA08F747EA0E07876050
:10371000476827EA0C0EC5F300179F4047EA0E07DB
:103720004760C76807EA060E8F6807FA08F747EA96
:103730000E07022CC76019D14FEAD30A00EB8A0AA0
:1037400003F0070BDAF820704FEA8B0B4FF00F0EE7
:103750000EFA0BFE27EA0E0E0F6907FA0BF747EA7F
:103760000E07CAF8207001E0032CDAD1076804FACA
:1037700008F43E40264315F4403F066063D04FF006
:10378000000ACDF804A0D9F844603A4C46F48046CB
:10379000C9F84460D9F8446006F480460196019E59
:1037A00023F0030606F1804606F59C3603F0030E6F
:1037B000D6F808804FEA8E0E0F2707FA0EF7A042C0
:1037C00028EA070746D004F58064A04244D004F5F7
:1037D0008064A04242D004F58064A04240D004F549
:1037E0008064A0423ED004F58064A0423CD004F541
:1037F0008064A0423AD004F58064A0420CBF072444
:10380000082404FA0EF43C43B46094686FEA0C0692
:10381000EF0254BF34404CEA04049460D468AF0211
:1038200054BF34404CEA0404D4605468AF0354BF1E
:1038300034404CEA040454601468ED0354BF34402F
:103840004CEA040414600133102B7FF443AF03B03F
:10385000BDE8F08F5446D4E70124D2E70224D0E734
:103860000324CEE70424CCE70524CAE70624C8E7EE
:10387000003C014000000240003802400369194248
:1038800014BF0120002070470AB18161704709040C
:10389000FBE7436901EA030221EA030141EA02412D
:1038A00081617047044A5169014208B502D05061F4
:1038B000FDF794FE08BD00BF003C014001684B6964
:1038C00013F480634FF0000210D06FF480634B61FB
:1038D0002023026380F83D3080F83E20036C80F89E
:1038E0003C2043F0040303640120704718467047EE
:1038F0002DE9F84606460F4691461D464FEA114A05
:103900003368BAF1010F0CBF5C699C6927EA0404B3
:10391000A4B2B4FA84F46409A14501D0002017E0F0
:103920006A1CEED0FFF7E8FB089BC01AA84201D83A
:10393000002DE5D100232022336386F83D2086F850
:103940003E30326C86F83C3042F020023264012076
:10395000BDE8F8862DE9F04104460F461646984624
:103960002568686927EA000080B2B8B16B695A051A
:1039700016D52B6843F400732B606FF480636B6182
:1039800020220023236384F83D2084F83E30226CFB
:1039900042F00402226484F83C300120BDE8F0814A
:1039A000731CDED0FFF7A8FBA0EB0800B04201D8E3
:1039B000002ED5D100232022236384F83D2084F8F3
:1039C0003E30226C42F02002E4E770B504460D461A
:1039D000164621684B6913F0400301D0002010E027
:1039E0004A69D2060ED56FF010024A612022236385
:1039F00084F83D2084F83E30226C226484F83C3008
:103A0000012070BDFFF778FB801BA84201D8002D74
:103A1000DFD100232022236384F83D2084F83E3048
:103A2000226C42F02002E8E770B504460D461646C7
:103A300023685B695B0701D5002070BD2046FFF756
:103A40003DFFA8B96A1CF3D0FFF756FB801BA842C4
:103A500001D8002DECD100232022236384F83D20DF
:103A600084F83E30226C84F83C3042F0200222641C
:103A70000120E2E770B504460D46164623685B69EF
:103A80001B0601D5002070BD2046FFF717FFA8B91F
:103A90006A1CF3D0FFF730FB801BA84201D8002D31
:103AA000ECD100232022236384F83D2084F83E30AB
:103AB000226C84F83C3042F0200222640120E2E7CC
:103AC0002DE9F0431546026885B0DDE90C7899468A
:103AD000136843F4807313600E463B46CDF80080B4
:103AE00000224FF001110446FFF702FF236838B1AE
:103AF0001B68DB0502D54FF40073236403200AE042
:103B000006F0FE061E61194943463A462046FFF775
:103B100021FF18B1012005B0BDE8F08323680390B0
:103B20005A6903929B690393424639462046039B98
:103B3000FFF7A0FF40B1236C042B01BF226813687C
:103B400043F400731360E5E7B9F1010F236802D174
:103B5000EDB21D61DFE72A0A1A6139464246204666
:103B6000FFF788FF0028E6D12368F1E70200010093
:103B700070B5044608B9012070BD90F83D3003F0DF
:103B8000FF021BB980F83C20FFF74AF8242384F891
:103B90003D3023681A6822F001021A601A6842F464
:103BA00000421A601A6822F400421A6000F0F8FD20
:103BB0003F4B65689D4294BF3E4B3F4B98428CBF44
:103BC00000230123002BD6D12268394E53683B498C
:103BD000B0FBF1F123F03F030B43B542536088BFC4
:103BE0004FF49676136A88BF714323F03F0384BF76
:103BF0004FF47A76B1FBF6F1013119431162D169C4
:103C0000431E2B4821F44F41854221F0FF0132D859
:103C10006D0040F6FC70B3FBF5F30133034242D074
:103C2000C3F30B030B43D361D4E90730116803439B
:103C300021F0C0010B4313609168D4E9030321F420
:103C40000341034321F0FF010B439360D4E90530A6
:103C5000D168034321F0FF010B43D360136843F0A5
:103C60000103136000202023206484F83D3020638A
:103C700084F83E0080E7A06850B905EB4505B3FB2A
:103C8000F5F30133C3F30B037BB143F40043C9E7FE
:103C900019204543B3FBF5F30133C3F30B0323B101
:103CA00043F44043BEE70423BCE70123BAE700BF67
:103CB000A08601007F841E00FF083D0040420F00E7
:103CC0002DE9F043044685B098460C9F0D46914679
:103CD000FFF712FA94F83D30202B064604D0022557
:103CE000284605B0BDE8F08300905D491923012204
:103CF0002046FFF7FDFD0028F1D194F83C30012B60
:103D0000EDD02168012384F83C300B68DA075EBFF0
:103D10000B6843F001030B600B6823F400630B6036
:103D2000212384F83D30102384F83E30002323649F
:103D3000A4F82A80638D23854A4BE362E36AC4F8C2
:103D40002490082B04D0012B02D013F5803F04D11E
:103D50000B6843F480730B6002E0236B122BF7D0E7
:103D6000002200963B464FF001112046FFF7C0FDB0
:103D7000226838B11368DB0544BF4FF40073236435
:103D80000125ADE72369B3F5804F21D105F0FE058C
:103D90001561354933463A462046FFF7DBFD0546B7
:103DA0000028EDD1236803905A6903929B6903931D
:103DB000039B238DF3B921680A6842F400720A60FC
:103DC000202284F83D2084F83C3084F83E3087E798
:103DD000EB1103F0060343F0F0031361234933466C
:103DE0003A462046FFF7B6FD0028C9D12368EDB258
:103DF0001D61CEE7324639462046FFF73BFE40B113
:103E0000236C042BBCD12268136843F40073136045
:103E1000B6E7636A20681A4612F8011B0161626204
:103E2000628D013A92B26285228DD0F814C0511E83
:103E300089B21CF0040F21850AD049B1597801617B
:103E400002336362638D013B9BB2023A6385228534
:103E5000324639462046FFF7E7FD0028A9D0CFE7D4
:103E6000020010000000FFFF020001000800010036
:103E70002DE9F043044689B09846109F0E469146BE
:103E8000FFF73AF994F83D30202B054604D002267E
:103E9000304609B0BDE8F08300909A491923012209
:103EA0002046FFF725FD0028F1D194F83C30012B86
:103EB000EDD02168012384F83C300B68DB075EBF3E
:103EC0000B6843F001030B600B6823F400630B6085
:103ED000222384F83D30102384F83E3000232364ED
:103EE000A4F82A80638D2385874BE362E36A0A681E
:103EF000C4F8249042F48062082B0A6004D0012B9D
:103F000002D013F5803F04D10B6843F480730B603B
:103F100002E0236B112BF7D03B46009500224FF0B7
:103F200001112046FFF7E4FC236838B11B68D8056F
:103F300002D54FF4007323640126A9E72269B2F584
:103F4000804F27D146F00106F6B21E616F492B461D
:103F50003A462046FFF7FEFC06460028ECD1238DAA
:103F60002168002B4BD103904B6903938B6903931A
:103F7000039B0B6843F400730B60DFF89881238D7B
:103F8000002B64D1202284F83D2084F83C3084F852
:103F90003E307DE74FEAE61808F0060848F0F002E8
:103FA0001A615B492B463A462046FFF7D3FC0028AE
:103FB000C2D123685549F6B21E613A462B462046C7
:103FC000FFF7C8FC0028B7D1236807905A69079209
:103FD0009A690792079A1A6842F480721A604FF041
:103FE0000111024600953B462046FFF781FC2268FE
:103FF00008B113689BE748F0F1031361A6E7012BB2
:104000000AD10B6823F480630B6004904B6904931E
:104010008B690493049BACE7022B0B680DD123F44E
:1040200080630B600B6843F400630B6005904B6981
:1040300005938B690593059B9FE743F480630B60B1
:1040400006904B6906938B690693069B95E7032BB5
:1040500062D8012B16D12A4639462046FFF7B5FC17
:1040600000287FF469AF23681A69636A1A70636A6B
:1040700001336362238D013B2385638D013B9BB23A
:1040800063857CE7022B00953B464FF000024146DA
:1040900020461AD1FFF72CFC00287FF44DAF23688F
:1040A0001A6842F400721A601A69636A1A70626AC6
:1040B000531C6362238D013B2385638D013B9BB2BF
:1040C000638523681B695370D1E7FFF711FC002853
:1040D0007FF432AF23681A6822F480621A601A698A
:1040E000636A1A70636A009501336362238D013B32
:1040F0002385638D013B9BB2638502463B46414667
:104100002046C7E7020010000000FFFF0200010088
:1041100008000100040001002A4639462046FFF746
:1041200054FC00287FF408AF23681A69636A1A7088
:10413000626A531C6362238D013B2385638D013BBF
:104140009BB263852368596949077FF518AFB9E7C2
:104150002DE9F743044699460C9E0F469046FEF71C
:10416000CBFF94F83D30202B054603D0022003B04E
:10417000BDE8F08300903C49192301222046FFF757
:10418000B7FB0028F2D194F83C30012BEED0206828
:10419000012384F83C300368D9075EBF036843F00D
:1041A00001030360036823F400630360212384F8A0
:1041B0003D30402384F83E30002323640A9B636231
:1041C000BDF82C306385638D2385284BE362CDE9F0
:1041D00000654B46424639462046FFF771FC0028F1
:1041E0002AD00120C3E7FFF745FC40B1236C042B24
:1041F00001BF2268136843F400731360F1E7636A38
:1042000027681A4612F8011B39616262628D218D9E
:10421000013A92B262857A69481E80B252072085BF
:104220000AD548B15A783A6102336362638D013B23
:1042300002399BB221856385238D2A46314620466B
:10424000002BD0D1FFF7F0FB0028CFD122681368F4
:1042500043F400731360202384F83D3084F83C005D
:1042600084F83E0083E700BF020010000000FFFF5B
:10427000006C7047044B01221A62044B82B01B6829
:104280000193019B02B0704700000E420070004095
:10429000044B00221A62044B82B01B680193019BFD
:1042A00002B0704700000E42007000402DE9F3415B
:1042B000044640B30368DD0710D4236898075ED432
:1042C00023681A0700F1A08023685B0700F1C08013
:1042D000A069002840F0288100202BE08F4B9A68CD
:1042E00002F00C02042A07D09A6802F00C02082A95
:1042F0000BD15A68510208D5884B1B689A03DCD54C
:104300006368002BD9D1012014E06268B2F5803FC8
:1043100013D11A6842F480321A60FEF7EDFE7F4E28
:10432000054633689B03C8D4FEF7E6FE401B6428AD
:10433000F7D9032002B0BDE8F081784DB2F5A02F87
:104340002B6807D143F480232B602B6843F4803320
:104350002B60E2E723F480332B602B6823F4802367
:104360002B60002AD9D1FEF7C7FE06462B689F03B3
:10437000A3D5FEF7C1FE801B6428F7D9D9E7674BA8
:104380009A6812F00C0F07D09A6802F00C02082A03
:1043900011D15B685E020ED4604A13689D0702D596
:1043A000E368012BAFD11368216923F0F80343EAD6
:1043B000C103136084E7E268594BB2B101221A606D
:1043C000FEF79AFE554D06462B68980707D52B68D1
:1043D000226923F0F80343EAC2032B6070E7FEF77B
:1043E0008BFE801B0228EFD9A3E71A60FEF784FE3C
:1043F0004A4E0546336899077FF562AFFEF77CFEAB
:10440000401B0228F6D994E76269454B82B101222C
:10441000C3F8802EFEF770FE404E0546736F9F076F
:104420003FF552AFFEF768FE401B0228F6D980E741
:10443000C3F8802EFEF760FE384E0546736F98076E
:104440007FF542AFFEF758FE401B0228F6D970E711
:10445000324B1A6C12F0805228D101921A6C42F041
:1044600080521A641B6C03F080530193019B012757
:104470002C4D2B68D9051BD5A368284D012B27D1BE
:104480002B6F43F001032B67FEF736FE234E0546E4
:1044900041F28838336F9B0739D5002F3FF418AFAE
:1044A0001E4A136C23F08053136411E70027DFE7E3
:1044B0002B6843F480732B60FEF71EFE06462B68C4
:1044C000DA05D9D4FEF718FE801B0228F7D930E7A9
:1044D000052B04D12B6F43F004032B67D0E72A6F21
:1044E00022F001022A672A6F22F004022A67002BB9
:1044F000CAD1FEF701FE41F2883806462B6F9807B5
:10450000CBD5FEF7F9FD801B4045F7D911E7FEF743
:10451000F3FD401B4045BDD90BE700BF003802400A
:104520000000474200700040364DAB6803F00C03BA
:10453000082B3DD0344B002202281A662BD1FEF7FF
:10454000DBFD06462B6899011FD4D4E907321343DB
:10455000626A43EA8213E26A43EA0263A26A520889
:10456000013A43EA02436B60274B264D01221A664B
:10457000FEF7C2FD04462B689A013FF5ADAEFEF78B
:10458000BBFD001B0228F6D9D3E6FEF7B5FD801B64
:104590000228D7D9CDE6FEF7AFFD04462B689B0174
:1045A0007FF59AAEFEF7A8FD001B0228F6D9C0E6FB
:1045B00001283FF4BFAE6B68E26903F480019142C9
:1045C0007FF4A1AE216A03F03F028A427FF49BAEE2
:1045D000616A47F6C0721A40B2EB811F7FF493AE56
:1045E000A26A520803F44031013AB1EB024F7FF462
:1045F0008AAEE26A03F07063B3EB026F3FF46CAE15
:1046000081E600BF0038024000004742134908B568
:104610008B6803F00C03042B1CD0082B1CD14A68B8
:104620004B68496813F4800314BF0D480D48C1F36B
:10463000881118BF002302F03F02A1FB0001FCF724
:10464000FBFA064B5B68C3F3014301335B00B0FB2D
:10465000F3F008BD0248FCE70248FAE700380240E0
:1046600040787D010024F4002DE9F0410D46044618
:1046700010B90120BDE8F081444B1A6802F007022E
:104680008A4228D3226897072DD4D00741D43F4BC4
:104690001A6802F00702AA4266D8226851076CD451
:1046A000130707D53A4A2169936823F4604343EA24
:1046B000C1039360FFF7AAFF354B364A9B68C3F3EB
:1046C0000313D35CD840344B1860344B1868FEF7A2
:1046D000C9FC0020CEE7CAB21A701B6803F00703BA
:1046E0008B42C6D1CEE72A4B12F0040F1EBF996849
:1046F00041F4E0519960160742BF996841F4604166
:1047000099602349A0688B6823F0F00303438B6012
:10471000BBE762681E4B012A1CD11B6813F4003FE3
:10472000A7D01B4EB36823F003031343B360FEF717
:10473000E3FC41F288380746B368626803F00C0373
:10474000B3EB820FA3D0FEF7D7FCC01B4045F3D9D3
:1047500003208FE7911E01291B6802D813F0007F08
:10476000DEE713F0020FDBE7EAB21A701B6803F012
:104770000703AB427FF47DAF8FE70549E0688B68A4
:1047800023F4E05303438B608AE700BF003C024000
:104790000038024044A20008000000200800002069
:1047A000044B054A9B68C3F38223D35C034A106819
:1047B000D84070470038024054A200080000002092
:1047C000044B054A9B68C3F34233D35C034A106829
:1047D000D84070470038024054A200080000002072
:1047E000036A23F001030362036A70B544688269B7
:1047F0000D6822F073022A438D6823F002032B43D5
:104800000E4DA84202D00E4EB04210D1CE6823F019
:1048100008033343A84223F0040302D0084DA84202
:1048200005D1D1E9055624F4407435432C43446046
:1048300082614A684263036270BD00BF00000140AC
:1048400000040140036A23F480730362036A70B5B5
:104850004468C2690D6822F073022A438D6823F40C
:10486000007343EA0523114DA84203D005F5806586
:10487000A84214D1CD6823F4006343EA05230B4D0D
:10488000A84223F4806303D005F58065A84206D1D1
:10489000D1E9055624F44054354344EA05144460F4
:1048A000C2614A68C263036270BD00BF000001407C
:1048B000036A23F480530362036A30B54468C26913
:1048C0000D6822F4E64242EA05228D6823F4005383
:1048D00043EA0533084DA84203D005F58065A84298
:1048E00004D14D6924F4804444EA85144460C261D3
:1048F0004A680264036230BD0000014090F83D3018
:10490000012B2CD10223174A80F83D3003689342D3
:104910001AD0B3F1804F17D0A2F57C42934213D046
:1049200002F5806293420FD002F5806293420BD071
:1049300002F57842934207D002F57052934203D0B9
:10494000A2F59432934204D19A6802F00702062A33
:1049500003D01A6842F001021A600020704701205B
:10496000704700BF0000014030B590F83E2090F83D
:104970003F3090F8425090F84340D2B2DBB2EDB2F3
:10498000E4B2C9B9012A46D1012D46D1022380F8EB
:104990003E3080F8423003681A6A22F001021A623F
:1049A0001A6A42F001021A620268136843F00103B6
:1049B00013600023184630BD042911D1012B2AD1E0
:1049C000012CF7D1022380F83F3080F84330036890
:1049D0001A6A22F010021A621A6A42F01002E2E722
:1049E000012A18D1012B18D1012DE3D1012CE1D1DD
:1049F000022380F83E3080F83F3080F8423080F863
:104A0000433003681A6A22F001021A621A6A42F0FD
:104A100001021A62DCE70123CCE71346CAE7082942
:104A200010D004D841B1042909D0002070470C29C6
:104A3000FBD10368186C70470368586B70470368B4
:104A4000986B70470368D86B704770477047704722
:104A5000704703681A69910710B504460ED5DA68E5
:104A600092070BD56FF002021A61012202779B694F
:104A70009B0777D0FDF7F4FA0023237723681A69A0
:104A8000500710D5DA6851070DD56FF004021A618E
:104A9000022222779B6913F4407F204668D0FDF7FD
:104AA000DFFA0023237723681A6912070FD5DA6823
:104AB00010070CD56FF008021A6104222277DB6917
:104AC000990720465AD0FDF7CBFA002323772368B5
:104AD0001A69D20610D5DA68D0060DD56FF010022B
:104AE0001A6108222277DB6913F4407F20464BD0FD
:104AF000FDF7B6FA0023237723681A69D10708D592
:104B0000DA68D20705D56FF001021A612046FFF777
:104B10009CFF23681A69100608D5DA68110605D5C6
:104B20006FF080021A61204600F05BFD23681A696D
:104B3000520608D5DA68500605D56FF040021A61B2
:104B40002046FFF785FF23681A69910622D5DA68A7
:104B500092061FD56FF0200220461A61BDE8104072
:104B600000F03EBDFFF772FF2046FFF770FF83E7BE
:104B7000FFF76CFF2046FFF76AFF92E7FFF766FF3B
:104B80002046FFF764FFA0E7FFF760FF2046FFF72E
:104B90005EFFAFE710BD0000304A0368904212D0BC
:104BA000B0F1804F0FD0A2F57C4290420BD002F5BD
:104BB0008062904207D002F58062904203D002F5F5
:104BC0007842904219D14A6823F070031343234A74
:104BD000904229D0B0F1804F26D0A2F57C4290427D
:104BE00022D002F5806290421ED002F5806290428F
:104BF0001AD002F57842904216D0194A904213D04A
:104C000002F5806290420FD002F5806290420BD094
:104C1000A2F59832904207D002F58062904203D00C
:104C200002F58062904203D1CA6823F440731343B3
:104C30004A6923F08003134303608B68C3620B68E7
:104C40008362064B984203D003F58063984201D1FA
:104C50000B69036301234361704700BF00000140FB
:104C60000040014010B5044630B390F83D3003F0E9
:104C7000FF021BB980F83C20FEF7CEF80223206823
:104C800084F83D30211DFFF787FF012384F846306B
:104C9000002084F83E3084F83F3084F8403084F8B7
:104CA000413084F8423084F8433084F8443084F84A
:104CB000453084F83D3010BD0120FCE710B50446B6
:104CC00030B390F83D3003F0FF021BB980F83C2070
:104CD000FDF7E0FF0223206884F83D30211DFFF737
:104CE0005BFF012384F84630002084F83E3084F8CE
:104CF0003F3084F8403084F8413084F8423084F802
:104D0000433084F8443084F8453084F83D3010BD99
:104D10000120FCE710B5044630B390F83D3003F0B5
:104D2000FF021BB980F83C20FEF73AF80223206806
:104D300084F83D30211DFFF72FFF012384F8463012
:104D4000002084F83E3084F83F3084F8403084F806
:104D5000413084F8423084F8433084F8443084F899
:104D6000453084F83D3010BD0120FCE7F8B50D4614
:104D7000044600284DD090F83D3003F0FF021BB9E7
:104D800080F83C20FDF79EFF2146022384F83D3049
:104D900051F8040B836823F4804323F007038360F6
:104DA000FFF7FAFE20682A6886688369A968076A9F
:104DB0001643AA6923F4407341EA022123F0030356
:104DC0000B4323F47C422B69E9691B0143EA01236D
:104DD000E9680B43296A22F0FC0243EA01331343DA
:104DE000696927F0AA026F68866047EA0117836144
:104DF00017430123076284F84630002084F83E30D0
:104E000084F83F3084F8423084F8433084F83D30F1
:104E1000F8BD0120FCE70000036A23F010030362E1
:104E2000036A70B5446882690D6822F4E64242EA7A
:104E300005228D6823F0200343EA0513104DA84294
:104E400003D005F58065A84214D1CD6823F0800316
:104E500043EA05130A4DA84223F0400303D005F5A9
:104E60008065A84206D1D1E9055624F44064354353
:104E700044EA8504446082614A688263036270BDCB
:104E80000000014070B590F83C30012B054653D02E
:104E90000120082A85F83C003DD006D8C2B1042A7A
:104EA00028D0002385F83C3070BD0C2AF9D1286841
:104EB000FFF7FEFC2B680969DA6942F40062DA61E7
:104EC000DA6922F48062DA61DA6942EA012231E0C9
:104ED0002868FFF785FC2B6809699A6942F0080287
:104EE0009A619A6922F004029A619A690A439A6166
:104EF0000020D6E72868FFF78FFF2B6809699A69B9
:104F000042F400629A619A6922F480629A619A6915
:104F100042EA0122EBE72868FFF794FC2B68096955
:104F2000DA6942F00802DA61DA6922F00402DA6131
:104F3000DA690A43DA61DBE70220B5E770B5046A93
:104F40001A4E24F001040462B0428469056A29D033
:104F5000B0F1804F26D0A6F57C46B04222D006F5AF
:104F60008066B0421ED006F58066B0421AD006F5C3
:104F70007846B04216D006F57056B04212D0A6F56B
:104F80009436B0420ED044F001021B01DBB222F095
:104F9000F0021A4301F00A0125F00A031943826165
:104FA000016270BD24F003042243EEE700000140DB
:104FB000F8B590F83C30012B05460C4600F089808E
:104FC000012085F83C009AB9CB682868D1E9001225
:104FD000FFF7B4FF2B68A1689A6922F00C029A616E
:104FE0009A690A439A610020002385F83C30F8BD95
:104FF000042A23D12B681E6A26F01006D1E9002767
:10500000C9681E6298691E6A20F4407040EA072051
:10501000090320F4704089B21201014302F0A0029A
:1050200026F0A000024399611A629A69A16822F4ED
:1050300040629A619A6942EA0122D3E7082A22D1A2
:105040002B681E6A26F48076D1E90020C9681E62AA
:10505000DF691E6A27F003073843090120F0F000DA
:10506000C9B21202014302F4206226F42060024316
:10507000D9611A62DA69A16822F00C02DA61DA6990
:105080000A43DA61AFE70C2AAED12B681E6A26F418
:105090008056D1E90027C9681E62D8691E6A20F4CB
:1050A000407040EA0720090320F4704089B21203DF
:1050B000014302F4204226F420400243D9611A62DF
:1050C000DA69A16822F44062DA61DA6942EA01220F
:1050D000D7E702208BE710B58468114324F47F449E
:1050E00041EA03232343836010BD70B590F83C3040
:1050F000012B04464FF0020300F09180012280F85A
:105100003D3080F83C200068836823F47F4323F01F
:10511000770383600B68602B52D033D8402B67D065
:1051200016D8202B0DD00AD833F0100109D0012356
:1051300084F83D30002384F83C30104670BD302B9D
:10514000F5D1826822F07002134343F0070317E0A1
:10515000502BECD14A68CE68016A056A25F001053A
:105160000562836921F00A0123F0F00343EA061384
:105170000A4383610262836823F0700343F057039C
:10518000836011E0B3F5805F0ED0B3F5005F0DD002
:10519000702BCCD1CB68D1E90121FFF79CFF2268AD
:1051A000936843F0770393600022C0E7CB68D1E9AE
:1051B0000121FFF790FF2268936843F48043F2E7F0
:1051C0004D68CE68016A21F0100101628269036AAC
:1051D00022F4704223F0A00343EA051342EA0632A8
:1051E00082610362836823F0700343F06703C7E7BB
:1051F0004A68CE68016A056A25F00105056283697F
:1052000021F00A0123F0F00343EA06130A43836105
:105210000262836823F0700343F04703B0E71A4645
:105220008BE7036A01F01F0110B501248C4023EACB
:1052300004030362036A8A401A43026210BD00003D
:1052400010B5044629B990F83E30012B18D0012042
:105250002DE004290DD190F83F30013B18BF012308
:10526000002BF4D104294FF0020321D184F83F3000
:1052700009E008290CBF90F8403090F84130ECE785
:10528000022380F83E3020680122FFF7CAFF23681E
:105290001C498B4213D01C4A934210D0B3F1804F6B
:1052A00014D19A6802F00702062A26D1002010BD08
:1052B00008290CBF84F8403084F84130E3E75A6C89
:1052C0008B4242F400425A64EBD0E7E70F4A934224
:1052D000E7D002F580629342E3D002F58062934208
:1052E000DFD002F578429342DBD002F57052934250
:1052F000D7D0A2F594329342D3D01A6842F001027B
:105300001A60D3E70000014000040140000400409F
:10531000FFF796BF10B5044629B990F83E30012B2F
:105320001CD0012036E0042911D190F83F30013B18
:1053300018BF0123002BF4D104294FF002032AD116
:10534000226884F83F30D36843F004030DE0082955
:105350000CBF90F8403090F84130E8E70223026833
:1053600080F83E30D36843F00203D3602068012206
:10537000FFF757FF236822498B421ED0214A9342F0
:105380001BD0B3F1804F1FD19A6802F00702062AA2
:1053900031D1002010BD082906D1226884F84030A0
:1053A000D36843F00803E0E70C2984F84130B8D112
:1053B0002268D36843F01003D7E75A6C8B4242F45B
:1053C00000425A64E0D0DCE70F4A9342DCD002F599
:1053D00080629342D8D002F580629342D4D002F525
:1053E00078429342D0D002F570529342CCD0A2F5CD
:1053F00094329342C8D01A6842F001021A60C8E79A
:10540000000001400004014000040040FFF782BF9B
:1054100010B50446002943D190F83E3090F8420080
:10542000DBB2012BC0B272D1012870D10223002956
:105430004CD1226884F83E3084F84230D36843F07F
:105440000203D36020680122FFF7EBFE2368314A94
:1054500093421AD0B3F1804F17D0A2F57C42934209
:1054600013D002F5806293420FD002F5806293421E
:105470000BD002F57842934207D002F57052934266
:1054800003D0A2F59432934204D19A6802F0070245
:10549000062A03D01A6842F001021A60002037E0A1
:1054A000042905D190F83F3090F84300DBB2B8E70B
:1054B00008290BBF90F8403094F8413090F8440030
:1054C00094F845000CBFDBB2DBB2AAE7042908D18F
:1054D000226884F83F3084F84330D36843F00403F3
:1054E000AFE7082908D1226884F8403084F84430B6
:1054F000D36843F00803A4E70C2984F8413084F80A
:10550000453005D12268D36843F0100399E70120A4
:1055100010BD00BF0000014030B590F83C30012BB9
:105520004FF0020332D080F83D3003680D685C68AC
:105530009A6824F070042C435C60154CA3421AD086
:10554000B3F1804F17D0A4F57C44A34213D004F5E7
:105550008064A3420FD004F58064A3420BD004F50D
:105560007844A34207D004F57054A34203D0A4F5B5
:105570009434A34204D1496822F080020A439A601D
:10558000012380F83D30002380F83C30184630BDC0
:105590000000014090F83C30012B1FD0CB688A6896
:1055A00023F4407313434A6823F4806313430A6867
:1055B00023F4006313430A6923F4805313434A69B5
:1055C00023F400531343CA6923F48043134302684E
:1055D0005364002380F83C3018467047022070471F
:1055E00070477047026802F10C0353E8003F23F450
:1055F00090730C3242E8003102680029F2D102F1C6
:10560000140353E8003F23F0010302F1140C4CE8AB
:1056100000310029F3D1036B012B0BD102F10C03F4
:1056200053E8003F23F0100302F10C0C4CE800316A
:105630000029F3D1202380F83E3000230363704714
:105640000268C168136923F440530B4370B51361BA
:10565000054683680069D168034368690343E869C4
:1056600021F4164121F00C0103430B43D36053692D
:10567000A96923F440730B4353611F4B9A4203D033
:1056800003F580639A4223D1FFF79AF8EB69192159
:10569000B3F5004FD5E90046A0FB01011BD1B219BB
:1056A0004FF000035B41FBF7C7FA6421B0FBF1F553
:1056B00001FB1503DB003233B3FBF1F303F0070208
:1056C0005B0002EB051203F4F8731344A36070BD92
:1056D000FFF766F8DAE7B200B30FFBF7ADFA642222
:1056E000B0FBF2F102FB11031B013233B3FBF2F307
:1056F00003EB0113EAE700BF00100140F8B50446D0
:105700000E4617461D462268136836EA030301D188
:10571000002028E06B1CF7D025B1FDF7EDFCC01B85
:105720008542F0D2226802F10C0353E8003F23F4D3
:10573000D0730C3242E8003021680028F2D101F128
:10574000140353E8003F23F0010301F1140040E883
:105750000032002AF3D1202384F83D3084F83C2025
:1057600084F83E300320F8BD10B5044640B390F8ED
:105770003D3003F0FF021BB980F83C20FDF7BEFB73
:105780002268242384F83D30D36823F40053D36087
:105790002046FFF755FF23681A6922F490421A61E8
:1057A0005A6922F02A025A61DA6842F40052DA6039
:1057B00000202023206484F83D3084F83E3010BD62
:1057C0000120FCE7F7B5174690F83D200093202A0A
:1057D00004460E4649D1002945D0002F43D090F809
:1057E0003C20012A41D0012280F83C2000252122C2
:1057F000056480F83D20FDF77FFCA168009BA7842D
:10580000B1F5805F0246E78403D1216909B93546C5
:105810000E46002184F83C10E18C89B241B9402148
:105820002046FFF76BFF60B9202384F83D3009E084
:1058300080212046CDE90023FFF760FFDDE900234A
:1058400010B1032003B0F0BD20684EB935F8021B3B
:10585000C1F308014160E18C013989B2E184DBE7E1
:1058600016F8011BF6E70120ECE70220EAE7704793
:10587000704708B5806B0023C385C384FFF7F8FF2A
:1058800008BD704707B58168836A0268B1F5805F1B
:105890003ED1016900293ED15268C2F3080223F8C3
:1058A000022B8362C38D013B9BB2C385002B2CD19D
:1058B0000268D16821F02001D160D16821F48071A3
:1058C000D160516921F001015161202280F83E2010
:1058D000026B012A026828D1036302F10C0353E82A
:1058E000003F23F0100302F10C0C4CE800310029BA
:1058F000F3D11368DB0605D5019113680193536852
:105900000193019B818DFFF7BCFF03B05DF804FBA1
:1059100039B9016929B95268D2B21A70836A013360
:10592000BFE7526802F07F02F7E7FBF73BFCECE7CA
:10593000036837B51A68D9685D6912F00F0F04461D
:105940000CD1950670D58D066ED590F83E30222B81
:1059500064D103B0BDE83040FFF794BF05F001000B
:1059600001F4907505435FD0D50705D5CB0542BF3F
:10597000236C43F001032364550704D518B1236C4D
:1059800043F002032364930704D518B1236C43F05A
:1059900004032364150707D501F0200303431EBF4A
:1059A000236C43F008032364236C002B36D090064D
:1059B00008D58A0606D594F83E30222B02D120461F
:1059C000FFF760FF23685B69256C03F0400305F077
:1059D00008051D43204623D0FFF704FE22685369C3
:1059E0005B0618D502F1140353E8003F23F040038F
:1059F00002F1140040E800310029F3D1A06B50B14E
:105A0000724B0365FDF74EFE40B1A06B036D03B012
:105A1000BDE8304018472046FFF72AFF03B030BDED
:105A2000FFF726FF2564F9E7206B012840F09180FD
:105A3000D50640F18E80C80640F18B80002201928D
:105A40001A6801925A680192019A5A6955064CD512
:105A5000A16B0A68526892B2002ADFD0A08D9042F2
:105A6000DCD9E285CA69B2F5807F36D003F10C0239
:105A700052E8002F22F4807203F10C0040E800216C
:105A80000029F3D103F1140252E8002F22F00102A1
:105A900003F1140040E800210029F3D103F11402BE
:105AA00052E8002F22F0400203F1140040E80021E8
:105AB0000029F3D1202284F83E20216303F10C0257
:105AC00052E8002F22F0100203F10C0040E8002100
:105AD0000029F3D1A06BFDF7A1FDE38DA18DC91ABB
